:020000040800F2
:1000000000000120652200083D210008452100086C
:100010004D210008552100085D2100080000000066
:100020000000000000000000000000006521000842
:1000300071210008000000007D21000889210008CE
:10004000AD220008AD220008AD220008AD22000854
:10005000AD220008AD220008AD220008AD22000844
:10006000AD220008AD220008AD220008AD22000834
:10007000AD220008AD220008AD220008AD22000824
:10008000AD220008AD220008AD220008AD22000814
:10009000AD220008AD220008AD220008AD22000804
:1000A000AD220008AD220008AD220008AD220008F4
:1000B000AD220008AD220008AD220008AD220008E4
:1000C000AD220008AD220008AD220008AD220008D4
:1000D000AD220008AD220008AD220008AD220008C4
:1000E000AD220008AD220008AD220008AD220008B4
:1000F000AD220008AD220008AD220008AD220008A4
:10010000AD220008AD220008AD220008AD22000893
:10011000AD220008AD220008AD220008AD22000883
:10012000AD220008AD220008AD220008AD22000873
:1001300000000000000000000000000000000000BF
:1001400000000000000000000000000000000000AF
:10015000000000000000000000000000000000009F
:10016000000000000000000000000000000000008F
:10017000000000000000000000000000000000007F
:10018000000000000000000000000000000000006F
:10019000000000000000000000000000000000005F
:1001A000000000000000000000000000000000004F
:1001B000000000000000000000000000000000003F
:1001C000000000000000000000000000000000002F
:1001D000000000000000000000000000000000001F
:0401E0005FF8E0F1F3
:1001E400034613F8012B002AFBD1181A0138704773
:1001F4000348044B834202D0034B03B118477047B2
:100204005C0000205C000020000000000548064B54
:100214001B1AD90F01EBA301491002D0034B03B100
:10022400184770475C0000205C00002000000000BC
:1002340010B5064C237843B9FFF7DAFF044B13B12A
:100244000448AFF300800123237010BD5C0000203C
:1002540000000000282D000808B5054B1BB1054916
:100264000548AFF30080BDE80840FFF7CFBF00BFEB
:100274000000000060000020282D000880B400AFBA
:1002840000BFBD4680BC704780B582B000AF7860C7
:100294007B68002B01D1012376E07B685B6A002B2D
:1002A40008D17B685B68B3F5827F09D07B68002244
:1002B400DA6105E07B6800221A617B6800225A61DA
:1002C4007B6800229A627B6893F85130DBB2002B82
:1002D40006D17B68002283F85020786801F06CFE18
:1002E4007B68022283F851207B681B681A687B684C
:1002F4001B6822F040021A607B685B6803F4827218
:100304007B689B6803F404431A437B68DB6803F44B
:1003140000631A437B681B6903F002031A437B687A
:100324005B6903F001031A437B689B6903F4007360
:100334001A437B68DB6903F038031A437B681B6A42
:1003440003F0800342EA03017B689B6A03F40052D2
:100354007B681B680A431A607B689B691A0C7B687C
:100364001B6802F004025A607B681B68DA697B68C8
:100374001B6822F40062DA617B6800225A657B689C
:10038400012283F85120002318460837BD4680BD5A
:1003940080B588B000AFF860B9603B601346FB805D
:1003A40000F0F6FBF861FB887B83FB6893F851301F
:1003B400DBB2012B01D002232AE1BB68002B02D05F
:1003C400FB88002B01D1012322E1FB6893F8503014
:1003D400012B01D102231BE1FB68012283F8502089
:1003E400FB68032283F85120FB6800225A65FB68EE
:1003F400BA681A63FB68FA889A86FB68FA88DA8610
:10040400FB6800229A63FB6800229A87FB6800223B
:10041400DA87FB6800225A64FB6800221A64FB68CE
:100424009B68B3F5004F0FD1FB681B681A68FB6823
:100434001B6822F040021A60FB681B681A68FB689C
:100444001B6842F480421A60FB681B681B6803F057
:100454004003402B07D0FB681B681A68FB681B68C5
:1004640042F040021A60FB68DB68B3F5006F52D1BA
:10047400FB685B68002B02D07B8B012B45D1FB68AA
:100484001B6B1A88FB681B68DA60FB681B6B9A1C81
:10049400FB681A63FB68DB8E9BB2013B9AB2FB6874
:1004A400DA8632E0FB681B689B6803F00203022BC8
:1004B40012D1FB681B6B1A88FB681B68DA60FB6847
:1004C4001B6B9A1CFB681A63FB68DB8E9BB2013BB7
:1004D4009AB2FB68DA8618E000F05AFB0246FB6920
:1004E400D31A3A689A4203D83B68B3F1FF3F02D16A
:1004F4003B68002B09D1FB68012283F85120FB687B
:10050400002283F85020032382E0FB68DB8E9BB239
:10051400002BC7D153E0FB685B68002B02D07B8BB8
:10052400012B47D1FB681A6BFB681B680C331278EC
:100534001A70FB681B6B5A1CFB681A63FB68DB8E22
:100544009BB2013B9AB2FB68DA8633E0FB681B6816
:100554009B6803F00203022B13D1FB681A6BFB6840
:100564001B680C3312781A70FB681B6B5A1CFB68EF
:100574001A63FB68DB8E9BB2013B9AB2FB68DA8696
:1005840018E000F005FB0246FB69D31A3A689A4268
:1005940003D83B68B3F1FF3F02D13B68002B09D17C
:1005A400FB68012283F85120FB68002283F8502065
:1005B40003232DE0FB68DB8E9BB2002BC6D1FA69C6
:1005C4003968F86800F05AFA0346002B02D0FB6839
:1005D40020225A65FB689B68002B0AD100237B61AB
:1005E400FB681B68DB687B61FB681B689B687B613D
:1005F4007B69FB68012283F85120FB68002283F8A1
:100604005020FB685B6D002B01D0012300E0002328
:1006140018462037BD4680BD80B58AB000AFF8606B
:10062400B9607A607B8001237B6200F0B1FA3862A2
:10063400FB6893F85130FB77FB685B68BB617B8890
:10064400FB82FB7F012B0CD0BB69B3F5827F06D103
:10065400FB689B68002B02D1FB7F042B01D0022393
:100664007FE1BB68002B05D07B68002B02D07B8820
:10067400002B01D1012374E1FB6893F85030012B66
:1006840001D102236DE1FB68012283F85020FB684D
:1006940093F85130DBB2042B03D0FB68052283F8B6
:1006A4005120FB6800225A65FB687A689A63FB68EC
:1006B4007A88DA87FB687A889A87FB68BA681A634B
:1006C400FB687A88DA86FB687A889A86FB68002257
:1006D4001A64FB6800225A64FB681B681B6803F0F9
:1006E4004003402B07D0FB681B681A68FB681B6833
:1006F40042F040021A60FB68DB68B3F5006F7ED1FC
:10070400FB685B68002B02D0FB8A012B6CD1FB6871
:100714001B6B1A88FB681B68DA60FB681B6B9A1CEE
:10072400FB681A63FB68DB8E9BB2013B9AB2FB68E1
:10073400DA8659E0FB681B689B6803F00203022B0E
:100744001BD1FB68DB8E9BB2002B16D07B6A012B7E
:1007540013D1FB681B6B1A88FB681B68DA60FB68A3
:100764001B6B9A1CFB681A63FB68DB8E9BB2013B14
:100774009AB2FB68DA8600237B62FB681B689B687D
:1007840003F00103012B19D1FB68DB8F9BB2002B13
:1007940014D0FB681B68DA68FB689B6B92B21A8002
:1007A400FB689B6B9A1CFB689A63FB68DB8F9BB2AC
:1007B400013B9AB2FB68DA8701237B6200F0E8F917
:1007C40002463B6AD31A3A6B9A420DD83B6BB3F19B
:1007D400FF3F09D0FB68012283F85120FB68002207
:1007E40083F850200323BCE0FB68DB8E9BB2002B14
:1007F400A0D1FB68DB8F9BB2002B9BD182E0FB680E
:100804005B68002B02D0FB8A012B71D1FB681A6B49
:10081400FB681B680C3312781A70FB681B6B5A1C3C
:10082400FB681A63FB68DB8E9BB2013B9AB2FB68E0
:10083400DA865DE0FB681B689B6803F00203022B09
:100844001CD1FB68DB8E9BB2002B17D07B6A012B7B
:1008540014D1FB681A6BFB681B680C3312781A708E
:10086400FB681B6B5A1CFB681A63FB68DB8E9BB22C
:10087400013B9AB2FB68DA8600237B62FB681B6843
:100884009B6803F00103012B19D1FB68DB8F9BB23A
:10089400002B14D0FB681B68DA68FB689B6BD2B230
:1008A4001A70FB689B6B5A1CFB689A63FB68DB8FAE
:1008B4009BB2013B9AB2FB68DA8701237B6200F0AA
:1008C40067F902463B6AD31A3A6B9A4203D83B6BE8
:1008D400B3F1FF3F02D13B6B002B09D1FB6801222E
:1008E40083F85120FB68002283F85020032338E06A
:1008F400FB68DB8E9BB2002B9CD1FB68DB8F9BB229
:10090400002B97D13A6A396BF86800F0B7F80346C0
:10091400002B08D0FB6820225A65FB68002283F86C
:10092400502001231DE0FB689B68002B0AD10023A3
:100934003B61FB681B68DB683B61FB681B689B6869
:100944003B613B69FB68012283F85120FB6800226C
:1009540083F85020FB685B6D002B01D0012300E07D
:10096400002318462837BD4680BD000080B588B0F6
:1009740000AFF860B9603B601346FB7100F008F902
:100984000246BB6A9B1A3A681344FB6100F000F903
:10099400B861394B1B685B011B0DFA6902FB03F359
:1009A4007B6154E03B68B3F1FF3F50D000F0F0F8B6
:1009B4000246BB69D31AFA699A4202D9FB69002B31
:1009C4003DD1FB681B685A68FB681B6822F0E00293
:1009D4005A60FB685B68B3F5827F11D1FB689B6842
:1009E400B3F5004F04D0FB689B68B3F5806F07D163
:1009F400FB681B681A68FB681B6822F040021A60D7
:100A0400FB689B6AB3F5005F0FD1FB681B681A682B
:100A1400FB681B6822F400521A60FB681B681A68A2
:100A2400FB681B6842F400521A60FB68012283F8D9
:100A34005120FB68002283F85020032317E07B69D0
:100A4400002B01D10023FB617B69013B7B61FB68C7
:100A54001B689A68BB681340BA689A420CBF0123AA
:100A64000023DBB21A46FB799A429BD10023184635
:100A74002037BD4680BD00BF0000002080B586B091
:100A840002AFF860B9607A607B680093BB680122AA
:100A94000221F868FFF76AFF0346002B07D0FB68C2
:100AA4005B6D43F02002FB685A65032313E07B6807
:100AB4000093BB6800228021F868FFF757FF0346C4
:100AC400002B07D0FB685B6D43F02002FB685A657E
:100AD400032300E0002318461037BD4680BD000004
:100AE40080B500AF084B1B68074A43F0100313603E
:100AF400032000F0D7FE0F2000F008F801F048FBB7
:100B04000023184680BD00BF0020024080B582B09B
:100B140000AF7860124B1A68124B1B7819464FF4D9
:100B24007A73B3FBF1F3B2FBF3F3184600F0E1FE82
:100B34000346002B01D001230EE07B680F2B0AD85B
:100B4400002279684FF0FF3000F0B7FE064A7B6858
:100B54001360002300E0012318460837BD4680BD1A
:100B640000000020080000200400002080B400AF32
:100B7400054B1B781A46054B1B681344034A136044
:100B840000BFBD4680BC70470800002078000020EC
:100B940080B400AF024B1B681846BD4680BC70474A
:100BA4007800002080B584B000AF7860FFF7F0FFD4
:100BB400B8607B68FB60FB68B3F1FF3F05D00A4B6C
:100BC4001B781A46FB681344FB6000BFFFF7E0FF85
:100BD4000246BB68D31AFA689A42F7D800BF00BF2E
:100BE4001037BD4680BD00BF0800002080B586B028
:100BF40000AF78607B68002B01D1012372E27B682F
:100C04001B6803F00103002B00F08780924B5B68A4
:100C140003F00C03042B0CD08F4B5B6803F00C0324
:100C2400082B12D18C4B5B6803F48033B3F5803FFF
:100C34000BD1894B1B6803F40033002B6CD07B6809
:100C44005B68002B68D101234CE27B685B68B3F5D9
:100C5400803F06D1804B1B687F4A43F48033136086
:100C64002EE07B685B68002B0CD17B4B1B687A4AB7
:100C740023F480331360784B1B68774A23F4802372
:100C840013601DE07B685B68B3F5A02F0CD1724B39
:100C94001B68714A43F4802313606F4B1B686E4AD0
:100CA40043F4803313600BE06B4B1B686A4A23F4F4
:100CB40080331360684B1B68674A23F480231360F6
:100CC4007B685B68002B13D0FFF762FF386108E094
:100CD400FFF75EFF02463B69D31A642B01D9032355
:100CE40000E25D4B1B6803F40033002BF0D014E0EA
:100CF400FFF74EFF386108E0FFF74AFF02463B6901
:100D0400D31A642B01D90323ECE1534B1B6803F47E
:100D14000033002BF0D100E000BF7B681B6803F0B8
:100D24000203002B63D04C4B5B6803F00C03002BD5
:100D34000BD0494B5B6803F00C03082B1CD1464BCA
:100D44005B6803F48033002B16D1434B1B6803F01C
:100D54000203002B05D07B681B69012B01D0012302
:100D6400C0E13D4B1B6823F0F8027B685B69DB0044
:100D7400394913430B603AE07B681B69002B20D090
:100D8400364B01221A60FFF703FF386108E0FFF7D2
:100D9400FFFE02463B69D31A022B01D90323A1E1CA
:100DA4002D4B1B6803F00203002BF0D02A4B1B6869
:100DB40023F0F8027B685B69DB00274913430B606F
:100DC40015E0264B00221A60FFF7E2FE386108E0C6
:100DD400FFF7DEFE02463B69D31A022B01D9032337
:100DE40080E11D4B1B6803F00203002BF0D17B68EC
:100DF4001B6803F00803002B3AD07B689B69002B27
:100E040019D0174B01221A60FFF7C2FE386108E0BF
:100E1400FFF7BEFE02463B69D31A022B01D9032316
:100E240060E10D4B5B6A03F00203002BF0D001205C
:100E340000F0CEFA1CE00A4B00221A60FFF7A8FE6D
:100E440038610FE0FFF7A4FE02463B69D31A022B78
:100E540008D9032346E100BF0010024000004242CB
:100E640080044242924B5B6A03F00203002BE9D1F7
:100E74007B681B6803F00403002B00F0A6800023AA
:100E8400FB758B4BDB6903F08053002B0DD1884B32
:100E9400DB69874A43F08053D361854BDB6903F0F8
:100EA4008053BB60BB680123FB75824B1B6803F452
:100EB4008073002B18D17F4B1B687E4A43F48073E8
:100EC4001360FFF765FE386108E0FFF761FE024634
:100ED4003B69D31A642B01D9032303E1754B1B68C7
:100EE40003F48073002BF0D07B68DB68012B06D100
:100EF4006F4B1B6A6E4A43F0010313622DE07B685B
:100F0400DB68002B0CD16A4B1B6A694A23F001038E
:100F14001362674B1B6A664A23F0040313621CE0E6
:100F24007B68DB68052B0CD1614B1B6A604A43F07C
:100F3400040313625E4B1B6A5D4A43F001031362B0
:100F44000BE05B4B1B6A5A4A23F001031362584BB4
:100F54001B6A574A23F0040313627B68DB68002B87
:100F640015D0FFF715FE38610AE0FFF711FE0246BF
:100F74003B69D31A41F28832934201D90323B1E089
:100F84004B4B1B6A03F00203002BEED014E0FFF777
:100F9400FFFD38610AE0FFF7FBFD02463B69D31A07
:100FA40041F28832934201D903239BE0404B1B6AF0
:100FB40003F00203002BEED1FB7D012B05D13C4B4A
:100FC400DB693B4A23F08053D3617B68DB69002BE8
:100FD40000F08780364B5B6803F00C03082B61D06C
:100FE4007B68DB69022B46D1334B00221A60FFF782
:100FF400CFFD386108E0FFF7CBFD02463B69D31A09
:10100400022B01D903236DE0294B1B6803F0007305
:10101400002BF0D17B681B6AB3F5803F08D1244BC9
:101024005B6823F400327B689B68214913434B605F
:101034001F4B5B6823F474127B68196A7B685B6AD4
:101044000B431B4913434B601B4B01221A60FFF7F0
:101054009FFD386108E0FFF79BFD02463B69D31A08
:10106400022B01D903233DE0114B1B6803F00073ED
:10107400002BF0D035E0104B00221A60FFF788FDFA
:10108400386108E0FFF784FD02463B69D31A022B5E
:1010940001D9032326E0064B1B6803F00073002BE1
:1010A400F0D11EE07B68DB69012B07D1012319E035
:1010B4000010024000700040600042420B4B5B682D
:1010C400FB60FB6803F480327B681B6A9A4206D19A
:1010D400FB6803F470127B685B6A9A4201D00123B7
:1010E40000E0002318461837BD4680BD00100240BA
:1010F40080B584B000AF786039607B68002B01D183
:101104000123D0E06A4B1B6803F007033A689A4254
:1011140010D9674B1B6823F0070265493B681343EA
:101124000B60634B1B6803F007033A689A4201D0D3
:101134000123B8E07B681B6803F00203002B20D076
:101144007B681B6803F00403002B05D0594B5B68D4
:10115400584A43F4E06353607B681B6803F0080358
:10116400002B05D0534B5B68524A43F460535360E1
:10117400504B5B6823F0F0027B689B684D49134336
:101184004B607B681B6803F00103002B40D07B6835
:101194005B68012B07D1474B1B6803F40033002B1A
:1011A40015D101237FE07B685B68022B07D1414B9B
:1011B4001B6803F00073002B09D1012373E03D4B3E
:1011C4001B6803F00203002B01D101236BE0394BB0
:1011D4005B6823F003027B685B68364913434B600A
:1011E400FFF7D6FCF8600AE0FFF7D2FC0246FB6882
:1011F400D31A41F28832934201D9032353E02D4B91
:101204005B6803F00C027B685B689B009A42EBD13D
:10121400274B1B6803F007033A689A4210D2244B09
:101224001B6823F0070222493B6813430B60204BE1
:101234001B6803F007033A689A4201D0012332E0A5
:101244007B681B6803F00403002B08D0194B5B6810
:1012540023F4E0627B68DB68164913434B607B68C8
:101264001B6803F00803002B09D0124B5B6823F4BE
:1012740060527B681B69DB000E4913434B6000F02E
:1012840021F802460B4B5B681B0903F00F030A4964
:10129400CB5C22FA03F3094A1360094B1B68184616
:1012A400FFF734FC002318461037BD4680BD00BF4D
:1012B4000020024000100240642D000800000020BD
:1012C4000400002080B487B000AF0023FB6000233B
:1012D400BB6000237B6100237B6000233B611E4BCA
:1012E4005B68FB60FB6803F00C03042B02D0082B43
:1012F40003D027E0194B3B6127E0FB689B0C03F00C
:101304000F03174AD35C7B60FB6803F48033002B24
:1013140010D0114B5B685B0C03F00103114AD35CE2
:10132400BB607B680D4A03FB02F2BB68B2FBF3F3BC
:101334007B6104E07B680C4A02FB03F37B617B69FD
:101344003B6102E0054B3B6100BF3B6918461C371B
:10135400BD4680BC704700BF0010024000127A00F6
:101364007C2D00088C2D000800093D0080B400AFDE
:10137400024B1B681846BD4680BC70470000002025
:1013840080B500AFFFF7F2FF0246054B5B681B0A0E
:1013940003F007030349CB5C22FA03F3184680BD2C
:1013A40000100240742D000880B500AFFFF7DEFF87
:1013B4000246054B5B68DB0A03F007030349CB5C79
:1013C40022FA03F3184680BD00100240742D000871
:1013D40080B485B000AF78600A4B1B680A4AA2FB50
:1013E40003235B0A7A6802FB03F3FB6000BFFB681C
:1013F4005A1EFA60002BF9D100BF00BF1437BD4656
:1014040080BC704700000020D34D621080B48BB0C4
:1014140000AF7860396000237B6200233B6263E1A4
:1014240001227B6A02FA03F37B613B681B687A69D9
:1014340013403B613A697B699A4240F052813B68B0
:101444005B688B4A934247D0894A93425ED8894A63
:10145400934241D0874A934258D8874A93423BD01B
:10146400854A934252D8854A934235D0834A93425F
:101474004CD8834A93422FD0814A934246D8814A1A
:10148400934229D07F4A934240D8122B1FD0122B6B
:101494003CD8112B11D0112B38D8032B33D0032B6C
:1014A40034D8022B0ED0022B30D8002B14D0012BB1
:1014B4002CD13B68DB683B6229E03B68DB68043382
:1014C4003B6224E03B68DB6808333B621FE03B6817
:1014D400DB680C333B621AE03B689B68002B02D14B
:1014E40004233B6213E03B689B68012B05D108236E
:1014F4003B627B687A691A6109E008233B627B6876
:101504007A695A6103E000233B6200E000BF3B6953
:10151400FF2B02D87B68FB6102E07B680433FB612C
:101524003B69FF2B03D87B6A9B00BB6103E07B6AAA
:10153400083B9B00BB61FB691A680F21BB6901FA78
:1015440003F3DB431A40396ABB6901FA03F31A4314
:10155400FB691A603B685B6803F08053002B00F062
:10156400C080494B9B69484A43F001039361464B51
:101574009B6903F00103BB60BB68444A7B6A9B0818
:10158400023352F82330FB607B6A03F003039B00B1
:101594000F2202FA03F3DB43FA681340FB607B6813
:1015A4003B4A93421FD07B683A4A934219D07B68E6
:1015B400394A934213D07B68384A93420DD07B68F2
:1015C400374A934207D07B68364A934201D10523B8
:1015D4000AE0062308E0042306E0032304E00223D0
:1015E40002E0012300E000237A6A02F00302920081
:1015F4009340FA681343FB6024497B6A9B080233D7
:10160400FA6841F823203B685B6803F48013002BDD
:1016140006D0254B9A6824493B6913438B6006E046
:10162400214B9A683B69DB431F4913408B603B683D
:101634005B6803F40013002B06D01B4BDA681A49CD
:101644003B691343CB6006E0174BDA683B69DB4325
:1016540015491340CB603B685B6803F40033002BEF
:1016640024D0114B5A6810493B6913434B6024E062
:101674000000321000003110000022100000211080
:101684000000121000001110001002400000014080
:1016940000080140000C014000100140001401400A
:1016A40000180140001C014000040140154B5A6819
:1016B4003B69DB43134913404B603B685B6803F4AD
:1016C4008033002B06D00F4B1A680E493B69134335
:1016D4000B6006E00B4B1A683B69DB430949134076
:1016E4000B607B6A01337B623B681A687B6A22FA6F
:1016F40003F3002B7FF494AE00BF00BF2C37BD462C
:1017040080BC70470004014080B483B000AF7860AF
:101714000B467B8013467B707B78002B03D07A8842
:101724007B681A6103E07B881A047B681A6100BF36
:101734000C37BD4680BC704780B485B000AF78607C
:101744007B6803F00703FB600C4BDB68BB60BA6883
:101754004FF6FF031340BB60FB681A02BB681343D8
:1017640043F0BF6343F40033BB60044ABB68D360F7
:1017740000BF1437BD4680BC704700BF00ED00E0D9
:1017840080B400AF044BDB681B0A03F00703184660
:10179400BD4680BC704700BF00ED00E080B483B05C
:1017A40000AF03463960FB7197F90730002B0ADB61
:1017B4003B68DAB20C4997F907301201D2B20B44F4
:1017C40083F800230AE03B68DAB20849FB7903F0A6
:1017D4000F03043B1201D2B20B441A7600BF0C373C
:1017E400BD4680BC704700BF00E100E000ED00E0B2
:1017F40080B489B000AFF860B9607A60FB6803F028
:1018040007037B617B69033B042B04D87B69C3F129
:101814000703FB6101E00423FB617B690433062BAE
:1018240003D97B69033BBB6101E00023BB614FF03B
:10183400FF32FB6902FA03F3DA43BB681A40BB695F
:101844009A404FF0FF31BB6901FA03F3D9437B6837
:101854000B40134318462437BD4680BC7047000034
:1018640080B582B000AF78607B68013BB3F1807FC4
:1018740001D301230FE00A4A7B68013B53600F2127
:101884004FF0FF30FFF78AFF054B00229A60044BAC
:1018940007221A60002318460837BD4680BD00BFE2
:1018A40010E000E080B582B000AF78607868FFF7A0
:1018B40043FF00BF0837BD4680BD80B586B000AF8A
:1018C4000346B9607A60FB7300237B61FFF758FF1E
:1018D40078617A68B9687869FFF78AFF024697F9F0
:1018E4000F3011461846FFF759FF00BF1837BD46A1
:1018F40080BD80B582B000AF78607868FFF7B0FF34
:10190400034618460837BD4680BD80B582B000AF97
:1019140078607B68002B01D1012342E07B6893F857
:101924004130DBB2002B06D17B68002283F84020D3
:10193400786800F0B5FB7B68242283F841207B683B
:101944001B68DA687B681B6822F40052DA607868E6
:1019540000F072F97B681B681A697B681B6822F4C3
:1019640090421A617B681B685A697B681B6822F085
:101974002A025A617B681B68DA687B681B6842F438
:101984000052DA607B6800225A647B68202283F864
:1019940041207B68202283F842207B6800225A631E
:1019A400002318460837BD4680BD80B58AB002AF13
:1019B400F860B9603B601346FB8000237B61FB68E1
:1019C40093F84130DBB2202B75D1BB68002B02D0D9
:1019D400FB88002B01D101236EE0FB6800225A64CE
:1019E400FB68212283F84120FFF7D2F87861FB6875
:1019F400FA889A84FB68FA88DA84FB689B68B3F5F2
:101A0400805F08D1FB681B69002B04D10023FB61B4
:101A1400BB68BB6103E0BB68FB610023BB612EE0D4
:101A24003B6800937B6900228021F86800F048F845
:101A34000346002B05D0FB68202283F841200323B2
:101A44003AE0FB69002B0BD1BB691B881A46FB6883
:101A54001B68C2F308025A60BB690233BB6107E02A
:101A6400FB691A78FB681B685A60FB690133FB61E8
:101A7400FB68DB8C9BB2013B9AB2FB68DA84FB689F
:101A8400DB8C9BB2002BCBD13B6800937B6900229B
:101A94004021F86800F014F80346002B05D0FB68D9
:101AA400202283F84120032306E0FB68202283F8E8
:101AB4004120002300E0022318462037BD4680BDA4
:101AC40080B586B000AFF860B9603B601346FB7127
:101AD4003BE03B6AB3F1FF3F37D0FFF759F80246CA
:101AE4003B68D31A3A6A9A4202D33B6A002B01D16B
:101AF40003233AE0FB681B68DB6803F00403002B54
:101B040023D0BB68802B20D0BB68402B1DD0FB6842
:101B14001B681B6803F00803082B16D100237B61A4
:101B2400FB681B681B687B61FB681B685B687B61E7
:101B34007B69F86800F01DF8FB6808225A64FB68AA
:101B4400002283F8402001230FE0FB681B681A6819
:101B5400BB681340BA689A420CBF01230023DBB26E
:101B64001A46FB799A42B4D0002318461837BD466A
:101B740080BD80B495B000AF78607B681B680C337F
:101B84007B637B6B53E8003F3B633B6B23F49073B5
:101B9400FB647B681B680C33FA6C3A64FB63F96B77
:101BA4003A6C41E80023BB63BB6B002BE5D17B6837
:101BB4001B6814333B623B6A53E8003FFB61FB69DB
:101BC40023F00103BB647B681B681433BA6CFA62AC
:101BD400BB62B96AFA6A41E800237B627B6A002B24
:101BE400E5D17B681B6B012B19D17B681B680C3317
:101BF400FB60FB6853E8003FBB60BB6823F0100345
:101C04007B647B681B680C337A6CBA617B6179698D
:101C1400BA6941E800233B613B69002BE5D17B684D
:101C2400202283F842207B6800221A6300BF5437C5
:101C3400BD4680BC7047000080B584B000AF7860BA
:101C44007B681B681B6923F440517B68DA687B68F6
:101C54001B680A431A617B689A687B681B691A438C
:101C64007B685B691343BB607B681B68DB6823F498
:101C7400B05323F00C037A681268B9680B43D3603D
:101C84007B681B685B6923F440717B689A697B6895
:101C94001B680A435A617B681B682C4A934203D130
:101CA400FFF782FBF86002E0FFF76AFBF860FA686E
:101CB40013469B0013449A001A447B685B689B009C
:101CC400B2FBF3F3224AA2FB03235B091901FA686E
:101CD40013469B0013449A001A447B685B689B007C
:101CE400B2FBF3F21A4BA3FB02035B09642000FB73
:101CF40003F3D31A1B013233154AA2FB03235B09F6
:101D040003F0F0031944FA6813469B0013449A0045
:101D14001A447B685B689B00B2FBF3F20C4BA3FB99
:101D240002035B09642000FB03F3D31A1B01323363
:101D3400074AA2FB03235B0903F00F027B681B68BD
:101D44000A449A6000BF1037BD4680BD0038014088
:101D54001F85EB51B0B5A2B004AFFEF7C1FE00F091
:101D64004FF800F099F800F071F900F0EFF8214A0B
:101D740007F1700392E8030018600433197007F147
:101D840068030522FF21184600F030FB07F17003B9
:101D940005221946102000F09BFA07F1680305227A
:101DA4001946102000F0CCFA97F868301C4697F8D2
:101DB40069301D4697F86A3097F86B2097F86C10D5
:101DC400381D0291019200932B4622460A4900F0E5
:101DD400EBFA3B1D1846FEF703FA03469AB2391D87
:101DE40064230648FFF7E1FD4FF47A70FEF7DAFE4C
:101DF40000BFEEE75C2D0008402D0008D400002051
:101E040080B590B000AF07F11803282200211846CE
:101E140000F0ECFA3B1D00221A605A609A60DA6006
:101E24001A610123BB614FF48033FB6100233B62E1
:101E34000123BB6202237B634FF48033BB634FF403
:101E4400E013FB6307F118031846FEF7CFFE0346C1
:101E5400002B01D000F019F80F237B600223BB6034
:101E64000023FB604FF480633B6100237B613B1DD7
:101E740002211846FFF73CF90346002B01D000F07D
:101E840004F800BF4037BD4680BD80B400AF72B6D1
:101E940000BF00BFFDE7000080B586B000AF07F1CA
:101EA400080300221A605A609A60DA60244B9B6926
:101EB400234A43F004039361214B9B6903F0040319
:101EC4007B607B681E4B9B691D4A43F0080393614A
:101ED4001B4B9B6903F008033B603B680022012114
:101EE4001848FFF711FC012202211648FFF70CFCE9
:101EF40000224FF4E0711448FFF706FC0323BB6093
:101F04000123FB6000233B6101237B6107F108038C
:101F140019460C48FFF77AFA4FF4E073BB600123CB
:101F2400FB6000233B6101237B6107F10803194631
:101F34000548FFF76BFA00BF1837BD4680BD00BFE8
:101F44000010024000080140000C014080B500AFC1
:101F5400174B184A1A60164B4FF482725A60144B8E
:101F640000229A60124B0022DA60114B00221A619F
:101F74000F4B00225A610E4B4FF400729A610C4BC6
:101F84001022DA610A4B00221A62094B00225A62BB
:101F9400074B00229A62064B0A22DA620448FEF7D3
:101FA40073F90346002B01D0FFF76FFF00BF80BD1C
:101FB4007C0000200030014080B588B000AF78601C
:101FC40007F1100300221A605A609A60DA607B6895
:101FD4001B681B4A93422FD11A4B9B69194A43F43D
:101FE40080539361174B9B6903F48053FB60FB6838
:101FF400144B9B69134A43F004039361114B9B698F
:1020040003F00403BB60BB68A0233B6102237B6134
:102014000323FB6107F1100319460B48FFF7F6F998
:1020240040233B6100237B610023BB6107F1100364
:1020340019460548FFF7EAF900BF2037BD4680BDC1
:1020440000300140001002400008014080B500AF9C
:10205400114B124A1A60104B4FF4E1325A600E4B86
:1020640000229A600C4B0022DA600B4B00221A61AA
:10207400094B0C225A61084B00229A61064B00223C
:10208400DA610548FFF741FC0346002B01D0FFF756
:10209400FCFE00BF80BD00BFD4000020003801401A
:1020A40080B588B000AF786007F1100300221A6091
:1020B4005A609A60DA607B681B681C4A934231D18B
:1020C4001B4B9B691A4A43F480439361184B9B69E9
:1020D40003F48043FB60FB68154B9B69144A43F08F
:1020E40004039361124B9B6903F00403BB60BB6858
:1020F4004FF400733B6102237B610323FB6107F10F
:10210400100319460B48FFF781F94FF480633B61D4
:1021140000237B610023BB6107F1100319460548C6
:10212400FFF774F900BF2037BD4680BD0038014079
:10213400001002400008014080B400AF00BFFDE77A
:1021440080B400AF00BFFDE780B400AF00BFFDE77F
:1021540080B400AF00BFFDE780B400AF00BFFDE76F
:1021640080B400AF00BFBD4680BC704780B400AFF0
:1021740000BFBD4680BC704780B400AF00BFBD4601
:1021840080BC704780B500AFFEF7F0FC00BF80BD97
:1021940080B485B000AF154B9B69144A43F001032A
:1021A4009361124B9B6903F00103BB60BB680F4B47
:1021B400DB690E4A43F08053D3610C4BDB6903F0B7
:1021C40080537B607B680A4B5B68FB60FB6823F091
:1021D400E063FB60FB6843F08063FB60044AFB68D8
:1021E400536000BF1437BD4680BC704700100240E6
:1021F4000000014080B586B000AF7860144A154BEA
:10220400D31A7B617B693B61134B1B68002B02D1A2
:10221400114B124A1A60104B1A687B6813443A69CE
:102224009A4207D200F0EAF803460C221A604FF0F3
:10223400FF3309E0084B1B68FB60074B1A687B6897
:102244001344054A1360FB6818461837BD4680BD21
:1022540000000120000400001C010020680200208E
:10226400FEF70CF80B480C490C4A002302E0D45842
:10227400C4500433C4188C42F9D3094A094C0023CE
:1022840001E013600432A242FBD300F0BDF8FFF773
:1022940061FD7047000000205C000020D42D000880
:1022A4005C00002068020020FEE7000080B582B0D8
:1022B40000AF0346FB71FB791A4602210348FFF77E
:1022C40023FA00BF0837BD4680BD00BF00080140A7
:1022D40080B586B002AF03463960FB711346BB80FC
:1022E400FB795BB203F01F035BB243F020035BB2E4
:1022F400DBB2FB710020FFF7D9FF07F10F02F91DD4
:102304006423009301230D48FEF786F9BB88002B54
:102314000AD0BA88642339680848FEF739F80346B6
:10232400002B03D0FF2305E0FF2303E00120FFF788
:10233400BDFFFB7B18461037BD4680BD7C000020E6
:1023440080B586B002AF03463960FB711346BB808B
:10235400FF23BB73FB7903F01F03DBB2FB71002087
:10236400FFF7A4FF07F10F02F91D64230093012373
:102374000C48FEF751F9BB88002B0DD0BB8807F140
:102384000E01642200923A680648FEF745F90120DE
:10239400FFF78CFFFB7B00E0FF2318461037BD4698
:1023A40080BD00BF7C0000200EB46FF0004110B56A
:1023B40000249DB01FAB0290069007910491094838
:1023C400094953F8042B0591006802A901931B9451
:1023D40000F094F9029B1C701DB0BDE8104003B0DE
:1023E400704700BF0C0000200802FFFF03460244B0
:1023F400934200D1704703F8011BF9E7014B1868B9
:10240400704700BF0C00002070B500260C4C0D4B2B
:102414001D1BB6EBA50F09D1002600F083FC0A4C66
:102424000A4B1D1BB6EBA50F05D170BD54F8043B38
:1024340098470136EDE754F8043B98470136F1E735
:10244400CC2D0008CC2D0008CC2D0008D02D000880
:102454007047704737B5002942D051F8043C0C1F2F
:10246400002BB8BFE418019000F0DCF81D4A019875
:10247400136833B96360146003B0BDE8304000F002
:10248400D7B8A34208D9256861198B4201BF1968DE
:102494005B6849192160EDE71A465B680BB1A342FA
:1024A400FAD911685518A5420BD12468214454184F
:1024B400A3421160E0D11C685B680C441460536053
:1024C400DAE702D90C230360D6E7256861198B4249
:1024D40001BF19685B684919216063605460CBE7E8
:1024E40003B030BD6402002070B50F4C0E46216865
:1024F400054611B900F0B4FB20603146284600F0CF
:10250400AFFB431C03D14FF0FF34204670BDC41C05
:1025140024F00304A042F8D0211A284600F0A0FBBE
:102524000130F2D1EFE700BF600200202DE9F8434B
:10253400CD1C25F0030508350C2D38BF0C25002DC6
:10254400064601DBA94204D90C2333600020BDE810
:10255400F883334F00F066F83B681C463CBB2946C1
:102564003046FFF7C1FF431C044656D13C68A046E1
:10257400B8F1000F40D1002C49D0236841463046C1
:1025840004EB030900F06CFB814540D1216830461F
:102594006D1A2946FFF7A8FF013038D023682B4471
:1025A40023603B685A685ABBC7F800800EE0226873
:1025B400521B1ED40B2A16D96119A342256018BFD9
:1025C4005960636808BF396062514B60304600F05F
:1025D4002FF804F10B00231D20F00700C21A1CBFC2
:1025E4001B1AA350B3E76268A3420CBF3A605A6057
:1025F400ECE723466468B1E74446D8F80480B7E7BB
:102604001A465B68A342FBD100235360DEE70C2328
:102614003046336000F00CF898E70560D6E700BF59
:10262400640200200148FFF713BF00BF5C020020D2
:102634000148FFF70EBF00BF5C0200202DE9F04700
:102644001F468E688246BE420C469046334653D897
:10265400B1F90C0010F4906F2BD0656923680969F7
:1026640005EB4505A3EB010905EBD5757B1C6D1046
:102674004B44AB422A4684BF1D462A46430527D510
:1026840011465046FFF752FF064658B34A462169A1
:1026940000F004FBA38923F4906343F08003A38137
:1026A40026614E4426603B463E466561A5EB09051E
:1026B400A5601F463A464146206800F0B7FA00205C
:1026C400A3689B1BA36023683B442360BDE8F08799
:1026D400504600F0F1FA06460028E1D1504621693F
:1026E400FFF7B8FE0C23CAF80030A3894FF0FF307F
:1026F40043F04003A381E9E73E46DBE72DE9F047D9
:102704001F468B8906461B060D4614469CB010D501
:102714000B6973B94021FFF709FF2860286130B9BC
:102724000C2333604FF0FF301CB0BDE8F08740232A
:102734006B610023099320238DF8293030234FF057
:1027440001080397644F8DF82A3023461A78994676
:102754001AB1252A03F10103F8D1B9EB040A0BD00D
:102764005346224629463046FFF768FF013000F001
:10277400A380099A5244099299F80030002B00F082
:102784009B8000224FF0FF33CDE9053209F10109A6
:10279400049207928DF853201A924C46052214F89D
:1027A400011B4D4800F06CFA049AD0B9D00644BF1E
:1027B40020238DF85330110744BF2B238DF8533059
:1027C40099F800302A2B13D04B4600204FF00A0C06
:1027D40007991A781C46303A092A4AD9A8B10791B0
:1027E40013E0C01B08FA00F01043A1460490D4E79C
:1027F400039B191D1B680391002BBBBF5B4242F076
:10280400020207930793B8BF049223782E2B0AD1B0
:1028140063782A2B32D1039B02341A1D1B6803925E
:1028240043EAE3730593DFF8B49003224846217822
:1028340000F026FA38B14022049BA0EB0900824044
:102844001343013404932178062225488DF8281077
:1028540000F016FA002835D0224818BB039B073332
:1028640023F0070308330393099B013403440993BA
:102874006BE701200CFB01210133AAE700234FF091
:102884000A0C18460593611C0A780C46303A092A4A
:1028940003D9002BC7D00590C5E701230CFB00200A
:1028A4000131F1E703AB00932A4630460E4B04A9ED
:1028B400AFF30080421CD7D1AB895B063FF532AF42
:1028C400099831E703AB00932A463046064B04A926
:1028D40000F082F8EEE700BF8E2D0008942D00086A
:1028E400982D000800000000412600082DE9F0475B
:1028F400914698468A680B6907469342B8BF1346C7
:10290400C9F8003091F843200C46089E12B10133F7
:10291400C9F800302368990642BFD9F80030023361
:10292400C9F80030256815F0060507D104F1190A25
:10293400E368D9F800209B1AAB4229DC94F84330B1
:102944002268003B18BF012392062ED44146384624
:1029540004F14302B047013021D02368A16803F099
:102964000603042B12BF0025E568D9F8003022695C
:1029740004BFED1A25EAE5758B1A2B449142C8BFB2
:102984001D464FF000091A344D451AD1002008E0C5
:102994000123524641463846B047013003D14FF037
:1029A400FF30BDE8F0870135C2E73020E11881F837
:1029B40043005A1C94F845102244023382F8431011
:1029C400C4E70123224641463846B0470130E6D0E9
:1029D40009F10109D8E700002DE9F04398460B7E80
:1029E40085B0782B174606460C460C9A09D8622BFC
:1029F40001F1430108D8002B00F0DC80582B00F0D3
:102A0400BD8004F1420539E0A3F163001528F8D82C
:102A140001A555F820F000BF752A0008892A00088E
:102A2400072A0008072A0008072A0008072A0008BE
:102A3400892A0008072A0008072A0008072A00082C
:102A4400072A0008992B0008B52A0008472B00081C
:102A5400072A0008072A0008C12B0008072A0008D3
:102A6400B52A0008072A0008072A00084F2B000887
:102A7400136804F14205191D1B68116084F8423083
:102A84000123A8E013682568181D1060280601D5E5
:102A94001B6803E06A06FBD5B3F90030002B03DAA8
:102AA4002D225B4284F843200A22DFF878C113E028
:102AB4002568106815F0800F50F8043B02D16D06AC
:102AC40048BF9BB21060227EDFF858C16F2A5DD1E7
:102AD4000822002084F843006568002DA56005DB0A
:102AE40020681D4320F00400206051D00D46B3FB44
:102AF400F2F002FB103E1CF80EE09A4205F801EDDC
:102B04000346F4D9082A0BD12368DA0708D52369C8
:102B140062689A42DEBF302305F8013C05F1FF35B7
:102B2400491B21613B4621463046CDF8008003AA6B
:102B3400FFF7DCFE013053D14FF0FF3005B0BDE8A4
:102B4400F083236843F0200323607823DFF8D8C0A0
:102B540084F845302068156810F0800F55F8043B60
:102B640003D110F0400F18BF9BB21560C50744BFD6
:102B740040F02000206023B11022AAE7DFF8A4C0AF
:102B8400E6E7226822F020022260F5E70A22A0E7A5
:102B94000D46B7E71368D4F800C01D1D60691CF02A
:102BA400800F15601B6801D0186003E01CF0400F13
:102BB400FAD0188000230D462361B3E71368191D6A
:102BC40011601D6800212846626800F059F808B1B8
:102BD400401B606063682361002384F84330A1E7ED
:102BE4002A46394630462369C0470130A4D02368B9
:102BF4009B0714D4E068039B9842B8BF18469DE72E
:102C040001233946304604F11902C047013093D0FC
:102C14000135E36803995B1AAB42F1DCEAE700256E
:102C2400F7E700BF9F2D0008B02D0008884210B5BB
:102C340001EB020402D98442234607D8431EA14271
:102C440007D011F8012B03F8012FF8E70244824260
:102C540000D110BD13F8011D02F8011DF7E70000B3
:102C640038B50023054C054608462360FFF7C2FA31
:102C7400431C02D1236803B12B6038BD58020020E5
:102C8400034610B5C9B20244934201D1002004E0C6
:102C94001846047801338C42F6D110BD0A4491429F
:102CA40000F1FF3300D1704710B511F8014B914288
:102CB40003F8014FF9D110BD2DE9F041074615463F
:102CC4000C4621B91146BDE8F041FFF72FBC2AB9E3
:102CD400FFF7C0FB2C462046BDE8F08100F01AF84F
:102CE4008542064602D8B5EB500FF4D8294638463B
:102CF400FFF71CFC804608B94446ECE7B5422A4677
:102D0400214628BF3246FFF7C9FF21463846FFF760
:102D1400A1FBF1E751F8043C181F002BBCBF0B5872
:102D2400C0187047F8B500BFF8BC08BC9E46704791
:0C2D3400F8B500BFF8BC08BC9E46704714
:102D40002530325820253032582025303258202561
:102D500030325820253032580A00000000010203AA
:102D60000400000000000000000000000102030455
:102D7000060708090000000001020304020304051D
:102D8000060708090A0B0C0D0E0F10100102232D67
:102D9000302B2000686C4C00656667454647003064
:102DA00031323334353637383941424344454600B1
:102DB00030313233343536373839616263646566B1
:042DC000000000000F
:082DC40020D4FF7F0100000094
:042DCC005D0200089C
:042DD00035020008C0
:102DD40000127A0010000000010000001000002022
:102DE400000000002001002088010020F0010020E4
:102DF40000000000000000000000000000000000CF
:102E040000000000000000000000000000000000BE
:102E140000000000000000000000000000000000AE
:0C2E2400000000000000000000000000A2
:040000050800226568
:00000001FF
