:020000040800F2
:10000000101E0020DD010008C7100008890F00083D
:10001000C51000080F030008BB1400080000000012
:100020000000000000000000000000004501000882
:10003000110300080000000089010008F910000801
:10004000F7010008F7010008F7010008F7010008B0
:10005000F7010008F7010008F7010008F7010008A0
:10006000F7010008F7010008F7010008F701000890
:10007000F7010008F7010008F7010008F701000880
:10008000F7010008F7010008F7010008F701000870
:10009000F7010008F7010008F7010008F701000860
:1000A000F7010008F7010008F7010008F701000850
:1000B000F7010008F7010008F7010008F701000840
:1000C000F7010008F7010008F7010008F701000830
:1000D000F7010008F7010008F7010008F701000820
:1000E000F7010008F7010008F7010008F701000810
:1000F000F7010008F7010008F7010008F701000800
:10010000F7010008F7010008F7010008F7010008EF
:10011000F7010008F7010008F70100087511000851
:10012000F7010008F7010008F7010008F7010008CF
:10013000DFF80CD000F0CAF800480047611700084B
:10014000101E0020224B19680868B0E8F00F80F3F9
:100150000988BFF36F8F4FF0000080F311884EF0D5
:100160000D0E70470000000006480068006880F32C
:10017000088862B661B6BFF34F8FBFF36F8F00DFA1
:1001800000BF00BF08ED00E0EFF30980BFF36F8F01
:100190000F4B1A6820E9F00F106008B54FF05000BF
:1001A00080F31188BFF34F8FBFF36F8F02F0F0FA27
:1001B0004FF0000080F31188BDE808401968086816
:1001C000B0E8F00F80F30988BFF36F8F704700BF6E
:1001D00028000020EFF305807047000006488047A4
:1001E00006480047FEE7FEE7FEE7FEE7FEE7FEE71C
:1001F000FEE7FEE7FEE7FEE77111000831010008A7
:10020000202A04DB203A21FA02F00021704721FA6B
:1002100002F3D040C2F120029140084319467047D2
:1002200040EA01039B0703D009E008C9121F08C078
:10023000042AFAD203E011F8013B00F8013B521EF8
:10024000F9D27047D2B201E000F8012B491EFBD26F
:1002500070470022F6E710B513460A4604461946D1
:10026000FFF7F0FF204610BD2DE9F05F05460020A6
:1002700092469B4688460646814640241BE0284617
:10028000414647462246FFF7BBFF53465A46C01A2F
:10029000914110D311461846224600F029F82D1A34
:1002A00067EB01084F4622460120002100F020F8AC
:1002B00017EB00094E41201EA4F10104DFDC484683
:1002C00031462A464346BDE8F09F0000064C074DE4
:1002D00006E0E06840F0010394E807009847103416
:1002E000AC42F6D3FFF728FF18360008383600086E
:1002F000202A04DB203A00FA02F1002070479140E6
:10030000C2F1200320FA03F3194390407047FEE73F
:10031000704772B6FEE7000070B5044600F010F9B1
:100320000546601C02D004480078044400F008F937
:10033000401BA042FAD370BD180000202DE9F84FF1
:10034000DFF8C8910024A9F1040B23460F2709F117
:10035000040AABF1040ED1E00125A54006EA05022E
:10036000AA4276D1DFF8A8C14E68A6EB0C08664514
:100370002BD00DDC032E34D005DC36B3012E19D082
:10038000022E2FD11BE0112E16D0122E2AD119E0E9
:10039000B8F5881F19D006DCB8F5803F15D0B8F540
:1003A000801F1FD111E0B8F5001F0ED0B8F5041F53
:1003B00018D10AE0CB6815E0CB681B1D12E0CB68B2
:1003C00008330FE0CB680C330CE08B682BB1012BAA
:1003D0004FF0080303D0456104E0042302E0056107
:1003E00000E00023FF2A01D8064601E000F10406E0
:1003F0004FEA840501D9A5F12005D6F8008007FA57
:1004000005FC28EA0C0803FA05F548EA0508C6F8D1
:1004100000804D68ED0070D53E4DAE6946F0010696
:10042000AE61AD6924F0030605F0010500953A4D73
:1004300006EB050CDCF80850A607360F07FA06F89D
:1004400025EA0805DFF8D480404503D14FF00008C5
:1004500025E052E0DFF8C880404502D14FF00108A6
:100460001DE0DFF8C080404502D14FF0020816E0E1
:10047000DFF8B480404502D14FF003080FE0DFF809
:10048000AC80404502D14FF0040808E0DFF8A080BE
:10049000404502D14FF0050801E04FF0060808FA88
:1004A00006F848EA0508CCF808804D68D9F80060DD
:1004B000ED024D4601D5164300E096432E604D688F
:1004C000DAF80060AD02554601D5164300E09643C8
:1004D0002E604D68DBF80060AD035D4601D5164324
:1004E00000E096432E604D68DEF80060ED0375462F
:1004F00001D5164300E096432E60641C0A68164638
:10050000E2407FF429AFBDE8F88F00000804014005
:1005100000001110001002400000014000080140DE
:10052000000C01400010014000140140001801407F
:10053000001C01400AB1016170470904FBE700009B
:100540000148806870470000180000200248816858
:10055000027811448160704718000020074810B5E8
:10056000016841F010010160032000F0A7F80F209E
:1005700000F006F800F050F8002010BD0020024006
:1005800030B505461F4887B0C16941F02001C161FF
:10059000C06906A900F02000009001A800F036F91B
:1005A0000498B0B100F052F940001749174AB0FB67
:1005B000F1F11748491E0260416040F2E732002124
:1005C000C0E903218160816100F018FB040003D0C1
:1005D00015E000F03BF9E8E70D4800F03DFB0400B2
:1005E0000DD1372000F03CF8102D07D2002229460B
:1005F000372000F043F80748056000E0012407B009
:10060000204630BD0010024040420F000014004060
:10061000F40000201C0000200F4808B5816941F05B
:1006200001018161816901F001010091C16941F01D
:100630008051C161C069002200F0805000900F21FC
:10064000901E00F01BF80548416821F0E06141F080
:100650000071416008BD0000001002400000014030
:10066000002809DB00F01F020121914040098000B1
:1006700000F1E020C0F8001170470000F0B40E4B0C
:100680001B680C46C3F30223C3F10705042D00D9F0
:100690000425191D072901D2002300E0DB1E0126D5
:1006A00006FA05F1491E214099409E40761E1640EB
:1006B0003143F0BC00F012BF0CED00E0064900F041
:1006C000070208684FF6FF03184040EA0220034A79
:1006D00010430860704700000CED00E00000FA05D0
:1006E0002DE9F0470F46050061D0434E306800F019
:1006F0000700B84209D2306820F007003843306064
:10070000306800F00700B84251D128683B4C81079F
:1007100012D5400703D5606840F4E0606060287837
:10072000000703D5606840F4605060606068A968A5
:1007300020F0F000084360602878C00728D068687F
:10074000012810D02168022810D0890700292EDA4C
:10075000616821F0030101436160FFF7F1FE80460B
:1007600041F288390DE021688903EFE78901EDE75F
:10077000FFF7E6FEA0EB0801494502D90320BDE8DA
:10078000F0876068696800F00C00B0EB810FEFD172
:10079000306800F00700B8420BD9306820F007003D
:1007A00038433060306800F00700B84201D00120C3
:1007B000E5E72878400705D56068E96820F4E0603F
:1007C000084360602878000706D56068296920F42E
:1007D000605040EAC100606000F058F86168084A63
:1007E000C1F30311515CC84006490860064800681F
:1007F000FFF7C6FE0020C2E70020024000100240C2
:10080000C6350008240000201C0000200F220260D2
:100810000C4A536803F003034360536803F0F0038A
:100820008360536803F4E063C36052684FF4E0638D
:1008300003EAD20202610448006800F00700086081
:1008400070470000001002400020024004480549A3
:1008500000684968044AC1F30221515CC8407047EE
:100860002400002000100240D63500080448054945
:1008700000684968044AC1F3C221515CC84070470E
:100880002400002000100240D63500080E4A5168AE
:100890000E4801F00C03042B11D0082B0FD10C488B
:1008A000C1F38343C903C05C0AD55168084AC1F348
:1008B0004041921E515C054A5043B0FBF1F0704735
:1008C00004494843704700000010024000127A00BB
:1008D000B635000800093D002DE9F84F040070D03E
:1008E0002078C04DC00749D06868C0F38100012856
:1008F00007D06868C0F38100022809D16868C00386
:1009000006D52868800339D560680028E7D035E02F
:100910006068B0F5803F0BD010B1B0F5A02F11D0BA
:10092000286820F480302860286820F4802002E0C5
:10093000286840F480302860606890B1FFF700FEBE
:1009400006460AE0286840F480202860F0E700BFEF
:10095000FFF7F6FD801B642873D828688003F7D55D
:100960000CE0FFF7EDFD064605E000BFFFF7E8FDF0
:10097000801B6428F0D828688003F7D420789A4E2A
:1009800080074FF001094FF0000839D5686810F072
:100990000C0F07D06868C0F38100022809D168688D
:1009A000C00306D42868800714D52069012808D11F
:1009B00010E02069B0B1C6F80090FFF7C1FD07460E
:1009C00005E00AE1FFF7BCFDC01B0228C4D8286877
:1009D0008007F7D52868616920F0F80040EAC10077
:1009E00028600DE0C6F80080FFF7AAFD074604E086
:1009F000FFF7A6FDC01B022823D828688007F7D47C
:100A0000207800072CD57948A169D9B1C0F80090A9
:100A1000FFF796FD074604E0FFF792FDC01B022892
:100A20000FD8686A8007F7D571484FF4FA5100680B
:100A3000B0FBF1F0009000BF0098411E0091FAD287
:100A40000EE080E0C0F80080FFF77AFD074604E082
:100A5000FFF776FDC01B022875D8686A8007F7D4B7
:100A60002078400760D5E8690027C00008D4E8690D
:100A700040F08050E861E869012700F08050009064
:100A80005C480168C90513D40168834641F480714C
:100A90000160FFF755FD824606E000BFFFF750FDFD
:100AA000A0EB0A0064284ED8DBF80000C005F5D59D
:100AB000E06801280AD008B1052813D0286A20F080
:100AC00001002862286A20F0040002E0286A40F051
:100AD00001002862E06841F2883B98B1FFF730FDE1
:100AE00082460BE0286A40F004002862EEE700BF6F
:100AF000FFF726FDA0EB0A0159455AD8286A80075E
:100B0000F6D50CE0FFF71CFD824605E0FFF718FD67
:100B1000A0EB0A0159454CD8286A8007F6D41FB1CA
:100B2000E86920F08050E861E06988B36968C1F342
:100B30008101022944D00228C6F8608004D0FFF762
:100B4000FFFC044638E034E0FFF7FAFC074604E017
:100B5000FFF7F6FCC01B02282BD828688001F7D4C9
:100B6000206AB0F5803F05D16868A16820F40030A4
:100B700008436860D4E908010843696821F47411E6
:100B800008436860C6F86090FFF7DAFC044606E0A8
:100B900025E000BFFFF7D4FC001B022809D8286815
:100BA0008001F7D51BE000BFFFF7CAFC001B02283D
:100BB00002D90320BDE8F88F28688001F4D40EE044
:100BC0000128F7D06868226A00F48031914204D18C
:100BD000616A00F47010884201D00120EAE7002029
:100BE000E8E7000000100240000042428004424258
:100BF00024000020007000407047704710B50400CA
:100C000003D094F83D0010B107E0012010BD002092
:100C100084F83C00204600F01EF8022084F83D00D5
:100C2000211D206800F0ACFA012084F8460084F809
:100C30003E0084F83F0084F8400084F8410084F8C6
:100C4000420084F8430084F8440084F8450084F8A6
:100C50003D00002010BD704790F83D10012901D0E3
:100C600001207047022180F83D100168CA6842F0F7
:100C70000102CA6000680E4988420ED00D498842C0
:100C80000BD0B0F1804F08D00B49884205D00B49FA
:100C9000884202D00A49884204D1816801F00701E4
:100CA000062903D0016841F001010160002070476E
:100CB000002C0140003401400004004000080040C6
:100CC000000C004070472DE9F04104460068C668FA
:100CD00005694FF00007A90713D5B10711D5F91E13
:100CE000016101202077206880698007204602D0BA
:100CF000FFF7E8FF04E000F07EF8204600F07CF803
:100D00002777680716D5700714D521686FF004009F
:100D10000861022020772068806910F4407F204617
:100D200002D0FFF7CFFF04E000F065F8204600F0A6
:100D300063F82777280715D5300713D521686FF09A
:100D400008000861042020772068C06980072046D9
:100D500002D0FFF7B7FF04E000F04DF8204600F0A6
:100D60004BF82777E80616D5F00614D521686FF002
:100D700010000861082020772068C06910F4407FC7
:100D8000204602D0FFF79EFF04E000F034F8204632
:100D900000F032F82777E80708D0F00706D021687E
:100DA0006FF001000861204600F028F8280608D5F9
:100DB000300606D521686FF0800008612046FFF7F5
:100DC0001BFF680608D5700606D521686FF0400045
:100DD0000861204600F01CF8A8060AD5B00608D520
:100DE00021686FF0200008612046BDE8F041FFF760
:100DF00004BFBDE8F08170477047000000680349F8
:100E0000884201D1FFF7A2BB7047000000140040E8
:100E1000704770B5040004D094F84100002510B16B
:100E200006E0012070BD84F84050204600F024F810
:100E3000242084F841002068C16821F40051C16079
:100E4000204600F0A5FA2068016921F49041016173
:100E50002068416921F02A0141612068C16841F49C
:100E60000051C1606564202084F8410084F842008C
:100E70006563002070BD000030B585B0002400948B
:100E800001940294039400681449884224D11448C0
:100E9000816941F480418161816901F4804104915B
:100EA000816941F00401816180690E4D00F0040008
:100EB00004904FF4007000900220019003200390F2
:100EC00069462846FFF73AFA2815CDE90004694635
:100ED00028460294FFF732FA05B030BD00380140D1
:100EE00000100240000801402DE9F843044690F844
:100EF0004100984616460D46202802D00220BDE843
:100F0000F88385B17EB100206064212084F841001F
:100F1000FFF716FBA6848146E684A0682027B0F57B
:100F2000805F02D003E00120E9E7206910B12E467E
:100F300000250EE000260CE08021204600F084FA17
:100F4000A8B9C6B116F8010B21684860E08C401EB4
:100F5000E084E08C4B464FF00002CDF80080002882
:100F6000EAD14FF04001204600F06EFA40B184F81B
:100F700041700320C3E735F8020BC0F30800E3E734
:100F800084F841700020BAE7FEE7000010B514486D
:100F900000F059FC134C124A01212061103208461E
:100FA00000F0A6FC0E4A6061903A00210E4800F065
:100FB000EBFC0B4A20606C3A00210C4800F0E4FC8A
:100FC000074A6060483A0021094800F0DDFC044A05
:100FD000A060243A0021074800F0D6FCE06010BD74
:100FE0009435000800000020C91000081D120008F8
:100FF0000513000891120008F0B585B000242048C0
:101000000094019402940394816941F0100181617C
:10101000816901F010010491816941F04001816111
:10102000816901F040010491816941F0040181610D
:10103000816901F004010491816941F00801816135
:101040008069104F00F008004FF4E0760490002211
:1010500031463846FFF76EFAF00101258DE8310080
:1010600069460948FFF76AF90320CDE90240CDE956
:10107000006569463846FFF761F905B0F0BD00002C
:1010800000100240000C0140001801400C4810B54F
:101090000A4901604FF4E1314160002181600C2276
:1010A000C160C0E904128161C161FFF7B2FE00288E
:1010B00003D0BDE81040FFF72CB910BD0038014047
:1010C000AC000020FEE7FEE700244FF47A752146CD
:1010D000641C03A000F0F2F9284600F050FBF6E78C
:1010E0004672656552544F53207469636B3A2025EC
:1010F0006C750D0A0000000010B54FF0E02000698B
:1011000002F00EF8012803D0BDE8104001F0C6BB84
:1011100010BD30B58FB028216846FFF79AF814212A
:101120000AA8FFF796F801210804CDE90010002471
:10113000029402250491CDE907504FF4E010099084
:101140006846FFF7C9FB08B172B6FEE70F20CDE98C
:101150000A054FF48060CDE90C4002210AA80E94E4
:10116000FFF7BEFA002801D072B6FEE70FB030BD1F
:10117000704700000148FFF7A6BD0000F400002002
:10118000F0B50268204C214D214E224F224B4FF0EA
:10119000804CA04209D0984207D0604505D0A842B3
:1011A00003D0B04201D0B84204D122F0700E4A6898
:1011B00042EA0E02A04209D0984207D0604505D00D
:1011C000A84203D0B04201D0B84203D122F4407506
:1011D000CA682A434D6922F080022A4302608A6865
:1011E000C2620A688262A04201D0984201D10969B4
:1011F0000163012141610169C90703D0016921F03F
:1012000001010161F0BD0000002C0140000400401C
:1012100000080040000C0040003401400C4C4FF02E
:10122000FF364FF47A753146206900F0E3FA09A0E1
:1012300000F044F92846FFF76FF80EA000F03EF9E1
:10124000206900F034FB284600F099FAEBE7000033
:101250000000002048696768205461736B2067654F
:1012600074206D757465782C2073746172740D0A26
:101270000000000048696768205461736B2067694B
:101280007665206D757465782C20656E640D0A0096
:101290000D4C4FF0FF3540F6B8364FF47A772946BB
:1012A000206900F0A7FA09A000F008F93046FFF71E
:1012B00033F80DA000F002F9206900F0F8FA384682
:1012C00000F05DFAEBE70000000000204C6F772093
:1012D0005461736B20676574206D757465782C207C
:1012E00073746172740D0A004C6F77205461736BD4
:1012F0002067697665206D757465782C20656E644D
:101300000D0A00004FF47A7403A000F0D7F82046CD
:1013100000F035FAF8E700004D6964646C6520540C
:1013200061736B20757365206370752C2062757412
:1013300020646F206E6F7468696E670D0A0000008C
:1013400001680C3151E8002F22F4907241E800232B
:10135000002BF5D10168143151E8002F22F0010271
:1013600041E80023002BF5D1016B012909D1016867
:101370000C3151E8002F22F0100241E80023002B2D
:10138000F5D1202180F84210002101637047000050
:1013900070B5044600680169E26821F440511143C8
:1013A00001612169A0680843616908432168CA682E
:1013B00041F20C639A430243CA6020684169A26902
:1013C00021F44071114341611E492068884202D1D5
:1013D000FFF74CFA01E0FFF739FA00EBC00101EB2F
:1013E0000012606864218000B2FBF0F3B3FBF1F3FC
:1013F0006FF018067343B2FBF0F5B2FBF0F605EBA5
:101400008305322303EB0515B5FBF1F5B6FBF1F6C9
:1014100005F0F00505EB0615B2FBF0F6B2FBF0F0B7
:10142000B0FBF1F06FF01802504306EB800003EBC5
:101430000010B0FBF1F0216800F00F002844886034
:1014400070BD0000003801402DE9F843984617466A
:101450000D460446089E24E0701C22D0FFF770F869
:10146000A0EB0800B0421AD8CEB12068C168490785
:1014700017D5802D15D0402D13D00168C943090719
:101480000FD401680025406800902046FFF758FF00
:101490000820606484F840500120BDE8F8830320F0
:1014A000FBE72068006835EA000004D00020B8425D
:1014B000D2D00020F1E70120F9E7FEE70FB4054B99
:1014C00010B503A9044A029800F028F810BC5DF892
:1014D00014FB000049170008A80000200907090EA6
:1014E000002804DB00F1E02080F80014704700F0D1
:1014F0000F0000F1E02080F8141D704702E008C8DA
:10150000121F08C1002AFAD170477047002001E07D
:1015100001C1121F002AFBD1704700002DE9FF4FC7
:101520008BB09A460F460446002606E025280BD0CD
:1015300052460D999047641C761C20780028F5D1FE
:101540000FB03046BDE8F08F0025A94601227D4945
:1015500000E0054314F8013F203B02FA03F0084283
:10156000F7D120782E2817D114F8010F45F0040583
:101570002A280ED06FF02F022078A0F1300109291F
:101580000AD809EB890102EB410100EB0109641C57
:10159000F2E757F8049B641C20786C280DD004DC1B
:1015A0004C2812D06A2811D104E074280DD07A2872
:1015B0000CD10AE045F4001507E0617845F4801588
:1015C000814202D1641C05F58015641C20786928CD
:1015D0003ED006DC0028B3D063280BD0642804D1A9
:1015E00036E0732810D075285CD052460D9990478C
:1015F000761CA5E017F8040B8DF8000000208DF88C
:101600000100E846012003E057F8048B4FF0FF305B
:1016100069074FF0000501D40AE06D1C4D450DDA55
:101620008542FADB18F805100029F6D106E06D1C9A
:101630008542FCDB18F805100029F8D12E4404E09F
:1016400018F8010B52460D9990476D1EF8D277E0BD
:1016500000200A90C5F302504FF00A0B02280CD06C
:1016600001CFC117021E71F100020CDA0023D0EB8A
:10167000030063EB01012D2208E0FF1D27F007079F
:10168000F7E80201EEE72A0504D52B228DF8242085
:10169000012203E0EA070FD02022F7E70DF120082E
:1016A000089218E000200A90C5F302504FF00A0B90
:1016B000022803D001CF00210022EFE7FF1D27F011
:1016C0000707F7E80201F7E75A460A9BFEF7CCFD49
:1016D000303208F8012D50EA0102F5D1ADEB0800D7
:1016E00000F1200B680701D44FF00109D94502DD54
:1016F000A9EB0B0000E000208146002506E009A8C8
:101700005246405D0D9990476D1C761C08988542A5
:10171000F5DB04E0302052460D999047761CB9F174
:101720000001A9F10109F5DC05E018F8010B5246AA
:101730000D999047761CBBF10001ABF1010BF4DC75
:10174000641CFAE60928010013B54FF0FF330122AB
:1017500069460248FFF7C8FB00981CBDAC0000209A
:10176000FEF7FCFEFFF7D5FCFFF746FCFFF78EFC0B
:1017700000F012F8FFF70AFC00F020F8FEE710B5C1
:10178000EFF3058111B16FF0050403E0002408B107
:1017900000F002FF204610BDEFF3058010B16FF09E
:1017A000050070470448016811B14FF0FF307047E1
:1017B00001210160002070477800002010B5EFF390
:1017C000058010B16FF0050010BD084801680129BF
:1017D00002D04FF0FF3010BD054A002182F8141DE1
:1017E0000221016000F088FF002010BD7800002079
:1017F0000BE000E02DE9F0410D46014621F001002B
:1018000001F001014FF00004EFF305820AB1A41FBB
:1018100016E048B100296FF001066FF00207294673
:1018200008D001F0C5FB07E06FF0030408E035B114
:10183000344605E001F000FB0128F8D100E03C4609
:101840002046BDE8F08170B505464FF00004EFF387
:10185000058050BB0DB1686800E00020C10701D0D1
:10186000012600E0002600071FD46DB1D5E9021063
:1018700021B1502819D31EB1042002E020B114E098
:10188000012001F069F805E00EB1042000E001201C
:1018900001F057F8040008D00DB1296800E00021DC
:1018A00000F018FE0EB144F00104204670BD70B582
:1018B000014621F0010001F001014FF00004EFF3B7
:1018C00005820AB1A41F11E028B16FF0020529B109
:1018D00001F0F7F907E06FF0030407E000231A4670
:1018E000194601F0DFF8012800D02C46204670BDD3
:1018F000F8B5144603460E464FF00005EFF3058099
:1019000098BB93B39E423DD84CB1A0680028E068D4
:1019100003D0502836D3012002E008B132E0002085
:10192000012B05D010B31846A26800F0EAFF20E0B2
:1019300040B103200090002211460120A36801F06D
:1019400039F804E003220021012001F012F805001B
:1019500018D086B100231A46194601F0A3F80128D1
:1019600009D0284600F0CAFD00250BE0184600F01B
:10197000ABFF050006D00CB1216800E0002128462D
:1019800000F0A8FD2846F8BD2DE9FF414FEA01030C
:101990004FF00005EFF30581039549BB40B3802765
:1019A000182100244AB3166806B1344696691EB160
:1019B0003146761E382E02D21679F60703D0002063
:1019C00004B0BDE8F081566906B1B708D2F808C086
:1019D000BCF1000F0DD0D5685C2D18D312693AB157
:1019E00036B18DE806103A46214601F068FB0390B7
:1019F0000DE0D6685EB912694AB903AACDE90012B2
:101A0000BAB2214601F02EFB012800D003950398BD
:101A1000D6E700002DE9F041134C0F460546E66875
:101A20002068001D00F058FC681C07D137B1216800
:101A3000BDE8F0410D48091D00F09EBC206835440A
:101A4000B5424560216805D2A06BBDE8F041091D93
:101A500000F07ABC606B091D00F076FCA06A85423C
:101A600000D2A562BDE8F081280000202C060020ED
:101A70002DE9F041054600F08BFC2D4CA068401C80
:101A8000A06020682B4F10B1606930B32BE0256057
:101A9000A068012827D1002606EB860007EB80000E
:101AA00000F044FC761C382EF6D3234800F03EFCB0
:101AB0002148143000F03AFC1F48283000F036FC72
:101AC0001D483C3000F032FC1B48503000F02EFC2A
:101AD000194860631430A06305E02068E96AC06AB1
:101AE000884200D82560606A401C60626864E86AC9
:101AF0002169884200D9206100EB800007EB80005B
:101B0000291D00F039FC00F063FC606900280CD04E
:101B10002068E96AC06A884207D208494FF08050BD
:101B20000860BFF34F8FBFF36F8FBDE8F0810000F7
:101B3000280000207C010020DC05002004ED00E0EE
:101B400038B500F025FC104C2068C8B90F4800F0EB
:101B5000EDFB0E48143000F0E9FB0C48E060143057
:101B600020610A4B0020F03B009003F1500210214D
:101B70000A2000F01FFF206010B105A100F0AAFCB0
:101B8000BDE8384000F024BC64000020300700208D
:101B9000546D72510000000030B4026C0B46002AF4
:101BA0000BD0C1681144C1608468A14201D30168AF
:101BB000C16030BC1846FEF733BB30BC70472DE91E
:101BC000F041856B174604460026026C82B1C7B10E
:101BD000E068FEF725FBE168206C091AE1602268E5
:101BE000914202D2A168081AE060022F16D017E0D5
:101BF0002068A8B9A06801F00BFB06460020A06091
:101C00000EE06068FEF70CFB216C606808446060C1
:101C1000A168884204D32068606001E005B16D1EB0
:101C20006D1CA5633046BDE8F08110B5044690F800
:101C3000590058B101280CD002280FD0502080F351
:101C40001188BFF34F8FBFF36F8FFEE7206B00F05B
:101C5000D3FB2046BDE8104000F0CEBB10BD000015
:101C600010484FF44061420706D0C01D0D4920F0D6
:101C70000700411AC1F540610B4A00230144C2E943
:101C800000030839183A21F0070111604B600B601E
:101C90000B1AC0E9001393604FF00040536050618D
:101CA00070470000100E002094000020144E154CC8
:101CB000A6F29C474FF08058DFF84C9012E000BF2E
:101CC00000F066FBF068C568281D00F005FBA06801
:101CD000401EA0606068401E606000F079FB2846EE
:101CE000FFF7A3FF60680028EAD138680128F9D916
:101CF000C9F80080BFF34F8FBFF36F8FF2E700008A
:101D0000180600202800002004ED00E0002807D07D
:101D10000021816001600B460A46C16000F0C2BE2E
:101D20007047000070B51D46049C51B1C4F80020F6
:101D3000C4E90F010121204600F070FE84F84C50E8
:101D400070BD2460F4E700002DE9F05F8846DDE90E
:101D50000B941546834691009A460A9EA522206B55
:101D6000FEF770FA6FF00301206B01EB8501084468
:101D700020F00707780707D0502080F31188BFF3C1
:101D80004F8FBFF36F8FFEE70025B8F1000F0FD024
:101D90005FF00000221818F8001082F8341018F8CC
:101DA000001011B1401C1028F4D384F8435001E016
:101DB00084F83450382E00D33726E662C4E9136520
:101DC000201D00F0BEFA04F1180000F0BAFA2461F8
:101DD000C6F138006462A061656584F858505246C7
:101DE0005946384600F066FA2060B9F1000F01D07C
:101DF000C9F80040BDE8F09F30B5114900E0114638
:101E00000A688242FBD34B685C18844203D1406865
:101E100018444860084643681C18944209D1084C8D
:101E2000183C2468A24209D052681A4442600A68E9
:101E300012680260814200D0086030BD0460F9E79A
:101E40009400002070B5002441600B4D0061914268
:101E500006D8D11A8269914206D2011D286907E08D
:101E60009A4203D2994201D3012403E0011DE8689C
:101E700000F06AFA204670BD6400002010B50446E8
:101E800000F086FAA06B28B15FF0000400F0A0FA21
:101E9000204610BD0124F9E730B589B03C4D6EE015
:101EA0000498002806DADDE90601059A90470498AF
:101EB000002864DB069C606910B1201D00F00CFA5C
:101EC00003A800F0D7F8024604980A2857D2DFE8A2
:101ED00000F00505052D334A05052D3394F828003B
:101EE00040F0010084F828000599A069059B014491
:101EF0002046FFF7A7FF68B3216A2046884794F879
:101F0000280040073BD5002000900598A1690023D8
:101F100042181946204601F0C1FAD8B9502080F382
:101F20001188BFF34F8FBFF36F8FFEE714F8280FB0
:101F300020F00100207022E094F8280040F0010019
:101F400084F828000598A06128B18118134620461E
:101F5000FFF778FF13E0502080F31188BFF34F8F15
:101F6000BFF36F8FFEE794F82800810703D4204663
:101F700000F042FA03E020F0010084F8280000227B
:101F800004A9286800F0BCFE002889D109B030BD42
:101F9000640000202DE9FC410F46054600F0F0FBEF
:101FA00001A800F067F80446019818B101F0E4F9BF
:101FB000BDE8FC81254EAFB130690068D0B3002781
:101FC000291B3A46306800F0C5FA01F0D5F900281F
:101FD000EED11F494FF080500860BFF34F8FBFF321
:101FE0006F8FE5E7A542EBD801F0C6F9F068274608
:101FF000C068C468201D00F06FF994F828004107FC
:1020000019D5A0692B4641193A462046FFF71AFF19
:10201000A8B100200346014600902A46204601F060
:102020003DFA60B9502080F31188BFF34F8FBFF3A2
:102030006F8FFEE707E020F0010084F82800216A96
:1020400020468847B4E70127BAE700006400002073
:1020500004ED00E00648416B096829B1416BC9688D
:10206000C9684968816270474FF0FF31FAE70000A4
:102070002800002070B5054601F060F8064E0446C1
:10208000B068844203D200F009F8012000E000208B
:1020900028602046B46070BD64000020F8B5194D7A
:1020A00020E0C068C4680668201D00F015F9216AA8
:1020B0002046884794F82800400713D5A06930448B
:1020C000B04206D924616060211DE86800F03CF947
:1020D00008E000200346014600903246204601F009
:1020E000DDF938B1E86801680029DAD12969C5E964
:1020F0000310F8BD502080F31188BFF34F8FBFF35A
:102100006F8FFEE76400002008484068401C4FF0D5
:10211000500080F3118804D0BFF34F8FBFF36F8F4F
:10212000FEE7BFF34F8FBFF36F8FFEE79C000020E9
:10213000074CE068016841B1C0680021D0F8000098
:10214000FFF728FFFFF7A8FEF3E701210020F7E7DC
:10215000640000202DE9F041044600F019F994F9DB
:10216000455004F1240609E0606A48B1304601F0A8
:10217000CBF808B100F03EFA6D1E6DB2002DF3DC15
:102180004FF0FF3684F8456000F022F900F000F9C6
:1021900094F9445004F1100709E0206948B1384629
:1021A00001F0B2F808B100F025FA6D1E6DB2002DF5
:1021B000F3DC84F84460BDE8F04100F009B90000A8
:1021C0002DE9F0410546002700F0DAFA324E30687A
:1021D00008B9FFF745FD706905424ED1C5B3083512
:1021E00068070ED005F00700C0F108000544680735
:1021F00007D0502080F31188BFF34F8FBFF36F8F4C
:10220000FEE72DB37068854237D823481830014661
:102210000C6801E020460C466168A94202D22168A0
:102220000029F7D131688C4227D007682168016006
:1022300060680837411B10290FD96019420708D080
:10224000502080F31188BFF34F8FBFF36F8FFEE7ED
:1022500013E041606560FFF7CFFD61687068401A68
:102260007060B268904200D2B06070690143002093
:10227000C4E90001F068401CF06001F07DF87807C7
:1022800007D0502080F31188BFF34F8FBFF36F8FBB
:10229000FEE73846BDE8F0817C000020044908686C
:1022A00018B10868026D521C02650868704700008A
:1022B0002800002010B5031F4FF080741C601B1F06
:1022C00021F001011960191F024B0B6014394038CD
:1022D0000A6010BD09210008D0E9013201699A6045
:1022E000D0E901235A604A68824201D182684A607B
:1022F000002202610868401E0860086870470000FC
:10230000034B036003F15C0008608020106070479D
:1023100058070020044B036003F15C0008604FF491
:102320008070106070470000B409002000F10801BF
:102330004FF0FF32C0E90112C1600161002101606C
:10234000704700210161704730B50B685A1C02D0FC
:1023500000F1080202E0026904E0224654682568A0
:102360009D42FAD953684B6099608A605160086158
:102370000168491C016030BD42684A6093688B6007
:1023800093685960916008610168491C0160704759
:10239000502080F31188BFF34F8FBFF36F8F0A492E
:1023A0004868401C486001280CD10848006810F0BB
:1023B000FF0F07D0502080F31188BFF34F8FBFF37A
:1023C0006F8FFEE7704700009C00002004ED00E0E6
:1023D0000849486828B1401E486001D180F311883F
:1023E0007047502080F31188BFF34F8FBFF36F8F7A
:1023F000FEE700009C00002070B500282AD0164D92
:10240000A0F1080460686969084207D1502080F390
:102410001188BFF34F8FBFF36F8FFEE722683AB189
:10242000502080F31188BFF34F8FBFF36F8FFEE70B
:102430008843606000F0A4F96068696808446860D7
:102440002046FFF7D9FC2869401C2861BDE8704090
:1024500000F092BF70BD00007C0000204FF0E02033
:1024600000210161816105494FF47A720968B1FB6D
:10247000F2F1491E416107210161704724000020EB
:1024800010B5FDF7A7FE114910280ED300F1E0208A
:1024900090F8F0030A78904207D2502080F3118818
:1024A000BFF34F8FBFF36F8FFEE70948006889685D
:1024B00000F4E060884207D9502080F31188BFF310
:1024C0004F8FBFF36F8FFEE710BD00009C00002010
:1024D0000CED00E010B5084B002200BF53F832406D
:1024E0001CB1521C082AF9D310BD43F8321003EB7B
:1024F000C201486010BD00003C01002010B504007E
:102500000AD000F013F894F8460000280CD12046B9
:10251000BDE81040FFF770BF502080F31188BFF373
:102520004F8FBFF36F8FFEE710BD0000084A0021F8
:1025300002EBC1035B68834206D1002042F8310000
:1025400002EBC10148607047491C0829F0D370476D
:102550003C01002070B515460E460446FFF718FFF3
:1025600094F944100020491C01D184F8440094F9E6
:102570004510491C01D184F84500FFF729FFA06BE5
:1025800028B92A46314604F1240000F051F82046CB
:10259000BDE87040FFF7DEBD10B5020014D00F4853
:1025A000006B38B1502080F31188BFF34F8FBFF319
:1025B0006F8FFEE700F0E4F800211046FFF72AFADB
:1025C00000F0DAFE002807D105494FF0805008607E
:1025D000BFF34F8FBFF36F8F10BD000028000020A6
:1025E00004ED00E002490A6A0260C9684160704770
:1025F0002800002001490120C86170472800002000
:1026000010B50C4650B1094909681831FFF79CFE16
:102610002046BDE810400121FFF7FCB9502080F3AF
:102620001188BFF34F8FBFF36F8FFEE728000020A4
:1026300070B514460D4668B10A4909681831FFF7AC
:102640009BFE0CB14FF0FF3521462846BDE8704097
:10265000FFF7E0B9502080F31188BFF34F8FBFF32D
:102660006F8FFEE72800002070B504003ED0226D79
:10267000A2B1E06C884200D30146E06A884235D0BE
:10268000012A33D11A4D2A6894420FD1502080F389
:102690001188BFF34F8FBFF36F8FFEE7502080F399
:1026A0001188BFF34F8FBFF36F8FFEE7E162A2691E
:1026B000002A02DBC1F13801A1610E4E00EB80005F
:1026C000616906EB8000814210D1201DFFF704FEF6
:1026D000E06A2969884200D9286100EB800006EB96
:1026E0008000211DBDE87040FFF746BE70BD0000B0
:1026F000280000207C01002030B587B0002403941E
:1027000005AA04A903A80494FFF7FAFDDDE9030173
:102710000094CDE90110002315A11748059A00F097
:10272000CEFC164D0028E8621FD000F087FE01287D
:1027300009D0401C19D1502080F31188BFF34F8F6E
:10274000BFF36F8FFEE7502080F31188BFF34F8FE8
:10275000BFF36F8F4FF0FF30A86201206861EC601B
:1027600007B0BDE8304000F045B807B030BD00000C
:1027700049444C4500000000AD1C00082800002022
:102780000248016B491C01637047000028000020CB
:10279000164810B5016B11B10121C16110BD0021B6
:1027A000C1610169124A01E0B9B1491E01EB81031F
:1027B00052F82330002BF7D001EB810302EB8302A8
:1027C00002F1080453685B685360A34201D15B685F
:1027D0005360DA680260016110BD502080F31188F7
:1027E000BFF34F8FBFF36F8FFEE70000280000207C
:1027F0007C0100201CB5264908780190FF20087054
:1028000008788DF800009DF800009DF8002000F089
:10281000F000904207D0502080F31188BFF34F8F13
:10282000BFF36F8FFEE79DF800001A4C00F05000D8
:1028300020700720A06005E09DF8002052008DF870
:102840000020401E9DF800201206F5D4A060032849
:1028500007D0502080F31188BFF34F8FBFF36F8FE5
:10286000FEE74FF44070A060019808700A480168C4
:1028700041F470010160016841F070410160FFF7AF
:10288000EDFD00206060FDF76FFC00201CBD000026
:1028900000E400E09C00002020ED00E010B5502096
:1028A00080F31188BFF34F8FBFF36F8F00F04CFCA4
:1028B00018B104494FF080500860002080F311885F
:1028C00010BD000004ED00E010B50C4648B1844294
:1028D0000FD9502080F31188BFF34F8FBFF36F8F54
:1028E000FEE7502080F31188BFF34F8FBFF36F8F47
:1028F000FEE70222002100F03CF8002800D08463AB
:1029000010BD38B50C4648B184420FD9502080F331
:102910001188BFF34F8FBFF36F8FFEE7502080F316
:102920001188BFF34F8FBFF36F8FFEE7022113466D
:1029300000220091114600F03DF8002800D0846389
:1029400038BD10B502460021012000F012F80446FF
:10295000FFF7DCF9204610BD38B50B460022009089
:102960001146012000F026F80446FFF7CFF9204673
:1029700038BDF8B517460E46050013D005FB06F026
:102980005030FFF71DFC04000AD0002084F84600F8
:1029900004F150023B46314628460094FFF7C2F945
:1029A0002046F8BD502080F31188BFF34F8FBFF34E
:1029B0006F8FFEE738B5049D18B153B1CAB181B12C
:1029C00020E0502080F31188BFF34F8FBFF36F8F4B
:1029D000FEE7502080F31188BFF34F8FBFF36F8F56
:1029E000FEE7502080F31188BFF34F8FBFF36F8F46
:1029F000FEE739B1502080F31188BFF34F8FBFF34A
:102A00006F8FFEE750241C46012384F846302B4686
:102A10000094FFF787F9204638BD000070B50D46D9
:102A2000040025D0FFF7B4FCD4E90F20216802FB95
:102A30000011A1600021A163216861600A46D4E908
:102A40000F01401E00FB0121E16021464FF0FF30E5
:102A500001F8440F487004F110008DB1FFF766FCD7
:102A600004F12400FFF762FCFFF7B2FC012070BD07
:102A7000502080F31188BFF34F8FBFF36F8FFEE7B5
:102A800021690029F0D000F03FFC0028ECD0044977
:102A90004FF080500860BFF34F8FBFF36F8FE3E7B5
:102AA00004ED00E02DE9FF4782B01D468A464FF055
:102AB0000008040003D0BAF1000F08D011E0502044
:102AC00080F31188BFF34F8FBFF36F8FFEE7206C49
:102AD00038B1502080F31188BFF34F8FBFF36F8F51
:102AE000FEE7022D0AD1E06B012807D0502080F3C9
:102AF0001188BFF34F8FBFF36F8FFEE700F010FB1D
:102B00003F4F4FF000094FF0805648B9049838B154
:102B1000502080F31188BFF34F8FBFF36F8FFEE714
:102B2000FFF736FCA06BE16B884207D3022D05D07E
:102B30000498D0B1B8F1000F1AD01EE02A465146D1
:102B40002046FFF73CF8616A19B104F1240000F057
:102B5000DBFB20B13E60BFF34F8FBFF36F8FFFF7FA
:102B600037FC012006B0BDE8F087FFF731FC22E01A
:102B70006846FFF737FD4FF00108FFF729FCFFF724
:102B8000FFFDFFF705FC94F94400401C01D184F8D7
:102B9000449094F94500401C01D184F84590FFF71A
:102BA00017FC04A9684600F023FA30B12046FFF76D
:102BB000D1FA00F0E1FB0020D4E7FFF7E9FBA06BBE
:102BC000E16B884213D1FFF703FC04F11000049974
:102BD000FFF716FD2046FFF7BDFA00F0CDFB0028F9
:102BE0009ED13E60BFF34F8FBFF36F8F98E7FFF723
:102BF000EFFB2046FFF7AEFA00F0BEFB90E70000C7
:102C000004ED00E02DE9F0471F4690468946040098
:102C100003D0B9F1000F08D011E0502080F31188E3
:102C2000BFF34F8FBFF36F8FFEE7206C38B150209A
:102C300080F31188BFF34F8FBFF36F8FFEE7022F32
:102C40000AD1E06B012807D0502080F31188BFF330
:102C50004F8FBFF36F8FFEE7FFF712FC5020EFF3AB
:102C6000118680F31188BFF34F8FBFF36F8FA06B76
:102C7000E16B884206D3022F04D0002086F311882E
:102C8000BDE8F08794F94550A06B3A464946204686
:102C9000FEF795FF681C04D06D1C84F84550012098
:102CA000ECE7606A0028FAD004F1240000F02CFB65
:102CB0000028F4D0B8F1000FF1D00121C8F80010BD
:102CC000EDE710B5040009D000F024FAA1688842AD
:102CD00014D1E068401EE06008D00DE0502080F381
:102CE0001188BFF34F8FBFF36F8FFEE700231A46A3
:102CF00019462046FFF7D6FE012010BD002010BD6A
:102D00002DE9F747002683B08A46040003D0BAF1C4
:102D1000000F08D011E0502080F31188BFF34F8FCF
:102D2000BFF36F8FFEE7206C38B1502080F311881D
:102D3000BFF34F8FBFF36F8FFEE700F0F1F9DFF8BD
:102D4000F4804FF000094FF0805748B9059838B12A
:102D5000502080F31188BFF34F8FBFF36F8FFEE7D2
:102D6000FFF716FBA56BC5B151462046FEF714FFD1
:102D70006D1EA563206950B104F1100000F0C4FA83
:102D800028B1C8F80070BFF34F8FBFF36F8FFFF704
:102D90001FFB012006B0BDE8F087059808B11EB101
:102DA00006E0FFF715FB27E06846FFF71BFC01264E
:102DB000FFF70EFBFFF7E4FCFFF7EAFA94F9440093
:102DC000401C01D184F8449094F94500401C01D185
:102DD00084F84590FFF7FCFA05A9684600F008F969
:102DE000002820460AD0FFF7B5F900F0C5FA2046C2
:102DF000FFF744F80028B3D00020CBE7FFF73EF8F8
:102E000090B104F124000599FFF7FAFB2046FFF783
:102E1000A1F900F0B1FA0028A2D1C8F80070BFF300
:102E20004F8FBFF36F8F9BE72046FFF793F900F0BA
:102E3000A3FA95E704ED00E02DE9F343002683B003
:102E40000400354609D0206C78B1502080F31188F9
:102E5000BFF34F8FBFF36F8FFEE7502080F31188D1
:102E6000BFF34F8FBFF36F8FFEE700F059F9DFF824
:102E70003C814FF000094FF0805748B9049838B1B1
:102E8000502080F31188BFF34F8FBFF36F8FFEE7A1
:102E9000FFF77EFAA06BC8B1401EA063206810B98E
:102EA000FFF7FCF9A060206950B104F1100000F0B8
:102EB0002BFA28B1C8F80070BFF34F8FBFF36F8FA4
:102EC000FFF786FA012005B0BDE8F083049808B149
:102ED00066B10FE03DB1502080F31188BFF34F8FF2
:102EE000BFF36F8FFEE7FFF773FA5DE06846FFF709
:102EF00079FB0126FFF76CFAFFF742FCFFF748FA6F
:102F000094F94400401C01D184F8449094F94500A0
:102F1000401C01D184F84590FFF75AFA04A968468D
:102F200000F066F80028204612D0FFF713F900F0F1
:102F300023FA2046FEF7A2FF0028A9D09DB3FFF791
:102F400027FA606A50B3206B0068C0F1380126E0B0
:102F5000FEF794FFE0B1206838B9FFF719FAA068CE
:102F600000F096F90546FFF733FA04F124000499BE
:102F7000FFF746FB2046FFF7EDF800F0FDF90028CB
:102F800086D1C8F80070BFF34F8FBFF36F8F7FE714
:102F90002046FFF7DFF800F0EFF979E70021A0689D
:102FA000FFF762FB9FE7FFE700208CE704ED00E0FE
:102FB00070B50D46040009D000F0ACF8A168884255
:102FC0000CD1E068401CE060012070BD502080F30F
:102FD0001188BFF34F8FBFF36F8FFEE7294620465E
:102FE000FFF72AFF0028F0D0E168491CE16070BDBE
:102FF0002DE9F0410C46050011D0C4B1FFF7C8F926
:10300000174BDA686E682068911B471C17D02F6831
:103010001B6A9F4219D0964217D8012410E0502015
:1030200080F31188BFF34F8FBFF36F8FFEE75020FF
:1030300080F31188BFF34F8FBFF36F8FFEE700243B
:10304000FFF7C6F92046BDE8F081884205D9401A4D
:1030500020602846FFF7C6FAF1E700202060DCE791
:10306000280000202DE9FF5F8346DDE90E879946A1
:1030700016468A469000FFF7A3F805001CD05C2096
:10308000FFF79EF8040014D00020256384F859004F
:10309000CDE90240CDE900874B46324651465846BD
:1030A000FEF752FE2046FEF7E3FC012004B0BDE827
:1030B000F09F2846FFF7A0F94FF0FF30F6E7F0B594
:1030C00085B0DDE90B640A9DA6B1DCB15C270097F1
:1030D0002663022684F85960002604AFCDE9024633
:1030E000CDE90057FEF730FE2046FEF7C1FC0498FC
:1030F00005B0F0BD502080F31188BFF34F8FBFF3B0
:103100006F8FFEE7502080F31188BFF34F8FBFF31E
:103110006F8FFEE70148006870470000280000201C
:103120000548416919B1006B18B1002070470120B2
:103130007047022070470000280000200148C06846
:1031400070470000280000202DE9F0412E4C002798
:10315000206B28B1A069401CA0613846BDE8F08111
:10316000E668761CE66013D1606B006838B15020C9
:1031700080F31188BFF34F8FBFF36F8FFEE7606B53
:10318000A16B6163A063206A401C2062FEF762FFAE
:10319000A06ADFF87880864209D3606B0068A0B12E
:1031A000606BC068C5686868864211D2A0622068FA
:1031B000C06A00EB800158F82100012800D90127DE
:1031C000E0690028C9D00127C7E74FF0FF30EDE7DD
:1031D000281DFFF781F8A86A18B105F11800FFF75C
:1031E0007BF8E86A2169884200D9206100EB800100
:1031F00008EB8100291DFFF7BFF8E86A2168C96A5A
:103200008842CAD30127C8E7280000207C0100209B
:1032100070B504004FF0000133D01B4D2868844284
:1032200007D0502080F31188BFF34F8FBFF36F8F0B
:10323000FEE7206D38B1401E2065E36CE26A9A42D9
:103240001FD040B11DE0502080F31188BFF34F8F95
:10325000BFF36F8FFEE7201DFFF73EF8E06CE062E2
:10326000C0F13800A061E06A2969884200D928616C
:10327000064900EB800001EB8000211DFFF77CF880
:103280000121084670BD0000280000207C010020BC
:1032900070B504004FF000002BD0194DE16A2A6888
:1032A000D26A914226D2A069002804DB2868C06A4D
:1032B000C0F13800A061134E01EB8101606906EB9B
:1032C0008101884211D1201DFFF706F82868C06AE5
:1032D000E0622969884200D9286100EB800006EB92
:1032E0008000211DFFF748F802E02868C06AE0620C
:1032F000012070BDE16C2A68D26A9142F8D370BD9A
:10330000280000207C01002070B5C068C46854B15A
:1033100004F118000646FEF7DFFF144D286B50B18C
:103320003146134815E0502080F31188BFF34F8FCA
:10333000BFF36F8FFEE7201DFEF7CEFFE06A29691D
:10334000884200D928610B4900EB800001EB800026
:10335000211DFFF711F8E06A2968C96A884202D97D
:103360000120E86170BD002070BD00002800002031
:10337000040600207C0100202DE9F0472C4D00249C
:103380002746286B38B1FFF703F8286B401E2863E7
:10339000286B40B146E0502080F31188BFF34F8F77
:1033A000BFF36F8FFEE7A968224E0120D1B3A6F5C7
:1033B000916980463068E0B1F068C46804F1180093
:1033C000FEF78AFF201DFEF787FFE06A2969884221
:1033D00000D9286100EB800109EB8100211DFEF777
:1033E000CBFFE06A2968C96A8842E3D3C5F81C802C
:1033F000E0E70CB1FEF72EFEAC694CB14FEA0806CF
:10340000FFF7A2FE00B1EE61641EF9D10020A861B1
:10341000E86938B10849012738070860BFF34F8FC2
:10342000BFF36F8FFEF7D4FF3846BDE8F08700008A
:10343000280000200406002004ED00E010B586B04E
:10344000FEF77EFB114C2068B8B100200390049079
:1034500005AA04A903A8FEF75DFFDDE90321022008
:103460008DE8070000230AA10B48059AFFF727FE05
:10347000606010B106B0012010BD502080F31188AB
:10348000BFF34F8FBFF36F8FFEE700006400002093
:10349000546D722053766300312100082DE9FF41FD
:1034A0001E46134602000A9D4FF0000016D0144C31
:1034B0002768002F0FD0CDE900130292062917DAF2
:1034C000FFF72EFE02284FF000030FD000226946BE
:1034D0002068FFF7E7FA04B0BDE8F081502080F3E0
:1034E0001188BFF34F8FBFF36F8FFEE72A46EEE7D9
:1034F0000023324669463846FFF784FBEBE70000BD
:10350000640000200C3600080000000000000000ED
:1035100000000000000000000002000008000000A1
:103520000000000000000000F4350008000000006A
:103530000000000000000000000000000002000089
:103540000A0000000000000000000000043600082F
:10355000000000000000000000000000000000006B
:103560000002000009000000000000000000000050
:10357000FC35000800000000000000000000000012
:103580000000000000020000080000000000000031
:1035900000000000EC350008000000000000000002
:1035A00000000000E03500080000000000000000FE
:1035B00000000000010202030405060708090A0BC7
:1035C0000C0D0E0F101000000000000000000102A2
:1035D00003040607080900000000010203040000BC
:1035E00042696E61727953656D3031004D75746555
:1035F000783031005461736B5F4800005461736B25
:103600005F4C00005461736B5F4D00006465666140
:10361000756C745461736B0038360008000000202C
:10362000AC000000FC140008E4360008AC000020E8
:10363000641D00000C1500080000000000000000E0
:10364000000000000000000000000000000000007A
:1036500001000000100000000000000000127A00CD
:10366000000000000000000000000000000000005A
:10367000000000000000000000000000000000004A
:10368000000000000000000000000000000000003A
:10369000000000000000000000000000000000002A
:1036A000000000000000000000000000000000001A
:1036B000000000000000000000000000000000000A
:1036C00000000000000000000000000000000000FA
:1036D0000000000000000000AAAAAAAA0000000042
:0436E00000000000E6
:0400000508000131BD
:00000001FF
