:020000040800F2
:10000000E80400204501000857140008C512000844
:1000100055140008B101000839180008000000005C
:100020000000000000000000000000005B14000859
:10003000B301000800000000591400085D14000816
:100040005F0100085F0100085F0100085F01000810
:100050005F0100085F0100085F0100085F01000800
:100060005F0100085F0100085F0100085F010008F0
:100070005F0100085F0100085F0100085F010008E0
:100080005F0100085F0100085F0100085F010008D0
:100090005F0100085F0100085F0100085F010008C0
:1000A0005F0100085F0100085F0100085F010008B0
:1000B000C11400085F0100085F0100085F0100082B
:1000C0005F0100085F0100085F0100085F01000890
:1000D0005F0100085F0100085F0100085F01000880
:1000E0005F0100085F0100085F0100085F01000870
:1000F0005F0100085F0100085F0100085F01000860
:100100005F0100085F0100085F0100085F0100084F
:100110005F0100085F0100085F010008CD140008BE
:100120005F0100085F0100085F0100085F0100082F
:10013000DFF80CD000F02AF80048004779180008D2
:10014000E80400200648804706480047FEE7FEE72F
:10015000FEE7FEE7FEE7FEE7FEE7FEE7FEE7FEE777
:10016000BD14000831010008D2B201E000F8012BF3
:10017000491EFBD270470022F6E710B513460A4627
:1001800004461946FFF7F0FF204610BD064C074D08
:1001900006E0E06840F0010394E807009847103457
:1001A000AC42F6D3FFF7C8FFD0180008F0180008DB
:1001B000FEE7704772B6FEE72DE9F84FDFF8C89109
:1001C0000024A9F1040B23460F2709F1040AABF11F
:1001D000040ED1E00125A54006EA0502AA4276D127
:1001E000DFF8A8C14E68A6EB0C0866452BD00DDCE5
:1001F000032E34D005DC36B3012E19D0022E2FD1B8
:100200001BE0112E16D0122E2AD119E0B8F5881F46
:1002100019D006DCB8F5803F15D0B8F5801F1FD186
:1002200011E0B8F5001F0ED0B8F5041F18D10AE090
:10023000CB6815E0CB681B1D12E0CB6808330FE0DC
:10024000CB680C330CE08B682BB1012B4FF008030B
:1002500003D0456104E0042302E0056100E00023CF
:10026000FF2A01D8064601E000F104064FEA8405A2
:1002700001D9A5F12005D6F8008007FA05FC28EA87
:100280000C0803FA05F548EA0508C6F800804D6831
:10029000ED0070D53E4DAE6946F00106AE61AD6928
:1002A00024F0030605F0010500953A4D06EB050C18
:1002B000DCF80850A607360F07FA06F825EA080505
:1002C000DFF8D480404503D14FF0000825E052E02C
:1002D000DFF8C880404502D14FF001081DE0DFF88B
:1002E000C080404502D14FF0020816E0DFF8B4802C
:1002F000404502D14FF003080FE0DFF8AC804045E5
:1003000002D14FF0040808E0DFF8A080404502D198
:100310004FF0050801E04FF0060808FA06F848EA31
:100320000508CCF808804D68D9F80060ED024D460C
:1003300001D5164300E096432E604D68DAF8006060
:10034000AD02554601D5164300E096432E604D6838
:10035000DBF80060AD035D4601D5164300E096432F
:100360002E604D68DEF80060ED03754601D516433A
:1003700000E096432E60641C0A681646E2407FF453
:1003800029AFBDE8F88F00000804014000001110FB
:10039000001002400000014000080140000C014034
:1003A000001001400014014000180140001C0140F1
:1003B000C26821EA02030A4043EA02410161704730
:1003C0000AB1016170470904FBE700000148806839
:1003D0007047000000000020024881680278114444
:1003E0008160704700000020074810B5016841F0A7
:1003F00010010160032000F0A1F80F2000F006F8C2
:1004000000F050F8002010BD0020024030B5054635
:100410001F4887B0C16941F02001C161C06906A9C8
:1004200000F02000009001A800F030F90498B0B16D
:1004300000F04CF940001749174AB0FBF1F117489A
:10044000491E0260416040F2E7320021C0E9032109
:100450008160816100F050FB040003D015E000F0E2
:1004600035F9E8E70D4800F091FB04000DD1372085
:1004700000F036F8102D07D200222946372000F070
:100480003DF80748056000E0012407B0204630BD74
:100490000010024040420F0000140040A000002065
:1004A000040000200C4808B5816941F00101816118
:1004B000816901F001010091C16941F08051C16180
:1004C000C06900F0805000900448416821F0E0616C
:1004D00041F00071416008BD001002400000014081
:1004E000002809DB00F01F02012191404009800033
:1004F00000F1E020C0F8001170470000F0B40E4B8E
:100500001B680C46C3F30223C3F10705042D00D971
:100510000425191D072901D2002300E0DB1E012656
:1005200006FA05F1491E214099409E40761E16406C
:100530003143F0BC01F081B90CED00E0064900F058
:10054000070208684FF6FF03184040EA0220034AFA
:1005500010430860704700000CED00E00000FA0551
:100560002DE9F0470F46050061D0434E306800F09A
:100570000700B84209D2306820F0070038433060E5
:10058000306800F00700B84251D128683B4C810721
:1005900012D5400703D5606840F4E06060602878B9
:1005A000000703D5606840F4605060606068A96827
:1005B00020F0F000084360602878C00728D0686801
:1005C000012810D02168022810D0890700292EDACE
:1005D000616821F0030101436160FFF7F7FE804687
:1005E00041F288390DE021688903EFE78901EDE7E1
:1005F000FFF7ECFEA0EB0801494502D90320BDE856
:10060000F0876068696800F00C00B0EB810FEFD1F3
:10061000306800F00700B8420BD9306820F00700BE
:1006200038433060306800F00700B84201D0012044
:10063000E5E72878400705D56068E96820F4E060C0
:10064000084360602878000706D56068296920F4AF
:10065000605040EAC100606000F058F86168084AE4
:10066000C1F30311515CC8400649086006480068A0
:10067000FFF7CCFE0020C2E700200240001002403D
:10068000B61800080C000020040000200F220260B1
:100690000C4A536803F003034360536803F0F0030C
:1006A0008360536803F4E063C36052684FF4E0630F
:1006B00003EAD20202610448006800F00700086003
:1006C0007047000000100240002002400448054925
:1006D00000684968044AC1F30221515CC840704770
:1006E0000C00002000100240C6180008044805490C
:1006F00000684968044AC1F3C221515CC840704790
:100700000C00002000100240C61800080E4A516874
:100710000E4801F00C03042B11D0082B0FD10C480C
:10072000C1F38343C903C05C0AD55168084AC1F3C9
:100730004041921E515C054A5043B0FBF1F07047B6
:1007400004494843704700000010024000127A003C
:10075000A618000800093D002DE9F84F040070D0EC
:100760002078C04DC00749D06868C0F381000128D7
:1007700007D06868C0F38100022809D16868C00307
:1007800006D52868800339D560680028E7D035E0B1
:100790006068B0F5803F0BD010B1B0F5A02F11D03C
:1007A000286820F480302860286820F4802002E047
:1007B000286840F480302860606890B1FFF706FE3A
:1007C00006460AE0286840F480202860F0E700BF71
:1007D000FFF7FCFD801B642873D828688003F7D5D9
:1007E0000CE0FFF7F3FD064605E000BFFFF7EEFD66
:1007F000801B6428F0D828688003F7D420789A4EAC
:1008000080074FF001094FF0000839D5686810F0F3
:100810000C0F07D06868C0F38100022809D168680E
:10082000C00306D42868800714D52069012808D1A0
:1008300010E02069B0B1C6F80090FFF7C7FD074689
:1008400005E00AE1FFF7C2FDC01B0228C4D82868F2
:100850008007F7D52868616920F0F80040EAC100F8
:1008600028600DE0C6F80080FFF7B0FD074604E001
:10087000FFF7ACFDC01B022823D828688007F7D4F7
:10088000207800072CD57948A169D9B1C0F800902B
:10089000FFF79CFD074604E0FFF798FDC01B022808
:1008A0000FD8686A8007F7D571484FF4FA5100688D
:1008B000B0FBF1F0009000BF0098411E0091FAD209
:1008C0000EE080E0C0F80080FFF780FD074604E0FE
:1008D000FFF77CFDC01B022875D8686A8007F7D433
:1008E0002078400760D5E8690027C00008D4E8698F
:1008F00040F08050E861E869012700F080500090E6
:100900005C480168C90513D40168834641F48071CD
:100910000160FFF75BFD824606E000BFFFF756FD72
:10092000A0EB0A0064284ED8DBF80000C005F5D51E
:10093000E06801280AD008B1052813D0286A20F001
:1009400001002862286A20F0040002E0286A40F0D2
:1009500001002862E06841F2883B98B1FFF736FD5C
:1009600082460BE0286A40F004002862EEE700BFF0
:10097000FFF72CFDA0EB0A0159455AD8286A8007D9
:10098000F6D50CE0FFF722FD824605E0FFF71EFDDD
:10099000A0EB0A0159454CD8286A8007F6D41FB14C
:1009A000E86920F08050E861E06988B36968C1F3C4
:1009B0008101022944D00228C6F8608004D0FFF7E4
:1009C00005FD044638E034E0FFF700FD074604E08B
:1009D000FFF7FCFCC01B02282BD828688001F7D445
:1009E000206AB0F5803F05D16868A16820F4003026
:1009F00008436860D4E908010843696821F4741168
:100A000008436860C6F86090FFF7E0FC044606E023
:100A100025E000BFFFF7DAFC001B022809D8286890
:100A20008001F7D51BE000BFFFF7D0FC001B0228B8
:100A300002D90320BDE8F88F28688001F4D40EE0C5
:100A40000128F7D06868226A00F48031914204D10D
:100A5000616A00F47010884201D00120EAE70020AA
:100A6000E8E70000001002400000424280044242D9
:100A70000C000020007000407047704770B590F87F
:100A80003C20012A2CD0012480F83C40022280F82E
:100A90003D2003685A689D6822F070060A68324358
:100AA0005A60104B02689A420ED00F4B9A420BD0FC
:100AB000B2F1804F08D00D4B9A4205D00C4B9A42B0
:100AC00002D00C4B9A4204D1496825F080031943A7
:100AD000916080F83D40002180F83C10084670BDD0
:100AE000022070BD002C0140003401400004004091
:100AF00000080040000C004010B5040003D094F83A
:100B00003D0010B107E0012010BD002084F83C003A
:100B1000204600F01FF8022084F83D00211D2068C7
:100B200000F0DAFC012084F8460084F83E0084F8E6
:100B30003F0084F8400084F8410084F8420084F8C3
:100B4000430084F8440084F8450084F83D00002008
:100B500010BD000008B50068B0F1804F12D10A48FE
:100B6000C16941F00101C161C069002200F00100CA
:100B7000009002211C20FFF7C1FCBDE808401C20AA
:100B8000FFF7AEBC08BD00000010024090F83D1019
:100B9000012901D001207047022180F83D10016831
:100BA000CA6842F00102CA6000680E4988420ED04D
:100BB0000D4988420BD0B0F1804F08D00B498842D4
:100BC00005D00B49884202D00A49884204D1816885
:100BD00001F00701062903D0016841F0010101601D
:100BE00000207047002C0140003401400004004008
:100BF00000080040000C004070B5044690F83C002E
:100C00000025012817D0012684F83C60022084F8D2
:100C10003D002068826822F0770222F47F428260E1
:100C20000868502838D00DDC20284FD005DC90B360
:100C3000102811D14AE0022070BD302846D040284B
:100C40000AD13BE060282FD070280DD0B0F5805F2E
:100C500003D0B0F5005F12D0012584F83D6000207C
:100C600084F83C00284670BDCB68D1E9012120689A
:100C700000F08DFC2068816841F0770109E0CB68C5
:100C8000D1E90121206800F082FC2068816841F4EC
:100C900080418160E1E719E0CA684968206800F096
:100CA0004BFD5021206806E0CA684968206800F0C2
:100CB00054FD6021206800F074FCCEE7CA684968E2
:100CC000206800F039FD40212068F4E722680146E1
:100CD0001046F0E770472DE9F04104460068C66809
:100CE00005694FF00007A90713D5B10711D5F91E03
:100CF000016101202077206880698007204602D0AA
:100D0000FFF7E8FF04E000F0CBF8204600F008FA17
:100D10002777680716D5700714D521686FF004008F
:100D20000861022020772068806910F4407F204607
:100D300002D0FFF7CFFF04E000F0B2F8204600F049
:100D4000EFF92777280715D5300713D521686FF0FD
:100D500008000861042020772068C06980072046C9
:100D600002D0FFF7B7FF04E000F09AF8204600F049
:100D7000D7F92777E80616D5F00614D521686FF065
:100D800010000861082020772068C06910F4407FB7
:100D9000204602D0FFF79EFF04E000F081F82046D5
:100DA00000F0BEF92777E80708D0F00706D02168E1
:100DB0006FF001000861204600F00EFA280608D501
:100DC000300606D521686FF0800008612046FFF7E5
:100DD00053FE680608D5700606D521686FF04000FE
:100DE0000861204600F002FAA8060AD5B00608D528
:100DF00021686FF0200008612046BDE8F041FFF750
:100E00003CBEBDE8F081000000B585B00021009136
:100E10000191029103910068B0F1804F10D109480F
:100E2000816941F0040181618069694600F0040034
:100E3000049002200090019003900348FFF7BCF952
:100E400005B000BD001002400008014070B5044626
:100E500090F83C00002501280FD0012084F83C00C8
:100E60006AB1042A0FD0082A11D00C2A13D0012508
:100E7000002084F83C00284670BD022070BD206828
:100E800000F098FBF4E7206800F0C4FBF0E720686E
:100E900000F0F6FBECE7206800F026FCE8E7000035
:100EA0000168B1F1804F06D1007F012803D14021B4
:100EB0000148FFF77DBA7047000C014010B50400EF
:100EC00003D094F83D0010B107E0012010BD0020D0
:100ED00084F83C00204600F01EF8022084F83D0013
:100EE000211D206800F0F8FA012084F8460084F8FB
:100EF0003E0084F83F0084F8400084F8410084F804
:100F0000420084F8430084F8440084F8450084F8E3
:100F10003D00002010BD704730B500250446022278
:100F200049B1042912D0082946D094F8410001287B
:100F30004DD0012030BD94F83E000128F9D184F84D
:100F40003E202068C26842F0020209E094F83F00A7
:100F50000128EED184F83F202068C26842F00402E4
:100F6000C2600122206800F005FB1E4920681E4A6D
:100F7000884201D0904203D1436C43F40043436460
:100F8000206888420DD090420BD0B0F1804F08D03D
:100F90001649884205D01649884202D01549884230
:100FA00004D1816801F00701062903D0016841F0EE
:100FB00001010160284630BD94F840000128B8D1F5
:100FC00084F840202068C26842F00802C8E784F82C
:100FD00041200C2901D00125ECE72068C26842F0CD
:100FE0001002BDE7002C0140003401400004004025
:100FF00000080040000C004070B5044690F83C002A
:1010000000260D4601280FD0012084F83C006AB16B
:10101000042A1DD0082A2FD00C2A3FD001260020F8
:1010200084F83C00304670BD022070BD206800F09E
:10103000C1FA2068816941F00801816120688169F5
:1010400021F004018161206881692A69114311E05E
:10105000206800F0DFFA2068816941F40061816155
:101060002068816921F480618161206881692A6931
:1010700041EA02218161D2E7206800F001FB20688B
:10108000C16941F00801C1612068C16921F0040112
:10109000C1612068C1692A69114311E0206800F02C
:1010A00023FB2068C16941F40061C1612068C16906
:1010B00021F48061C1612068C1692A6941EA022185
:1010C000C161ACE710B5040003D094F83D0010B145
:1010D00007E0012010BD002084F83C00204600F00D
:1010E0001EF8022084F83D00211D206800F0F4F96C
:1010F000012084F8460084F83E0084F83F0084F81C
:10110000400084F8410084F8420084F8430084F8E9
:10111000440084F8450084F83D00002010BD70476D
:101120007047000010B50446022249B104290ED0D0
:10113000082913D094F84100012816D0012010BDD1
:1011400094F83E000128F9D184F83E200FE094F88D
:101150003F000128F2D184F83F2008E094F84000D5
:101160000128EBD184F8402001E084F841200122DD
:10117000206800F0FFF913492068134A884201D023
:10118000904203D1436C43F4004343642068884297
:101190000DD090420BD0B0F1804F08D00B4988425F
:1011A00005D00B49884202D00A49884204D181689F
:1011B00001F00701062903D0016841F00101016037
:1011C000002010BD002C014000340140000400400C
:1011D00000080040000C004000680349884201D12B
:1011E000FFF7FAB87047000000140040704770B570
:1011F000040004D094F84100002510B106E001205D
:1012000070BD84F84050204600F024F8242084F873
:1012100041002068C16821F40051C160204600F0FF
:10122000AFFA2068016921F49041016120684169A9
:1012300021F02A0141612068C16841F40051C16078
:101240006564202084F8410084F842006563002032
:1012500070BD000030B585B0002400940194029464
:10126000039400681449884224D11448816941F4E8
:1012700080418161816901F480410491816941F07B
:101280000401816180690E4D00F0040004904FF468
:1012900000700090022001900320039069462846C8
:1012A000FEF78AFF2815CDE9000469462846029416
:1012B000FEF782FF05B030BD00380140001002404B
:1012C00000080140FEE7000070B586B00024204809
:1012D0000094019402940394816941F010018161AA
:1012E000816901F010010491816941F0040181617B
:1012F000816901F004010491816941F0400181613B
:10130000816901F040010491816941F00801816126
:101310008069104E00F008004FF4E0750490002240
:1013200029463046FFF74CF8E801CDE9000469464C
:1013300009480294FEF740FF01200095CDE9010421
:101340000320039069463046FEF736FF06B070BDB5
:1013500000100240000C01400018014010B58EB092
:1013600000240794089409940A940B941C2168465D
:101370000C94FEF700FF28484FF0804101604721A0
:10138000C0E9011440F2E731C0E903148461FFF7BA
:10139000B3FB08B1FEF70EFF4FF48050079007A98A
:1013A0001D48FFF729FC08B1FEF704FF1A48FFF7B4
:1013B00085FD08B1FEF7FEFE1748FFF783FE08B172
:1013C000FEF7F8FE0B940BA913480C94FFF756FB9D
:1013D00008B1FEF7EFFE40F22620CDE9004002946E
:1013E000002269460C480494FFF730FD08B1FEF76F
:1013F000E1FE602000904FF4FA70019004226946EB
:101400000548FFF7F9FD08B1FEF7D4FE0248FFF7E3
:10141000FBFC0EB010BD0000100000200C4810B501
:101420000A4901604FF4E1314160002181600C22E2
:10143000C160C0E904128161C161FFF7D8FE0028D4
:1014400003D0BDE81040FEF7B5BE10BD0038014026
:1014500058000020FEE7FEE770477047704730B540
:101460008FB028216846FEF786FE14210AA8FEF7F1
:1014700082FE01210804CDE9001000240294022517
:101480000491CDE907504FF4E01009906846FFF74A
:1014900063F908B172B6FEE70F20CDE90A054FF4F3
:1014A0008060CDE90C4002210AA80E94FFF758F89D
:1014B000002801D072B6FEE70FB030BD70470000C3
:1014C0000148FFF708BC0000100000200148FFF7AA
:1014D00002BC0000A0000020F0B50268204C214DA5
:1014E000214E224F224B4FF0804CA04209D098420F
:1014F00007D0604505D0A84203D0B04201D0B84221
:1015000004D122F0700E4A6842EA0E02A04209D0CD
:10151000984207D0604505D0A84203D0B04201D020
:10152000B84203D122F44075CA682A434D6922F0BB
:1015300080022A4302608A68C2620A688262A0420C
:1015400001D0984201D1096901630121416101691A
:10155000C90703D0016921F001010161F0BD00005C
:10156000002C01400004004000080040000C004036
:101570000034014010B501F01F030121046A9940B5
:101580008C430462016A9A401143016210BD10B598
:10159000846842EA032224F47F440A43224382609F
:1015A00010BD826822F070020A4342F00701816098
:1015B00070470000F0B5036A026A22F0010202627D
:1015C00042688469124E24F073050C682C4323F0A2
:1015D00002058B682B430D4DA84201D0B04205D1C6
:1015E00023F00807CB683B4323F00403A84201D053
:1015F000B04205D14D6922F4407215438A692A43ED
:1016000042608461496841630362F0BD002C01407F
:1016100000340140F0B5026A036A23F0100303624C
:10162000436884690D6824F4E64444EA05248D681F
:1016300022F0200242EA05120F4D104EA84201D0BE
:10164000B04206D1CF6822F0800242EA071222F0AF
:101650004002A84201D0B04207D14D6923F4406353
:1016600043EA85038D6943EA8503436084614968E1
:1016700081630262F0BD0000002C01400034014093
:10168000F0B5026A036A23F4807303624368C46995
:1016900022F4007224F073050C68124E2C438D68FE
:1016A00042EA05220E4DA84201D0B04206D1CF68D1
:1016B00022F4006242EA072222F48062A84201D0AA
:1016C000B04207D14D6923F4405343EA05138D69B5
:1016D00043EA05134360C4614968C1630262F0BD17
:1016E000002C01400034014030B5046A026A22F443
:1016F000805202624268C3690D6823F4E64343EAFC
:1017000005238D6824F4005444EA0534084DA842AA
:1017100002D0084DA84204D14D6922F4804242EA29
:1017200085124260C36149680164046230BD0000F3
:10173000002C01400034014010B5036A046A24F013
:1017400001040462846924F0F00444EA021423F0E2
:101750000A020A438461026210BD10B5036A046A7A
:1017600024F010040462846923F0A00324F470447C
:1017700044EA023243EA01118261016210BD0000B5
:1017800070B5044600680169E26821F440511143D4
:1017900001612169A0680843616908432168CA683A
:1017A00041F20C639A430243CA6020684169A2690E
:1017B00021F44071114341611E492068884202D1E1
:1017C000FEF794FF01E0FEF781FF00EBC00101EBA3
:1017D0000012606864218000B2FBF0F3B3FBF1F308
:1017E0006FF018067343B2FBF0F5B2FBF0F605EBB1
:1017F0008305322303EB0515B5FBF1F5B6FBF1F6D6
:1018000005F0F00505EB0615B2FBF0F6B2FBF0F0C3
:10181000B0FBF1F06FF01802504306EB800003EBD1
:101820000010B0FBF1F0216800F00F002844886040
:1018300070BD000000380140FEE70907090E0028CE
:1018400004DB00F1E02080F80014704700F00F0086
:1018500000F1E02080F8141D704702E008C8121F54
:1018600008C1002AFAD170477047002001E001C189
:10187000121F002AFBD17047FEF7B6FDFFF7EFFD00
:10188000FFF722FDFFF7CAFDFFF768FD00210448BE
:10189000FFF742FB04210248FFF744FCFEE700008B
:1018A00010000020010202030405060708090A0BC4
:1018B0000C0D0E0F101000000000000000000102CF
:1018C00003040607080900000000010203040000E9
:1018D000F018000800000020100000005A1800084E
:1018E0000019000810000020D80400006A18000841
:1018F00001000000100000000000000000127A004B
:0400000508000131BD
:00000001FF
