:020000040800F2
:10000000F0040020450100082F1B0008C51000085F
:100010002D1B0008B1010008511C00080000000061
:10002000000000000000000000000000331B00087A
:10003000C101000800000000311B0008351B00084A
:100040005F0100085F0100085F0100085F01000810
:100050005F0100085F0100085F0100085F01000800
:100060005F0100085F0100085F0100085F010008F0
:100070005F0100085F010008B50100085F0100088A
:100080005F0100085F0100085F0100085F010008D0
:100090005F0100085F0100085F0100085F010008C0
:1000A0005F0100085F0100085F0100085F010008B0
:1000B0005F0100085F0100085F0100085F010008A0
:1000C0005F010008C91000085F0100085F01000817
:1000D0005F0100085F0100085F0100085F01000880
:1000E0005F0100085F0100085F0100085F01000870
:1000F0005F0100085F0100085F0100085F01000860
:100100005F0100085F0100085F0100085F0100084F
:100110005F0100085F0100085F0100085F0100083F
:100120005F0100085F0100085F0100085F0100082F
:10013000DFF80CD000F02AF800480047911C0008B6
:10014000F00400200648804706480047FEE7FEE727
:10015000FEE7FEE7FEE7FEE7FEE7FEE7FEE7FEE777
:10016000971B000831010008D2B201E000F8012B12
:10017000491EFBD270470022F6E710B513460A4627
:1001800004461946FFF7F0FF204610BD064C074D08
:1001900006E0E06840F0010394E807009847103457
:1001A000AC42F6D3FFF7C8FFF41C0008141D00088A
:1001B000FEE70000014800F0A3B800006400002042
:1001C000704772B6FEE700002DE9F05F90F821104D
:1001D0000024022903D004218163012485E0016801
:1001E0000A6822F00E020A6001680A6822F0010221
:1001F0000A603F4E3E4FB215DFF8F4C0DFF8F090D2
:10020000DFF8ECA0DFF8E8B0DFF8E4E00168783F61
:1002100013011502ACF1640CA9F15009AAF13C0AD2
:10022000ABF1280BAEF1140E4FF48018B14227D970
:10023000B9420ED0614512D049451DD0514518D064
:10024000594518D0714501D1424615E0294EB142B9
:1002500001D1012210E0274E1436B14201D1102203
:100260000AE0244E2836B14206D0224A3C3291425E
:1002700001D11A4600E02A461E49091F0A602BE0F8
:10028000B94213D0614517D0494522D051451DD000
:1002900059451DD0714501D142461AE0B14202D103
:1002A0004FF0807215E0134EB14201D1012210E0EF
:1002B000104E1436B14201D110220AE00D4E2836FC
:1002C000B14206D00B4A3C32914201D11A4600E0BD
:1002D0002A46074980394A60012180F8211000210F
:1002E00080F82010416B01B188472046BDE8F09F9F
:1002F000800002400804024090F82100704700008E
:100300002DE9F05FC16B0A6801680B68046C4FF05F
:10031000040808FA04F8844D844E854FDFF814C2AF
:10032000DFF81492DFF814A2DFF814B2DFF814E259
:1003300018EA020F65D05FEA437862D50A68920630
:1003400003D40A6822F004020A60DFF8F0814FF457
:100350008062016808F1140813011402414524D990
:10036000A9420DD0B1420FD0B9421AD0614515D083
:10037000494515D0514501D1120312E0594501D12B
:1003800004220EE0714501D140220AE06D4D143582
:10039000A94206D06B4A2832914201D11A4600E0A8
:1003A00022466749091F0A6029E0A94213D0B142D9
:1003B00015D0B94220D061451BD049451BD05145CD
:1003C00002D14FF4800217E0414502D14FF0806224
:1003D00012E0594501D104220EE0714501D14022BD
:1003E0000AE0584D1435A94206D0564A28329142A7
:1003F00001D11A4600E022464B4908394A60C16AD9
:1004000071E04FF0020808FA04F818EA020F70D001
:100410005FEA83786DD50A68920606D40A6822F0EE
:100420000A020A60012180F82110DFF810814FF4E0
:100430000072016808F1140813011402414524D91F
:10044000A9420DD0B1420FD0B9421AD0614515D0A2
:10045000494515D0514501D1120312E0594501D14A
:1004600002220EE0714501D120220AE0354D1435FB
:10047000A94206D0334A2832914201D11A4600E0FF
:1004800022462F49091F0A6029E0A94213D0B14230
:1004900015D0B94220D061451BD049451BD05145EC
:1004A00002D14FF4001217E0414502D14FF0007223
:1004B00012E0594501D102220EE0714501D12022FE
:1004C0000AE0204D1435A94206D01E4A2832914236
:1004D00001D11A4600E02246134908394A6000213A
:1004E00080F82010816A00291CD0BDE8F05F084721
:1004F000FFE70825A540154214D01A0712D50A684F
:1005000022F00E020A6090F84020C36B012101FA2C
:1005100002F25A60816380F82110002180F82010D7
:10052000016BE0E7BDE8F09F080002401C000240BC
:100530003000024044000240580002406C0002407B
:10054000080402401C04024070B5044600F010F993
:100550000546601C02D004480078044400F008F905
:10056000401BA042FAD370BD000000202DE9F84FD7
:10057000DFF8C8910024A9F1040B23460F2709F1E5
:10058000040AABF1040ED1E00125A54006EA0502FC
:10059000AA4276D1DFF8A8C14E68A6EB0C086645E2
:1005A0002BD00DDC032E34D005DC36B3012E19D050
:1005B000022E2FD11BE0112E16D0122E2AD119E0B7
:1005C000B8F5881F19D006DCB8F5803F15D0B8F50E
:1005D000801F1FD111E0B8F5001F0ED0B8F5041F21
:1005E00018D10AE0CB6815E0CB681B1D12E0CB6880
:1005F00008330FE0CB680C330CE08B682BB1012B78
:100600004FF0080303D0456104E0042302E00561D4
:1006100000E00023FF2A01D8064601E000F10406AD
:100620004FEA840501D9A5F12005D6F8008007FA24
:1006300005FC28EA0C0803FA05F548EA0508C6F89F
:1006400000804D68ED0070D53E4DAE6946F0010664
:10065000AE61AD6924F0030605F0010500953A4D41
:1006600006EB050CDCF80850A607360F07FA06F86B
:1006700025EA0805DFF8D480404503D14FF0000893
:1006800025E052E0DFF8C880404502D14FF0010874
:100690001DE0DFF8C080404502D14FF0020816E0AF
:1006A000DFF8B480404502D14FF003080FE0DFF8D7
:1006B000AC80404502D14FF0040808E0DFF8A0808C
:1006C000404502D14FF0050801E04FF0060808FA56
:1006D00006F848EA0508CCF808804D68D9F80060AB
:1006E000ED024D4601D5164300E096432E604D685D
:1006F000DAF80060AD02554601D5164300E0964396
:100700002E604D68DBF80060AD035D4601D51643F1
:1007100000E096432E604D68DEF80060ED037546FC
:1007200001D5164300E096432E60641C0A68164605
:10073000E2407FF429AFBDE8F88F000008040140D3
:1007400000001110001002400000014000080140AC
:10075000000C01400010014000140140001801404D
:10076000001C01400AB1016170470904FBE7000069
:100770000148806870470000000000207047704703
:100780002DE9F047026800215368C66A90F83E40A0
:1007900090F83D50102C12D0402C10D0046C002C3E
:1007A0007DD05469E443A6077AD4DE43B60577D4F6
:1007B000036C03B19169BDE8F04701F069B897692E
:1007C00051694FF42A0CC9435FEAC1784FF02A49B6
:1007D00004D066452AD04E4528D010E0DE43B60549
:1007E0000DD4C16A614501D1012103E0C16A4945C7
:1007F00001D10821C162BDE8F04700F0AFBF0E078C
:1008000016D4DE43B60513D4416CC9B21161416BF5
:1008100009B1896A29B9816B002907D0896A002941
:1008200004D00068416841F400614160BDE8F08790
:100830008E0706D4DE43B60503D4BDE8F04700F0CA
:10084000E1BEFE43526876074FEA02521DD4002AE9
:10085000ECDB0A0608D4DA43520505D4490705D56E
:10086000BDE8F04700F072BE4907DFD4D9438905DF
:10087000DCD4212D05D0402CD8D1BDE8F04700F0C4
:10088000B3BFBDE8F04700F01FBE002ACEDB4A062A
:100890000BD4DA43520508D4490708D501E00DE02E
:1008A0000EE0BDE8F04700F095BD4907BED4D9433E
:1008B0008905BBD4BDE8F04700F01EBD916970E723
:1008C000E10606D4D943890503D4BDE8F04701F019
:1008D00003B82821212D27D0292D25D0650655D4F0
:1008E000DD436D0552D4640752D590F83D30448DF8
:1008F000002C9BD01269446A2270426A521C4262E8
:10090000428D521E4285428D002A8FD12A2B8DD1D5
:100910000268536823F4806353602222026380F8E4
:100920003D1000F04BF881E7250623D4DD436D052B
:1009300020D4640720D590F83D30448D002CF2D0AF
:10094000446A24781461426A521C4262428D521EEB
:100950004285428D002AE6D1292BE4D102685368F2
:1009600023F4806353602122026380F83D1000F07D
:1009700026F85BE76107D6D4D9438905D3D4418DE6
:100980000029D0D0416A097811610AE06107CAD410
:10099000D9438905C7D4418D0029C4D01169426A61
:1009A0001170416A491C4162418D491E41853DE7F4
:1009B000704770477047704770477047704770477F
:1009C000024881680278114481607047000000206D
:1009D000074810B5016841F010010160032000F0E4
:1009E00075F80F2000F006F800F024F8002010BD84
:1009F0000020024070B50D4D04464FF47A712878FE
:100A0000B1FBF0F00A490968B1FBF0F000F0DCFA44
:100A100048B9102C07D200222146501E00F036F8AB
:100A200000206C6070BD012070BD0000000000203F
:100A30000C0000200C4808B5816941F0010181617A
:100A4000816901F001010091C16941F08051C161EA
:100A5000C06900F0805000900448416821F0E061D6
:100A600041F00071416008BD0010024000000140EB
:100A7000002809DB00F01F0201219140400980009D
:100A800000F1E020C0F8001170470000F0B40E4BF8
:100A90001B680C46C3F30223C3F10705042D00D9DC
:100AA0000425191D072901D2002300E0DB1E0126C1
:100AB00006FA05F1491E214099409E40761E1640D7
:100AC0003143F0BC01F0C5B80CED00E0064900F080
:100AD000070208684FF6FF03184040EA0220034A65
:100AE00010430860704700000CED00E00000FA05BC
:100AF0002DE9F0470F46050061D0434E306800F005
:100B00000700B84209D2306820F00700384330604F
:100B1000306800F00700B84251D128683B4C81078B
:100B200012D5400703D5606840F4E0606060287823
:100B3000000703D5606840F4605060606068A96891
:100B400020F0F000084360602878C00728D068686B
:100B5000012810D02168022810D0890700292EDA38
:100B6000616821F0030101436160FFF701FE8046E7
:100B700041F288390DE021688903EFE78901EDE74B
:100B8000FFF7F6FDA0EB0801494502D90320BDE8B7
:100B9000F0876068696800F00C00B0EB810FEFD15E
:100BA000306800F00700B8420BD9306820F0070029
:100BB00038433060306800F00700B84201D00120AF
:100BC000E5E72878400705D56068E96820F4E0602B
:100BD000084360602878000706D56068296920F41A
:100BE000605040EAC100606000F038F86168084A6F
:100BF000C1F30311515CC84006490860064800680B
:100C0000FFF7F8FE0020C2E700200240001002407B
:100C1000DA1C00080C0000200400002004480549EC
:100C200000684968044AC1F30221515CC84070471A
:100C30000C00002000100240EA1C0008044805498E
:100C400000684968044AC1F3C221515CC84070473A
:100C50000C00002000100240EA1C00080E4A5168F7
:100C60000E4801F00C03042B11D0082B0FD10C48B7
:100C7000C1F38343C903C05C0AD55168084AC1F374
:100C80004041921E515C054A5043B0FBF1F0704761
:100C900004494843704700000010024000127A00E7
:100CA000CA1C000800093D002DE9F84F040070D06F
:100CB0002078C04DC00749D06868C0F38100012882
:100CC00007D06868C0F38100022809D16868C003B2
:100CD00006D52868800339D560680028E7D035E05C
:100CE0006068B0F5803F0BD010B1B0F5A02F11D0E7
:100CF000286820F480302860286820F4802002E0F2
:100D0000286840F480302860606890B1FFF730FDBB
:100D100006460AE0286840F480202860F0E700BF1B
:100D2000FFF726FD801B642873D828688003F7D559
:100D30000CE0FFF71DFD064605E000BFFFF718FDBC
:100D4000801B6428F0D828688003F7D420789A4E56
:100D500080074FF001094FF0000839D5686810F09E
:100D60000C0F07D06868C0F38100022809D16868B9
:100D7000C00306D42868800714D52069012808D14B
:100D800010E02069B0B1C6F80090FFF7F1FC07460B
:100D900005E00AE1FFF7ECFCC01B0228C4D8286874
:100DA0008007F7D52868616920F0F80040EAC100A3
:100DB00028600DE0C6F80080FFF7DAFC074604E083
:100DC000FFF7D6FCC01B022823D828688007F7D479
:100DD000207800072CD57948A169D9B1C0F80090D6
:100DE000FFF7C6FC074604E0FFF7C2FCC01B022861
:100DF0000FD8686A8007F7D571484FF4FA51006838
:100E0000B0FBF1F0009000BF0098411E0091FAD2B3
:100E10000EE080E0C0F80080FFF7AAFC074604E07F
:100E2000FFF7A6FCC01B022875D8686A8007F7D4B4
:100E30002078400760D5E8690027C00008D4E86939
:100E400040F08050E861E869012700F08050009090
:100E50005C480168C90513D40168834641F4807178
:100E60000160FFF785FC824606E000BFFFF780FCCB
:100E7000A0EB0A0064284ED8DBF80000C005F5D5C9
:100E8000E06801280AD008B1052813D0286A20F0AC
:100E900001002862286A20F0040002E0286A40F07D
:100EA00001002862E06841F2883B98B1FFF760FCDE
:100EB00082460BE0286A40F004002862EEE700BF9B
:100EC000FFF756FCA0EB0A0159455AD8286A80075B
:100ED000F6D50CE0FFF74CFC824605E0FFF748FC36
:100EE000A0EB0A0159454CD8286A8007F6D41FB1F7
:100EF000E86920F08050E861E06988B36968C1F36F
:100F00008101022944D00228C6F8608004D0FFF78E
:100F10002FFC044638E034E0FFF72AFC074604E0E3
:100F2000FFF726FCC01B02282BD828688001F7D4C5
:100F3000206AB0F5803F05D16868A16820F40030D0
:100F400008436860D4E908010843696821F4741112
:100F500008436860C6F86090FFF70AFC044606E0A4
:100F600025E000BFFFF704FC001B022809D8286811
:100F70008001F7D51BE000BFFFF7FAFB001B02283A
:100F800002D90320BDE8F88F28688001F4D40EE070
:100F90000128F7D06868226A00F48031914204D1B8
:100FA000616A00F47010884201D00120EAE7002055
:100FB000E8E7000000100240000042428004424284
:100FC0000C0000200070004010B5401EB0F1807F82
:100FD00001D3012010BD4FF0E02460610F216017A4
:100FE00000F037FE0020A06107202061002010BD26
:100FF00070B5040004D094F84100002510B106E05B
:10100000012070BD84F84050204600F023F82420D1
:1010100084F841002068C16821F40051C160204675
:1010200000F0BAFD2068016921F490410161206857
:10103000416921F02A0141612068C16841F40051F1
:10104000C1606564202084F8410084F84200656333
:10105000002070BD30B585B0002400940194029446
:10106000039400681449884224D11448816941F4EA
:1010700080418161816901F480410491816941F07D
:101080000401816180690E4D00F0040004904FF46A
:1010900000700090022001900320039069462846CA
:1010A000FFF764FA2815CDE9000469462846029442
:1010B000FFF75CFA05B030BD003801400010024077
:1010C00000080140FEE700000148FFF759BB00009F
:1010D0001000002038B5406A002190F83D202B4BCD
:1010E00046F2A8141B68B3FBF4F3C3EBC30303EB92
:1010F000830300933BB15B1E009303681B689B0551
:1011000005D5009BF6E7036C43F020030364436BB3
:1011100003B19962836B03B1996203681C6824F47C
:1011200080641C604185436B03B15963836B03B1D9
:10113000596303681C6824F001041C6090F83D406A
:101140002023602C0BD0282434EA02020FD080F830
:101150003D3080F83E1000BFFFF72AFC38BD80F814
:101160003D3080F83E100164FFF708FB38BD02688F
:10117000136843F0010313600268136843F480634B
:101180001360016380F83D40E6E700000C0000209A
:1011900000684169C943090601D400210161704713
:1011A00070B5044690F83D0094F83E10102901D027
:1011B000402906D1222804D121680A6822F400625D
:1011C0000A60282131EA00024FF000054FF02006A6
:1011D00026D021684968090505D4602803D084F821
:1011E0003D6084F83E50256320684168090537D585
:1011F000416821F400614160606B90F821203C4916
:10120000012A11D04163606BFEF7DEFF38B320681E
:10121000016821F00101016084F83D60606B1CE011
:10122000256384F83D10DFE7A06B4163A06BFEF7F8
:10123000CBFFA0B120684169C943490605D40069C4
:10124000616A0870606A401C60622068016821F071
:101250000101016084F83D60A06B416B884710E09C
:1012600094F83D10602910D04169C943490605D45E
:101270000069616A0870606A401C60622046FFF77E
:1012800097FB206CC1071CD115E084F83D602564F4
:101290004169C943490605D40069616A0870606AFA
:1012A000401C60622068016821F001010160204655
:1012B000FFF764FAE5E7810703D4410701D400078B
:1012C00004D52068416821F4E061416094F83D0054
:1012D000216C49070BD5282809D10648E06225630F
:1012E00084F83D6084F83E502046FFF762FB70BDF5
:1012F000D51000080000FFFF10B5C26A438D0168D9
:10130000042B06D0438D032B08D0438D022B1DD018
:1013100012E04A6822F480624A600CE04B6823F4D1
:1013200080634B60042A06D0022A04D001680A6850
:1013300022F480620A6001680969426A1170416A98
:10134000491C4162418D491E418510BD012A34D09E
:10135000102A32D0042A34D0022A32D00B6843F447
:1013600000730B6001680969436A1970416A491C7E
:101370004162438D5B1E438503681B690B70416AA4
:10138000491C4162418D491E418501684B6823F427
:1013900040734B60202180F83D1090F83E300021D2
:1013A000402B80F83E1010D0082A02D0202A00D00E
:1013B00012210163FFF7FEFA10BD0B6823F480636E
:1013C000CFE70B6843F48063CBE70163FFF7F4FAE0
:1013D00010BD000038B590F83D10222910D1C36A25
:1013E000418D03290DD901680969426A1170416A6A
:1013F000491C4162418D491E4185418D032906D01A
:1014000038BDC26A022A02D0012906D029B100687B
:10141000416821F48061416038BD2A4A46F2A8142F
:1014200000211268B2FBF4F202EB82020092026821
:101430002024009D6D1E009526D01568AD05F8D4BA
:10144000156825F4806515600268556825F4E06527
:10145000556002681269456A2A70426A521C4262EB
:10146000428D521E428580F83D4090F83E2080F823
:101470003E10402A21D0082B02D0202B00D0122170
:101480000163FFF797FA38BD036C43F02003036450
:10149000536823F4E063536002681269436A1A7068
:1014A000426A521C4262428D521E428580F83D4083
:1014B00080F83E10FFF77CFA38BD0163FFF77CFA35
:1014C00038BD00000C00002010B5C26A90F83D1035
:1014D00021290BD1418D51B1416A0268097811610E
:1014E000416A491C4162418D491E418510BD20233E
:1014F0000021082A13D0202A11D012F5803F0ED0E7
:101500000268546824F4E06454601122026380F895
:101510003E1080F83D3000BFFFF74DFA10BD026865
:10152000546824F4E06454600268146844F400745D
:101530001460016380F83D3090F83E2080F83E1042
:10154000402AE9D1FFF739FA10BD000010B590F834
:101550003D1090F83E30C26A048DB4B1212903D009
:10156000402B11D122290FD1418DE1B390F83E10CB
:10157000402942D0416A026809781161416A491CD8
:101580004162418D491E418510BD2129E8D12023AA
:101590000021082A13D0202A11D012F5803F0ED046
:1015A0000268546824F4E06454601122026380F8F5
:1015B0003E1080F83D3000BFFFF7FDF910BD026816
:1015C000546824F4E06454600268146844F40074BD
:1015D0001460016380F83D3090F83E2080F83E10A2
:1015E000402AE9D100E002E0FFF7E7F910BD00680A
:1015F000416821F48061416010BDBDE8104000F0F9
:10160000F3B8000078B590F83E50C26A046B90F8C9
:101610003D6000230168222E73D1066D0EB9402D66
:101620006FD0056D1DB90569B5F5404F1BD0458DCF
:1016300095B3468D484D012E20D0448D022C4DD0BF
:101640000C6844F480640C6001684C68240579D50A
:10165000AA4273D0012A71D0082A6FD0102A6DD007
:10166000202A6BD06EE04A698A6900920A6842F4C7
:1016700080720A60016D491C016578BDAA4214D1CF
:101680000A6822F480620A6001684A68120504D57B
:101690000A6822F4806217E0FFE74A698A690092CB
:1016A0000A6842F400720A6050E0082A10D0202A2A
:1016B0000ED0122C0AD0042A03D0022A01D0102AFC
:1016C000E6D10A6842F480620A603BE0012ADFD07A
:1016D0000A6822F480620A600168DEE7042A11D0F9
:1016E000022A0FD0102A0DD00C6844F400640C605C
:1016F00001684C698C6900940C6824F480640C6067
:1017000008E025E00C6844F480640C6001684C69D2
:101710008969009101684C68240517D5AA4207D051
:10172000012A05D0082A03D0102A01D0202A0DD181
:101730004A6842F480524A6008E0FFE74A6842F48F
:1017400080524A6001684A6989690091036578BDE1
:1017500048698869009078BD0000FFFF90F83E104E
:10176000402910D00169B1F5804F19D0016DA9B39E
:10177000016D012910D1416C5FF0F10201F440715B
:1017800042EAD11106E0016D0029416C05D0C9B2D1
:1017900041F0010100680161704701F0FE01F9E7C5
:1017A00090F83D102129416C09D0C9B241F00101E6
:1017B00002681161416B29B1896A49B902E001F0FF
:1017C000FE01F5E7816B0029E6D0896A0029E3D0A4
:1017D0000068416841F4006141607047FFE7416C77
:1017E000F02201F44071CBE710B590F83D10026D86
:1017F0004AB1026D012A14D0026D022A16D0BDE84A
:101800001040FFF7C5BCC16C0129816C02D0C1F347
:10181000072108E00268C9B21161016D891C0165E8
:1018200010BD816CC9B20268116123E022291CD06D
:10183000428D0AB1212920D0428D002AF0D12129E0
:10184000EED101684A6822F4E0624A6001680A68E1
:1018500042F400720A6000210163202280F83D20DA
:1018600080F83E10FFF7A9F810BD01680A6842F43D
:1018700080720A60016D491CD1E7416A02680978EB
:101880001161416A491C4162418D491E418510BD6B
:1018900038B50C4690F83D20002128259543026874
:1018A0000B4605D051699169009180F83C3038BDF4
:1018B000556825F480655560E243540700D5012141
:1018C000120601D5828900E0028B80F83C3092B28A
:1018D000FEF755FF38BD0000F8B590F83D600446AE
:1018E0000068416821F4E061416020680025416999
:1018F0000091016841F0010101602068016821F454
:101900008061016020684168090520D5474F222E7B
:1019100048D02A2E46D0616B096849686185618D7F
:1019200019B1216C41F004012164416821F4006186
:101930004160606BFEF7E0FC012808D0606B4763F4
:10194000606BFEF741FC10B1606B416B8847608DA6
:1019500008B320684169C943490708D40069616A2E
:101960000870606A401C6062608D401E608520685F
:101970004169C943490608D40069616A0870606A10
:10198000401C6062608D401E6085608D18B1206CC7
:1019900040F004002064206C00B32046BDE8F8400D
:1019A000FFF7FEBBA16B096849686185618D19B1BC
:1019B000216C41F004012164416821F4006141601F
:1019C000A06BFEF799FC0128C1D0A06B4763A06B08
:1019D000FEF7FAFB0028BAD0A06BB6E72A2E06D194
:1019E0002563282084F83D002046FEF7E7FF94F8A1
:1019F0003D10202028290DD0216B222901D0222E34
:101A000007D1256384F83D0084F83E502046FEF758
:101A1000D5FFF8BD0649E162256384F83D0084F8EE
:101A20003E502046FEF7C5FFF8BD0000D510000867
:101A30000000FFFF094808B5416941F0010141611B
:101A40004069002200F00100009011460E20FFF7CF
:101A50001DF8BDE808400E20FFF70AB8001002404C
:101A600070B586B000242048009401940294039439
:101A7000816941F010018161816901F010010491D7
:101A8000816941F040018161816901F04001049167
:101A9000816941F008018161816901F008010491C7
:101AA000816941F0040181618069104E00F00400F9
:101AB0004FF4E0750490002229463046FEF752FEAE
:101AC000E801CDE90004694609480294FEF74EFD9D
:101AD00001200095CDE901040320039069463046BA
:101AE000FEF744FD06B070BD00100240000C01403E
:101AF000001801400C4810B50A4901604FF4E1316B
:101B00004160002181600C22C160C0E90412816142
:101B1000C161FFF76DFA002803D0BDE81040FEF761
:101B200050BB10BD00380140A8000020FEE7FEE7D2
:101B300070477047FEF744BF30B58FB02821684624
:101B4000FEF719FB14210AA8FEF715FB0121080472
:101B5000CDE900100024029402250491CDE907503C
:101B60004FF4E01009906846FFF79EF808B172B68E
:101B7000FEE70F20CDE90A054FF48060CDE90C4067
:101B800002210AA80E94FEF7B3FF002801D072B616
:101B9000FEE70FB030BD704770B5044600680169BC
:101BA000E26821F44051114301612169A0680843B2
:101BB000616908432168CA6841F20C639A43024391
:101BC000CA6020684169A26921F4407111434161F2
:101BD0001E492068884202D1FFF730F801E0FFF784
:101BE0001DF800EBC00101EB001260686421800069
:101BF000B2FBF0F3B3FBF1F36FF018067343B2FBE3
:101C0000F0F5B2FBF0F605EB8305322303EB051587
:101C1000B5FBF1F5B6FBF1F605F0F00505EB0615A1
:101C2000B2FBF0F6B2FBF0F0B0FBF1F06FF018028F
:101C3000504306EB800003EB0010B0FBF1F021688D
:101C400000F00F002844886070BD0000003801409B
:101C5000FEE70907090E002804DB00F1E02080F808
:101C60000014704700F00F0000F1E02080F8141D10
:101C7000704702E008C8121F08C1002AFAD1704755
:101C80007047002001E001C1121F002AFBD17047FC
:101C9000FEF79EFEFFF750FFFFF7E2FEFFF7CAFEDA
:101CA000FFF728FF074C012240212046FEF75AFD8E
:101CB000C820FEF749FC002240212046FEF752FDD5
:101CC000F1E70000000C01400102020304050607D1
:101CD00008090A0B0C0D0E0F101000000000000088
:101CE00000000102030406070809000000000102C9
:101CF00003040000141D0008000000201000000074
:101D0000721C0008241D000810000020E0040000E0
:101D1000821C00080100000010000000000000000C
:041D200000127A0033
:0400000508000131BD
:00000001FF
