:020000040800F2
:100000001009002045010008CF290008711A0008D6
:10001000CD29000853040008FD2B00080000000053
:10002000000000000000000000000000DF2A0008BF
:100030008B04000800000000DD2A0008E12A000807
:100040005F0100085F0100085F0100085F01000810
:100050005F0100085F0100085F0100085F01000800
:100060005F0100085F0100085F0100085F010008F0
:100070005F0100085F010008550400085F010008E7
:100080005F0100085F0100085F0100085F010008D0
:100090005F0100085F0100085F0100085F010008C0
:1000A0005F0100085F0100085F0100085F010008B0
:1000B0005F0100085F0100085F0100085F010008A0
:1000C0005F010008811A0008751A00085F01000826
:1000D0005F0100085F0100085F0100085F01000880
:1000E0005F0100085F0100085F0100085F01000870
:1000F0005F0100085F0100085F0100085F01000860
:100100005F0100085F0100085F0100085F0100084F
:100110005F0100085F0100085F0100085F0100083F
:100120005F0100085F0100085F0100085F0100082F
:10013000DFF80CD000F02CF900480047F12D000842
:10014000100900200648804706480047FEE7FEE702
:10015000FEE7FEE7FEE7FEE7FEE7FEE7FEE7FEE777
:10016000432B000831010008D2B201E000F8012B56
:10017000491EFBD270470022F6E710B513460A4627
:1001800004461946FFF7F0FF204610BDF0B480EAA0
:100190000102D40F4200B2EB410F02D202460846E0
:1001A00011464A0042D0C30DDDB2C1F3C752AD1AA9
:1001B000202D35DAC1F3160141F4000204B1524298
:1001C000C5F1200602FA06F12A411044B3EBD05FD4
:1001D00023D0C4B1012DA0EBC35009DCF0BC4FF01B
:1001E000004202EAC352DBB200F5000000F083B81F
:1001F000400000F1807000EBC350A0F1807040EA35
:10020000D170490009E0490841EAC071A0EBC35030
:1002100000F50000400800EBC350F0BC00F062B8ED
:100220006142012202EB4101001BF6E7F0BC70477E
:1002300081F00041AAE780F00040A7E780EA0102D0
:1002400010B502F00043400022D04A001FD0010E3A
:1002500001EB1261C0F35600C2F3560240F40000F5
:1002600042F40002A0FB022000047F39140400D0F5
:10027000401C50EA124001D44000491EC2B20C0694
:1002800004EBD010401C4008802A02D003E000207C
:1002900010BD20F00100002900DA0020184310BD35
:1002A000C10F80EAE0700844CA079623002100F0DD
:1002B00022B800F0004220F00040C10DC0F316004B
:1002C00040F400007F2901DA00207047962903DC02
:1002D000C1F19601C84001E096398840002AF4D067
:1002E000404270470029A8BF7047401C490008BF22
:1002F00020F00100704710B4B0FA80FC00FA0CF056
:1003000050EA010404BF10BC704749B1CCF120048D
:1003100021FA04F411FA0CF118BF0121214308431A
:10032000A3EB0C01CB1D4FEA00614FEA102042BF46
:10033000002010BC704700EBC35010440029A4BF3C
:1003400010BC7047401C490008BF20F0010010BCE1
:10035000704710B541000CD0C0F3C751962908DC96
:100360007E2909DC06DB410204D000F0004040F0A9
:100370007E5010BD002010BDC1F19604C4F12001D3
:1003800000FA01F1E040FFF7ADFFA04010BD000012
:10039000064C074D06E0E06840F0010394E80700D2
:1003A00098471034AC42F6D3FFF7C6FEF82F00088A
:1003B0001830000830B480EA010202F0004530F045
:1003C000004221F0004013D090B1C30DD40DC2F310
:1003D0001601C0F31600E41A41F4000140F40002D3
:1003E0007D34914201D3641C00E04900002C02DA04
:1003F00030BC002070474FF400000023914201D32D
:10040000891A034340084FEA4101F7D151B19142A3
:1004100002D14FF0004105E002D24FF0010101E0AE
:100420006FF0010103EBC450284430BCFFF75ABF02
:10043000420005D0C0F3C7525242914201DC002075
:10044000704700EBC1507047962300221146FFF71A
:1004500052BFFEE7014800F0E3B80000840000202E
:1004600030B590F840500124AC40C56B6C60046816
:1004700063604368102B036803D099600068C26012
:1004800030BD9A600068C16030BD70472DE9F04111
:10049000804602F0B1FA114D114E00244FF084470E
:1004A0002046FFF7FDFE4146FFF770FE2946FFF7A5
:1004B000C5FE02F0B7FC3146FFF7C0FE3946FFF734
:1004C00065FEFFF7F6FE01B220B202F09DFA641C51
:1004D000802CE5DBBDE8F04102F0D2BACDCCCC3DBA
:1004E0000000A04172B6FEE72DE9F05F90F8211000
:1004F0000024022903D004218163012485E00168DE
:100500000A6822F00E020A6001680A6822F00102FD
:100510000A603F4E3E4FB215DFF8F4C0DFF8F090AE
:10052000DFF8ECA0DFF8E8B0DFF8E4E00168783F3E
:1005300013011502ACF1640CA9F15009AAF13C0AAF
:10054000ABF1280BAEF1140E4FF48018B14227D94D
:10055000B9420ED0614512D049451DD0514518D041
:10056000594518D0714501D1424615E0294EB14296
:1005700001D1012210E0274E1436B14201D11022E0
:100580000AE0244E2836B14206D0224A3C3291423B
:1005900001D11A4600E02A461E49091F0A602BE0D5
:1005A000B94213D0614517D0494522D051451DD0DD
:1005B00059451DD0714501D142461AE0B14202D1E0
:1005C0004FF0807215E0134EB14201D1012210E0CC
:1005D000104E1436B14201D110220AE00D4E2836D9
:1005E000B14206D00B4A3C32914201D11A4600E09A
:1005F0002A46074980394A60012180F821100021EC
:1006000080F82010416B01B188472046BDE8F09F7B
:10061000800002400804024090F82100704700006A
:100620002DE9F05FC16B0A6801680B68046C4FF03C
:10063000040808FA04F8844D844E854FDFF814C28C
:10064000DFF81492DFF814A2DFF814B2DFF814E236
:1006500018EA020F65D05FEA437862D50A6892060D
:1006600003D40A6822F004020A60DFF8F0814FF434
:100670008062016808F1140813011402414524D96D
:10068000A9420DD0B1420FD0B9421AD0614515D060
:10069000494515D0514501D1120312E0594501D108
:1006A00004220EE0714501D140220AE06D4D14355F
:1006B000A94206D06B4A2832914201D11A4600E085
:1006C00022466749091F0A6029E0A94213D0B142B6
:1006D00015D0B94220D061451BD049451BD05145AA
:1006E00002D14FF4800217E0414502D14FF0806201
:1006F00012E0594501D104220EE0714501D140229A
:100700000AE0584D1435A94206D0564A2832914283
:1007100001D11A4600E022464B4908394A60C16AB5
:1007200071E04FF0020808FA04F818EA020F70D0DE
:100730005FEA83786DD50A68920606D40A6822F0CB
:100740000A020A60012180F82110DFF810814FF4BD
:100750000072016808F1140813011402414524D9FC
:10076000A9420DD0B1420FD0B9421AD0614515D07F
:10077000494515D0514501D1120312E0594501D127
:1007800002220EE0714501D120220AE0354D1435D8
:10079000A94206D0334A2832914201D11A4600E0DC
:1007A00022462F49091F0A6029E0A94213D0B1420D
:1007B00015D0B94220D061451BD049451BD05145C9
:1007C00002D14FF4001217E0414502D14FF0007200
:1007D00012E0594501D102220EE0714501D12022DB
:1007E0000AE0204D1435A94206D01E4A2832914213
:1007F00001D11A4600E02246134908394A60002117
:1008000080F82010816A00291CD0BDE8F05F0847FD
:10081000FFE70825A540154214D01A0712D50A682B
:1008200022F00E020A6090F84020C36B012101FA09
:1008300002F25A60816380F82110002180F82010B4
:10084000016BE0E7BDE8F09F080002401C00024099
:100850003000024044000240580002406C00024058
:10086000080402401C04024030B560B11A4B026813
:1008700014219A4209D2194B1344B3FBF1F18900B8
:10088000016417490AE0012030BD134B5B42134459
:10089000B3FBF1F1890001640F490839C1630221FA
:1008A00080F82110136843F6F0718B43F0E90114CE
:1008B0002143D0E902452C43214304692143446983
:1008C00021438469214319431160002141630122BE
:1008D00042770177084630BD08040240F8FFFDBFAB
:1008E0000000024070B5044690F820000025012861
:1008F0000CD0012084F8200094F821600020012E03
:1009000006D084F820000225284670BD022070BD64
:10091000022684F82160A0632068066826F001069C
:1009200006602046FFF79CFDE06A00282068016809
:1009300002D041F00E0106E021F0040101602068C0
:10094000016841F00A0101602068016841F001017D
:100950000160D9E72DE9F84FDFF8C8910024A9F12B
:10096000040B23460F2709F1040AABF1040ED1E072
:100970000125A54006EA0502AA4276D1DFF8A8C102
:100980004E68A6EB0C0866452BD00DDC032E34D048
:1009900005DC36B3012E19D0022E2FD11BE0112E0B
:1009A00016D0122E2AD119E0B8F5881F19D006DC0E
:1009B000B8F5803F15D0B8F5801F1FD111E0B8F50C
:1009C000001F0ED0B8F5041F18D10AE0CB6815E05F
:1009D000CB681B1D12E0CB6808330FE0CB680C33EB
:1009E0000CE08B682BB1012B4FF0080303D045615D
:1009F00004E0042302E0056100E00023FF2A01D89F
:100A0000064601E000F104064FEA840501D9A5F18C
:100A10002005D6F8008007FA05FC28EA0C0803FA3E
:100A200005F548EA0508C6F800804D68ED0070D568
:100A30003E4DAE6946F00106AE61AD6924F0030695
:100A400005F0010500953A4D06EB050CDCF8085061
:100A5000A607360F07FA06F825EA0805DFF8D4805E
:100A6000404503D14FF0000825E052E0DFF8C88090
:100A7000404502D14FF001081DE0DFF8C08040453D
:100A800002D14FF0020816E0DFF8B480404502D1F1
:100A90004FF003080FE0DFF8AC80404502D14FF083
:100AA000040808E0DFF8A080404502D14FF00508B7
:100AB00001E04FF0060808FA06F848EA0508CCF805
:100AC00008804D68D9F80060ED024D4601D5164307
:100AD00000E096432E604D68DAF80060AD0255469E
:100AE00001D5164300E096432E604D68DBF80060A8
:100AF000AD035D4601D5164300E096432E604D6878
:100B0000DEF80060ED03754601D5164300E096431C
:100B10002E60641C0A681646E2407FF429AFBDE8E7
:100B2000F88F00000804014000001110001002407E
:100B30000000014000080140000C0140001001408D
:100B40000014014000180140001C01400AB101617D
:100B500070470904FBE70000014880687047000007
:100B600000000020704770472DE9F04101680446FD
:100B70004A694E6890F83E000025D743FA050BD429
:100B8000F243D20508D46FF4807201254A612168CE
:100B90000A6842F400420A60B90508D4F143C90565
:100BA00005D422686FF4007145F0020551617905A2
:100BB00025D4F143C90522D4638D94F83D10226BEE
:100BC000202808D13BB9212910D029290ED0282965
:100BD00001D1212A0AD022686FF48061516145F069
:100BE0000405102806D0402804D008E0204601F073
:100BF0005DFC04E02068016841F400710160380583
:100C000008D4F043C00505D421686FF4006045F0B6
:100C100008054861002D07D0206C28432064204639
:100C2000BDE8F04101F03CB8BDE8F0812DE9F047A6
:100C3000026800215368C66A90F83E4090F83D5023
:100C4000102C12D0402C10D0046C002C7DD0546994
:100C5000E443A6077AD4DE43B60577D4036C03B128
:100C60009169BDE8F04701F0FDBB976951694FF408
:100C70002A0CC9435FEAC1784FF02A4904D066457F
:100C80002AD04E4528D010E0DE43B6050DD4C16A07
:100C9000614501D1012103E0C16A494501D1082123
:100CA000C162BDE8F04701F0EFBA0E0716D4DE438B
:100CB000B60513D4416CC9B21161416B09B1896A9F
:100CC00029B9816B002907D0896A002904D00068FE
:100CD000416841F400614160BDE8F0878E0706D4A9
:100CE000DE43B60503D4BDE8F04701F021BAFE4368
:100CF000526876074FEA02521DD4002AECDB0A063E
:100D000008D4DA43520505D4490705D5BDE8F047B4
:100D100001F0B2B94907DFD4D9438905DCD4212DCC
:100D200005D0402CD8D1BDE8F04701F0F3BABDE8BA
:100D3000F04701F05FB9002ACEDB4A060BD4DA4354
:100D4000520508D4490708D501E00DE00EE0BDE8E2
:100D5000F04701F0D5B84907BED4D9438905BBD4C3
:100D6000BDE8F04701F05FB8916970E7E10606D48D
:100D7000D943890503D4BDE8F04701F0DFBB282142
:100D8000212D27D0292D25D0650655D4DD436D05AD
:100D900052D4640752D590F83D30448D002C9BD03E
:100DA0001269446A2270426A521C4262428D521E8B
:100DB0004285428D002A8FD12A2B8DD1026853683B
:100DC00023F4806353602222026380F83D1000F018
:100DD000CBFA81E7250623D4DD436D0520D46407D3
:100DE00020D590F83D30448D002CF2D0446A247810
:100DF0001461426A521C4262428D521E4285428DEB
:100E0000002AE6D1292BE4D10268536823F48063D9
:100E100053602122026380F83D1000F0A6FA5BE7E0
:100E20006107D6D4D9438905D3D4418D0029D0D0C8
:100E3000416A097811610AE06107CAD4D94389057A
:100E4000C7D4418D0029C4D01169426A1170416A2A
:100E5000491C4162418D491E41853DE770470000B4
:100E600070B5040025D094F83D00002520B984F821
:100E70003C50204600F01EFA242084F83D002068F3
:100E8000016821F0010101602068016841F400411E
:100E900001602068016821F40041016000F094FBCA
:100EA0004D4A6168914201D84C4900E04C49884262
:100EB00001D2012070BD4B492368B0FBF1F15E689F
:100EC00026F03F060E435E606368934206D94FF4F6
:100ED000967359434FF47A73B1FBF3F12368491CBD
:100EE0001E6A26F03F06314319626168914210D8AC
:100EF0004900401EB0FBF1F2521CC2F30B02042A5F
:100F000001D2042022E0B0FBF1F0401CC0F30B0042
:100F10001CE0A268F2B301EBC10303EB0116431E10
:100F2000B3FBF6F35B1C43F480431B0549D092B33B
:100F300001EBC10202EB0111401EB0FBF1F0401CBD
:100F4000C0F30B0040F4804040F400402168CA69BF
:100F50004CF6FF739A431043C861D4E9071001436C
:100F60002068026822F0C00211430160D4E9030145
:100F700001432068826848F2FF339A43114381603D
:100F8000D4E9050108432168CA6822F0FF02104332
:100F9000C86001E00EE016E02068016841F0010140
:100FA00001602564202084F83D00256384F83E50CC
:100FB000002070BD01EB4106431EB3FBF6F35B1C42
:100FC000B3E70120C2E701EB4101401EB0FBF1F0A5
:100FD000401CC0F30B00B7E7A086010080841E0010
:100FE00000093D0040420F0070477047704770474E
:100FF000704700002DE9FF4F83B09A46DDE9119755
:1010000093460446DDF84080FFF7A6FD054694F8B8
:101010003D0020287FD11923012240492046009518
:1010200001F066FB002876D194F83C00012872D0CC
:10103000012084F83C0020680168C90703D10168D9
:1010400041F0010101602068016821F40061016044
:10105000212084F83D00402084F83E0000262664CC
:10106000C4F82480A4F82A90608D20852C48E06282
:10107000CDE9007553465A462046049901F09EF981
:1010800070B930E02A463946204601F0D7FB58B106
:10109000206C042804D12068016841F400710160CB
:1010A000012007B0BDE8F08F606A21680078086110
:1010B000606A401C6062218D491E89B22185628D63
:1010C000521E628522685369DB435B070BD469B10A
:1010D00000781061606A401C6062208D401E20858F
:1010E000608D401E6085208D0028CBD12A46394670
:1010F000204601F0D1FA0028CAD154F83D0B01680E
:1011000041F400710160202004F81E09E67766773B
:101110000020C6E7FFE70220C3E70000020010003E
:101120000000FFFF2DE9FC5F0025984691468A46A6
:101130000446DDF830B00095FFF70EFD074694F841
:101140003D00202828D1574846F2A81120260068E3
:10115000B0FBF1F000EBC00101EB00100090009833
:10116000401E009010D020688069C0438007F6D5EB
:1011700094F83C0001280FD0012084F83C0020683E
:101180000168C9070BD00EE044F8305F6673A573A1
:10119000206940F0200020610220BDE8FC9F01682A
:1011A00041F0010101602068016821F400610160E3
:1011B000212084F83D00402084F83E002564C4F8D6
:1011C00024B00D986085608D20853748E062C4F8B2
:1011D00044A0C4F84890C4F84C802565208DE8B33D
:1011E000606BF0B131498162616B31480863606BBB
:1011F000C562606B45632268238D1032616A606B43
:10120000FFF770FBB0B184F83D6084F83E5054F8AD
:10121000400F40F0100000BF44F804092570012081
:10122000BBE784F83D6084F83E5054F8400F40F02E
:101230008000F1E72320CDE9000743464A465146A6
:10124000204601F0BBF898B1606BFFF74DF9606B79
:1012500085622068016821F4806100E019E0016086
:10126000258565852068016821F001010160D6E7C8
:10127000206841698169009184F83C50416841F4DB
:10128000807141602068416841F400614160002044
:1012900083E784F83D6084F83E5054F8400F40F0F6
:1012A0004000B9E70C0000200000FFFF7F1B000892
:1012B000491B000870B586B00025064600950195CB
:1012C0000295039500682349884240D1224CA069C9
:1012D00040F00800A061A069694600F00800049091
:1012E0004FF44060009012200190032003901B48AF
:1012F000FFF730FBE06940F48000E061E069194CE1
:1013000000F480000490164820601020C4E9010514
:101310008020C4E9030540016561C4E90650204608
:10132000FFF7A2FA08B1FFF7DDF874630022114657
:101330002120666200F080F8212000F06FF8002282
:101340001146222000F078F8222000F067F806B05D
:1013500070BD00000058004000100240000C014029
:1013600044000240840000207047704702488168B2
:10137000027811448160704700000020074810B5D2
:10138000016841F010010160032000F075F80F20A2
:1013900000F006F800F024F8002010BD0020024004
:1013A00070B50D4D04464FF47A712878B1FBF0F01A
:1013B0000A490968B1FBF0F000F0DCFA48B9102CDA
:1013C00007D200222146501E00F036F800206C6043
:1013D00070BD012070BD0000000000200C00002046
:1013E0000C4808B5816941F001018161816901F012
:1013F00001010091C16941F08051C161C06900F0F3
:10140000805000900448416821F0E06141F0007193
:10141000416008BD0010024000000140002809DBC7
:1014200000F01F02012191404009800000F1E020FE
:10143000C0F8001170470000F0B40E4B1B680C465A
:10144000C3F30223C3F10705042D00D90425191D98
:10145000072901D2002300E0DB1E012606FA05F170
:10146000491E214099409E40761E16403143F0BCF3
:1014700001F0D8BB0CED00E0064900F00702086857
:101480004FF6FF03184040EA0220034A1043086069
:10149000704700000CED00E00000FA052DE9F04770
:1014A0000F46050061D0434E306800F00700B84297
:1014B00009D2306820F0070038433060306800F00F
:1014C0000700B84251D128683B4C810712D540072C
:1014D00003D5606840F4E06060602878000703D5B9
:1014E000606840F4605060606068A96820F0F000B7
:1014F000084360602878C00728D06868012810D0A9
:101500002168022810D0890700292EDA616821F0AD
:10151000030101436160FFF71FFB804641F28839F8
:101520000DE021688903EFE78901EDE7FFF714FB80
:10153000A0EB0801494502D90320BDE8F0876068A7
:10154000696800F00C00B0EB810FEFD1306800F05B
:101550000700B8420BD9306820F0070038433060EC
:10156000306800F00700B84201D00120E5E7287894
:10157000400705D56068E96820F4E06008436060D2
:101580002878000706D56068296920F4605040EA91
:10159000C100606000F038F86168084AC1F30311C7
:1015A000515CC8400649086006480068FFF7F8FE2D
:1015B0000020C2E70020024000100240BE2F0008B9
:1015C0000C00002004000020044805490068496818
:1015D000044AC1F30221515CC84070470C0000204E
:1015E00000100240CE2F00080448054900684968F1
:1015F000044AC1F3C221515CC84070470C0000206E
:1016000000100240CE2F00080E4A51680E4801F02B
:101610000C03042B11D0082B0FD10C48C1F38343CA
:10162000C903C05C0AD55168084AC1F34041921E03
:10163000515C054A5043B0FBF1F070470449484300
:10164000704700000010024000127A00AE2F000820
:1016500000093D002DE9F84F040070D02078C04DFE
:10166000C00749D06868C0F38100012807D06868C6
:10167000C0F38100022809D16868C00306D5286834
:10168000800339D560680028E7D035E06068B0F5A0
:10169000803F0BD010B1B0F5A02F11D0286820F4F6
:1016A00080302860286820F4802002E0286840F418
:1016B00080302860606890B1FFF74EFA06460AE075
:1016C000286840F480202860F0E700BFFFF744FA64
:1016D000801B642873D828688003F7D50CE0FFF7D7
:1016E0003BFA064605E000BFFFF736FA801B642888
:1016F000F0D828688003F7D420789A4E80074FF0FE
:1017000001094FF0000839D5686810F00C0F07D0B8
:101710006868C0F38100022809D16868C00306D454
:101720002868800714D52069012808D110E02069B5
:10173000B0B1C6F80090FFF70FFA074605E00AE1DE
:10174000FFF70AFAC01B0228C4D828688007F7D51B
:101750002868616920F0F80040EAC10028600DE0C7
:10176000C6F80080FFF7F8F9074604E0FFF7F4F940
:10177000C01B022823D828688007F7D420780007E8
:101780002CD57948A169D9B1C0F80090FFF7E4F9E8
:10179000074604E0FFF7E0F9C01B02280FD8686A8B
:1017A0008007F7D571484FF4FA510068B0FBF1F0AB
:1017B000009000BF0098411E0091FAD20EE080E038
:1017C000C0F80080FFF7C8F9074604E0FFF7C4F946
:1017D000C01B022875D8686A8007F7D420784007B4
:1017E00060D5E8690027C00008D4E86940F080505F
:1017F000E861E869012700F0805000905C480168CA
:10180000C90513D40168834641F480710160FFF774
:10181000A3F9824606E000BFFFF79EF9A0EB0A009D
:1018200064284ED8DBF80000C005F5D5E068012833
:101830000AD008B1052813D0286A20F001002862D8
:10184000286A20F0040002E0286A40F001002862C3
:10185000E06841F2883B98B1FFF77EF982460BE0E1
:10186000286A40F004002862EEE700BFFFF774F931
:10187000A0EB0A0159455AD8286A8007F6D50CE032
:10188000FFF76AF9824605E0FFF766F9A0EB0A0167
:1018900059454CD8286A8007F6D41FB1E86920F072
:1018A0008050E861E06988B36968C1F38101022969
:1018B00044D00228C6F8608004D0FFF74DF90446F2
:1018C00038E034E0FFF748F9074604E0FFF744F951
:1018D000C01B02282BD828688001F7D4206AB0F5F5
:1018E000803F05D16868A16820F400300843686033
:1018F000D4E908010843696821F474110843686059
:10190000C6F86090FFF728F9044606E025E000BF1E
:10191000FFF722F9001B022809D828688001F7D5B3
:101920001BE000BFFFF718F9001B022802D90320B3
:10193000BDE8F88F28688001F4D40EE00128F7D0C4
:101940006868226A00F48031914204D1616A00F42F
:101950007010884201D00120EAE70020E8E700008B
:101960000010024000004242800442420C0000206D
:101970000070004010B5401EB0F1807F01D30120FF
:1019800010BD4FF0E02460610F21601701F04AF9AB
:101990000020A06107202061002010BD70B5040068
:1019A00004D094F84100002510B106E0012070BD7C
:1019B00084F84050204600F023F8242084F84100A9
:1019C0002068C16821F40051C160204601F0BAF8D6
:1019D0002068016921F4904101612068416921F08A
:1019E0002A0141612068C16841F40051C160656409
:1019F000202084F8410084F842006563002070BD17
:101A000030B585B0002400940194029403940068DA
:101A10001449884224D11448816941F4804181618C
:101A2000816901F480410491816941F0040181617F
:101A300080690E4D00F0040004904FF40070009097
:101A4000022001900320039069462846FEF782FF9A
:101A50002815CDE90004694628460294FEF77AFF6E
:101A600005B030BD003801400010024000080140C0
:101A7000FEE700000148FFF777B8000030000020C3
:101A80000148FFF7D3B800003000002038B5406AA5
:101A9000002190F83D202B4B46F2A8141B68B3FBA5
:101AA000F4F3C3EBC30303EB830300933BB15B1E6F
:101AB000009303681B689B0505D5009BF6E7036C44
:101AC00043F020030364436B03B19962836B03B15A
:101AD000996203681C6824F480641C604185436B30
:101AE00003B15963836B03B1596303681C6824F025
:101AF00001041C6090F83D402023602C0BD028246A
:101B000034EA02020FD080F83D3080F83E1000BF6A
:101B1000FFF7A4F938BD80F83D3080F83E1001642D
:101B2000FFF720F838BD0268136843F00103136023
:101B30000268136843F480631360016380F83D40DA
:101B4000E6E700000C00002010B5406A0021426B5F
:101B500002B19162826B02B191620268136823F450
:101B6000806313604185202280F83D2080F83E107C
:101B7000016C41F010010164FFF770F910BD2DE90F
:101B8000F041446A94F83D2094F83E50E16A2068A0
:101B9000436823F440734360636B002003B1986291
:101BA000A36B03B19862212333EA02074FF02206A8
:101BB0000CD036EA020701D1202D07D094F83E2040
:101BC000002A21D0628D012A20D024E021684D68AE
:101BD00025F400654D6060852820292A02D02A2A34
:101BE00007D00CE0236384F83D002046FFF7BDFBDF
:101BF00005E0266384F83D002046FFF7B5FB20682A
:101C0000416841F440714160BDE8F0812268136889
:101C100023F4806313602268536823F44073536095
:101C200011F5803F06D0082904D0B1F12A4F01D028
:101C3000202904D12268136843F4007313602268DA
:101C4000536823F4805353602268536823F400637D
:101C500053606085226C1AB12046FFF7FFF8D3E786
:101C6000202284F83D2094F83E2084F83E00402A4B
:101C700009D0082902D0202900D012202063204654
:101C8000FFF7B3F9C0E720632046FFF7B0F9BBE7E1
:101C900000684169C943090601D400210161704708
:101CA00070B5044690F83D0094F83E10102901D01C
:101CB000402906D1222804D121680A6822F4006252
:101CC0000A60282131EA00024FF000054FF020069B
:101CD00026D021684968090505D4602803D084F816
:101CE0003D6084F83E50256320684168090537D57A
:101CF000416821F400614160606B90F821203C490B
:101D0000012A11D04163606BFEF7EEFB38B3206807
:101D1000016821F00101016084F83D60606B1CE006
:101D2000256384F83D10DFE7A06B4163A06BFEF7ED
:101D3000DBFBA0B120684169C943490605D40069AD
:101D4000616A0870606A401C60622068016821F066
:101D50000101016084F83D60A06B416B884710E091
:101D600094F83D10602910D04169C943490605D453
:101D70000069616A0870606A401C60622046FFF773
:101D80006DF8206CC1071CD115E084F83D60256416
:101D90004169C943490605D40069616A0870606AEF
:101DA000401C60622068016821F00101016020464A
:101DB000FEF7D8FEE5E7810703D4410701D4000709
:101DC00004D52068416821F4E061416094F83D0049
:101DD000216C49070BD5282809D10648E062256304
:101DE00084F83D6084F83E502046FFF7FDF870BD52
:101DF0008D1A00080000FFFF01684A69D2435205AE
:101E00000FD46FF480624A61002140F8301F202215
:101E100042738173026942F004020261017301207E
:101E200070470020704710B5C26A438D0168042BCB
:101E300006D0438D032B08D0438D022B1DD012E01A
:101E40004A6822F480624A600CE04B6823F48063A5
:101E50004B60042A06D0022A04D001680A6822F4E2
:101E600080620A6001680969426A1170416A491C0E
:101E70004162418D491E418510BD012A34D0102A8E
:101E800032D0042A34D0022A32D00B6843F40073D3
:101E90000B6001680969436A1970416A491C416213
:101EA000438D5B1E438503681B690B70416A491CA7
:101EB0004162418D491E418501684B6823F440739E
:101EC0004B60202180F83D1090F83E300021402BDF
:101ED00080F83E1010D0082A02D0202A00D012210B
:101EE0000163FFF782F810BD0B6823F48063CFE72E
:101EF0000B6843F48063CBE70163FFF778F810BD0C
:101F000038B590F83D10222910D1C36A418D0329BC
:101F10000DD901680969426A1170416A491C416220
:101F2000418D491E4185418D032906D038BDC26AC5
:101F3000022A02D0012906D029B10068416821F4A3
:101F40008061416038BD2A4A46F2A8140021126817
:101F5000B2FBF4F202EB8202009202682024009DA0
:101F60006D1E009526D01568AD05F8D4156825F4CA
:101F7000806515600268556825F4E0655560026863
:101F80001269456A2A70426A521C4262428D521E90
:101F9000428580F83D4090F83E2080F83E10402A6F
:101FA00021D0082B02D0202B00D012210163FFF793
:101FB0001CF838BD036C43F020030364536823F41A
:101FC000E063536002681269436A1A70426A521CE5
:101FD0004262428D521E428580F83D4080F83E109C
:101FE000FEF73CFF38BD0163FFF701F838BD000084
:101FF0000C00002010B5C26A90F83D1021290BD1C9
:10200000418D51B1416A026809781161416A491CE8
:102010004162418D491E418510BD20230021082ABF
:1020200013D0202A11D012F5803F0ED002685468D8
:1020300024F4E06454601122026380F83E1080F8BA
:102040003D3000BFFEF7D2FF10BD0268546824F493
:10205000E06454600268146844F40074146001631E
:1020600080F83D3090F83E2080F83E10402AE9D1BB
:10207000FEF7BEFF10BD000010B590F83D1090F8BF
:102080003E30C26A048DB4B1212903D0402B11D156
:1020900022290FD1418DE1B390F83E10402942D062
:1020A000416A026809781161416A491C4162418DA7
:1020B000491E418510BD2129E8D120230021082A8D
:1020C00013D0202A11D012F5803F0ED00268546838
:1020D00024F4E06454601122026380F83E1080F81A
:1020E0003D3000BFFEF782FF10BD0268546824F443
:1020F000E06454600268146844F40074146001637E
:1021000080F83D3090F83E2080F83E10402AE9D11A
:1021100000E002E0FEF76CFF10BD0068416821F4AA
:102120008061416010BDBDE8104000F0F3B80000D0
:1021300078B590F83E50C26A046B90F83D60002379
:102140000168222E73D1066D0EB9402D6FD0056D3A
:102150001DB90569B5F5404F1BD0458D95B3468D2A
:10216000484D012E20D0448D022C4DD00C6844F4F3
:1021700080640C6001684C68240579D5AA4273D04C
:10218000012A71D0082A6FD0102A6DD0202A6BD076
:102190006EE04A698A6900920A6842F480720A60B5
:1021A000016D491C016578BDAA4214D10A6822F468
:1021B00080620A6001684A68120504D50A6822F440
:1021C000806217E0FFE74A698A6900920A6842F470
:1021D00000720A6050E0082A10D0202A0ED0122C7B
:1021E0000AD0042A03D0022A01D0102AE6D10A68B4
:1021F00042F480620A603BE0012ADFD00A6822F4E0
:1022000080620A600168DEE7042A11D0022A0FD03A
:10221000102A0DD00C6844F400640C6001684C690D
:102220008C6900940C6824F480640C6008E025E05C
:102230000C6844F480640C6001684C698969009101
:1022400001684C68240517D5AA4207D0012A05D099
:10225000082A03D0102A01D0202A0DD14A6842F45E
:1022600080524A6008E0FFE74A6842F480524A60C0
:1022700001684A6989690091036578BD4869886980
:10228000009078BD0000FFFF90F83E10402910D06C
:102290000169B1F5804F19D0016DA9B3016D012914
:1022A00010D1416C5FF0F10201F4407142EAD111AA
:1022B00006E0016D0029416C05D0C9B241F0010171
:1022C00000680161704701F0FE01F9E790F83D10E8
:1022D0002129416C09D0C9B241F0010102681161A4
:1022E000416B29B1896A49B902E001F0FE01F5E7C5
:1022F000816B0029E6D0896A0029E3D00068416833
:1023000041F4006141607047FFE7416CF02201F445
:102310004071CBE710B590F83D10026D4AB1026DE7
:10232000012A14D0026D022A16D0BDE81040FFF732
:10233000AFBCC16C0129816C02D0C1F3072108E058
:102340000268C9B21161016D891C016510BD816C03
:10235000C9B20268116123E022291CD0428D0AB162
:10236000212920D0428D002AF0D12129EED1016807
:102370004A6822F4E0624A6001680A6842F4007226
:102380000A6000210163202280F83D2080F83E1081
:10239000FEF72EFE10BD01680A6842F480720A60E2
:1023A000016D491CD1E7416A026809781161416AEF
:1023B000491C4162418D491E418510BD2DE9F843FC
:1023C000044600680D46DDE9089701689846164600
:1023D00041F4807101604B4600224FF0011120460C
:1023E000009700F085F948B120680068C00502D563
:1023F0004FF4007020640320BDE8F883216805F0E5
:10240000FE0008613B464A461549204600F0B8F9EF
:1024100088B920684169806900903A46494620465B
:1024200000F00CFA48B1206C042804D1206801683F
:1024300041F4007101600120DEE7F5B2B8F1010F4F
:1024400009D02168300A08613A464946204600F022
:10245000F5F90028E7D1206805610020CCE70000ED
:102460000200010038B50C4690F83D2000212825D7
:10247000954302680B4605D051699169009180F837
:102480003C3038BD556825F480655560E2435407FB
:1024900000D50121120601D5828900E0028B80F867
:1024A0003C3092B2FEF75FFB38BD00002DE9F041F1
:1024B00090F83D300446C26A002120261E4F006875
:1024C0006FF48065082A01D0202A01D1282B04D07E
:1024D000212B17D04561BDE8F081E762426822F404
:1024E000E0624260206845612068026822F48062F0
:1024F0000260216384F83D6084F83E102046FEF7B8
:1025000073FDE8E7E7622122226384F83D6084F8E6
:102510003E10416821F4E061416020684561206817
:10252000016821F4806101602046FFF7B1FB20467D
:10253000FEF71BFFCFE700000000FFFFF8B590F8A3
:102540003D6004460068416821F4E0614160206814
:10255000002541690091016841F001010160206896
:10256000016821F48061016020684168090520D577
:10257000474F222E48D02A2E46D0616B0968496801
:102580006185618D19B1216C41F0040121644168BC
:1025900021F400614160606BFEF73EF8012808D02D
:1025A000606B4763606BFDF79FFF10B1606B416B21
:1025B0008847608D08B320684169C943490708D43A
:1025C0000069616A0870606A401C6062608D401E2C
:1025D000608520684169C943490608D40069616A79
:1025E0000870606A401C6062608D401E6085608D6E
:1025F00018B1206C40F004002064206C00B3204629
:10260000BDE8F840FFF74CBBA16B096849686185DC
:10261000618D19B1216C41F004012164416821F4FC
:1026200000614160A06BFDF7F7FF0128C1D0A06BEE
:102630004763A06BFDF758FF0028BAD0A06BB6E740
:102640002A2E06D12563282084F83D002046FEF777
:102650008BFE94F83D10202028290DD0216B2229D3
:1026600001D0222E07D1256384F83D0084F83E5026
:102670002046FEF779FEF8BD0649E162256384F83D
:102680003D0084F83E502046FEF7AEFCF8BD000049
:102690008D1A00080000FFFF70B516460D4604466F
:1026A0001EE02046FFF7A8FB08B1012070BD681CA2
:1026B00016D0FEF751FA801BA84200D885B92068D1
:1026C0004069C04340070BD5002044F8300F20215B
:1026D0006173A073216941F0200121612073E4E757
:1026E00020684069C0434007DBD4002070BD000073
:1026F0002DE9F047984617460D460446C1F30746B4
:10270000DDF820902AE000BFB8F1FF3F26D0FEF7A9
:1027100023FAA0EB0901414502D8B8F1000F1DD101
:102720002068012E16D0806925EA00000004000C04
:1027300012D00020B84211D1002044F8300F2021DF
:102740006173A073216941F0200121612073012090
:10275000BDE8F0874069E7E70120EBE72068012E3C
:102760000AD0806925EA00000004000C06D0002091
:10277000B842C9D00020EBE74069F3E70120F7E752
:102780002DE9F047984616460D4604464FF00009DD
:102790004FF0200AC1F3074723E020684069C04397
:1027A000400515D42068016841F40071016021687A
:1027B0006FF480604861C4F8309084F83DA084F8DC
:1027C0003E90216C41F00401216484F83C9021E0AA
:1027D000701C06D0FEF7C0F9A0EB0800B04203D889
:1027E00016B1012F1FD021E02068012F15D080697C
:1027F00025EA00000004000C18D000BF44F8309F08
:1028000084F80DA084F80E90216941F02001216127
:1028100084F80C900120BDE8F087406925EA0000AB
:102820000004000CEAD12068406901E0206880695A
:1028300025EA00000004000CAFD1ECE770B51646A5
:102840000D4604461EE02046FFF7D6FA08B10120E7
:1028500070BD681C16D0FEF77FF9801BA84200D817
:1028600085B920684069C04300060BD5002044F8B4
:10287000300F20216173A073216941F02001216193
:102880002073E4E720684069C0430006DBD40020E1
:1028900070BD0000094808B5416941F0010141617E
:1028A0004069002200F00100009011460E20FEF762
:1028B000C3FDBDE808400E20FEF7B0BD0010024089
:1028C00070B586B0002420480094019402940394CB
:1028D000816941F010018161816901F01001049169
:1028E000816941F040018161816901F040010491F9
:1028F000816941F008018161816901F00801049159
:10290000816941F0040181618069104E00F004008A
:102910004FF4E0750490002229463046FEF716F980
:10292000E801CDE90004694609480294FEF712F86F
:1029300001200095CDE9010403200390694630464B
:10294000FEF708F806B070BD00100240000C014010
:10295000001801400D4810B50B4901600C49416059
:1029600000214FF480428160C0E90312416181611E
:10297000C1610162FEF774FA002803D0BDE810407F
:10298000FDF7B0BD10BD0000005800403000002031
:10299000801A06000C4810B50A4901604FF4E13175
:1029A0004160002181600C22C160C0E90412816194
:1029B000C161FEF7F3FF002803D0BDE81040FDF72A
:1029C00091BD10BD00380140C8000020FEE7FEE7C1
:1029D00010B50021074C0A46002004EBC1131A541D
:1029E000401CC0B28028FAD3491CC9B20829F3D3CD
:1029F00010BD0000100100204FF480610148FDF778
:102A0000BABB00001001002010B57F2813D80029A0
:102A100011DB3F290FDCCA1701EB5272D410064BB1
:102A200022F0070203EBC41318448A1A0378012129
:102A300091400B43037010BD1001002010B5192107
:102A4000044800F02BF8FFF7C3FFBDE8104000F08A
:102A500017B800001000002008B540F0B0008DF855
:102A60000000102040EA11108DF8010001F00F0065
:102A70008DF802000321684600F010F808BD000040
:102A800010B500210846FFF7E7FFBDE810404FF4FE
:102A90008061014800F010B8100100200EB56422DA
:102AA0008DE807000123002278210248FEF7A2FAF0
:102AB0000EBD0000300000201CB5074A1268936963
:102AC000DB439B07FBD5CDE90001012340227821A0
:102AD0000148FEF727FB1CBD3000002070477047FF
:102AE000FEF744BC30B58FB028216846FDF743FBA4
:102AF00014210AA8FDF73FFB01210804CDE90010CD
:102B00000024029402250491CDE907504FF4E0100F
:102B100009906846FEF79EFD08B172B6FEE70F20E9
:102B2000CDE90A054FF48060CDE90C4002210AA8E6
:102B30000E94FEF7B3FC002801D072B6FEE70FB08A
:102B400030BD704770B5044600680169E26821F441
:102B50004051114301612169A0680843616908433C
:102B60002168CA6841F20C639A430243CA60206834
:102B70004169A26921F44071114341611E492068F5
:102B8000884202D1FEF730FD01E0FEF71DFD00EBAB
:102B9000C00101EB0012606864218000B2FBF0F319
:102BA000B3FBF1F36FF018067343B2FBF0F5B2FB21
:102BB000F0F605EB8305322303EB0515B5FBF1F5C4
:102BC000B6FBF1F605F0F00505EB0615B2FBF0F6E5
:102BD000B2FBF0F0B0FBF1F06FF01802504306EBDF
:102BE000800003EB0010B0FBF1F0216800F00F0053
:102BF0002844886070BD000000380140FEE74100B5
:102C0000080218BF04200A0E18BF40F001004FF060
:102C10007F4232EA010108BF40F00200012808BFEC
:102C2000052070470907090E002804DB00F1E020A9
:102C300080F80014704700F00F0000F1E02080F8E9
:102C4000141D70470121FDF7F3BB00210846FDF775
:102C5000B1BB6FF05E010807FDF7EABB2DE9F04D4F
:102C60000D4614464FF07F41B1EB440F9EBF4FF02D
:102C7000FF312960BDE8F08D4FF0004040EA0421AB
:102C8000C4F3C750783810F01F024A4B4FEA601C5B
:102C9000C2F120067B44C4F3C750A0F178004FEA8C
:102CA000601003EB800053F82C3008BFD0E901C658
:102CB00012D0D0F804C093402CFA06F73B43876843
:102CC0000CFA02FC27FA06F8C06807FA02F2F04094
:102CD0004CEA080C42EA0006A3FB0132ACFB01C03F
:102CE000A6FB016101EB0C068E4234BF4FF0010CD4
:102CF0004FF0000CC1186144BCF1000F02D08142BA
:102D000002D903E0814201D2012000E000201044FA
:102D100000F120024FEA92188006CA0C40EA4230C5
:102D20004F03C5F80080FDF7BBFA82463846FDF731
:102D30008BFB6FF01201FDF77BFB07463046FDF77A
:102D400083FB6FF02501FDF773FB83463946504640
:102D5000FDF71CFA5946FDF719FA00F500666FF306
:102D60000B0651463046FDF763FA3946FDF760FA27
:102D70005946FDF760FA1049FDF760FA07460F491A
:102D80003046FDF75BFA3946FDF700FA07460C4975
:102D90003046FDF753FA3946FDF7F8F914F0004FC5
:102DA00008BFBDE8F08DC8F1805180F00040296077
:102DB000BDE8F08D40030000DB0FC92F22AAFD29DA
:102DC0000000C92F02E008C8121F08C1002AFAD16A
:102DD00070477047002001E001C1121F002AFBD19B
:102DE0007047000001490860704700002C00002077
:102DF0000024FEF7C3FAFFF775FEFFF761FDFFF74A
:102E000049FDFFF7C7FDFFF7A5FDFFF717FE4FF0E0
:102E10007C552046FDF73AFB29462046FDF7B6F9DA
:102E20000446F6E72DE9F84304460246524869464F
:102E3000B0EB420F09D94FF0E640B0EB420F94BF20
:102E400000204FF0FF30009030E04C4B22F000406B
:102E5000834271D94A492046FDF7F0F9FDF779FA26
:102E60008046FDF726FA00F00300009045494046F1
:102E7000FDF7E4F9054644494046FDF7DFF906460B
:102E800042494046FDF7DAF9074641494046FDF719
:102E9000D5F92146FDF7CFF93946FDF7C9F9314695
:102EA000FDF7C6F92946FDF7C3F904462546009CFF
:102EB000002C45DB294614F0010F08461ED0FDF713
:102EC000BDF905463349FDF7B9F93349FDF75EF918
:102ED0002946FDF7B3F93149FDF758F92946FDF7C1
:102EE000ADF94FF07E51FDF751F914F0020F08BF14
:102EF000BDE8F88380F00040BDE8F883FDF79EF957
:102F000006462749FDF79AF92649FDF794F9314617
:102F1000FDF794F92449FDF739F93146FDF78EF9AB
:102F20002946FDF78BF92946FDF730F914F0020F19
:102F3000E0D1BDE8F883FFE71046FFF78FFEB4E766
:102F40006800B0F17F4F09D22846FFF758FE0428E9
:102F500008BFFFF77EFE2846BDE8F88306D10120B2
:102F6000FFF740FFBDE8F843FFF76FBE2846BDE816
:102F7000F843FFF767BE0000B61F927E490E494630
:102F800083F9223F1A61342C0020A23300A0FD39BE
:102F90000000C93FB93AB2BACA9F2A3DDDFFFFBE61
:102FA000336D4C39DA82083CA0AA2ABE0102020322
:102FB0000405060708090A0B0C0D0E0F101000007F
:102FC00000000000000001020304060708090000D9
:102FD0000000010203040000000000006E83F9A25B
:102FE0002915444ED15727FCC0DD34F5999562DB95
:102FF0004190433CAB6351FE1830000800000020B4
:1030000030000000C42D00084830000830000020C7
:10301000E0080000D42D00080100000010000000AE
:103020000000000000127A00AE2000D580A83FD337
:103030000040A1C8DA1281CFD9F1DB30A4A68D14EB
:08304000AF00000000000000D9
:0400000508000131BD
:00000001FF
