:020000040800F2
:100000006809002045010008732C0008251B000822
:10001000712C0008B101000819310008000000002F
:10002000000000000000000000000000E72E0008B3
:10003000EB01000800000000E52E0008E92E000892
:100040005F0100085F0100085F0100085F01000810
:100050005F0100085F0100085F0100085F01000800
:100060005F0100085F0100085F0100085F010008F0
:100070005F0100085F010008B50100085F0100088A
:100080005F0100085F0100085F0100085F010008D0
:100090005F0100085F0100085F0100085F010008C0
:1000A0005F0100085F0100085F0100085F010008B0
:1000B0004D2F00085F0100085F0100085F01000884
:1000C0005F010008351B0008291B00085F010008BC
:1000D0005F0100085F0100085F0100085F01000880
:1000E0005F0100085F0100085F0100085F01000870
:1000F0005F0100085F0100085F0100085F01000860
:100100005F0100085F0100085F0100085F0100084F
:100110005F0100085F0100085F0100085F0100083F
:100120005F0100085F0100085F0100085F0100082F
:10013000DFF80CD000F02AF80048004759310008D9
:10014000680900200648804706480047FEE7FEE7AA
:10015000FEE7FEE7FEE7FEE7FEE7FEE7FEE7FEE777
:100160004B2F000831010008D2B201E000F8012B4A
:10017000491EFBD270470022F6E710B513460A4627
:1001800004461946FFF7F0FF204610BD064C074D08
:1001900006E0E06840F0010394E807009847103457
:1001A000AC42F6D3FFF7C8FF403A0008603A0008B7
:1001B000FEE70000014800F0B7B8000094000020FE
:1001C00030B590F840500124AC40C56B6C600468B9
:1001D00063604368102B036803D099600068C260B5
:1001E00030BD9A600068C16030BD704772B6FEE7EE
:1001F0002DE9F05F90F821100024022903D004219A
:100200008163012485E001680A6822F00E020A6019
:1002100001680A6822F001020A603F4E3E4FB215A3
:10022000DFF8F4C0DFF8F090DFF8ECA0DFF8E8B01A
:10023000DFF8E4E00168783F13011502ACF1640CCB
:10024000A9F15009AAF13C0AABF1280BAEF1140E4A
:100250004FF48018B14227D9B9420ED0614512D06F
:1002600049451DD0514518D0594518D0714501D187
:10027000424615E0294EB14201D1012210E0274E3D
:100280001436B14201D110220AE0244E2836B14280
:1002900006D0224A3C32914201D11A4600E02A4659
:1002A0001E49091F0A602BE0B94213D0614517D0DF
:1002B000494522D051451DD059451DD0714501D128
:1002C00042461AE0B14202D14FF0807215E0134E5F
:1002D000B14201D1012210E0104E1436B14201D1D9
:1002E00010220AE00D4E2836B14206D00B4A3C32AD
:1002F000914201D11A4600E02A46074980394A60F6
:10030000012180F82110002180F82010416B01B1FB
:1003100088472046BDE8F09F800002400804024064
:1003200090F82100704700002DE9F05FC16B0A686A
:1003300001680B68046C4FF0040808FA04F8844D57
:10034000844E854FDFF814C2DFF81492DFF814A250
:10035000DFF814B2DFF814E218EA020F65D05FEAA2
:10036000437862D50A68920603D40A6822F0040230
:100370000A60DFF8F0814FF48062016808F1140828
:1003800013011402414524D9A9420DD0B1420FD026
:10039000B9421AD0614515D0494515D0514501D112
:1003A000120312E0594501D104220EE0714501D13A
:1003B00040220AE06D4D1435A94206D06B4A28321E
:1003C000914201D11A4600E022466749091F0A609E
:1003D00029E0A94213D0B14215D0B94220D06145DD
:1003E0001BD049451BD0514502D14FF4800217E084
:1003F000414502D14FF0806212E0594501D10422FB
:100400000EE0714501D140220AE0584D1435A94251
:1004100006D0564A2832914201D11A4600E02246BF
:100420004B4908394A60C16A71E04FF0020808FA86
:1004300004F818EA020F70D05FEA83786DD50A6875
:10044000920606D40A6822F00A020A60012180F8A6
:100450002110DFF810814FF40072016808F11408D0
:1004600013011402414524D9A9420DD0B1420FD045
:10047000B9421AD0614515D0494515D0514501D131
:10048000120312E0594501D102220EE0714501D15B
:1004900020220AE0354D1435A94206D0334A2832CD
:1004A000914201D11A4600E022462F49091F0A60F5
:1004B00029E0A94213D0B14215D0B94220D06145FC
:1004C0001BD049451BD0514502D14FF4001217E013
:1004D000414502D14FF0007212E0594501D102228C
:1004E0000EE0714501D120220AE0204D1435A942C9
:1004F00006D01E4A2832914201D11A4600E0224617
:10050000134908394A60002180F82010816A0029C7
:100510001CD0BDE8F05F0847FFE70825A54015425D
:1005200014D01A0712D50A6822F00E020A6090F859
:100530004020C36B012101FA02F25A60816380F806
:100540002110002180F82010016BE0E7BDE8F09F4A
:10055000080002401C0002403000024044000240FB
:10056000580002406C000240080402401C04024093
:1005700030B560B11A4B026814219A4209D2194B66
:100580001344B3FBF1F18900016417490AE001202B
:1005900030BD134B5B421344B3FBF1F1890001649E
:1005A0000F490839C163022180F82110136843F60E
:1005B000F0718B43F0E901142143D0E902452C434B
:1005C0002143046921434469214384692143194338
:1005D000116000214163012242770177084630BD56
:1005E00008040240F8FFFDBF0000024070B5044659
:1005F00090F82000002501280CD0012084F820006C
:1006000094F821600020012E06D084F820000225F5
:10061000284670BD022070BD022684F82160A063C8
:100620002068066826F0010606602046FFF7C8FD30
:10063000E06A00282068016802D041F00E0106E05F
:1006400021F0040101602068016841F00A010160A5
:100650002068016841F001010160D9E72DE9F84FF8
:10066000DFF8C8910024A9F1040B23460F2709F1F4
:10067000040AABF1040ED1E00125A54006EA05020B
:10068000AA4276D1DFF8A8C14E68A6EB0C086645F1
:100690002BD00DDC032E34D005DC36B3012E19D05F
:1006A000022E2FD11BE0112E16D0122E2AD119E0C6
:1006B000B8F5881F19D006DCB8F5803F15D0B8F51D
:1006C000801F1FD111E0B8F5001F0ED0B8F5041F30
:1006D00018D10AE0CB6815E0CB681B1D12E0CB688F
:1006E00008330FE0CB680C330CE08B682BB1012B87
:1006F0004FF0080303D0456104E0042302E00561E4
:1007000000E00023FF2A01D8064601E000F10406BC
:100710004FEA840501D9A5F12005D6F8008007FA33
:1007200005FC28EA0C0803FA05F548EA0508C6F8AE
:1007300000804D68ED0070D53E4DAE6946F0010673
:10074000AE61AD6924F0030605F0010500953A4D50
:1007500006EB050CDCF80850A607360F07FA06F87A
:1007600025EA0805DFF8D480404503D14FF00008A2
:1007700025E052E0DFF8C880404502D14FF0010883
:100780001DE0DFF8C080404502D14FF0020816E0BE
:10079000DFF8B480404502D14FF003080FE0DFF8E6
:1007A000AC80404502D14FF0040808E0DFF8A0809B
:1007B000404502D14FF0050801E04FF0060808FA65
:1007C00006F848EA0508CCF808804D68D9F80060BA
:1007D000ED024D4601D5164300E096432E604D686C
:1007E000DAF80060AD02554601D5164300E09643A5
:1007F0002E604D68DBF80060AD035D4601D5164301
:1008000000E096432E604D68DEF80060ED0375460B
:1008100001D5164300E096432E60641C0A68164614
:10082000E2407FF429AFBDE8F88F000008040140E2
:1008300000001110001002400000014000080140BB
:10084000000C01400010014000140140001801405C
:10085000001C01408068084000D0012070470AB1A8
:10086000016170470904FBE7014880687047000098
:1008700000000020704770472DE9F04101680446F0
:100880004A694E6890F83E000025D743FA050BD41C
:10089000F243D20508D46FF4807201254A612168C1
:1008A0000A6842F400420A60B90508D4F143C90558
:1008B00005D422686FF4007145F002055161790595
:1008C00025D4F143C90522D4638D94F83D10226BE1
:1008D000202808D13BB9212910D029290ED0282958
:1008E00001D1212A0AD022686FF48061516145F05C
:1008F0000405102806D0402804D008E0204601F066
:100900002FFE04E02068016841F4007101603805A1
:1009100008D4F043C00505D421686FF4006045F0A9
:1009200008054861002D07D0206C2843206420462C
:10093000BDE8F04101F00EBABDE8F0812DE9F047C5
:10094000026800215368C66A90F83E4090F83D5016
:10095000102C12D0402C10D0046C002C7DD0546987
:10096000E443A6077AD4DE43B60577D4036C03B11B
:100970009169BDE8F04701F0CFBD976951694FF427
:100980002A0CC9435FEAC1784FF02A4904D0664572
:100990002AD04E4528D010E0DE43B6050DD4C16AFA
:1009A000614501D1012103E0C16A494501D1082116
:1009B000C162BDE8F04701F0C1BC0E0716D4DE43AA
:1009C000B60513D4416CC9B21161416B09B1896A92
:1009D00029B9816B002907D0896A002904D00068F1
:1009E000416841F400614160BDE8F0878E0706D49C
:1009F000DE43B60503D4BDE8F04701F0F3BBFE4388
:100A0000526876074FEA02521DD4002AECDB0A0630
:100A100008D4DA43520505D4490705D5BDE8F047A7
:100A200001F084BB4907DFD4D9438905DCD4212DEB
:100A300005D0402CD8D1BDE8F04701F0C5BCBDE8D9
:100A4000F04701F031BB002ACEDB4A060BD4DA4373
:100A5000520508D4490708D501E00DE00EE0BDE8D5
:100A6000F04701F0A7BA4907BED4D9438905BBD4E2
:100A7000BDE8F04701F031BA916970E7E10606D4AC
:100A8000D943890503D4BDE8F04701F0B1BD282161
:100A9000212D27D0292D25D0650655D4DD436D05A0
:100AA00052D4640752D590F83D30448D002C9BD031
:100AB0001269446A2270426A521C4262428D521E7E
:100AC0004285428D002A8FD12A2B8DD1026853682E
:100AD00023F4806353602222026380F83D1000F00B
:100AE000CBFA81E7250623D4DD436D0520D46407C6
:100AF00020D590F83D30448D002CF2D0446A247803
:100B00001461426A521C4262428D521E4285428DDD
:100B1000002AE6D1292BE4D10268536823F48063CC
:100B200053602122026380F83D1000F0A6FA5BE7D3
:100B30006107D6D4D9438905D3D4418D0029D0D0BB
:100B4000416A097811610AE06107CAD4D94389056D
:100B5000C7D4418D0029C4D01169426A1170416A1D
:100B6000491C4162418D491E41853DE770470000A7
:100B700070B5040025D094F83D00002520B984F814
:100B80003C50204600F01EFA242084F83D002068E6
:100B9000016821F0010101602068016841F4004111
:100BA00001602068016821F40041016000F094FBBD
:100BB0004D4A6168914201D84C4900E04C49884255
:100BC00001D2012070BD4B492368B0FBF1F15E6892
:100BD00026F03F060E435E606368934206D94FF4E9
:100BE000967359434FF47A73B1FBF3F12368491CB0
:100BF0001E6A26F03F06314319626168914210D89F
:100C00004900401EB0FBF1F2521CC2F30B02042A51
:100C100001D2042022E0B0FBF1F0401CC0F30B0035
:100C20001CE0A268F2B301EBC10303EB0116431E03
:100C3000B3FBF6F35B1C43F480431B0549D092B32E
:100C400001EBC10202EB0111401EB0FBF1F0401CB0
:100C5000C0F30B0040F4804040F400402168CA69B2
:100C60004CF6FF739A431043C861D4E9071001435F
:100C70002068026822F0C00211430160D4E9030138
:100C800001432068826848F2FF339A431143816030
:100C9000D4E9050108432168CA6822F0FF02104325
:100CA000C86001E00EE016E02068016841F0010133
:100CB00001602564202084F83D00256384F83E50BF
:100CC000002070BD01EB4106431EB3FBF6F35B1C35
:100CD000B3E70120C2E701EB4101401EB0FBF1F098
:100CE000401CC0F30B00B7E7A086010080841E0003
:100CF00000093D0040420F00704770477047704741
:100D0000704700002DE9FF4F83B09A46DDE9119747
:100D100093460446DDF84080FFF7A6FD054694F8AB
:100D20003D0020287FD1192301224049204600950B
:100D300001F038FD002876D194F83C00012872D0EB
:100D4000012084F83C0020680168C90703D10168CC
:100D500041F0010101602068016821F40061016037
:100D6000212084F83D00402084F83E0000262664BF
:100D7000C4F82480A4F82A90608D20852C48E06275
:100D8000CDE9007553465A462046049901F070FBA0
:100D900070B930E02A463946204601F0A9FD58B125
:100DA000206C042804D12068016841F400710160BE
:100DB000012007B0BDE8F08F606A21680078086103
:100DC000606A401C6062218D491E89B22185628D56
:100DD000521E628522685369DB435B070BD469B1FD
:100DE00000781061606A401C6062208D401E208582
:100DF000608D401E6085208D0028CBD12A46394663
:100E0000204601F0A3FC0028CAD154F83D0B01682C
:100E100041F400710160202004F81E09E67766772E
:100E20000020C6E7FFE70220C3E700000200100031
:100E30000000FFFF2DE9FC5F0025984691468A4699
:100E40000446DDF830B00095FFF70EFD074694F834
:100E50003D00202828D1574846F2A81120260068D6
:100E6000B0FBF1F000EBC00101EB00100090009826
:100E7000401E009010D020688069C0438007F6D5DE
:100E800094F83C0001280FD0012084F83C00206831
:100E90000168C9070BD00EE044F8305F6673A57394
:100EA000206940F0200020610220BDE8FC9F01681D
:100EB00041F0010101602068016821F400610160D6
:100EC000212084F83D00402084F83E002564C4F8C9
:100ED00024B00D986085608D20853748E062C4F8A5
:100EE00044A0C4F84890C4F84C802565208DE8B330
:100EF000606BF0B131498162616B31480863606BAE
:100F0000C562606B45632268238D1032616A606B35
:100F1000FFF76CFBB0B184F83D6084F83E5054F8A4
:100F2000400F40F0100000BF44F804092570012074
:100F3000BBE784F83D6084F83E5054F8400F40F021
:100F40008000F1E72320CDE9000743464A46514699
:100F5000204601F08DFA98B1606BFFF749F9606B9C
:100F600085622068016821F4806100E019E0016079
:100F7000258565852068016821F001010160D6E7BB
:100F8000206841698169009184F83C50416841F4CE
:100F9000807141602068416841F400614160002037
:100FA00083E784F83D6084F83E5054F8400F40F0E9
:100FB0004000B9E70C0000200000FFFF331C0008D0
:100FC000FD1B000870B586B000250646009501950A
:100FD0000295039500682349884240D1224CA069BC
:100FE00040F00800A061A069694600F00800049084
:100FF0004FF44060009012200190032003901B48A2
:10100000FFF72CFBE06940F48000E061E069194CD7
:1010100000F480000490164820601020C4E9010507
:101020008020C4E9030540016561C4E906502046FB
:10103000FFF79EFA08B1FFF7D9F874630022114652
:101040002120666200F080F8212000F06FF8002275
:101050001146222000F078F8222000F067F806B050
:1010600070BD00000058004000100240000C01401C
:101070004400024094000020704770470248816895
:10108000027811448160704700000020074810B5C5
:10109000016841F010010160032000F075F80F2095
:1010A00000F006F800F024F8002010BD00200240F7
:1010B00070B50D4D04464FF47A712878B1FBF0F00D
:1010C0000A490968B1FBF0F000F0DCFA48B9102CCD
:1010D00007D200222146501E00F036F800206C6036
:1010E00070BD012070BD0000000000200C00002039
:1010F0000C4808B5816941F001018161816901F005
:1011000001010091C16941F08051C161C06900F0E5
:10111000805000900448416821F0E06141F0007186
:10112000416008BD0010024000000140002809DBBA
:1011300000F01F02012191404009800000F1E020F1
:10114000C0F8001170470000F0B40E4B1B680C464D
:10115000C3F30223C3F10705042D00D90425191D8B
:10116000072901D2002300E0DB1E012606FA05F163
:10117000491E214099409E40761E16403143F0BCE6
:1011800001F0CBBF0CED00E0064900F00702086853
:101190004FF6FF03184040EA0220034A104308605C
:1011A000704700000CED00E00000FA052DE9F04763
:1011B0000F46050061D0434E306800F00700B8428A
:1011C00009D2306820F0070038433060306800F002
:1011D0000700B84251D128683B4C810712D540071F
:1011E00003D5606840F4E06060602878000703D5AC
:1011F000606840F4605060606068A96820F0F000AA
:10120000084360602878C00728D06868012810D09B
:101210002168022810D0890700292EDA616821F0A0
:10122000030101436160FFF71FFB804641F28839EB
:101230000DE021688903EFE78901EDE7FFF714FB73
:10124000A0EB0801494502D90320BDE8F08760689A
:10125000696800F00C00B0EB810FEFD1306800F04E
:101260000700B8420BD9306820F0070038433060DF
:10127000306800F00700B84201D00120E5E7287887
:10128000400705D56068E96820F4E06008436060C5
:101290002878000706D56068296920F4605040EA84
:1012A000C100606000F038F86168084AC1F30311BA
:1012B000515CC8400649086006480068FFF7F8FE20
:1012C0000020C2E70020024000100240FE3100086A
:1012D0000C0000200400002004480549006849680B
:1012E000044AC1F30221515CC84070470C00002041
:1012F000001002400E3200080448054900684968A1
:10130000044AC1F3C221515CC84070470C00002060
:10131000001002400E3200080E4A51680E4801F0DB
:101320000C03042B11D0082B0FD10C48C1F38343BD
:10133000C903C05C0AD55168084AC1F34041921EF6
:10134000515C054A5043B0FBF1F0704704494843F3
:10135000704700000010024000127A00EE310008D1
:1013600000093D002DE9F84F040070D02078C04DF1
:10137000C00749D06868C0F38100012807D06868B9
:10138000C0F38100022809D16868C00306D5286827
:10139000800339D560680028E7D035E06068B0F593
:1013A000803F0BD010B1B0F5A02F11D0286820F4E9
:1013B00080302860286820F4802002E0286840F40B
:1013C00080302860606890B1FFF74EFA06460AE068
:1013D000286840F480202860F0E700BFFFF744FA57
:1013E000801B642873D828688003F7D50CE0FFF7CA
:1013F0003BFA064605E000BFFFF736FA801B64287B
:10140000F0D828688003F7D420789A4E80074FF0F0
:1014100001094FF0000839D5686810F00C0F07D0AB
:101420006868C0F38100022809D16868C00306D447
:101430002868800714D52069012808D110E02069A8
:10144000B0B1C6F80090FFF70FFA074605E00AE1D1
:10145000FFF70AFAC01B0228C4D828688007F7D50E
:101460002868616920F0F80040EAC10028600DE0BA
:10147000C6F80080FFF7F8F9074604E0FFF7F4F933
:10148000C01B022823D828688007F7D420780007DB
:101490002CD57948A169D9B1C0F80090FFF7E4F9DB
:1014A000074604E0FFF7E0F9C01B02280FD8686A7E
:1014B0008007F7D571484FF4FA510068B0FBF1F09E
:1014C000009000BF0098411E0091FAD20EE080E02B
:1014D000C0F80080FFF7C8F9074604E0FFF7C4F939
:1014E000C01B022875D8686A8007F7D420784007A7
:1014F00060D5E8690027C00008D4E86940F0805052
:10150000E861E869012700F0805000905C480168BC
:10151000C90513D40168834641F480710160FFF767
:10152000A3F9824606E000BFFFF79EF9A0EB0A0090
:1015300064284ED8DBF80000C005F5D5E068012826
:101540000AD008B1052813D0286A20F001002862CB
:10155000286A20F0040002E0286A40F001002862B6
:10156000E06841F2883B98B1FFF77EF982460BE0D4
:10157000286A40F004002862EEE700BFFFF774F924
:10158000A0EB0A0159455AD8286A8007F6D50CE025
:10159000FFF76AF9824605E0FFF766F9A0EB0A015A
:1015A00059454CD8286A8007F6D41FB1E86920F065
:1015B0008050E861E06988B36968C1F3810102295C
:1015C00044D00228C6F8608004D0FFF74DF90446E5
:1015D00038E034E0FFF748F9074604E0FFF744F944
:1015E000C01B02282BD828688001F7D4206AB0F5E8
:1015F000803F05D16868A16820F400300843686026
:10160000D4E908010843696821F47411084368604B
:10161000C6F86090FFF728F9044606E025E000BF11
:10162000FFF722F9001B022809D828688001F7D5A6
:101630001BE000BFFFF718F9001B022802D90320A6
:10164000BDE8F88F28688001F4D40EE00128F7D0B7
:101650006868226A00F48031914204D1616A00F422
:101660007010884201D00120EAE70020E8E700007E
:101670000010024000004242800442420C00002060
:101680000070004010B5401EB0F1807F01D30120F2
:1016900010BD4FF0E02460610F21601701F03DFDA7
:1016A0000020A06107202061002010BD7047704716
:1016B00070B590F83C20012A2CD0012480F83C40E1
:1016C000022280F83D2003685A689D6822F0700667
:1016D0000A6832435A60104B02689A420ED00F4B90
:1016E0009A420BD0B2F1804F08D00D4B9A4205D0F0
:1016F0000C4B9A4202D00C4B9A4204D1496825F017
:1017000080031943916080F83D40002180F83C102F
:10171000084670BD022070BD002C0140003401401D
:101720000004004000080040000C004010B5040018
:1017300003D094F83D0010B107E0012010BD002057
:1017400084F83C00204600F01FF8022084F83D0099
:10175000211D206801F000FC012084F8460084F877
:101760003E0084F83F0084F8400084F8410084F88B
:10177000420084F8430084F8440084F8450084F86B
:101780003D00002010BD000008B50068B0F1804F9A
:1017900012D10A48C16941F00101C161C06900224A
:1017A00000F00100009011461C20FFF7CDFCBDE8C1
:1017B00008401C20FFF7BABC08BD00000010024022
:1017C00090F83D10012901D001207047022180F8D6
:1017D0003D100168CA6842F00102CA6000680E4903
:1017E00088420ED00D4988420BD0B0F1804F08D00E
:1017F0000B49884205D00B49884202D00A498842E9
:1018000004D1816801F00701062903D0016841F085
:101810000101016000207047002C014000340140AC
:101820000004004000080040000C004070B5044671
:1018300090F83C000025012817D0012684F83C6070
:10184000022084F83D002068826822F0770222F4AA
:101850007F4282600868502838D00DDC20284FD0A5
:1018600005DC90B3102811D14AE0022070BD302869
:1018700046D040280AD13BE060282FD070280DD0F8
:10188000B0F5805F03D0B0F5005F12D0012584F879
:101890003D60002084F83C00284670BDCB68D1E94B
:1018A0000121206801F0A6FB2068816841F07701E2
:1018B00009E0CB68D1E90121206801F09BFB206899
:1018C000816841F480418160E1E719E0CA684968B4
:1018D000206801F0A1FB5021206806E0CA68496831
:1018E000206801F0AAFB6021206801F08DFBCEE7A3
:1018F000CA684968206801F08FFB40212068F4E73E
:10190000226801461046F0E770472DE9F041044691
:101910000068C66805694FF00007A90713D5B1072D
:1019200011D5F91E016101202077206880698007A8
:10193000204602D0FFF7E8FF04E000F07EF82046E2
:1019400000F07CF82777680716D5700714D5216852
:101950006FF004000861022020772068806910F48D
:10196000407F204602D0FFF7CFFF04E000F065F88B
:10197000204600F063F82777280715D5300713D5E0
:1019800021686FF008000861042020772068C06992
:101990008007204602D0FFF7B7FF04E000F04DF8C3
:1019A000204600F04BF82777E80616D5F00614D548
:1019B00021686FF010000861082020772068C06956
:1019C00010F4407F204602D0FFF79EFF04E000F0B5
:1019D00034F8204600F032F82777E80708D0F007FF
:1019E00006D021686FF001000861204600F027F85A
:1019F000280608D5300606D521686FF080000861FA
:101A00002046FFF753FE680608D5700606D5216804
:101A10006FF040000861204600F018F8A8060AD5CB
:101A2000B00608D521686FF0200008612046BDE8A7
:101A3000F041FFF73CBEBDE8F08170477047006899
:101A4000B0F1804F01D100F07FBF7047704770B593
:101A5000040004D094F84100002510B106E00120F4
:101A600070BD84F84050204600F024F8242084F80B
:101A700041002068C16821F40051C160204601F096
:101A8000EFFA2068016921F4904101612068416901
:101A900021F02A0141612068C16841F40051C16010
:101AA0006564202084F8410084F8420065630020CA
:101AB00070BD000030B585B00024009401940294FC
:101AC000039400681449884224D11448816941F480
:101AD00080418161816901F480410491816941F013
:101AE0000401816180690E4D00F0040004904FF400
:101AF0000070009002200190032003906946284660
:101B0000FEF7ACFD2815CDE900046946284602948D
:101B1000FEF7A4FD05B030BD0038014000100240C2
:101B200000080140FEE700000148FEF7A5BE0000E6
:101B3000400000200148FEF701BF000040000020E7
:101B400038B5406A002190F83D202B4B46F2A8148E
:101B50001B68B3FBF4F3C3EBC30303EB83030093F2
:101B60003BB15B1E009303681B689B0505D5009B7A
:101B7000F6E7036C43F020030364436B03B19962FF
:101B8000836B03B1996203681C6824F480641C6051
:101B90004185436B03B15963836B03B15963036898
:101BA0001C6824F001041C6090F83D402023602C48
:101BB0000BD0282434EA02020FD080F83D3080F8A0
:101BC0003E1000BFFEF7D2FF38BD80F83D3080F8F0
:101BD0003E100164FEF74EFE38BD0268136843F004
:101BE000010313600268136843F4806313600163A8
:101BF00080F83D40E6E700000C00002010B5406A88
:101C00000021426B02B19162826B02B19162026863
:101C1000136823F4806313604185202280F83D20FF
:101C200080F83E10016C41F010010164FEF79EFF48
:101C300010BD2DE9F041446A94F83D2094F83E50DF
:101C4000E16A2068436823F440734360636B0020BB
:101C500003B19862A36B03B19862212333EA0207B0
:101C60004FF022060CD036EA020701D1202D07D012
:101C700094F83E20002A21D0628D012A20D024E051
:101C800021684D6825F400654D6060852820292A6B
:101C900002D02A2A07D00CE0236384F83D002046B6
:101CA000FFF7EBF905E0266384F83D002046FFF7D7
:101CB000E3F92068416841F440714160BDE8F0817A
:101CC0002268136823F4806313602268536823F446
:101CD0004073536011F5803F06D0082904D0B1F15C
:101CE0002A4F01D0202904D12268136843F40073DD
:101CF00013602268536823F480535360226853684A
:101D000023F4006353606085226C1AB12046FEF70D
:101D10002DFFD3E7202284F83D2094F83E2084F85C
:101D20003E00402A09D0082902D0202900D01220E4
:101D300020632046FEF7E1FFC0E720632046FEF760
:101D4000DEFFBBE700684169C943090601D40021F1
:101D50000161704770B5044690F83D0094F83E105C
:101D6000102901D0402906D1222804D121680A680F
:101D700022F400620A60282131EA00024FF00005D7
:101D80004FF0200626D021684968090505D460284F
:101D900003D084F83D6084F83E5025632068416894
:101DA000090537D5416821F400614160606B90F806
:101DB00021203C49012A11D04163606BFEF718FADB
:101DC00038B32068016821F00101016084F83D60AA
:101DD000606B1CE0256384F83D10DFE7A06B416376
:101DE000A06BFEF705FAA0B120684169C943490616
:101DF00005D40069616A0870606A401C60622068EE
:101E0000016821F00101016084F83D60A06B416B25
:101E1000884710E094F83D10602910D04169C9430B
:101E2000490605D40069616A0870606A401C6062F6
:101E30002046FEF79BFE206CC1071CD115E084F8FC
:101E40003D6025644169C943490605D40069616A5A
:101E50000870606A401C60622068016821F001011E
:101E600001602046FEF706FDE5E7810703D4410740
:101E700001D4000704D52068416821F4E061416085
:101E800094F83D00216C49070BD5282809D1064854
:101E9000E062256384F83D6084F83E502046FEF7FA
:101EA0002BFF70BD411B00080000FFFF01684A695D
:101EB000D24352050FD46FF480624A61002140F88A
:101EC000301F202242738173026942F004020261D2
:101ED0000173012070470020704710B5C26A438D1E
:101EE0000168042B06D0438D032B08D0438D022BB1
:101EF0001DD012E04A6822F480624A600CE04B6810
:101F000023F480634B60042A06D0022A04D00168BF
:101F10000A6822F480620A6001680969426A1170E5
:101F2000416A491C4162418D491E418510BD012A0B
:101F300034D0102A32D0042A34D0022A32D00B688E
:101F400043F400730B6001680969436A1970416AC0
:101F5000491C4162438D5B1E438503681B690B70FE
:101F6000416A491C4162418D491E418501684B68A7
:101F700023F440734B60202180F83D1090F83E30F0
:101F80000021402B80F83E1010D0082A02D0202AD1
:101F900000D012210163FEF7B0FE10BD0B6823F4E0
:101FA0008063CFE70B6843F48063CBE70163FEF700
:101FB000A6FE10BD38B590F83D10222910D1C36A95
:101FC000418D03290DD901680969426A1170416A7E
:101FD000491C4162418D491E4185418D032906D02E
:101FE00038BDC26A022A02D0012906D029B1006890
:101FF000416821F48061416038BD2A4A46F2A81444
:1020000000211268B2FBF4F202EB82020092026835
:102010002024009D6D1E009526D01568AD05F8D4CE
:10202000156825F4806515600268556825F4E0653B
:10203000556002681269456A2A70426A521C4262FF
:10204000428D521E428580F83D4090F83E2080F837
:102050003E10402A21D0082B02D0202B00D0122184
:102060000163FEF74AFE38BD036C43F020030364AE
:10207000536823F4E063536002681269436A1A707C
:10208000426A521C4262428D521E428580F83D4097
:1020900080F83E10FEF76AFD38BD0163FEF72FFEA3
:1020A00038BD00000C00002010B5C26A90F83D1049
:1020B00021290BD1418D51B1416A02680978116122
:1020C000416A491C4162418D491E418510BD202352
:1020D0000021082A13D0202A11D012F5803F0ED0FB
:1020E0000268546824F4E06454601122026380F8AA
:1020F0003E1080F83D3000BFFEF700FE10BD0268C4
:10210000546824F4E06454600268146844F4007471
:102110001460016380F83D3090F83E2080F83E1056
:10212000402AE9D1FEF7ECFD10BD000010B590F893
:102130003D1090F83E30C26A048DB4B1212903D01D
:10214000402B11D122290FD1418DE1B390F83E10DF
:10215000402942D0416A026809781161416A491CEC
:102160004162418D491E418510BD2129E8D12023BE
:102170000021082A13D0202A11D012F5803F0ED05A
:102180000268546824F4E06454601122026380F809
:102190003E1080F83D3000BFFEF7B0FD10BD026874
:1021A000546824F4E06454600268146844F40074D1
:1021B0001460016380F83D3090F83E2080F83E10B6
:1021C000402AE9D100E002E0FEF79AFD10BD006868
:1021D000416821F48061416010BDBDE8104000F00D
:1021E000F3B8000078B590F83E50C26A046B90F8DE
:1021F0003D6000230168222E73D1066D0EB9402D7B
:102200006FD0056D1DB90569B5F5404F1BD0458DE3
:1022100095B3468D484D012E20D0448D022C4DD0D3
:102220000C6844F480640C6001684C68240579D51E
:10223000AA4273D0012A71D0082A6FD0102A6DD01B
:10224000202A6BD06EE04A698A6900920A6842F4DB
:1022500080720A60016D491C016578BDAA4214D1E3
:102260000A6822F480620A6001684A68120504D58F
:102270000A6822F4806217E0FFE74A698A690092DF
:102280000A6842F400720A6050E0082A10D0202A3E
:102290000ED0122C0AD0042A03D0022A01D0102A10
:1022A000E6D10A6842F480620A603BE0012ADFD08E
:1022B0000A6822F480620A600168DEE7042A11D00D
:1022C000022A0FD0102A0DD00C6844F400640C6070
:1022D00001684C698C6900940C6824F480640C607B
:1022E00008E025E00C6844F480640C6001684C69E7
:1022F0008969009101684C68240517D5AA4207D066
:10230000012A05D0082A03D0102A01D0202A0DD195
:102310004A6842F480524A6008E0FFE74A6842F4A3
:1023200080524A6001684A6989690091036578BDF5
:1023300048698869009078BD0000FFFF90F83E1062
:10234000402910D00169B1F5804F19D0016DA9B3B2
:10235000016D012910D1416C5FF0F10201F440716F
:1023600042EAD11106E0016D0029416C05D0C9B2E5
:1023700041F0010100680161704701F0FE01F9E7D9
:1023800090F83D102129416C09D0C9B241F00101FA
:1023900002681161416B29B1896A49B902E001F013
:1023A000FE01F5E7816B0029E6D0896A0029E3D0B8
:1023B0000068416841F4006141607047FFE7416C8B
:1023C000F02201F44071CBE710B590F83D10026D9A
:1023D0004AB1026D012A14D0026D022A16D0BDE85E
:1023E0001040FFF7AFBCC16C0129816C02D0C1F372
:1023F000072108E00268C9B21161016D891C0165FD
:1024000010BD816CC9B20268116123E022291CD081
:10241000428D0AB1212920D0428D002AF0D12129F4
:10242000EED101684A6822F4E0624A6001680A68F5
:1024300042F400720A6000210163202280F83D20EE
:1024400080F83E10FEF75CFC10BD01680A6842F49B
:1024500080720A60016D491CD1E7416A02680978FF
:102460001161416A491C4162418D491E418510BD7F
:102470002DE9F843044600680D46DDE90897016838
:102480009846164641F4807101604B4600224FF099
:1024900001112046009700F085F948B120680068D6
:1024A000C00502D54FF4007020640320BDE8F88316
:1024B000216805F0FE0008613B464A461549204662
:1024C00000F0B8F988B920684169806900903A46FF
:1024D0004946204600F00CFA48B1206C042804D18B
:1024E0002068016841F4007101600120DEE7F5B267
:1024F000B8F1010F09D02168300A08613A4649460F
:10250000204600F0F5F90028E7D120680561002099
:10251000CCE700000200010038B50C4690F83D20E1
:1025200000212825954302680B4605D05169916921
:10253000009180F83C3038BD556825F480655560C1
:10254000E243540700D50121120601D5828900E03B
:10255000028B80F83C3092B2FEF78DF938BD000056
:102560002DE9F04190F83D300446C26A0021202652
:102570001E4F00686FF48065082A01D0202A01D11F
:10258000282B04D0212B17D04561BDE8F081E762EC
:10259000426822F4E0624260206845612068026877
:1025A00022F480620260216384F83D6084F83E106A
:1025B0002046FEF7A1FBE8E7E7622122226384F8C8
:1025C0003D6084F83E10416821F4E061416020687C
:1025D00045612068016821F4806101602046FFF7B1
:1025E000B1FB2046FEF749FDCFE700000000FFFFEA
:1025F000F8B590F83D6004460068416821F4E06158
:1026000041602068002541690091016841F00101A5
:1026100001602068016821F48061016020684168E0
:10262000090520D5474F222E48D02A2E46D0616B6F
:10263000096849686185618D19B1216C41F0040117
:102640002164416821F400614160606BFDF768FE20
:10265000012808D0606B4763606BFDF7C9FD10B1BE
:10266000606B416B8847608D08B320684169C9433E
:10267000490708D40069616A0870606A401C60629A
:10268000608D401E608520684169C943490608D4B1
:102690000069616A0870606A401C6062608D401E5B
:1026A0006085608D18B1206C40F004002064206CBF
:1026B00000B32046BDE8F840FFF74CBBA16B0968AA
:1026C00049686185618D19B1216C41F00401216473
:1026D000416821F400614160A06BFDF721FE0128F3
:1026E000C1D0A06B4763A06BFDF782FD0028BAD074
:1026F000A06BB6E72A2E06D12563282084F83D007A
:102700002046FEF7B9FC94F83D10202028290DD072
:10271000216B222901D0222E07D1256384F83D00A8
:1027200084F83E502046FEF7A7FCF8BD0649E1625A
:10273000256384F83D0084F83E502046FEF7DCFA1D
:10274000F8BD0000411B00080000FFFF70B51646F1
:102750000D4604461EE02046FFF7A8FB08B1012005
:1027600070BD681C16D0FEF77FF8801BA84200D809
:1027700085B920684069C04340070BD5002044F864
:10278000300F20216173A073216941F02001216184
:102790002073E4E720684069C0434007DBD4002091
:1027A00070BD00002DE9F047984617460D460446D7
:1027B000C1F30746DDF820902AE000BFB8F1FF3FE3
:1027C00026D0FEF751F8A0EB0901414502D8B8F137
:1027D000000F1DD12068012E16D0806925EA000067
:1027E0000004000C12D00020B84211D1002044F89F
:1027F000300F20216173A073216941F02001216114
:1028000020730120BDE8F0874069E7E70120EBE78E
:102810002068012E0AD0806925EA00000004000C1F
:1028200006D00020B842C9D00020EBE74069F3E7AA
:102830000120F7E72DE9F047984616460D46044675
:102840004FF000094FF0200AC1F3074723E020684A
:102850004069C043400515D42068016841F4007107
:10286000016021686FF480604861C4F8309084F89A
:102870003DA084F83E90216C41F00401216484F86D
:102880003C9021E0701C06D0FDF7EEFFA0EB0800A5
:10289000B04203D816B1012F1FD021E02068012FCC
:1028A00015D0806925EA00000004000C18D000BF94
:1028B00044F8309F84F80DA084F80E90216941F00F
:1028C0002001216184F80C900120BDE8F087406967
:1028D00025EA00000004000CEAD12068406901E00C
:1028E0002068806925EA00000004000CAFD1ECE705
:1028F00070B516460D4604461EE02046FFF7D6FA90
:1029000008B1012070BD681C16D0FDF7ADFF801B1B
:10291000A84200D885B920684069C04300060BD59D
:10292000002044F8300F20216173A073216941F029
:10293000200121612073E4E720684069C04300065C
:10294000DBD4002070BD00002DE9F05F574C04F18E
:102950000E052078401CC2B222700023637060789C
:1029600035F8101011B1491E25F81010401CC0B2E6
:1029700060700328F3D3142A73D94C4F23707F1D42
:10298000FE1E9A461846637006F1090806F106090C
:102990004FF0320B10F0FF00315C395404D00128A5
:1029A00005D0022816D008E04FF4005101E04FF4A2
:1029B00080413F48FDF74EFF78B1002160784246E4
:1029C000315418F8003051B143F0010313543B5C0B
:1029D00053B114E04FF40041EBE70121EEE723F09F
:1029E0000103135421B10AE0135C43F0020305E034
:1029F0003B5C012B03D1135C43F00403135419F81F
:102A0000003043B1012B0DD0022B1FD0032B33D04C
:102A1000042B33D042E019B34FF47A7125F810102B
:102A200001211BE019B135F8101029B136E0C82199
:102A300025F81010022111E018F8003043F02003AF
:102A400008F8003025F810B0042107E051B118F85B
:102A5000003043F0100308F80030032109F800109B
:102A60001CE021E035F81010C1B918F8003043F02F
:102A7000080308F8003006E029B10FE019B135F875
:102A8000101019B10AE009F800A007E025F810B00D
:102A900018F8002042F0400208F80020401CC0B2A4
:102AA00060700328FFF476AFBDE8F09F2A00002095
:102AB00000180140064A535C034206D0012802D0A8
:102AC000535C83435354012070470020704700003B
:102AD00035000020094808B5416941F00101416114
:102AE0004069002200F00100009011460E20FEF720
:102AF0002BFBBDE808400E20FEF718BB001002407B
:102B0000F0B585B000242048009401940294039409
:102B1000816941F010018161816901F01001049126
:102B2000816941F040018161816901F040010491B6
:102B3000816941F008018161816901F00801049116
:102B4000816941F0040181618069104F00F0040047
:102B50004FF4E0760490002231463846FDF77FFEC0
:102B6000F00101258DE8310069460948FDF776FD41
:102B70000320CDE90240CDE9006569463846FDF7FE
:102B80006DFD05B0F0BD000000100240000C0140DA
:102B9000001801400D4810B50B4901600C49416017
:102BA00000214FF480428160C0E9031241618161DC
:102BB000C1610162FDF7DCFF002803D0BDE81040D1
:102BC000FDF714BB10BD000000580040400000207D
:102BD000801A060010B586B00024164800940194AF
:102BE0000294039404944FF08041059401604721BE
:102BF000C0E9011440F2E731C0E903148461FEF733
:102C000095FD08B1FDF7F2FA4FF480500090694647
:102C10000848FEF70BFE08B1FDF7E8FA049404A992
:102C200004480594FEF744FD002801D0FDF7DEFAC4
:102C300006B010BDD80000200C4810B50A4901604C
:102C40004FF4E1314160002181600C22C160C0E994
:102C500004128161C161FEF7FAFE002803D0BDE8CD
:102C60001040FDF7C3BA10BD00380140200100201C
:102C7000FEE7FEE710B50021074C0A46002004EBF2
:102C8000C1131A54401CC0B28028FAD3491CC9B2DF
:102C90000829F3D310BD000068010020F0B50B44F3
:102CA00024E0044685181DE07F2C19D8002917DB85
:102CB0003F2915DCCE1701EB56764FEAE60C0D4F97
:102CC00026F0070607EBCC172744A1EB060E97F872
:102CD00000C0012606FA0EF62CEA060C87F800C0A2
:102CE000641C24B2A542DFDC491C09B28B42D8DC4B
:102CF000F0BD00006801002010B51921044800F063
:102D0000D1F8FFF7B7FFBDE8104000F0BDB80000F4
:102D1000100000200246012000E05043491EFCD272
:102D2000704708B540F0B0008DF80000102040EA70
:102D300011108DF8010001F00F008DF80200032141
:102D4000684600F0AFF808BD08B5082B0DD0062B7B
:102D50000AD10A4B02EB420203EB4202C03A009254
:102D60000823062200F00EF808BD054B03EB021203
:102D7000A2F50072102300920822F3E7063800083B
:102D8000163200082DE9F04F1F4616460D468246C2
:102D90000024FFF783FF7F1EF81707EB5070012117
:102DA000DFF898B001EBE00743E000203DE000BF12
:102DB0000AEB00037F2B36D8E91705EB5171CA10D7
:102DC00021F00701691A002D03DA521E083112B2F0
:102DD00009B202EB0409B9F1070F0ED8099A04FBF6
:102DE00006F802440BEBC91E18F802201EF803C0B7
:102DF0008A404CEA020C0EF803C009F10102072ACE
:102E000011D80BEBC91202EB0308099A04FB06FC6C
:102E1000024498F880301CF80220C1F10801CA4031
:102E2000134388F88030401CC0B2B042C0D3641C49
:102E3000E4B2A742B9DCBDE8F08F000068010020D1
:102E40002DE9F04700241D4690468A4681460A2710
:102E5000089E14E0291B0A20491EFFF75BFFB8FB00
:102E6000F0F0B0FBF7F107FB110204FB069000B293
:102E7000334651463032FFF767FF641CE4B2AC4280
:102E8000E8D3BDE8F087000010B500210846FFF741
:102E900048FFBDE810404FF48061014800F010B8D1
:102EA000680100200EB564228DE80700012300228E
:102EB00078210248FDF726FF0EBD000040000020EB
:102EC0001CB5074A12689369DB439B07FBD5CDE924
:102ED00000010123402278210148FDF7ABFF1CBD12
:102EE0004000002070477047FEF7C8B830B58FB07B
:102EF00028216846FDF73FF914210AA8FDF73BF9A0
:102F000001210804CDE90010002402940225049157
:102F1000CDE907504FF4E01009906846FEF722FA19
:102F200008B172B6FEE70F20CDE90A054FF48060C4
:102F3000CDE90C4002210AA80E94FEF737F90028CB
:102F400001D072B6FEE70FB030BD70470148FEF702
:102F5000DCBC0000D8000020F0B50268204C214DF8
:102F6000214E224F224B4FF0804CA04209D0984274
:102F700007D0604505D0A84203D0B04201D0B84286
:102F800004D122F0700E4A6842EA0E02A04209D033
:102F9000984207D0604505D0A84203D0B04201D086
:102FA000B84203D122F44075CA682A434D6922F021
:102FB00080022A4302608A68C2620A688262A04272
:102FC00001D0984201D10969016301214161016980
:102FD000C90703D0016921F001010161F0BD0000C2
:102FE000002C01400004004000080040000C00409C
:102FF0000034014010B5846842EA032224F47F447F
:103000000A432243826010BD826822F070020A43A4
:1030100042F007018160704710B5036A046A24F02A
:1030200001040462846924F0F00444EA021423F0E9
:103030000A020A438461026210BD10B5036A046A81
:1030400024F010040462846923F0A00324F4704483
:1030500044EA023243EA01118261016210BD0000BC
:1030600070B5044600680169E26821F440511143DB
:1030700001612169A0680843616908432168CA6841
:1030800041F20C639A430243CA6020684169A26915
:1030900021F44071114341611E492068884202D1E8
:1030A000FEF72AF901E0FEF717F900EBC00101EB8A
:1030B0000012606864218000B2FBF0F3B3FBF1F30F
:1030C0006FF018067343B2FBF0F5B2FBF0F605EBB8
:1030D0008305322303EB0515B5FBF1F5B6FBF1F6DD
:1030E00005F0F00505EB0615B2FBF0F6B2FBF0F0CB
:1030F000B0FBF1F06FF01802504306EB800003EBD9
:103100000010B0FBF1F0216800F00F002844886047
:1031100070BD000000380140FEE70907090E0028D5
:1031200004DB00F1E02080F80014704700F00F008D
:1031300000F1E02080F8141D704702E008C8121F5B
:1031400008C1002AFAD170477047002001E001C190
:10315000121F002AFBD1704708B500242646FDF750
:1031600095FFFFF7C3FEFFF7CBFCFFF7B3FCFFF7BC
:1031700063FDFFF70FFDFFF72DFD1B48FEF720FB5A
:10318000FFF7BAFD062502210820FFF793FC20B9BE
:1031900002214020FFF78EFCA8B100210820FFF794
:1031A00089FC20B900214020FFF784FC00B1641C99
:1031B00001210820FFF77EFC20B901214020FFF704
:1031C00079FC00B1641E08210523224608460095BB
:1031D000FFF736FE05233246182108200095FFF739
:1031E0002FFEFFF751FECEE7D800002001020203B8
:1031F0000405060708090A0B0C0D0E0F101000003D
:103200000000000000000102030406070809000096
:1032100000000102030400000000000000000000A4
:10322000000000000000000000F8000000000000A6
:1032300000333000000000160E00160E00000000E3
:1032400000000000000040C07840C0784000043F0B
:1032500004043F040400007088FC083000000018DB
:1032600020FF211E0000F008F000E01800000021FF
:103270001C031E211E0000F00888700000001E21A3
:10328000232419272110000000160E000000000062
:10329000000000000000000000E018040200000030
:1032A00000071820400000020418E0000000004061
:1032B000201807000000404080F0804040000202DB
:1032C000010F01020200000000F0000000000101F7
:1032D000011F01010100000000000000000000B01B
:1032E000700000000000000000000000000000016D
:1032F0000101010101010000000000000000003098
:103300003000000000000000000080601804006031
:1033100018060100000000E010080810E000000F8F
:10332000102020100F00001010F8000000000020F6
:10333000203F20200000007008080888700000303E
:1033400028242221300000300888884830000018E6
:10335000202020110E000000C02010F800000007FF
:103360000424243F240000F8088888080800001975
:10337000212020110E0000E0108888180000000FA6
:10338000112020110E0000380808C838080000007D
:10339000003F000000000070880808887000001CD2
:1033A000222121221C0000E010080810E00000008B
:1033B000312222110F00000000C0C00000000000F8
:1033C000003030000000000000C0C000000000001D
:1033D00080B0700000000000804020100800000154
:1033E00002040810200040404040404040000404D7
:1033F00004040404040000081020408000000020A1
:10340000100804020100007048080808F0000000DD
:10341000003036010000C030C828E810E00007186E
:10342000272423140B000000C038E0000000203CDB
:1034300023020227382008F8888888700000203F7F
:10344000202020110E00C030080808083800071896
:1034500020202010080008F808080810E000203F8D
:10346000202020100F0008F88888E8081000203F6E
:1034700020202320180008F88888E8081000203F42
:10348000200003000000C0300808083800000718BA
:103490002020221E020008F808000008F808203F3B
:1034A000210101213F20000808F808080000002041
:1034B000203F2020000000000808F8080800C08015
:1034C00080807F00000008F888C028180800203F8E
:1034D00020012638200008F8080000000000203FE6
:1034E00020202020300008F8F800F8F80800203FDD
:1034F000003F003F200008F830C00008F808203FD7
:10350000200007183F00E01008080810E0000F1026
:10351000202020100F0008F808080808F000203FBD
:10352000210101010000E01008080810E0000F1858
:10353000242438504F0008F8888888887000203F7D
:103540002000030C3020007088080808380000387C
:10355000202121221C00180808F808081800000083
:10356000203F2000000008F808000008F808001FAD
:10357000202020201F000878880000C8380800009C
:1035800007380E010000F80800F80008F800033CB6
:103590000700073C0300081868808068180820307E
:1035A0002C03032C30200838C800C838080000005D
:1035B000203F2000000010080808C8380800203804
:1035C000262120201800000000FE02020200000058
:1035D000007F40404000000C30C0000000000000B0
:1035E00000010638C00000020202FE000000004098
:1035F00040407F0000000020100804081020000058
:1036000000000000000000000000000000008080BA
:10361000808080808080000204080000000000009C
:103620000000000000000000808080800000001981
:10363000242222223F2008F8008080000000003F62
:10364000112020110E000000008080800000000E7C
:10365000112020201100000000808088F800000E5A
:10366000112020103F200000808080800000001F7B
:10367000222222221300008080F0888888180020EF
:10368000203F202000000000808080808000006BB0
:1036900094949493600008F8008080800000203F9C
:1036A000210000203F2000809898000000000020AA
:1036B000203F20200000000000809898000000C0FB
:1036C0008080807F000008F8000080808000203F1C
:1036D00024022D302000000808F80000000000201F
:1036E000203F202000008080808080808000203F5C
:1036F00020003F20003F00808000808000000020EC
:103700003F2100203F200000808080800000001FBB
:10371000202020201F00808000808000000080FF8B
:10372000A12020110E000000008080808000000E8B
:10373000112020A0FF8080808000808080002020D9
:103740003F21200001000000808080808000003345
:10375000242424241900008080E0808000000000E0
:10376000001F202000008080000000808000001FDB
:10377000202020103F208080800000808080000179
:103780000E300806010080800080008080800F30AD
:103790000C030C300F00008080008080800000202F
:1037A000312E0E312000808080000080808080815A
:1037B0008E701806010000808080808080000021CB
:1037C000302C2221300000000000807C020200002A
:1037D0000000003F404000000000FF00000000002B
:1037E0000000FF0000000002027C8000000000409A
:1037F000403F00000000008040408000008000004A
:103800000000000101000000000000000000002F87
:10381000000000000700070000147F147F1400243C
:103820002A7F2A1200231308646200364955225069
:1038300000000007000000001C224100000041229F
:103840001C000014083E08140008083E0808000088
:1038500000A0600000080808080800006060000080
:10386000002010080402003E5149453E0000427FFE
:103870004000004261514946002141454B3100184A
:1038800014127F10002745454539003C4A4949300C
:1038900000017109050300364949493600064949C6
:1038A000291E0000363600000000563600000008D1
:1038B00014224100001414141414000041221408AE
:1038C000000201510906003E4955592E007C121193
:1038D000127C007F49494936003E41414122007F28
:1038E0004141221C007F49494941007F09090901E2
:1038F000003E4149497A007F0808087F0000417F67
:103900004100002040413F01007F08142241007F18
:1039100040404040007F020C027F007F0408107F7F
:10392000003E4141413E007F09090906003E4151E8
:10393000215E007F091929460046494949310001A5
:10394000017F0101003F4040403F001F2040201FF9
:10395000003F4038403F00631408146300070870BC
:10396000080700615149454300007F4141000002C2
:1039700004081020000041417F00000402010204FD
:103980000040404040400000010204000020545428
:103990005478007F48444438003844444420003878
:1039A0004444487F00385454541800087E090102EA
:1039B0000018A4A4A47C007F080404780000447DBF
:1039C0004000004080847D00007F102844000000FB
:1039D000417F4000007C04180478007C08040478CF
:1039E00000384444443800FC2424241800182424BB
:1039F00018FC007C080404080048545454200004B7
:103A00003F444020003C4040207C001C2040201CC3
:103A1000003C4030403C004428102844001CA0A03A
:103A2000A07C004464544C440000087F4100000026
:103A3000007F00000000417F080000080408100813
:103A4000603A000800000020400000003A31000801
:103A5000A03A000840000020280900004A31000870
:103A600001000000100000000000000000127A00B9
:103A7000AE2000D580A83FD30040A1C8DA1281CF84
:103A8000D9F1DB30A4A68D14AF00000000000000C7
:103A90000000000000000000000000000000000026
:0400000508000131BD
:00000001FF
