:020000040800F2
:10000000C017002045010008DF2C00089D1B0008D8
:10001000DD2C0008B1010008DD31000800000000FF
:10002000000000000000000000000000C32D0008D8
:10003000F701000800000000C12D0008C52D0008D0
:100040005F0100085F0100085F0100085F01000810
:100050005F0100085F0100085F0100085F01000800
:100060005F0100085F0100085F0100085F010008F0
:100070005F0100085F010008B5010008C101000828
:100080005F0100085F0100085F0100085F010008D0
:100090005F0100085F0100085F0100085F010008C0
:1000A0005F0100085F0100085F0100085F010008B0
:1000B000292E00085F0100085F0100085F010008A9
:1000C0005F010008AD1B0008A11B00085F010008CC
:1000D0005F0100085F0100085F0100085F01000880
:1000E0005F0100085F0100085F0100085F01000870
:1000F0005F0100085F0100085F0100085F01000860
:100100005F0100085F0100085F0100085F0100084F
:100110005F0100085F0100085F0100085F0100083F
:100120005F0100085F0100085F0100085F0100082F
:10013000DFF80CD000F02AF800480047B932000878
:10014000C01700200648804706480047FEE7FEE744
:10015000FEE7FEE7FEE7FEE7FEE7FEE7FEE7FEE777
:10016000272E000831010008D2B201E000F8012B6F
:10017000491EFBD270470022F6E710B513460A4627
:1001800004461946FFF7F0FF204610BD064C074D08
:1001900006E0E06840F0010394E807009847103457
:1001A000AC42F6D3FFF7C8FFDC330008FC3300088D
:1001B000FEE70000014800F0BDB80000A8000020E4
:1001C000014800F0B7B800007C01002030B590F87D
:1001D00040500124AC40C56B6C60046863604368A8
:1001E000102B036803D099600068C26030BD9A602C
:1001F0000068C16030BD704772B6FEE72DE9F05F60
:1002000090F821100024022903D0042181630124E5
:1002100085E001680A6822F00E020A6001680A6837
:1002200022F001020A603F4E3E4FB215DFF8F4C0E3
:10023000DFF8F090DFF8ECA0DFF8E8B0DFF8E4E0FA
:100240000168783F13011502ACF1640CA9F1500963
:10025000AAF13C0AABF1280BAEF1140E4FF4801852
:10026000B14227D9B9420ED0614512D049451DD0BF
:10027000514518D0594518D0714501D1424615E075
:10028000294EB14201D1012210E0274E1436B1426D
:1002900001D110220AE0244E2836B14206D0224A6B
:1002A0003C32914201D11A4600E02A461E49091FFC
:1002B0000A602BE0B94213D0614517D0494522D0DE
:1002C00051451DD059451DD0714501D142461AE016
:1002D000B14202D14FF0807215E0134EB14201D10C
:1002E000012210E0104E1436B14201D110220AE072
:1002F0000D4E2836B14206D00B4A3C32914201D114
:100300001A4600E02A46074980394A60012180F8F0
:100310002110002180F82010416B01B18847204650
:10032000BDE8F09F800002400804024090F82100E0
:10033000704700002DE9F05FC16B0A6801680B6827
:10034000046C4FF0040808FA04F8844D844E854F7D
:10035000DFF814C2DFF81492DFF814A2DFF814B249
:10036000DFF814E218EA020F65D05FEA437862D53D
:100370000A68920603D40A6822F004020A60DFF8D1
:10038000F0814FF48062016808F11408130114022F
:10039000414524D9A9420DD0B1420FD0B9421AD05B
:1003A000614515D0494515D0514501D1120312E0E0
:1003B000594501D104220EE0714501D140220AE0E5
:1003C0006D4D1435A94206D06B4A2832914201D1B5
:1003D0001A4600E022466749091F0A6029E0A9423F
:1003E00013D0B14215D0B94220D061451BD0494548
:1003F0001BD0514502D14FF4800217E0414502D194
:100400004FF0806212E0594501D104220EE071459F
:1004100001D140220AE0584D1435A94206D0564A6F
:100420002832914201D11A4600E022464B49083950
:100430004A60C16A71E04FF0020808FA04F818EA4D
:10044000020F70D05FEA83786DD50A68920606D4F1
:100450000A6822F00A020A60012180F82110DFF800
:1004600010814FF40072016808F11408130114029E
:10047000414524D9A9420DD0B1420FD0B9421AD07A
:10048000614515D0494515D0514501D1120312E0FF
:10049000594501D102220EE0714501D120220AE026
:1004A000354D1435A94206D0334A2832914201D144
:1004B0001A4600E022462F49091F0A6029E0A94296
:1004C00013D0B14215D0B94220D061451BD0494567
:1004D0001BD0514502D14FF4001217E0414502D123
:1004E0004FF0007212E0594501D102220EE0714531
:1004F00001D120220AE0204D1435A94206D01E4A1F
:100500002832914201D11A4600E0224613490839A7
:100510004A60002180F82010816A00291CD0BDE8C3
:10052000F05F0847FFE70825A540154214D01A07D9
:1005300012D50A6822F00E020A6090F84020C36BC0
:10054000012101FA02F25A60816380F82110002132
:1005500080F82010016BE0E7BDE8F09F0800024042
:100560001C0002403000024044000240580002409B
:100570006C000240080402401C04024030B560B127
:100580001A4B026814219A4209D2194B1344B3FB47
:10059000F1F18900016417490AE0012030BD134BD5
:1005A0005B421344B3FBF1F1890001640F49083940
:1005B000C163022180F82110136843F6F0718B4368
:1005C000F0E901142143D0E902452C432143046999
:1005D0002143446921438469214319431160002167
:1005E0004163012242770177084630BD080402408A
:1005F000F8FFFDBF0000024070B5044690F82000EF
:10060000002501280CD0012084F8200094F82160F6
:100610000020012E06D084F820000225284670BD57
:10062000022070BD022684F82160A063206806685D
:1006300026F0010606602046FFF7C8FDE06A0028A4
:100640002068016802D041F00E0106E021F00401AB
:1006500001602068016841F00A01016020680168BA
:1006600041F001010160D9E72DE9F84FDFF8C891A9
:100670000024A9F1040B23460F2709F1040AABF16A
:10068000040ED1E00125A54006EA0502AA4276D172
:10069000DFF8A8C14E68A6EB0C0866452BD00DDC30
:1006A000032E34D005DC36B3012E19D0022E2FD103
:1006B0001BE0112E16D0122E2AD119E0B8F5881F92
:1006C00019D006DCB8F5803F15D0B8F5801F1FD1D2
:1006D00011E0B8F5001F0ED0B8F5041F18D10AE0DC
:1006E000CB6815E0CB681B1D12E0CB6808330FE028
:1006F000CB680C330CE08B682BB1012B4FF0080357
:1007000003D0456104E0042302E0056100E000231A
:10071000FF2A01D8064601E000F104064FEA8405ED
:1007200001D9A5F12005D6F8008007FA05FC28EAD2
:100730000C0803FA05F548EA0508C6F800804D687C
:10074000ED0070D53E4DAE6946F00106AE61AD6973
:1007500024F0030605F0010500953A4D06EB050C63
:10076000DCF80850A607360F07FA06F825EA080550
:10077000DFF8D480404503D14FF0000825E052E077
:10078000DFF8C880404502D14FF001081DE0DFF8D6
:10079000C080404502D14FF0020816E0DFF8B48077
:1007A000404502D14FF003080FE0DFF8AC80404530
:1007B00002D14FF0040808E0DFF8A080404502D1E4
:1007C0004FF0050801E04FF0060808FA06F848EA7D
:1007D0000508CCF808804D68D9F80060ED024D4658
:1007E00001D5164300E096432E604D68DAF80060AC
:1007F000AD02554601D5164300E096432E604D6884
:10080000DBF80060AD035D4601D5164300E096437A
:100810002E604D68DEF80060ED03754601D5164385
:1008200000E096432E60641C0A681646E2407FF49E
:1008300029AFBDE8F88F0000080401400000111046
:10084000001002400000014000080140000C01407F
:10085000001001400014014000180140001C01403C
:100860008068084000D0012070470AB101617047DC
:100870000904FBE70148806870470000040000207D
:10088000704770472DE9F041016804464A694E6897
:1008900090F83E000025D743FA050BD4F243D20569
:1008A00008D46FF4807201254A6121680A6842F415
:1008B00000420A60B90508D4F143C90505D422688D
:1008C0006FF4007145F002055161790525D4F143BB
:1008D000C90522D4638D94F83D10226B202808D1DD
:1008E0003BB9212910D029290ED0282901D1212A4C
:1008F0000AD022686FF48061516145F00405102828
:1009000006D0402804D008E0204601F065FE04E04F
:100910002068016841F400710160380508D4F04393
:10092000C00505D421686FF4006045F008054861F2
:10093000002D07D0206C284320642046BDE8F041FC
:1009400001F044BABDE8F0812DE9F04702680021CA
:100950005368C66A90F83E4090F83D50102C12D073
:10096000402C10D0046C002C7DD05469E443A607C1
:100970007AD4DE43B60577D4036C03B19169BDE840
:10098000F04701F005BE976951694FF42A0CC9433D
:100990005FEAC1784FF02A4904D066452AD04E4517
:1009A00028D010E0DE43B6050DD4C16A614501D1FF
:1009B000012103E0C16A494501D10821C162BDE8B6
:1009C000F04701F0F7BC0E0716D4DE43B60513D48A
:1009D000416CC9B21161416B09B1896A29B9816B56
:1009E000002907D0896A002904D00068416841F4D1
:1009F00000614160BDE8F0878E0706D4DE43B6058E
:100A000003D4BDE8F04701F029BCFE4352687607E5
:100A10004FEA02521DD4002AECDB0A0608D4DA435E
:100A2000520505D4490705D5BDE8F04701F0BABB2A
:100A30004907DFD4D9438905DCD4212D05D0402CCA
:100A4000D8D1BDE8F04701F0FBBCBDE8F04701F0AC
:100A500067BB002ACEDB4A060BD4DA43520508D422
:100A6000490708D501E00DE00EE0BDE8F04701F0D0
:100A7000DDBA4907BED4D9438905BBD4BDE8F047E8
:100A800001F067BA916970E7E10606D4D943890598
:100A900003D4BDE8F04701F0E7BD2821212D27D080
:100AA000292D25D0650655D4DD436D0552D4640744
:100AB00052D590F83D30448D002C9BD01269446A89
:100AC0002270426A521C4262428D521E4285428D01
:100AD000002A8FD12A2B8DD10268536823F48063BA
:100AE00053602222026380F83D1000F0CBFA81E7C8
:100AF000250623D4DD436D0520D4640720D590F866
:100B00003D30448D002CF2D0446A24781461426A4E
:100B1000521C4262428D521E4285428D002AE6D10D
:100B2000292BE4D10268536823F4806353602122A7
:100B3000026380F83D1000F0A6FA5BE76107D6D4A7
:100B4000D9438905D3D4418D0029D0D0416A097891
:100B500011610AE06107CAD4D9438905C7D4418D20
:100B60000029C4D01169426A1170416A491C41626E
:100B7000418D491E41853DE77047000070B5040076
:100B800025D094F83D00002520B984F83C5020463B
:100B900000F01EFA242084F83D002068016821F04E
:100BA000010101602068016841F400410160206892
:100BB000016821F40041016000F094FB4D4A616836
:100BC000914201D84C4900E04C49884201D20120B1
:100BD00070BD4B492368B0FBF1F15E6826F03F061B
:100BE0000E435E606368934206D94FF4967359438F
:100BF0004FF47A73B1FBF3F12368491C1E6A26F0A7
:100C00003F06314319626168914210D84900401E85
:100C1000B0FBF1F2521CC2F30B02042A01D20420F1
:100C200022E0B0FBF1F0401CC0F30B001CE0A26816
:100C3000F2B301EBC10303EB0116431EB3FBF6F362
:100C40005B1C43F480431B0549D092B301EBC10206
:100C500002EB0111401EB0FBF1F0401CC0F30B0091
:100C600040F4804040F400402168CA694CF6FF73AC
:100C70009A431043C861D4E9071001432068026811
:100C800022F0C00211430160D4E90301014320684E
:100C9000826848F2FF339A4311438160D4E9050129
:100CA00008432168CA6822F0FF021043C86001E0CF
:100CB0000EE016E02068016841F001010160256442
:100CC000202084F83D00256384F83E50002070BD4C
:100CD00001EB4106431EB3FBF6F35B1CB3E70120B7
:100CE000C2E701EB4101401EB0FBF1F0401CC0F334
:100CF0000B00B7E7A086010080841E0000093D00BC
:100D000040420F00704770477047704770470000BF
:100D10002DE9FF4F83B09A46DDE9119793460446CB
:100D2000DDF84080FFF7A6FD054694F83D00202839
:100D30007FD11923012240492046009501F06EFD24
:100D4000002876D194F83C00012872D0012084F864
:100D50003C0020680168C90703D1016841F0010126
:100D600001602068016821F400610160212084F89D
:100D70003D00402084F83E0000262664C4F824800C
:100D8000A4F82A90608D20852C48E062CDE900759A
:100D900053465A462046049901F0A6FB70B930E04C
:100DA0002A463946204601F0DFFD58B1206C042860
:100DB00004D12068016841F400710160012007B08E
:100DC000BDE8F08F606A216800780861606A401CA5
:100DD0006062218D491E89B22185628D521E628515
:100DE00022685369DB435B070BD469B1007810615B
:100DF000606A401C6062208D401E2085608D401E10
:100E00006085208D0028CBD12A463946204601F046
:100E1000D9FC0028CAD154F83D0B016841F4007197
:100E20000160202004F81E09E67766770020C6E7F7
:100E3000FFE70220C3E70000020010000000FFFFF0
:100E40002DE9FC5F0025984691468A460446DDF868
:100E500030B00095FFF70EFD074694F83D002028BE
:100E600028D1574846F2A81120260068B0FBF1F0BF
:100E700000EBC00101EB001000900098401E0090B4
:100E800010D020688069C0438007F6D594F83C00F4
:100E900001280FD0012084F83C0020680168C907B0
:100EA0000BD00EE044F8305F6673A573206940F004
:100EB000200020610220BDE8FC9F016841F0010193
:100EC00001602068016821F400610160212084F83C
:100ED0003D00402084F83E002564C4F824B00D98FD
:100EE0006085608D20853748E062C4F844A0C4F86E
:100EF0004890C4F84C802565208DE8B3606BF0B154
:100F000031498162616B31480863606BC562606B17
:100F100045632268238D1032616A606BFFF76CFBBA
:100F2000B0B184F83D6084F83E5054F8400F40F072
:100F3000100000BF44F8040925700120BBE784F8C5
:100F40003D6084F83E5054F8400F40F08000F1E7D7
:100F50002320CDE9000743464A465146204601F08A
:100F6000C3FA98B1606BFFF749F9606B856220683E
:100F7000016821F4806100E019E001602585658544
:100F80002068016821F001010160D6E7206841690D
:100F90008169009184F83C50416841F4807141605E
:100FA0002068416841F400614160002083E784F8D3
:100FB0003D6084F83E5054F8400F40F04000B9E7DF
:100FC000100000200000FFFFAB1C0008751C00088B
:100FD00070B586B0002506460095019502950395EB
:100FE00000682349884240D1224CA06940F00800A3
:100FF000A061A069694600F0080004904FF44060C9
:10100000009012200190032003901B48FFF72CFB57
:10101000E06940F48000E061E069194C00F4800070
:101020000490164820601020C4E901058020C4E91E
:10103000030580016561C4E906502046FFF79EFA6A
:1010400008B1FFF7D9F874630022114621206662C7
:1010500000F080F8212000F06FF8002211462220D5
:1010600000F078F8222000F067F806B070BD0000AC
:101070000058004000100240000C014044000240B3
:10108000A800002070477047024881680278114428
:101090008160704704000020074810B5016841F0E6
:1010A00010010160032000F075F80F2000F006F831
:1010B00000F024F8002010BD0020024070B50D4D56
:1010C00004464FF47A712878B1FBF0F00A490968B8
:1010D000B1FBF0F000F0DCFA48B9102C07D2002286
:1010E0002146501E00F036F800206C6070BD0120D3
:1010F00070BD000004000020100000200C4808B55E
:10110000816941F001018161816901F00101009172
:10111000C16941F08051C161C06900F08050009008
:101120000448416821F0E06141F00071416008BD70
:101130000010024000000140002809DB00F01F02FF
:10114000012191404009800000F1E020C0F8001129
:1011500070470000F0B40E4B1B680C46C3F302232B
:10116000C3F10705042D00D90425191D072901D253
:10117000002300E0DB1E012606FA05F1491E21408E
:1011800099409E40761E16403143F0BC02F027B8CD
:101190000CED00E0064900F0070208684FF6FF0377
:1011A000184040EA0220034A1043086070470000DC
:1011B0000CED00E00000FA052DE9F0470F460500B0
:1011C00061D0434E306800F00700B84209D2306861
:1011D00020F0070038433060306800F00700B84264
:1011E00051D128683B4C810712D5400703D5606870
:1011F00040F4E06060602878000703D5606840F440
:10120000605060606068A96820F0F000084360608A
:101210002878C00728D06868012810D021680228E3
:1012200010D0890700292EDA616821F003010143FB
:101230006160FFF71FFB804641F288390DE02168AD
:101240008903EFE78901EDE7FFF714FBA0EB080145
:10125000494502D90320BDE8F0876068696800F05D
:101260000C00B0EB810FEFD1306800F00700B842FE
:101270000BD9306820F0070038433060306800F048
:101280000700B84201D00120E5E72878400705D5DE
:101290006068E96820F4E06008436060287800072F
:1012A00006D56068296920F4605040EAC10060609A
:1012B00000F038F86168084AC1F30311515CC84076
:1012C0000649086006480068FFF7F8FE0020C2E7FC
:1012D0000020024000100240C2330008100000202D
:1012E000080000200448054900684968044AC1F321
:1012F0000221515CC84070471000002000100240DD
:10130000D23300080448054900684968044AC1F31B
:10131000C221515CC84070471000002000100240FC
:10132000D23300080E4A51680E4801F00C03042B1A
:1013300011D0082B0FD10C48C1F38343C903C05C03
:101340000AD55168084AC1F34041921E515C054AD2
:101350005043B0FBF1F07047044948437047000028
:101360000010024000127A00B233000800093D006C
:101370002DE9F84F040070D02078C04DC00749D047
:101380006868C0F38100012807D06868C0F3810055
:10139000022809D16868C00306D52868800339D5BA
:1013A00060680028E7D035E06068B0F5803F0BD07A
:1013B00010B1B0F5A02F11D0286820F4803028603B
:1013C000286820F4802002E0286840F480302860FB
:1013D000606890B1FFF74EFA06460AE0286840F4CC
:1013E00080202860F0E700BFFFF744FA801B6428E4
:1013F00073D828688003F7D50CE0FFF73BFA064660
:1014000005E000BFFFF736FA801B6428F0D8286893
:101410008003F7D420789A4E80074FF001094FF0EF
:10142000000839D5686810F00C0F07D06868C0F361
:101430008100022809D16868C00306D428688007A3
:1014400014D52069012808D110E02069B0B1C6F890
:101450000090FFF70FFA074605E00AE1FFF70AFAE6
:10146000C01B0228C4D828688007F7D5286861699E
:1014700020F0F80040EAC10028600DE0C6F80080C6
:10148000FFF7F8F9074604E0FFF7F4F9C01B02285C
:1014900023D828688007F7D4207800072CD579480E
:1014A000A169D9B1C0F80090FFF7E4F9074604E05C
:1014B000FFF7E0F9C01B02280FD8686A8007F7D54C
:1014C00071484FF4FA510068B0FBF1F0009000BF92
:1014D0000098411E0091FAD20EE080E0C0F8008032
:1014E000FFF7C8F9074604E0FFF7C4F9C01B02285C
:1014F00075D8686A8007F7D42078400760D5E86916
:101500000027C00008D4E86940F08050E861E8692D
:10151000012700F0805000905C480168C90513D491
:101520000168834641F480710160FFF7A3F98246A8
:1015300006E000BFFFF79EF9A0EB0A0064284ED832
:10154000DBF80000C005F5D5E06801280AD008B135
:10155000052813D0286A20F001002862286A20F0AC
:10156000040002E0286A40F001002862E06841F2CD
:10157000883B98B1FFF77EF982460BE0286A40F07D
:1015800004002862EEE700BFFFF774F9A0EB0A0140
:1015900059455AD8286A8007F6D50CE0FFF76AF952
:1015A000824605E0FFF766F9A0EB0A0159454CD8E1
:1015B000286A8007F6D41FB1E86920F08050E861FE
:1015C000E06988B36968C1F38101022944D0022827
:1015D000C6F8608004D0FFF74DF9044638E034E0E7
:1015E000FFF748F9074604E0FFF744F9C01B02285B
:1015F0002BD828688001F7D4206AB0F5803F05D148
:101600006868A16820F4003008436860D4E90801E4
:101610000843696821F4741108436860C6F8609053
:10162000FFF728F9044606E025E000BFFFF722F99E
:10163000001B022809D828688001F7D51BE000BFED
:10164000FFF718F9001B022802D90320BDE8F88F24
:1016500028688001F4D40EE00128F7D06868226A77
:1016600000F48031914204D1616A00F47010884224
:1016700001D00120EAE70020E8E700000010024066
:1016800000004242800442421000002000700040EE
:1016900010B5401EB0F1807F01D3012010BD4FF086
:1016A000E02460610F21601701F099FD0020A06126
:1016B00007202061002010BD7047704770B590F87A
:1016C0003C20012A2CD0012480F83C40022280F8E2
:1016D0003D2003685A689D6822F070060A6832430C
:1016E0005A60104B02689A420ED00F4B9A420BD0B0
:1016F000B2F1804F08D00D4B9A4205D00C4B9A4264
:1017000002D00C4B9A4204D1496825F0800319435A
:10171000916080F83D40002180F83C10084670BD83
:10172000022070BD002C0140003401400004004044
:1017300000080040000C004010B5040003D094F8ED
:101740003D0010B107E0012010BD002084F83C00EE
:10175000204600F01FF8022084F83D00211D20687B
:1017600001F068FB012084F8460084F83E0084F80C
:101770003F0084F8400084F8410084F8420084F877
:10178000430084F8440084F8450084F83D000020BC
:1017900010BD000008B50068B0F1804F12D10A48B2
:1017A000C16941F00101C161C069002200F001007E
:1017B000009011461C20FFF7CDFCBDE808401C201E
:1017C000FFF7BABC08BD00000010024090F83D10C1
:1017D000012901D001207047022180F83D100168E5
:1017E000CA6842F00102CA6000680E4988420ED001
:1017F0000D4988420BD0B0F1804F08D00B49884288
:1018000005D00B49884202D00A49884204D1816838
:1018100001F00701062903D0016841F001010160D0
:1018200000207047002C01400034014000040040BB
:1018300000080040000C004070B5044690F83C00E1
:101840000025012817D0012684F83C60022084F886
:101850003D002068826822F0770222F47F42826095
:101860000868502838D00DDC20284FD005DC90B314
:10187000102811D14AE0022070BD302846D04028FF
:101880000AD13BE060282FD070280DD0B0F5805FE2
:1018900003D0B0F5005F12D0012584F83D60002030
:1018A00084F83C00284670BDCB68D1E9012120684E
:1018B00001F00EFB2068816841F0770109E0CB68F8
:1018C000D1E90121206801F003FB2068816841F41F
:1018D00080418160E1E719E0CA684968206801F049
:1018E00009FB5021206806E0CA684968206801F0B9
:1018F00012FB6021206801F0F5FACEE7CA6849685A
:10190000206801F0F7FA40212068F4E722680146D8
:101910001046F0E770472DE9F04104460068C668BC
:1019200005694FF00007A90713D5B10711D5F91EB6
:10193000016101202077206880698007204602D05D
:10194000FFF7E8FF04E000F07EF8204600F07CF8A6
:101950002777680716D5700714D521686FF0040043
:101960000861022020772068806910F4407F2046BB
:1019700002D0FFF7CFFF04E000F065F8204600F04A
:1019800063F82777280715D5300713D521686FF03E
:1019900008000861042020772068C069800720467D
:1019A00002D0FFF7B7FF04E000F04DF8204600F04A
:1019B0004BF82777E80616D5F00614D521686FF0A6
:1019C00010000861082020772068C06910F4407F6B
:1019D000204602D0FFF79EFF04E000F034F82046D6
:1019E00000F032F82777E80708D0F00706D0216822
:1019F0006FF001000861204600F028F8280608D59D
:101A0000300606D521686FF0800008612046FFF798
:101A100053FE680608D5700606D521686FF04000B1
:101A20000861204600F022F8A8060AD5B00608D5BD
:101A300021686FF0200008612046BDE8F041FFF703
:101A40003CBEBDE8F08170477047000010B50068EB
:101A5000B0F1804F07D10448006801F0FFFBBDE8FA
:101A6000104000F0ADBF10BD00000020704770476F
:101A7000704770B5040004D094F84100002510B1FF
:101A800006E0012070BD84F84050204600F024F8A4
:101A9000242084F841002068C16821F40051C1600D
:101AA000204601F0F7FA2068016921F490410161B4
:101AB0002068416921F02A0141612068C16841F430
:101AC0000051C1606564202084F8410084F8420020
:101AD0006563002070BD000070B586B00025064625
:101AE000009501950295039500681F49884238D1F9
:101AF0001E49886940F480408861886900F480400C
:101B00000490886940F0040088618869184C00F0EE
:101B100004000490481500900220019003200390D7
:101B200069462046FEF7A0FD2015CDE9000569466F
:101B300020460295FEF798FD0F4C0E48C4E90005BB
:101B40008020C4E9025020202561C4E90550C0016D
:101B5000E0612046FEF712FD08B1FEF74DFBF4638D
:101B6000666206B070BD00000038014000100240FF
:101B700000080140580002407C01002090F84230EB
:101B8000202B01D00220704721B11AB1002303633A
:101B900001F0DCBA0120704770477047FEE7000093
:101BA0000148FEF76FBE0000540000200148FEF718
:101BB000CBBE00005400002038B5406A002190F8E8
:101BC0003D202B4B46F2A8141B68B3FBF4F3C3EB88
:101BD000C30303EB830300933BB15B1E00930368D5
:101BE0001B689B0505D5009BF6E7036C43F02003BB
:101BF0000364436B03B19962836B03B19962036819
:101C00001C6824F480641C604185436B03B15963F4
:101C1000836B03B1596303681C6824F001041C60E2
:101C200090F83D402023602C0BD0282434EA020297
:101C30000FD080F83D3080F83E1000BFFEF79CFFCB
:101C400038BD80F83D3080F83E100164FEF718FE84
:101C500038BD0268136843F001031360026813681B
:101C600043F480631360016380F83D40E6E70000C1
:101C70001000002010B5406A0021426B02B1916251
:101C8000826B02B191620268136823F4806313606F
:101C90004185202280F83D2080F83E10016C41F003
:101CA00010010164FEF768FF10BD2DE9F041446AA0
:101CB00094F83D2094F83E50E16A2068436823F48C
:101CC00040734360636B002003B19862A36B03B160
:101CD0009862212333EA02074FF022060CD036EA3D
:101CE000020701D1202D07D094F83E20002A21D0F0
:101CF000628D012A20D024E021684D6825F400651A
:101D00004D6060852820292A02D02A2A07D00CE0BD
:101D1000236384F83D002046FFF7B5F905E026630C
:101D200084F83D002046FFF7ADF92068416841F492
:101D300040714160BDE8F0812268136823F480633C
:101D400013602268536823F44073536011F5803F99
:101D500006D0082904D0B1F12A4F01D0202904D19E
:101D60002268136843F4007313602268536823F4F5
:101D7000805353602268536823F400635360608586
:101D8000226C1AB12046FEF7F7FED3E7202284F832
:101D90003D2094F83E2084F83E00402A09D00829CE
:101DA00002D0202900D0122020632046FEF7ABFF8E
:101DB000C0E720632046FEF7A8FFBBE70068416943
:101DC000C943090601D400210161704770B504467A
:101DD00090F83D0094F83E10102901D0402906D11A
:101DE000222804D121680A6822F400620A602821AE
:101DF00031EA00024FF000054FF0200626D021689E
:101E00004968090505D4602803D084F83D6084F84A
:101E10003E50256320684168090537D5416821F4A3
:101E200000614160606B90F821203C49012A11D08B
:101E30004163606BFEF7E2F938B32068016821F076
:101E40000101016084F83D60606B1CE0256384F84B
:101E50003D10DFE7A06B4163A06BFEF7CFF9A0B1A7
:101E600020684169C943490605D40069616A087060
:101E7000606A401C60622068016821F00101016015
:101E800084F83D60A06B416B884710E094F83D10EA
:101E9000602910D04169C943490605D40069616AC7
:101EA0000870606A401C60622046FEF765FE206C88
:101EB000C1071CD115E084F83D6025644169C94320
:101EC000490605D40069616A0870606A401C606256
:101ED0002068016821F0010101602046FEF7D0FC76
:101EE000E5E7810703D4410701D4000704D5206842
:101EF000416821F4E061416094F83D00216C49079C
:101F00000BD5282809D10648E062256384F83D6096
:101F100084F83E502046FEF7F5FE70BDB91B000860
:101F20000000FFFF01684A69D24352050FD46FF4E5
:101F300080624A61002140F8301F20224273817381
:101F4000026942F00402026101730120704700201F
:101F5000704710B5C26A438D0168042B06D0438DCB
:101F6000032B08D0438D022B1DD012E04A6822F4C7
:101F700080624A600CE04B6823F480634B60042A63
:101F800006D0022A04D001680A6822F480620A603E
:101F900001680969426A1170416A491C4162418DB8
:101FA000491E418510BD012A34D0102A32D0042A9E
:101FB00034D0022A32D00B6843F400730B600168FE
:101FC0000969436A1970416A491C4162438D5B1E6D
:101FD000438503681B690B70416A491C4162418D4E
:101FE000491E418501684B6823F440734B602021F2
:101FF00080F83D1090F83E300021402B80F83E10D4
:1020000010D0082A02D0202A00D012210163FEF746
:102010007AFE10BD0B6823F48063CFE70B6843F4AE
:102020008063CBE70163FEF770FE10BD38B590F812
:102030003D10222910D1C36A418D03290DD90168B1
:102040000969426A1170416A491C4162418D491E09
:102050004185418D032906D038BDC26A022A02D0CB
:10206000012906D029B10068416821F480614160EE
:1020700038BD2A4A46F2A81400211268B2FBF4F2D5
:1020800002EB8202009202682024009D6D1E0095E2
:1020900026D01568AD05F8D4156825F4806515605F
:1020A0000268556825F4E065556002681269456A62
:1020B0002A70426A521C4262428D521E428580F84A
:1020C0003D4090F83E2080F83E10402A21D0082B59
:1020D00002D0202B00D012210163FEF714FE38BD80
:1020E000036C43F020030364536823F4E0635360FC
:1020F00002681269436A1A70426A521C4262428D37
:10210000521E428580F83D4080F83E10FEF734FDB7
:1021100038BD0163FEF7F9FD38BD00001000002056
:1021200010B5C26A90F83D1021290BD1418D51B1F3
:10213000416A026809781161416A491C4162418D16
:10214000491E418510BD20230021082A13D0202AD2
:1021500011D012F5803F0ED00268546824F4E06478
:1021600054601122026380F83E1080F83D3000BFB9
:10217000FEF7CAFD10BD0268546824F4E0645460A0
:102180000268146844F400741460016380F83D3000
:1021900090F83E2080F83E10402AE9D1FEF7B6FDC7
:1021A00010BD000010B590F83D1090F83E30C26AA6
:1021B000048DB4B1212903D0402B11D122290FD194
:1021C000418DE1B390F83E10402942D0416A026847
:1021D00009781161416A491C4162418D491E41855E
:1021E00010BD2129E8D120230021082A13D0202A5C
:1021F00011D012F5803F0ED00268546824F4E064D8
:1022000054601122026380F83E1080F83D3000BF18
:10221000FEF77AFD10BD0268546824F4E06454604F
:102220000268146844F400741460016380F83D305F
:1022300090F83E2080F83E10402AE9D100E002E00C
:10224000FEF764FD10BD0068416821F480614160C3
:1022500010BDBDE8104000F0F3B8000078B590F86C
:102260003E50C26A046B90F83D6000230168222E44
:1022700073D1066D0EB9402D6FD0056D1DB905697E
:10228000B5F5404F1BD0458D95B3468D484D012E79
:1022900020D0448D022C4DD00C6844F480640C6036
:1022A00001684C68240579D5AA4273D0012A71D0FF
:1022B000082A6FD0102A6DD0202A6BD06EE04A69B0
:1022C0008A6900920A6842F480720A60016D491CB2
:1022D000016578BDAA4214D10A6822F480620A60BE
:1022E00001684A68120504D50A6822F4806217E082
:1022F000FFE74A698A6900920A6842F400720A603C
:1023000050E0082A10D0202A0ED0122C0AD0042A1D
:1023100003D0022A01D0102AE6D10A6842F4806272
:102320000A603BE0012ADFD00A6822F480620A607A
:102330000168DEE7042A11D0022A0FD0102A0DD03E
:102340000C6844F400640C6001684C698C6900946A
:102350000C6824F480640C6008E025E00C6844F408
:1023600080640C6001684C698969009101684C685F
:10237000240517D5AA4207D0012A05D0082A03D080
:10238000102A01D0202A0DD14A6842F480524A60B6
:1023900008E0FFE74A6842F480524A6001684A69EF
:1023A00089690091036578BD48698869009078BDA6
:1023B0000000FFFF90F83E10402910D00169B1F5F0
:1023C000804F19D0016DA9B3016D012910D1416C65
:1023D0005FF0F10201F4407142EAD11106E0016DB3
:1023E0000029416C05D0C9B241F0010100680161CA
:1023F000704701F0FE01F9E790F83D102129416C8A
:1024000009D0C9B241F0010102681161416B29B1E3
:10241000896A49B902E001F0FE01F5E7816B002904
:10242000E6D0896A0029E3D00068416841F4006180
:1024300041607047FFE7416CF02201F44071CBE747
:1024400010B590F83D10026D4AB1026D012A14D00A
:10245000026D022A16D0BDE81040FFF7AFBCC16C78
:102460000129816C02D0C1F3072108E00268C9B2DA
:102470001161016D891C016510BD816CC9B20268D2
:10248000116123E022291CD0428D0AB1212920D0DC
:10249000428D002AF0D12129EED101684A6822F448
:1024A000E0624A6001680A6842F400720A60002132
:1024B0000163202280F83D2080F83E10FEF726FCC4
:1024C00010BD01680A6842F480720A60016D491CFF
:1024D000D1E7416A026809781161416A491C416289
:1024E000418D491E418510BD2DE9F8430446006821
:1024F0000D46DDE9089701689846164641F480715B
:1025000001604B4600224FF001112046009700F079
:1025100085F948B120680068C00502D54FF4007005
:1025200020640320BDE8F883216805F0FE000861FF
:102530003B464A461549204600F0B8F988B920685C
:102540004169806900903A464946204600F00CFAFD
:1025500048B1206C042804D12068016841F400715E
:1025600001600120DEE7F5B2B8F1010F09D0216862
:10257000300A08613A464946204600F0F5F900283D
:10258000E7D1206805610020CCE7000002000100CF
:1025900038B50C4690F83D20002128259543026867
:1025A0000B4605D051699169009180F83C3038BDE7
:1025B000556825F480655560E243540700D5012134
:1025C000120601D5828900E0028B80F83C3092B27D
:1025D000FEF757F938BD00002DE9F04190F83D3085
:1025E0000446C26A002120261E4F00686FF48065F1
:1025F000082A01D0202A01D1282B04D0212B17D062
:102600004561BDE8F081E762426822F4E062426021
:10261000206845612068026822F4806202602163BC
:1026200084F83D6084F83E102046FEF76BFBE8E737
:10263000E7622122226384F83D6084F83E104168FD
:1026400021F4E0614160206845612068016821F45F
:10265000806101602046FFF7B1FB2046FEF713FDC5
:10266000CFE700000000FFFFF8B590F83D6004469A
:102670000068416821F4E0614160206800254169FB
:102680000091016841F0010101602068016821F4B6
:102690008061016020684168090520D5474F222EDE
:1026A00048D02A2E46D0616B096849686185618DE2
:1026B00019B1216C41F004012164416821F40061E9
:1026C0004160606BFDF732FE012808D0606B476304
:1026D000606BFDF793FD10B1606B416B8847608DB7
:1026E00008B320684169C943490708D40069616A91
:1026F0000870606A401C6062608D401E60852068C2
:102700004169C943490608D40069616A0870606A72
:10271000401C6062608D401E6085608D18B1206C29
:1027200040F004002064206C00B32046BDE8F8406F
:10273000FFF74CBBA16B096849686185618D19B1D0
:10274000216C41F004012164416821F40061416081
:10275000A06BFDF7EBFD0128C1D0A06B4763A06B18
:10276000FDF74CFD0028BAD0A06BB6E72A2E06D1A3
:102770002563282084F83D002046FEF783FC94F86A
:102780003D10202028290DD0216B222901D0222E96
:1027900007D1256384F83D0084F83E502046FEF7BB
:1027A00071FCF8BD0649E162256384F83D0084F8B8
:1027B0003E502046FEF7A6FAF8BD0000B91B0008FF
:1027C0000000FFFF70B516460D4604461EE0204689
:1027D000FFF7A8FB08B1012070BD681C16D0FEF7FA
:1027E00049F8801BA84200D885B920684069C043D9
:1027F00040070BD5002044F8300F20216173A073EF
:10280000216941F0200121612073E4E720684069DB
:10281000C0434007DBD4002070BD00002DE9F04725
:10282000984617460D460446C1F30746DDF820904A
:102830002AE000BFB8F1FF3F26D0FEF71BF8A0EB5F
:102840000901414502D8B8F1000F1DD12068012EC1
:1028500016D0806925EA00000004000C12D0002088
:10286000B84211D1002044F8300F20216173A073C9
:10287000216941F02001216120730120BDE8F0872A
:102880004069E7E70120EBE72068012E0AD0806964
:1028900025EA00000004000C06D00020B842C9D090
:1028A0000020EBE74069F3E70120F7E72DE9F04767
:1028B000984616460D4604464FF000094FF0200A90
:1028C000C1F3074723E020684069C043400515D4A1
:1028D0002068016841F40071016021686FF4806034
:1028E0004861C4F8309084F83DA084F83E90216C93
:1028F00041F00401216484F83C9021E0701C06D072
:10290000FDF7B8FFA0EB0800B04203D816B1012FC5
:102910001FD021E02068012F15D0806925EA000032
:102920000004000C18D000BF44F8309F84F80DA0BC
:1029300084F80E90216941F02001216184F80C9007
:102940000120BDE8F087406925EA00000004000C82
:10295000EAD12068406901E02068806925EA00002A
:102960000004000CAFD1ECE770B516460D460446E6
:102970001EE02046FFF7D6FA08B1012070BD681CA2
:1029800016D0FDF777FF801BA84200D885B92068D4
:102990004069C04300060BD5002044F8300F2021C9
:1029A0006173A073216941F0200121612073E4E784
:1029B00020684069C0430006DBD4002070BD0000E1
:1029C0002DE9F05F574C04F10E052078401CC2B28F
:1029D000227000236370607835F8101011B1491E21
:1029E00025F81010401CC0B260700328F3D3142ADD
:1029F00073D94C4F23707F1DFE1E9A461846637094
:102A000006F1090806F106094FF0320B10F0FF003D
:102A1000315C395404D0012805D0022816D008E0D2
:102A20004FF4005101E04FF480413F48FDF718FF9B
:102A300078B1002160784246315418F8003051B125
:102A400043F0010313543B5C53B114E04FF40041D5
:102A5000EBE70121EEE723F00103135421B10AE073
:102A6000135C43F0020305E03B5C012B03D1135CD4
:102A700043F00403135419F8003043B1012B0DD077
:102A8000022B1FD0032B33D0042B33D042E019B3D9
:102A90004FF47A7125F8101001211BE019B135F8B7
:102AA000101029B136E0C82125F81010022111E0DC
:102AB00018F8003043F0200308F8003025F810B073
:102AC000042107E051B118F8003043F0100308F872
:102AD0000030032109F800101CE021E035F8101047
:102AE000C1B918F8003043F0080308F8003006E0D8
:102AF00029B10FE019B135F8101019B10AE009F841
:102B000000A007E025F810B018F8002042F04002BD
:102B100008F80020401CC0B260700328FFF476AFB4
:102B2000BDE8F09F34000020001801400D4808B5B2
:102B3000416941F0010141614069002200F001005A
:102B4000009011460E20FEF705FB0E20FEF7F4FA6A
:102B5000002211460F20FEF7FDFABDE808400F20C5
:102B6000FEF7EABA00100240F0B585B00024204814
:102B70000094019402940394816941F010018161F1
:102B8000816901F010010491816941F04001816186
:102B9000816901F040010491816941F0080181617E
:102BA000816901F008010491816941F004018161AA
:102BB0008069104F00F004004FF4E076049000228A
:102BC00031463846FDF751FEF00101258DE8310010
:102BD00069460948FDF748FD0320CDE90240CDE9EB
:102BE000006569463846FDF73FFD05B0F0BD0000C1
:102BF00000100240000C0140001801400D4810B5C3
:102C00000B4901600C49416000214FF48042816012
:102C1000C0E9031241618161C1610162FDF7AEFF4C
:102C2000002803D0BDE81040FDF7E6BA10BD000053
:102C30000058004054000020801A060010B586B0ED
:102C400000241648009401940294039404944FF0D5
:102C50008041059401604721C0E9011440F2E73149
:102C6000C0E903148461FEF767FD08B1FDF7C4FAFB
:102C70004FF48050009069460848FEF7DDFD08B12A
:102C8000FDF7BAFA049404A904480594FEF716FD6A
:102C9000002801D0FDF7B0FA06B010BDEC0000200E
:102CA0000C4810B50A4901600B4941600021816060
:102CB0000C22C160C0E904128161C161FEF7D9FE36
:102CC000002803D0BDE81040FDF796BA10BD000003
:102CD000003801403401002000910500FEE7FEE7C6
:102CE00010B50021074C0A46002004EBC1131A540A
:102CF000401CC0B28028FAD3491CC9B20829F3D3BA
:102D000010BD0000C001002010B51F21044800F0D4
:102D100031F8FFF7E5FFBDE8104000F017B80000FC
:102D20001400002008B540F0B0008DF8000010201D
:102D300040EA11108DF8010001F00F008DF802003B
:102D40000321684600F016F808BD000070B5084D74
:102D5000002400212046FFF7E5FF05EBC410802189
:102D600000F01CF8641CE4B2082CF2D370BD000023
:102D7000C00100200EB5084A12689369DB439B0727
:102D8000FBD564228DE80700012300227821024848
:102D9000FDF7BEFF0EBD0000540000201CB5074A21
:102DA00012689369DB439B07FBD5CDE90001012342
:102DB000402278210148FEF743F81CBD5400002052
:102DC00070477047FEF760B930B58FB0282168466C
:102DD000FDF7D1F914210AA8FDF7CDF90121080466
:102DE000CDE900100024029402250491CDE907509A
:102DF0004FF4E01009906846FEF7BAFA08B172B6CF
:102E0000FEE70F20CDE90A054FF48060CDE90C40C4
:102E100002210AA80E94FEF7CFF9002801D072B65D
:102E2000FEE70FB030BD70470148FEF774BD0000EB
:102E3000EC000020F0B50268204C214D214E224FBD
:102E4000224B4FF0804CA04209D0984207D06045F9
:102E500005D0A84203D0B04201D0B84204D122F03C
:102E6000700E4A6842EA0E02A04209D0984207D08A
:102E7000604505D0A84203D0B04201D0B84203D18A
:102E800022F44075CA682A434D6922F080022A4321
:102E900002608A68C2620A688262A04201D09842D7
:102EA00001D109690163012141610169C90703D0A9
:102EB000016921F001010161F0BD0000002C014019
:102EC0000004004000080040000C004000340140B5
:102ED00010B5846842EA032224F47F440A43224363
:102EE000826010BD826822F070020A4342F007013E
:102EF0008160704710B5036A046A24F0010404621B
:102F0000846924F0F00444EA021423F00A020A431C
:102F10008461026210BD10B5036A046A24F01004D3
:102F20000462846923F0A00324F4704444EA02326A
:102F300043EA01118261016210BD70B5446A2068E4
:102F4000406994F84110C0F3C0100025212904D134
:102F500018B1E584204600F08EF82068406994F8A6
:102F60004210C0F38010222904D118B1E585204613
:102F700000F05AF8606C40F0100060642046FEF7E4
:102F800077FD70BD10B50146406A096809684FF0C9
:102F9000000289062ED4C28501680C3151E8003F39
:102FA00023F4807341E80034002CF5D1016814311A
:102FB00051E8003F23F0010341E80034002CF5D133
:102FC0000168143151E8003F23F0400341E8003428
:102FD000002CF5D1202180F84210016B012909D184
:102FE00001680C3151E8003F23F0100341E8003440
:102FF000002CF5D14263016B012902D0FEF7CCFD14
:1030000010BD818DFEF733FD10BD10B5406A012162
:103010004163016B012902D0FEF7BFFD10BD818D18
:103020004908FEF724FD10BD01680C3151E8002F5E
:1030300022F4907241E80023002BF5D1016814318D
:1030400051E8002F22F0010241E80023002BF5D1C6
:10305000016B012909D101680C3151E8002F22F0E0
:10306000100241E80023002BF5D1202180F8421006
:1030700000210163704701680C3151E8002F22F0F4
:10308000C00241E80023002BF5D1202180F8411037
:103090007047000070B5044600680169E26821F4D9
:1030A0004051114301612169A068084361690843E7
:1030B0002168CA6841F20C639A430243CA602068DF
:1030C0004169A26921F44071114341611E492068A0
:1030D000884202D1FEF716F901E0FEF703F900EB92
:1030E000C00101EB0012606864218000B2FBF0F3C4
:1030F000B3FBF1F36FF018067343B2FBF0F5B2FBCC
:10310000F0F605EB8305322303EB0515B5FBF1F56E
:10311000B6FBF1F605F0F00505EB0615B2FBF0F68F
:10312000B2FBF0F0B0FBF1F06FF01802504306EB89
:10313000800003EB0010B0FBF1F0216800F00F00FD
:103140002844886070BD00000038014038B58162B5
:1031500004468285002013466064222284F84220BF
:10316000E56B1B4AAA62E56B1A4AEA62E56B1A4AEA
:103170002A63E26B50630A462168E06B091DFDF784
:103180003BFA2068016840680090206948B12068D7
:103190000C3050E8001F41F4807140E80012002A12
:1031A000F5D12068143050E8001F41F0010140E8DB
:1031B0000012002AF5D12068143050E8001F41F0B9
:1031C000400140E80012002AF5D1002038BD00007F
:1031D000852F00080B3000083B2F0008FEE7090789
:1031E000090E002804DB00F1E02080F8001470478D
:1031F00000F00F0000F1E02080F8141D704702E09D
:1032000008C8121F08C1002AFAD170477047002071
:1032100001E001C1121F002AFBD17047F0B584887C
:103220008C4202D24FF0FF30F0BD00244FF44065D5
:103230000CE007888668F65D1F19D6550688761C4F
:10324000B6FBF5F705FB17660680641C8C42F0DBC5
:103250008288511A81800020F0BD000030B50E49EF
:103260008289096849680D4B511A89B21C881980F6
:103270000C1B22444FF4406492FBF4F504FB15222E
:10328000418892B21144B1FBF4F304FB1311418065
:1032900081881144818030BD7C01002048000020DD
:1032A00038B1002303804380838081608281184687
:1032B00070474FF0FF307047102000F043F81C4D6E
:1032C0002860FDF7E9FEFFF77FFDFFF74DFCFFF7F4
:1032D0002DFCFFF7E5FCFFF791FCFFF7AFFC15486D
:1032E000FEF774FAFFF710FDFFF7FAFCFFF72EFD6B
:1032F0004FF44064224610492868FFF7D1FF224668
:103300000D490E48FEF73AFC0D4E002406EBC412A0
:10331000002380212868FFF781FF0028F6D1072CC1
:1033200003D0641C082CF1DBEFE7FFF70FFDECE79F
:1033300000000020EC000020C00500203401002027
:10334000C0010020F0B50B30154D20F0070100241E
:10335000144A0FE003688B420BD38B4205D95E1AE7
:1033600043184768C3E9006700E04368136002C080
:1033700004E0021D10680028ECD12046002802D18C
:10338000286808B10020F0BD064A07481060074AC7
:10339000121A22F00702C0E9002401202860D7E7B2
:1033A000500000204C000020C4110020C013002059
:1033B000010202030405060708090A0B0C0D0E0F93
:1033C00010100000000000000000010203040607C6
:1033D000080900000000010203040000FC3300089B
:1033E0000000002054000000FE31000850340008A6
:1033F000540000206C1700000E320008000000008E
:1034000001000000100000000000000000127A001F
:10341000AE200021007F220007D580A83FD30040C6
:10342000A1C8DA1281CFD9F1DB30A4A68D14AF0088
:10343000000000000000000000000000000000008C
:10344000000000000000000000000000000000007C
:0400000508000131BD
:00000001FF
