:020000040800F2
:1000000078090020450100085B36000855250008E6
:1000100059360008E9060008453E000800000000C7
:10002000000000000000000000000000EF3B00089E
:100030002307000800000000D9390008F13B000840
:100040005F0100085F0100085F0100085F01000810
:100050005F0100085F0100085F0100085F01000800
:100060005F0100085F0100085F0100085F010008F0
:100070005F0100085F010008ED0600085F0100084D
:100080005F0100085F0100085F0100085F010008D0
:100090005F0100085F0100085F0100085F010008C0
:1000A0005F0100085F0100085F0100085F010008B0
:1000B000793C00085F0100085F0100085F0100084B
:1000C0005F01000865250008592500085F01000848
:1000D0005F0100085F0100085F0100085F01000880
:1000E0005F0100085F0100085F0100085F01000870
:1000F0005F0100085F0100085F0100085F01000860
:100100005F0100085F0100085F0100085F0100084F
:100110005F0100085F0100085F0100085F0100083F
:100120005F0100085F0100085F0100085F0100082F
:10013000DFF80CD000F0C6FA004800476947000815
:10014000780900200648804706480047FEE7FEE79A
:10015000FEE7FEE7FEE7FEE7FEE7FEE7FEE7FEE777
:10016000753C000831010008202A04DB203A21FAFE
:1001700002F00021704721FA02F3D040C2F12002C0
:100180009140084319467047D2B201E000F8012BB4
:10019000491EFBD270470022F6E710B513460A4607
:1001A00004461946FFF7F0FF204610BD10B50022A7
:1001B00000E0521C835C8C5CA34201D1002BF8D17F
:1001C000D8B2E1B2401A10BD2DE9FE4F804681EA57
:1001D0000300C00F0C46009021F0004123F00045C1
:1001E000B8EB0200A94105D24046214690461C4684
:1001F0000B46024623F00040104347D0270DC7F3BB
:100200000A00C3F30A510290401A019040286BDAA9
:10021000C3F3130040F4801B0098924620B10023E2
:10022000D2EB030A63EB0B0B01985946C0F1400275
:10023000504600F0B0F906460D4650465946019A20
:1002400000F0B8F910EB08006141002487EA115270
:1002500084EAE7731A4340D0009A62B3019A012AF4
:100260004FEA075215DC001B61EB02014FF0004220
:1002700002EA0752CDE90042001C41F580113246E6
:100280002B4600F0B8F903B0BDE8F08F4046214698
:10029000F9E7001B61EB0201001C41F58013001817
:1002A0005B412018A2F5001747EB030140EAD57027
:1002B000B6196D4111E06D084FEA360645EAC07582
:1002C0004FEA0752001B61EB0201001C41F580114F
:1002D00049084FEA30000019514132462B4603B01D
:1002E000BDE8F04F00F078B90098012240000023EB
:1002F000D0EB020263EBE073009821464FEAE07412
:10030000B8EB000061EB0401E9E783F000435BE731
:1003100081F0004158E72DE9FE4F81EA030404F023
:10032000004421F0004100944FF0000B23F0004303
:1003300050EA01045ED052EA03045BD0C3F30A54CE
:10034000C1F30A552C44A4F2F3340194A0FB0254E7
:10035000C1F3130141F48011C3F3130343F4801379
:1003600001FB024400FB034E840A970A44EA8154CD
:1003700047EA8357A4FB076802958D0A05FB0785AA
:100380004FEA932C04FB0C542705029D4FEA0658B4
:1003900047EA1637B5EB08056EEB070C870E920E91
:1003A00047EA811742EA8312A7FB0201B6EB0B0171
:1003B00064EB00042B0D43EA0C335E1844EB1C5035
:1003C000DA465146E7FB0201C5F313044FEA0B334B
:1003D00043EA14534FEA0432019C43EA0603A4F1B2
:1003E0000C040294009CCDE900B400F004F903B0C1
:1003F000BDE8F08F00200146F9E72DE9F04D81EAD4
:10040000030404F0004B21F0004514464FF0000AAD
:1004100023F0004150EA050220D054EA01021DD029
:10042000C5F30A570246C5F31303C1F31300C1F322
:100430000A5640F4801543F48013A7EB0608101BFE
:10044000D64608F2FD3873EB050002D308F1010827
:1004500001E092185B41B8F1000F03DA0020014679
:10046000BDE8F08D00204FF48011064684460EE072
:10047000171B73EB050705D3121B63EB050306433C
:100480004CEA010C49084FEA300092185B4150EAEF
:100490000107EDD152EA030012D082EA040083EA98
:1004A0000501084305D0101BAB4106D201220023F1
:1004B00006E000224FF0004302E06FF0010253100B
:1004C0001AEB06004CEB085110EB0A0041EB0B0154
:1004D000BDE8F04D00F080B830B5041E71F10004A5
:1004E00004DB4FF00044404264EB0101141E73F141
:1004F000000405DB1C464FF00043524263EB04034B
:10050000994208BF904230BD30B50B4601460020ED
:100510002022012409E021FA02F59D4205D303FAC5
:1005200002F5491B04FA02F52844151EA2F1010246
:10053000F1DC30BD2DE9F05F0546002092469B4678
:1005400088460646814640241BE0284641464746E9
:100550002246FFF709FE53465A46C01A914110D36E
:1005600011461846224600F016F82D1A67EB0108CE
:100570004F4622460120002100F00DF817EB00093C
:100580004E41201EA4F10104DFDC484631462A46D4
:100590004346BDE8F09F202A04DB203A00FA02F12E
:1005A000002070479140C2F1200320FA03F3194361
:1005B00090407047202A06DBCB17203A41FA02F020
:1005C00043EAE07306E041FA02F3D040C2F12002B0
:1005D000914008431946704710B5141E73F100048A
:1005E00008DA401C41F1000192185B411A4301D125
:1005F00020F0010010BD2DE9F04D92469B4611B14F
:10060000B1FA81F202E0B0FA80F220329046FFF7B0
:10061000C2FF04460F4640EA0A0041EA0B01534676
:100620005A46084313D0114653EA010019D0C8F1C5
:1006300040025046FFF798FD05460E465046594683
:100640004246FFF7A8FF084305D0012004E02046FA
:100650003946BDE8F08D0020054346EAE0762C439C
:1006600037430A986305E40AA0EB08000022FD0A5C
:1006700044EA47540A3002D500200146E9E7010563
:1006800010196941DDE9084500196941BDE8F04DDF
:10069000A2E7C1F30A52C1F3130140F2FF3341F460
:1006A00080119A4202DA00200146704740F233433B
:1006B0009A42A2F2334202DC5242FFF755BDFFF7E5
:1006C0006ABF0000064C074D06E0E06840F00103F9
:1006D00094E8070098471034AC42F6D3FFF72CFD9E
:1006E0004862000868620008FEE70000014800F068
:1006F000B7B800008C00002030B590F840500124BD
:10070000AC40C56B6C60046863604368102B036881
:1007100003D099600068C26030BD9A600068C16013
:1007200030BD704772B6FEE72DE9F05F90F82110FA
:100730000024022903D004218163012485E001689B
:100740000A6822F00E020A6001680A6822F00102BB
:100750000A603F4E3E4FB215DFF8F4C0DFF8F0906C
:10076000DFF8ECA0DFF8E8B0DFF8E4E00168783FFC
:1007700013011502ACF1640CA9F15009AAF13C0A6D
:10078000ABF1280BAEF1140E4FF48018B14227D90B
:10079000B9420ED0614512D049451DD0514518D0FF
:1007A000594518D0714501D1424615E0294EB14254
:1007B00001D1012210E0274E1436B14201D110229E
:1007C0000AE0244E2836B14206D0224A3C329142F9
:1007D00001D11A4600E02A461E49091F0A602BE093
:1007E000B94213D0614517D0494522D051451DD09B
:1007F00059451DD0714501D142461AE0B14202D19E
:100800004FF0807215E0134EB14201D1012210E089
:10081000104E1436B14201D110220AE00D4E283696
:10082000B14206D00B4A3C32914201D11A4600E057
:100830002A46074980394A60012180F821100021A9
:1008400080F82010416B01B188472046BDE8F09F39
:10085000800002400804024090F821007047000028
:100860002DE9F05FC16B0A6801680B68046C4FF0FA
:10087000040808FA04F8844D844E854FDFF814C24A
:10088000DFF81492DFF814A2DFF814B2DFF814E2F4
:1008900018EA020F65D05FEA437862D50A689206CB
:1008A00003D40A6822F004020A60DFF8F0814FF4F2
:1008B0008062016808F1140813011402414524D92B
:1008C000A9420DD0B1420FD0B9421AD0614515D01E
:1008D000494515D0514501D1120312E0594501D1C6
:1008E00004220EE0714501D140220AE06D4D14351D
:1008F000A94206D06B4A2832914201D11A4600E043
:1009000022466749091F0A6029E0A94213D0B14273
:1009100015D0B94220D061451BD049451BD0514567
:1009200002D14FF4800217E0414502D14FF08062BE
:1009300012E0594501D104220EE0714501D1402257
:100940000AE0584D1435A94206D0564A2832914241
:1009500001D11A4600E022464B4908394A60C16A73
:1009600071E04FF0020808FA04F818EA020F70D09C
:100970005FEA83786DD50A68920606D40A6822F089
:100980000A020A60012180F82110DFF810814FF47B
:100990000072016808F1140813011402414524D9BA
:1009A000A9420DD0B1420FD0B9421AD0614515D03D
:1009B000494515D0514501D1120312E0594501D1E5
:1009C00002220EE0714501D120220AE0354D143596
:1009D000A94206D0334A2832914201D11A4600E09A
:1009E00022462F49091F0A6029E0A94213D0B142CB
:1009F00015D0B94220D061451BD049451BD0514587
:100A000002D14FF4001217E0414502D14FF00072BD
:100A100012E0594501D102220EE0714501D1202298
:100A20000AE0204D1435A94206D01E4A28329142D0
:100A300001D11A4600E02246134908394A600021D4
:100A400080F82010816A00291CD0BDE8F05F0847BB
:100A5000FFE70825A540154214D01A0712D50A68E9
:100A600022F00E020A6090F84020C36B012101FAC7
:100A700002F25A60816380F82110002180F8201072
:100A8000016BE0E7BDE8F09F080002401C00024057
:100A90003000024044000240580002406C00024016
:100AA000080402401C04024030B560B11A4B0268D1
:100AB00014219A4209D2194B1344B3FBF1F1890076
:100AC000016417490AE0012030BD134B5B42134417
:100AD000B3FBF1F1890001640F490839C1630221B8
:100AE00080F82110136843F6F0718B43F0E901148C
:100AF0002143D0E902452C43214304692143446941
:100B0000214384692143194311600021416301227B
:100B100042770177084630BD08040240F8FFFDBF68
:100B20000000024070B5044690F82000002501281E
:100B30000CD0012084F8200094F821600020012EC0
:100B400006D084F820000225284670BD022070BD22
:100B5000022684F82160A0632068066826F001065A
:100B600006602046FFF7C8FDE06A0028206801689B
:100B700002D041F00E0106E021F00401016020687E
:100B8000016841F00A0101602068016841F001013B
:100B90000160D9E770B5044600F014F90546601C01
:100BA00002D004480078044400F00CF9401BA04235
:100BB000FAD370BD000000202DE9F84FDFF8C8918E
:100BC0000024A9F1040B23460F2709F1040AABF115
:100BD000040ED1E00125A54006EA0502AA4276D11D
:100BE000DFF8A8C14E68A6EB0C0866452BD00DDCDB
:100BF000032E34D005DC36B3012E19D0022E2FD1AE
:100C00001BE0112E16D0122E2AD119E0B8F5881F3C
:100C100019D006DCB8F5803F15D0B8F5801F1FD17C
:100C200011E0B8F5001F0ED0B8F5041F18D10AE086
:100C3000CB6815E0CB681B1D12E0CB6808330FE0D2
:100C4000CB680C330CE08B682BB1012B4FF0080301
:100C500003D0456104E0042302E0056100E00023C5
:100C6000FF2A01D8064601E000F104064FEA840598
:100C700001D9A5F12005D6F8008007FA05FC28EA7D
:100C80000C0803FA05F548EA0508C6F800804D6827
:100C9000ED0070D53E4DAE6946F00106AE61AD691E
:100CA00024F0030605F0010500953A4D06EB050C0E
:100CB000DCF80850A607360F07FA06F825EA0805FB
:100CC000DFF8D480404503D14FF0000825E052E022
:100CD000DFF8C880404502D14FF001081DE0DFF881
:100CE000C080404502D14FF0020816E0DFF8B48022
:100CF000404502D14FF003080FE0DFF8AC804045DB
:100D000002D14FF0040808E0DFF8A080404502D18E
:100D10004FF0050801E04FF0060808FA06F848EA27
:100D20000508CCF808804D68D9F80060ED024D4602
:100D300001D5164300E096432E604D68DAF8006056
:100D4000AD02554601D5164300E096432E604D682E
:100D5000DBF80060AD035D4601D5164300E0964325
:100D60002E604D68DEF80060ED03754601D5164330
:100D700000E096432E60641C0A681646E2407FF449
:100D800029AFBDE8F88F00000804014000001110F1
:100D9000001002400000014000080140000C01402A
:100DA000001001400014014000180140001C0140E7
:100DB0008068084000D0012070470AB10161704787
:100DC0000904FBE70148806870470000000000202C
:100DD000704770472DE9F041016804464A694E6842
:100DE00090F83E000025D743FA050BD4F243D20514
:100DF00008D46FF4807201254A6121680A6842F4C0
:100E000000420A60B90508D4F143C90505D4226837
:100E10006FF4007145F002055161790525D4F14365
:100E2000C90522D4638D94F83D10226B202808D187
:100E30003BB9212910D029290ED0282901D1212AF6
:100E40000AD022686FF48061516145F004051028D2
:100E500006D0402804D008E0204602F099F804E0CB
:100E60002068016841F400710160380508D4F0433E
:100E7000C00505D421686FF4006045F0080548619D
:100E8000002D07D0206C284320642046BDE8F041A7
:100E900001F078BCBDE8F0812DE9F047026800213F
:100EA0005368C66A90F83E4090F83D50102C12D01E
:100EB000402C10D0046C002C7DD05469E443A6076C
:100EC0007AD4DE43B60577D4036C03B19169BDE8EB
:100ED000F04702F039B8976951694FF42A0CC943B9
:100EE0005FEAC1784FF02A4904D066452AD04E45C2
:100EF00028D010E0DE43B6050DD4C16A614501D1AA
:100F0000012103E0C16A494501D10821C162BDE860
:100F1000F04701F02BBF0E0716D4DE43B60513D4FD
:100F2000416CC9B21161416B09B1896A29B9816B00
:100F3000002907D0896A002904D00068416841F47B
:100F400000614160BDE8F0878E0706D4DE43B60538
:100F500003D4BDE8F04701F05DBEFE43526876075A
:100F60004FEA02521DD4002AECDB0A0608D4DA4309
:100F7000520505D4490705D5BDE8F04701F0EEBD9F
:100F80004907DFD4D9438905DCD4212D05D0402C75
:100F9000D8D1BDE8F04701F02FBFBDE8F04701F020
:100FA0009BBD002ACEDB4A060BD4DA43520508D497
:100FB000490708D501E00DE00EE0BDE8F04701F07B
:100FC00011BD4907BED4D9438905BBD4BDE8F0475C
:100FD00001F09BBC916970E7E10606D4D94389050D
:100FE00003D4BDE8F04702F01BB82821212D27D0FB
:100FF000292D25D0650655D4DD436D0552D46407EF
:1010000052D590F83D30448D002C9BD01269446A33
:101010002270426A521C4262428D521E4285428DAB
:10102000002A8FD12A2B8DD10268536823F4806364
:1010300053602222026380F83D1000F0CBFA81E772
:10104000250623D4DD436D0520D4640720D590F810
:101050003D30448D002CF2D0446A24781461426AF9
:10106000521C4262428D521E4285428D002AE6D1B8
:10107000292BE4D10268536823F480635360212252
:10108000026380F83D1000F0A6FA5BE76107D6D452
:10109000D9438905D3D4418D0029D0D0416A09783C
:1010A00011610AE06107CAD4D9438905C7D4418DCB
:1010B0000029C4D01169426A1170416A491C416219
:1010C000418D491E41853DE77047000070B5040021
:1010D00025D094F83D00002520B984F83C502046E6
:1010E00000F01EFA242084F83D002068016821F0F9
:1010F000010101602068016841F40041016020683D
:10110000016821F40041016000F06CFC4D4A616807
:10111000914201D84C4900E04C49884201D201205B
:1011200070BD4B492368B0FBF1F15E6826F03F06C5
:101130000E435E606368934206D94FF49673594339
:101140004FF47A73B1FBF3F12368491C1E6A26F051
:101150003F06314319626168914210D84900401E30
:10116000B0FBF1F2521CC2F30B02042A01D204209C
:1011700022E0B0FBF1F0401CC0F30B001CE0A268C1
:10118000F2B301EBC10303EB0116431EB3FBF6F30D
:101190005B1C43F480431B0549D092B301EBC102B1
:1011A00002EB0111401EB0FBF1F0401CC0F30B003C
:1011B00040F4804040F400402168CA694CF6FF7357
:1011C0009A431043C861D4E90710014320680268BC
:1011D00022F0C00211430160D4E9030101432068F9
:1011E000826848F2FF339A4311438160D4E90501D4
:1011F00008432168CA6822F0FF021043C86001E07A
:101200000EE016E02068016841F0010101602564EC
:10121000202084F83D00256384F83E50002070BDF6
:1012200001EB4106431EB3FBF6F35B1CB3E7012061
:10123000C2E701EB4101401EB0FBF1F0401CC0F3DE
:101240000B00B7E7A086010080841E0000093D0066
:1012500040420F007047704770477047704700006A
:101260002DE9FF4F83B09A46DDE911979346044676
:10127000DDF84080FFF7A6FD054694F83D002028E4
:101280007FD11923012240492046009501F0A2FF99
:10129000002876D194F83C00012872D0012084F80F
:1012A0003C0020680168C90703D1016841F00101D1
:1012B00001602068016821F400610160212084F848
:1012C0003D00402084F83E0000262664C4F82480B7
:1012D000A4F82A90608D20852C48E062CDE9007545
:1012E00053465A462046049901F0DAFD70B930E0C1
:1012F0002A463946204602F013F858B1206C0428DB
:1013000004D12068016841F400710160012007B038
:10131000BDE8F08F606A216800780861606A401C4F
:101320006062218D491E89B22185628D521E6285BF
:1013300022685369DB435B070BD469B10078106105
:10134000606A401C6062208D401E2085608D401EBA
:101350006085208D0028CBD12A463946204601F0F1
:101360000DFF0028CAD154F83D0B016841F400710B
:101370000160202004F81E09E67766770020C6E7A2
:10138000FFE70220C3E70000020010000000FFFF9B
:101390002DE9FC5F0025984691468A460446DDF813
:1013A00030B00095FFF70EFD074694F83D00202869
:1013B00028D1574846F2A81120260068B0FBF1F06A
:1013C00000EBC00101EB001000900098401E00905F
:1013D00010D020688069C0438007F6D594F83C009F
:1013E00001280FD0012084F83C0020680168C9075B
:1013F0000BD00EE044F8305F6673A573206940F0AF
:10140000200020610220BDE8FC9F016841F001013D
:1014100001602068016821F400610160212084F8E6
:101420003D00402084F83E002564C4F824B00D98A7
:101430006085608D20853748E062C4F844A0C4F818
:101440004890C4F84C802565208DE8B3606BF0B1FE
:1014500031498162616B31480863606BC562606BC2
:1014600045632268238D1032616A606BFFF75AFB77
:10147000B0B184F83D6084F83E5054F8400F40F01D
:10148000100000BF44F8040925700120BBE784F870
:101490003D6084F83E5054F8400F40F08000F1E782
:1014A0002320CDE9000743464A465146204601F035
:1014B000F7FC98B1606BFFF737F9606B85622068C5
:1014C000016821F4806100E019E0016025856585EF
:1014D0002068016821F001010160D6E720684169B8
:1014E0008169009184F83C50416841F48071416009
:1014F0002068416841F400614160002083E784F87E
:101500003D6084F83E5054F8400F40F04000B9E789
:101510000C0000200000FFFF632600082D260008B5
:1015200070B586B000250646009501950295039595
:1015300000682349884240D1224CA06940F008004D
:10154000A061A069694600F0080004904FF4406073
:10155000009012200190032003901B48FFF72CFB02
:10156000E06940F48000E061E069194C00F480001B
:101570000490164820601020C4E901058020C4E9C9
:10158000030540016561C4E906502046FFF78CFA67
:1015900008B1FFF7C7F87463002211462120666284
:1015A00000F080F8212000F06FF800221146222080
:1015B00000F078F8222000F067F806B070BD000057
:1015C0000058004000100240000C0140440002405E
:1015D0008C000020704770470248816802781144EF
:1015E0008160704700000020074810B5016841F095
:1015F00010010160032000F075F80F2000F006F8DC
:1016000000F024F8002010BD0020024070B50D4D00
:1016100004464FF47A712878B1FBF0F00A49096862
:10162000B1FBF0F000F081FD48B9102C07D2002288
:101630002146501E00F036F800206C6070BD01207D
:1016400070BD0000000000200C0000200C4808B510
:10165000816941F001018161816901F0010100911D
:10166000C16941F08051C161C06900F080500090B3
:101670000448416821F0E06141F00071416008BD1B
:101680000010024000000140002809DB00F01F02AA
:10169000012191404009800000F1E020C0F80011D4
:1016A00070470000F0B40E4B1B680C46C3F30223D6
:1016B000C3F10705042D00D90425191D072901D2FE
:1016C000002300E0DB1E012606FA05F1491E214039
:1016D00099409E40761E16403143F0BC02F0C6BBD6
:1016E0000CED00E0064900F0070208684FF6FF0322
:1016F000184040EA0220034A104308607047000087
:101700000CED00E00000FA05014901200862704775
:1017100000000E4210B501460020284C04292FD0AD
:101720000BDC012930D0022929D100F06BF9616866
:10173000C1F38131491C49001FE0082920D010293C
:101740001DD161682268D20119D51D48C1F38342B9
:10175000C903805C0AD56168194AC1F34041921EF1
:10176000515C184AB2FBF1F1484301E01649484385
:101770006168490203D440000321B0FBF1F010BDC1
:10178000BDE8104000F04EB9226AC2F301210129E0
:1017900003D1920701D5C80310BD022905D1626AA1
:1017A000920702D549F6404010BD0329FCD12168BB
:1017B0008903F9D54FF2244010BD0000001002400B
:1017C0000059000800127A0000093D002DE9F84395
:1017D00005460078354CC00754D0E0690026C000AB
:1017E00008D4E06940F08050E061E069012600F033
:1017F000805000902E480168C90512D401688046C7
:1018000041F480710160FFF7DDFA074605E000BF93
:10181000FFF7D8FAC01B642823D8D8F80000C00509
:10182000F6D5206A10F4407021D0A98801F44071E7
:1018300081421CD0206A1F49012220F440700A60B6
:1018400000220A602062C00711D0FFF7BBFA0746EA
:1018500041F2883808E000BFFFF7B4FAC11B4145E8
:1018600002D90320BDE8F883206A8007F4D5206AF6
:10187000696820F44070084320621EB1E06920F0DE
:101880008050E0612878800705D56068A96820F459
:101890004040084360602878C00605D560686969E3
:1018A00020F48000084360600020DBE70010024065
:1018B00000700040400442422DE9F0470F46050009
:1018C00061D0434E306800F00700B84209D230685A
:1018D00020F0070038433060306800F00700B8425D
:1018E00051D128683B4C810712D5400703D5606869
:1018F00040F4E06060602878000703D5606840F439
:10190000605060606068A96820F0F0000843606083
:101910002878C00728D06868012810D021680228DC
:1019200010D0890700292EDA616821F003010143F4
:101930006160FFF747FA804641F288390DE021687F
:101940008903EFE78901EDE7FFF73CFAA0EB080117
:10195000494502D90320BDE8F0876068696800F056
:101960000C00B0EB810FEFD1306800F00700B842F7
:101970000BD9306820F0070038433060306800F041
:101980000700B84201D00120E5E72878400705D5D7
:101990006068E96820F4E060084360602878000728
:1019A00006D56068296920F4605040EAC100606093
:1019B00000F038F86168084AC1F30311515CC8406F
:1019C0000649086006480068FFF720FE0020C2E7CD
:1019D0000020024000100240105900080C000020B6
:1019E000040000200448054900684968044AC1F31E
:1019F0000221515CC84070470C00002000100240DA
:101A0000205900080448054900684968044AC1F3A0
:101A1000C221515CC84070470C00002000100240F9
:101A2000205900080E4A51680E4801F00C03042B9F
:101A300011D0082B0FD10C48C1F38343C903C05CFC
:101A40000AD55168084AC1F34041921E515C054ACB
:101A50005043B0FBF1F07047044948437047000021
:101A60000010024000127A00EE58000800093D0004
:101A70002DE9F84F040070D02078C04DC00749D040
:101A80006868C0F38100012807D06868C0F381004E
:101A9000022809D16868C00306D52868800339D5B3
:101AA00060680028E7D035E06068B0F5803F0BD073
:101AB00010B1B0F5A02F11D0286820F48030286034
:101AC000286820F4802002E0286840F480302860F4
:101AD000606890B1FFF776F906460AE0286840F49E
:101AE00080202860F0E700BFFFF76CF9801B6428B6
:101AF00073D828688003F7D50CE0FFF763F9064632
:101B000005E000BFFFF75EF9801B6428F0D8286865
:101B10008003F7D420789A4E80074FF001094FF0E8
:101B2000000839D5686810F00C0F07D06868C0F35A
:101B30008100022809D16868C00306D4286880079C
:101B400014D52069012808D110E02069B0B1C6F889
:101B50000090FFF737F9074605E00AE1FFF732F991
:101B6000C01B0228C4D828688007F7D52868616997
:101B700020F0F80040EAC10028600DE0C6F80080BF
:101B8000FFF720F9074604E0FFF71CF9C01B022805
:101B900023D828688007F7D4207800072CD5794807
:101BA000A169D9B1C0F80090FFF70CF9074604E02D
:101BB000FFF708F9C01B02280FD8686A8007F7D51D
:101BC00071484FF4FA510068B0FBF1F0009000BF8B
:101BD0000098411E0091FAD20EE080E0C0F800802B
:101BE000FFF7F0F8074604E0FFF7ECF8C01B022807
:101BF00075D8686A8007F7D42078400760D5E8690F
:101C00000027C00008D4E86940F08050E861E86926
:101C1000012700F0805000905C480168C90513D48A
:101C20000168834641F480710160FFF7CBF882467A
:101C300006E000BFFFF7C6F8A0EB0A0064284ED804
:101C4000DBF80000C005F5D5E06801280AD008B12E
:101C5000052813D0286A20F001002862286A20F0A5
:101C6000040002E0286A40F001002862E06841F2C6
:101C7000883B98B1FFF7A6F882460BE0286A40F04F
:101C800004002862EEE700BFFFF79CF8A0EB0A0112
:101C900059455AD8286A8007F6D50CE0FFF792F824
:101CA000824605E0FFF78EF8A0EB0A0159454CD8B3
:101CB000286A8007F6D41FB1E86920F08050E861F7
:101CC000E06988B36968C1F38101022944D0022820
:101CD000C6F8608004D0FFF775F8044638E034E0B9
:101CE000FFF770F8074604E0FFF76CF8C01B022806
:101CF0002BD828688001F7D4206AB0F5803F05D141
:101D00006868A16820F4003008436860D4E90801DD
:101D10000843696821F4741108436860C6F860904C
:101D2000FFF750F8044606E025E000BFFFF74AF849
:101D3000001B022809D828688001F7D51BE000BFE6
:101D4000FFF740F8001B022802D90320BDE8F88FF6
:101D500028688001F4D40EE00128F7D06868226A70
:101D600000F48031914204D1616A00F4701088421D
:101D700001D00120EAE70020E8E70000001002405F
:101D800000004242800442420C00002000700040EB
:101D9000F8B505004FF0000016460C46009006D03E
:101DA0002CB100226946284600F019F808B101203C
:101DB000F8BD287B2070E87BE070697B6170A97BAF
:101DC000A17056B101F012FEE070607801F00EFED5
:101DD0006070A07801F00AFEA0700020F8BD2DE927
:101DE000F04791460C465FEA00084AD084B3D8F821
:101DF00000004068400744D4404601F095FE4FF48F
:101E000061620546B0FBF2F1B0FBF2F302FB135046
:101E10003C23B0FBF3F0B5FBF2F6607002FB16500A
:101E2000B0FBF3F203FB1200A070182931D3182085
:101E3000B1FBF0F7B1FBF0F200FB1210207040464E
:101E400001F06BFE411C04D0A84202D9461B02E0FF
:101E500017E04FF0FF36A7EB071000EB4000C0EB98
:101E6000001005EBC0152946404601F0ACFE40B914
:101E7000701C01D0711900E03146404601F08FFE20
:101E800010B10120BDE8F0873946404601F0B9FDA8
:101E900000E02170B9F1000F0BD0207801F0A6FD11
:101EA0002070607801F0A2FD6070A07801F09EFDC6
:101EB000A0700020E6E7000070B5040003D0607C4D
:101EC000002610B105E0012070BD2674204600F008
:101ED0003DF802206074204600F00AF9042550BB4A
:101EE000204601F0E5FD30BB2068416821F0070184
:101EF0004160A06820B11448016821F0010101602F
:101F00001148001F0168A26821F46071114301604B
:101F10006068411C04D10120FFF7FCFB58B1401E52
:101F20002268C0F303419160216880B2C8602046F6
:101F300001F0D8FD08B16574C5E7E6730120607350
:101F4000A0736074002070BD306C004008B500685C
:101F5000084988420DD1FFF7D7FB0748C16941F016
:101F60000061C161C069054900F000600090012076
:101F7000086008BD00280040001002403C044242B6
:101F80002DE9F0410D4604003BD0C5B3207C01286B
:101F90003AD04FF0010884F8108002206074E8788D
:101FA00072B301F01AFDE073687801F016FD6073FA
:101FB000A87801F012FDA073C2B2617BE07B01F052
:101FC000C3FD20732870204601F0AEFD4FF461611F
:101FD000B0FBF1F1002518292DD91822B1FBF2F13F
:101FE000A1EB011101EB4101C1EB011100EBC116A5
:101FF0003146204601F0E7FD0427C8B90BE000E0B8
:1020000004E00120BDE8F0810220FBE7E07368787E
:102010006073A878CFE7204601F07FFD411C0AD00D
:10202000B04208D206490144204601F0B8FD10B183
:1020300067742574E5E784F8118025740020E1E7D2
:10204000805101002DE9F0410D46040024D01DB35C
:10205000207C012823D04FF0010884F81080022052
:1020600060742878EAB101F0B8FC4FF4616100FBBC
:1020700001F6687801F0B1FCC0EB001006EB8006B9
:10208000A87801F0AAFC35182946204601F09BFDEE
:102090000026042710BB0FE00120BDE8F0810220DC
:1020A000FBE74FF4616148436978C1EB011100EB34
:1020B0008100A9784518E7E72068416821F005010B
:1020C0004160204601F029FD411C0AD0A84208D2F7
:1020D00006490144204601F062FD10B16774267480
:1020E000DAE784F8118026740020D6E780510100D9
:1020F00070B504000AD02068416821F008014160F1
:10210000FEF760FE05464FF47A7608E0012070BDC8
:10211000FEF758FE401BB04201D9032070BD206875
:1021200040680007F4D5002070BD10B5401EB0F126
:10213000807F01D3012010BD4FF0E02460610F21AA
:10214000601701F093FE0020A061072020610020AD
:1021500010BD70477047000070B590F83C20012A10
:102160002CD0012480F83C40022280F83D200368F6
:102170005A689D6822F070060A6832435A60104B14
:1021800002689A420ED00F4B9A420BD0B2F1804FA8
:1021900008D00D4B9A4205D00C4B9A4202D00C4B02
:1021A0009A4204D1496825F080031943916080F870
:1021B0003D40002180F83C10084670BD022070BDF3
:1021C000002C0140003401400004004000080040A1
:1021D000000C004010B5040003D094F83D0010B18D
:1021E00007E0012010BD002084F83C00204600F0EC
:1021F0001FF8022084F83D00211D206801F042FDF7
:10220000012084F8460084F83E0084F83F0084F8FA
:10221000400084F8410084F8420084F8430084F8C8
:10222000440084F8450084F83D00002010BD000003
:1022300008B50068B0F1804F12D10A48C16941F079
:102240000101C161C069002200F001000090114647
:102250001C20FFF727FABDE808401C20FFF714BA3E
:1022600008BD00000010024070B5044690F83C0024
:102270000025012817D0012684F83C60022084F84C
:102280003D002068826822F0770222F47F4282605B
:102290000868502838D00DDC20284FD005DC90B3DA
:1022A000102811D14AE0022070BD302846D04028C5
:1022B0000AD13BE060282FD070280DD0B0F5805FA8
:1022C00003D0B0F5005F12D0012584F83D600020F6
:1022D00084F83C00284670BDCB68D1E90121206814
:1022E00001F01EFD2068816841F0770109E0CB68AC
:1022F000D1E90121206801F013FD2068816841F4D3
:1023000080418160E1E719E0CA684968206801F00E
:1023100019FD5021206806E0CA684968206801F06C
:1023200022FD6021206801F005FDCEE7CA684968FA
:10233000206801F007FD40212068F4E7226801468B
:102340001046F0E770472DE9F04104460068C66882
:1023500005694FF00007A90713D5B10711D5F91E7C
:10236000016101202077206880698007204602D023
:10237000FFF7E8FF04E000F07EF8204600F07CF86C
:102380002777680716D5700714D521686FF0040009
:102390000861022020772068806910F4407F204681
:1023A00002D0FFF7CFFF04E000F065F8204600F010
:1023B00063F82777280715D5300713D521686FF004
:1023C00008000861042020772068C0698007204643
:1023D00002D0FFF7B7FF04E000F04DF8204600F010
:1023E0004BF82777E80616D5F00614D521686FF06C
:1023F00010000861082020772068C06910F4407F31
:10240000204602D0FFF79EFF04E000F034F820469B
:1024100000F032F82777E80708D0F00706D02168E7
:102420006FF001000861204600F027F8280608D563
:10243000300606D521686FF0800008612046FFF75E
:1024400088FE680608D5700606D521686FF0400042
:102450000861204600F012F8A8060AD5B00608D593
:1024600021686FF0200008612046BDE8F041FFF7C9
:1024700071BEBDE8F081704770477047704770B516
:10248000040004D094F84100002510B106E00120BA
:1024900070BD84F84050204600F024F8242084F8D1
:1024A00041002068C16821F40051C160204601F05C
:1024B0006DFC2068016921F4904101612068416947
:1024C00021F02A0141612068C16841F40051C160D6
:1024D0006564202084F8410084F842006563002090
:1024E00070BD000030B585B00024009401940294C2
:1024F000039400681449884224D11448816941F446
:1025000080418161816901F480410491816941F0D8
:102510000401816180690E4D00F0040004904FF4C5
:102520000070009002200190032003906946284625
:10253000FEF742FB2815CDE90004694628460294BF
:10254000FEF73AFB05B030BD0038014000100240F4
:1025500000080140FEE700000148FEF73BBC000018
:10256000380000200148FEF797BC0000380000202A
:1025700038B5406A002190F83D202B4B46F2A81454
:102580001B68B3FBF4F3C3EBC30303EB83030093B8
:102590003BB15B1E009303681B689B0505D5009B40
:1025A000F6E7036C43F020030364436B03B19962C5
:1025B000836B03B1996203681C6824F480641C6017
:1025C0004185436B03B15963836B03B1596303685E
:1025D0001C6824F001041C6090F83D402023602C0E
:1025E0000BD0282434EA02020FD080F83D3080F866
:1025F0003E1000BFFEF768FD38BD80F83D3080F822
:102600003E100164FEF7E4FB38BD0268136843F036
:10261000010313600268136843F48063136001636D
:1026200080F83D40E6E700000C00002010B5406A4D
:102630000021426B02B19162826B02B19162026829
:10264000136823F4806313604185202280F83D20C5
:1026500080F83E10016C41F010010164FEF734FD7A
:1026600010BD2DE9F041446A94F83D2094F83E50A5
:10267000E16A2068436823F440734360636B002081
:1026800003B19862A36B03B19862212333EA020776
:102690004FF022060CD036EA020701D1202D07D0D8
:1026A00094F83E20002A21D0628D012A20D024E017
:1026B00021684D6825F400654D6060852820292A31
:1026C00002D02A2A07D00CE0236384F83D0020467C
:1026D000FEF781FF05E0266384F83D002046FEF703
:1026E00079FF2068416841F440714160BDE8F081A4
:1026F0002268136823F4806313602268536823F40C
:102700004073536011F5803F06D0082904D0B1F121
:102710002A4F01D0202904D12268136843F40073A2
:1027200013602268536823F480535360226853680F
:1027300023F4006353606085226C1AB12046FEF7D3
:10274000C3FCD3E7202284F83D2094F83E2084F88F
:102750003E00402A09D0082902D0202900D01220AA
:1027600020632046FEF777FDC0E720632046FEF792
:1027700074FDBBE700684169C943090601D4002123
:102780000161704770B5044690F83D0094F83E1022
:10279000102901D0402906D1222804D121680A68D5
:1027A00022F400620A60282131EA00024FF000059D
:1027B0004FF0200626D021684968090505D4602815
:1027C00003D084F83D6084F83E502563206841685A
:1027D000090537D5416821F400614160606B90F8CC
:1027E00021203C49012A11D04163606BFDF79CFF19
:1027F00038B32068016821F00101016084F83D6070
:10280000606B1CE0256384F83D10DFE7A06B41633B
:10281000A06BFDF789FFA0B120684169C943490653
:1028200005D40069616A0870606A401C60622068B3
:10283000016821F00101016084F83D60A06B416BEB
:10284000884710E094F83D10602910D04169C943D1
:10285000490605D40069616A0870606A401C6062BC
:102860002046FEF731FC206CC1071CD115E084F82E
:102870003D6025644169C943490605D40069616A20
:102880000870606A401C60622068016821F00101E4
:1028900001602046FEF79CFAE5E7810703D4410773
:1028A00001D4000704D52068416821F4E06141604B
:1028B00094F83D00216C49070BD5282809D106481A
:1028C000E062256384F83D6084F83E502046FEF7C0
:1028D000C1FC70BD712500080000FFFF01684A6956
:1028E000D24352050FD46FF480624A61002140F850
:1028F000301F202242738173026942F00402026198
:102900000173012070470020704710B5C26A438DE3
:102910000168042B06D0438D032B08D0438D022B76
:102920001DD012E04A6822F480624A600CE04B68D5
:1029300023F480634B60042A06D0022A04D0016885
:102940000A6822F480620A6001680969426A1170AB
:10295000416A491C4162418D491E418510BD012AD1
:1029600034D0102A32D0042A34D0022A32D00B6854
:1029700043F400730B6001680969436A1970416A86
:10298000491C4162438D5B1E438503681B690B70C4
:10299000416A491C4162418D491E418501684B686D
:1029A00023F440734B60202180F83D1090F83E30B6
:1029B0000021402B80F83E1010D0082A02D0202A97
:1029C00000D012210163FEF746FC10BD0B6823F412
:1029D0008063CFE70B6843F48063CBE70163FEF7C6
:1029E0003CFC10BD38B590F83D10222910D1C36AC7
:1029F000418D03290DD901680969426A1170416A44
:102A0000491C4162418D491E4185418D032906D0F3
:102A100038BDC26A022A02D0012906D029B1006855
:102A2000416821F48061416038BD2A4A46F2A81409
:102A300000211268B2FBF4F202EB820200920268FB
:102A40002024009D6D1E009526D01568AD05F8D494
:102A5000156825F4806515600268556825F4E06501
:102A6000556002681269456A2A70426A521C4262C5
:102A7000428D521E428580F83D4090F83E2080F8FD
:102A80003E10402A21D0082B02D0202B00D012214A
:102A90000163FEF7E0FB38BD036C43F020030364E1
:102AA000536823F4E063536002681269436A1A7042
:102AB000426A521C4262428D521E428580F83D405D
:102AC00080F83E10FEF700FB38BD0163FEF7C5FB42
:102AD00038BD00000C00002010B5C26A90F83D100F
:102AE00021290BD1418D51B1416A026809781161E8
:102AF000416A491C4162418D491E418510BD202318
:102B00000021082A13D0202A11D012F5803F0ED0C0
:102B10000268546824F4E06454601122026380F86F
:102B20003E1080F83D3000BFFEF796FB10BD0268F6
:102B3000546824F4E06454600268146844F4007437
:102B40001460016380F83D3090F83E2080F83E101C
:102B5000402AE9D1FEF782FB10BD000010B590F8C5
:102B60003D1090F83E30C26A048DB4B1212903D0E3
:102B7000402B11D122290FD1418DE1B390F83E10A5
:102B8000402942D0416A026809781161416A491CB2
:102B90004162418D491E418510BD2129E8D1202384
:102BA0000021082A13D0202A11D012F5803F0ED020
:102BB0000268546824F4E06454601122026380F8CF
:102BC0003E1080F83D3000BFFEF746FB10BD0268A6
:102BD000546824F4E06454600268146844F4007497
:102BE0001460016380F83D3090F83E2080F83E107C
:102BF000402AE9D100E002E0FEF730FB10BD00689A
:102C0000416821F48061416010BDBDE8104000F0D2
:102C1000F3B8000078B590F83E50C26A046B90F8A3
:102C20003D6000230168222E73D1066D0EB9402D40
:102C30006FD0056D1DB90569B5F5404F1BD0458DA9
:102C400095B3468D484D012E20D0448D022C4DD099
:102C50000C6844F480640C6001684C68240579D5E4
:102C6000AA4273D0012A71D0082A6FD0102A6DD0E1
:102C7000202A6BD06EE04A698A6900920A6842F4A1
:102C800080720A60016D491C016578BDAA4214D1A9
:102C90000A6822F480620A6001684A68120504D555
:102CA0000A6822F4806217E0FFE74A698A690092A5
:102CB0000A6842F400720A6050E0082A10D0202A04
:102CC0000ED0122C0AD0042A03D0022A01D0102AD6
:102CD000E6D10A6842F480620A603BE0012ADFD054
:102CE0000A6822F480620A600168DEE7042A11D0D3
:102CF000022A0FD0102A0DD00C6844F400640C6036
:102D000001684C698C6900940C6824F480640C6040
:102D100008E025E00C6844F480640C6001684C69AC
:102D20008969009101684C68240517D5AA4207D02B
:102D3000012A05D0082A03D0102A01D0202A0DD15B
:102D40004A6842F480524A6008E0FFE74A6842F469
:102D500080524A6001684A6989690091036578BDBB
:102D600048698869009078BD0000FFFF90F83E1028
:102D7000402910D00169B1F5804F19D0016DA9B378
:102D8000016D012910D1416C5FF0F10201F4407135
:102D900042EAD11106E0016D0029416C05D0C9B2AB
:102DA00041F0010100680161704701F0FE01F9E79F
:102DB00090F83D102129416C09D0C9B241F00101C0
:102DC00002681161416B29B1896A49B902E001F0D9
:102DD000FE01F5E7816B0029E6D0896A0029E3D07E
:102DE0000068416841F4006141607047FFE7416C51
:102DF000F02201F44071CBE710B590F83D10026D60
:102E00004AB1026D012A14D0026D022A16D0BDE823
:102E10001040FFF7AFBCC16C0129816C02D0C1F337
:102E2000072108E00268C9B21161016D891C0165C2
:102E300010BD816CC9B20268116123E022291CD047
:102E4000428D0AB1212920D0428D002AF0D12129BA
:102E5000EED101684A6822F4E0624A6001680A68BB
:102E600042F400720A6000210163202280F83D20B4
:102E700080F83E10FEF7F2F910BD01680A6842F4CE
:102E800080720A60016D491CD1E7416A02680978C5
:102E90001161416A491C4162418D491E418510BD45
:102EA0002DE9F843044600680D46DDE908970168FE
:102EB0009846164641F4807101604B4600224FF05F
:102EC00001112046009700F085F948B1206800689C
:102ED000C00502D54FF4007020640320BDE8F883DC
:102EE000216805F0FE0008613B464A461549204628
:102EF00000F0B8F988B920684169806900903A46C5
:102F00004946204600F00CFA48B1206C042804D150
:102F10002068016841F4007101600120DEE7F5B22C
:102F2000B8F1010F09D02168300A08613A464946D4
:102F3000204600F0F5F90028E7D12068056100205F
:102F4000CCE700000200010038B50C4690F83D20A7
:102F500000212825954302680B4605D051699169E7
:102F6000009180F83C3038BD556825F48065556087
:102F7000E243540700D50121120601D5828900E001
:102F8000028B80F83C3092B2FDF723FF38BD000081
:102F90002DE9F04190F83D300446C26A0021202618
:102FA0001E4F00686FF48065082A01D0202A01D1E5
:102FB000282B04D0212B17D04561BDE8F081E762B2
:102FC000426822F4E062426020684561206802683D
:102FD00022F480620260216384F83D6084F83E1030
:102FE0002046FEF737F9E8E7E7622122226384F8FA
:102FF0003D6084F83E10416821F4E0614160206842
:1030000045612068016821F4806101602046FFF776
:10301000B1FB2046FEF7DFFACFE700000000FFFF1C
:10302000F8B590F83D6004460068416821F4E0611D
:1030300041602068002541690091016841F001016B
:1030400001602068016821F48061016020684168A6
:10305000090520D5474F222E48D02A2E46D0616B35
:10306000096849686185618D19B1216C41F00401DD
:103070002164416821F400614160606BFDF7ECFB65
:10308000012808D0606B4763606BFDF74DFB10B102
:10309000606B416B8847608D08B320684169C94304
:1030A000490708D40069616A0870606A401C606260
:1030B000608D401E608520684169C943490608D477
:1030C0000069616A0870606A401C6062608D401E21
:1030D0006085608D18B1206C40F004002064206C85
:1030E00000B32046BDE8F840FFF74CBBA16B096870
:1030F00049686185618D19B1216C41F00401216439
:10310000416821F400614160A06BFDF7A5FB012837
:10311000C1D0A06B4763A06BFDF706FB0028BAD0B7
:10312000A06BB6E72A2E06D12563282084F83D003F
:103130002046FEF74FFA94F83D10202028290DD0A4
:10314000216B222901D0222E07D1256384F83D006E
:1031500084F83E502046FEF73DFAF8BD0649E1628C
:10316000256384F83D0084F83E502046FEF772F84F
:10317000F8BD0000712500080000FFFF70B516467D
:103180000D4604461EE02046FFF7A8FB08B10120CB
:1031900070BD681C16D0FDF715FE801BA84200D834
:1031A00085B920684069C04340070BD5002044F82A
:1031B000300F20216173A073216941F0200121614A
:1031C0002073E4E720684069C0434007DBD4002057
:1031D00070BD00002DE9F047984617460D4604469D
:1031E000C1F30746DDF820902AE000BFB8F1FF3FA9
:1031F00026D0FDF7E7FDA0EB0901414502D8B8F163
:10320000000F1DD12068012E16D0806925EA00002C
:103210000004000C12D00020B84211D1002044F864
:10322000300F20216173A073216941F020012161D9
:1032300020730120BDE8F0874069E7E70120EBE754
:103240002068012E0AD0806925EA00000004000CE5
:1032500006D00020B842C9D00020EBE74069F3E770
:103260000120F7E72DE9F047984616460D4604463B
:103270004FF000094FF0200AC1F3074723E0206810
:103280004069C043400515D42068016841F40071CD
:10329000016021686FF480604861C4F8309084F860
:1032A0003DA084F83E90216C41F00401216484F833
:1032B0003C9021E0701C06D0FDF784FDA0EB0800D7
:1032C000B04203D816B1012F1FD021E02068012F92
:1032D00015D0806925EA00000004000C18D000BF5A
:1032E00044F8309F84F80DA084F80E90216941F0D5
:1032F0002001216184F80C900120BDE8F08740692D
:1033000025EA00000004000CEAD12068406901E0D1
:103310002068806925EA00000004000CAFD1ECE7CA
:1033200070B516460D4604461EE02046FFF7D6FA55
:1033300008B1012070BD681C16D0FDF743FD801B4D
:10334000A84200D885B920684069C04300060BD563
:10335000002044F8300F20216173A073216941F0EF
:10336000200121612073E4E720684069C043000622
:10337000DBD4002070BD000070B5204C4FF4005528
:1033800029462046FDF714FD68B16D002946204608
:10339000FDF70EFDA8B16D0029462046FDF708FD9A
:1033A000E8B1002070BD1420FDF7F4FB294620464B
:1033B000FDF7FEFC0028F9D01420FDF7EBFB0120FF
:1033C00070BD1420FDF7E6FB29462046FDF7F0FC12
:1033D0000028F9D01420FDF7DDFB022070BD142079
:1033E000FDF7D8FB29462046FDF7E2FC0028F9D07E
:1033F0001420FDF7CFFB032070BD00000018014032
:10340000074B38B101284FF0010206D011021846CF
:10341000FDF7D3BC01224021F9E78021F7E7000046
:10342000000C0140074B38B101284FF0000206D0D4
:1034300099151846FDF7C1BC00224021F9E780210B
:10344000F7E70000000C0140094808B5416941F068
:10345000010141614069002200F001000090114625
:103460000E20FEF71FF9BDE808400E20FEF70CB94C
:1034700000100240F0B585B000242048009401946B
:1034800002940394816941F010018161816901F026
:1034900010010491816941F040018161816901F06D
:1034A00040010491816941F008018161816901F065
:1034B00008010491816941F0040181618069104F24
:1034C00000F004004FF4E0760490002231463846C4
:1034D000FDF773FCF00101258DE8310069460948CC
:1034E000FDF76AFB0320CDE90240CDE9006569469E
:1034F0003846FDF761FB05B0F0BD0000001002404A
:10350000000C0140001801400D4810B50B49016046
:103510000C49416000214FF480428160C0E90312F0
:1035200041618161C1610162FDF7D0FD002803D0D6
:10353000BDE81040FDF7F6B810BD0000005800408F
:1035400038000020801A06001CB500241A48019497
:10355000184900940160611E41604FF480718160E0
:10356000FEF7AAFC08B1FDF7DDF813208DF8040082
:1035700028208DF805008DF80640002201A90E488C
:10358000FEF760FD08B1FDF7CDF88DF8004004208E
:103590008DF801001A208DF802008DF8030000223A
:1035A00069460548FEF7ECFC002801D0FDF7BAF8A3
:1035B0001CBD000000280040D000002010B586B0DF
:1035C00000241648009401940294039404944FF04C
:1035D0008041059401604721C0E9011440F2E731C0
:1035E000C0E903148461FEF7F5FD08B1FDF79AF810
:1035F0004FF48050009069460848FEF735FE08B148
:10360000FDF790F8049404A904480594FEF7A4FD7E
:10361000002801D0FDF786F806B010BDE4000020B8
:103620000C4810B50A4901604FF4E13141600021B6
:1036300081600C22C160C0E904128161C161FEF7A2
:103640001EFF002803D0BDE81040FDF76BB810BD89
:10365000003801402C010020FEE7FEE710B50021F4
:10366000074C0A46002004EBC1131A54401CC0B298
:103670008028FAD3491CC9B20829F3D310BD000031
:1036800074010020F0B50B4424E0044685181DE0C9
:103690007F2C19D8002917DB3F2915DCCE1701EB49
:1036A00056764FEAE60C0D4F26F0070607EBCC17CF
:1036B0002744A1EB060E97F800C0012606FA0EF685
:1036C0002CEA060C87F800C0641C24B2A542DFDC9B
:1036D000491C09B28B42D8DCF0BD00007401002007
:1036E00010B51921044800F057F9FFF7B7FFBDE8FE
:1036F000104000F043B90000100000200FB470B576
:10370000C0B014460D46064648AA6846479900F0E0
:103710009BFB23466A462946304600F0C1F840B07C
:1037200070BC5DF814FB0000F0B50B4423E00446C8
:1037300085181CE07F2C18D8002916DB3F2914DCE3
:10374000CE1701EB567C4FEAEC070C4E2CF0070C21
:1037500006EBC7162644A1EB0C0E37784FF0010C90
:103760000CFA0EFC87EA0C073770641C24B2A542E1
:10377000E0DC491C09B28B42D9DCF0BD74010020A9
:1037800008B540F0B0008DF80000102040EA11109C
:103790008DF8010001F00F008DF80200032168464A
:1037A00000F0FAF808BD000008B5082B0DD0062B74
:1037B0000AD10A4B02EB420203EB4202C03A0092EA
:1037C0000823062200F00EF808BD054B03EB021299
:1037D000A2F50072102300920822F3E7185F000898
:1037E000285900082DE9F04F1F4616460D4682461F
:1037F0000024FFF747FF7F1EF81707EB50700121E9
:10380000DFF898B001EBE00743E000203DE000BFA7
:103810000AEB00037F2B36D8E91705EB5171CA106C
:1038200021F00701691A002D03DA521E083112B285
:1038300009B202EB0409B9F1070F0ED8099A04FB8B
:1038400006F802440BEBC91E18F802201EF803C04C
:103850008A404CEA020C0EF803C009F10102072A63
:1038600011D80BEBC91202EB0308099A04FB06FC02
:10387000024498F880301CF80220C1F10801CA40C7
:10388000134388F88030401CC0B2B042C0D3641CDF
:10389000E4B2A742B9DCBDE8F08F0000740100205B
:1038A0002DE9FF4F002583B09B4690462C46AA4643
:1038B000DFF8C09056E010068DF8042005F10105F0
:1038C0000DD40398ADB220448DF805A000B25B463C
:1038D0000499FFF769FF04EB0B0084B242E0A8B241
:1038E00018F80010002941D0401C8DF8051085B251
:1038F0008DF806A0002606E0384601A9FCF756FC24
:1039000068B1761CB6B2C6EBC60000EB800101EBD5
:103910000900074618A1FCF749FC0028ECD1BBF1CF
:10392000080F03D0BBF1060F1CD111E0C6EBC60097
:1039300000EB800101EB0900C01C009003981023EC
:10394000204400B21A460499FFF74CFF103408E0F7
:1039500003980623204400B23F220499FFF724FF76
:10396000A41DA4B218F80520002AA4D107B0BDE810
:10397000F08F0000526100080000000010B5002127
:103980000846FFF7FDFEBDE810404FF48061014896
:1039900000F010B8740100200EB564228DE8070015
:1039A0000123002278210248FDF75AFC0EBD0000D9
:1039B000380000201CB5074A12689369DB439B0757
:1039C000FBD5CDE900010123402278210148FDF714
:1039D000DFFC1CBD380000207047010901EB8101AC
:1039E00000F00F0000EB4100C0B27047002102E080
:1039F0000A38C0B2491C0A28FAD2090740EA116005
:103A000070472DE9F04104460025C07B627BA37B13
:103A100042E0012A16D0032A14D0052A12D0072A20
:103A200010D0082A0ED00A2A0CD00C2A0AD0042A58
:103A300010D0062A0ED0092A0CD00B2A0AD0022A4E
:103A40000DD028E01F2B0CD30C2A05D101221346E0
:103A5000401C20E01E2B04D30123521C1BE01C2B16
:103A600002D203F1010316E011D183B29E0710D1F7
:103A70006426B3FBF6F706FB173636B94FF4C87663
:103A8000B3FBF6F706FB17331BB91D2303E01D2B11
:103A900001D1032201236D1C8D42BAD3D1B2E07350
:103AA0006173DAB2A27300F04FF82073BDE8F081C1
:103AB00070B50446FDF786F905464FF47A7606E0C0
:103AC000FDF780F9401BB04201D9032070BD20688A
:103AD00040688006F4D52068416841F010014160DB
:103AE000002070BD70B504460068416821F01001E7
:103AF0004160FDF767F905464FF47A7607E000BFAD
:103B0000FDF760F9401BB04201D9032070BD206869
:103B100040688006F4D5002070BD0168086A496AD3
:103B200089B241EA00407047006881698AB2C16980
:103B30008BB2816989B28A4203D0C06961F31F40A8
:103B4000704743EA02407047F0B56424C1EBC103FB
:103B50000927A500072603EB01130329B3FBF7F19F
:103B600000F5FA60114401440AD2401EB0FBF4F2A1
:103B700001EB9001B0FBF5F0891A0844001D08E044
:103B8000B0FBF4F201EB9001B0FBF5F0891A0844A8
:103B9000801CB0FBF6F106FB1100C0B2F0BD70B5A1
:103BA0000D4606460024FFF783FF48B93168280C0C
:103BB00008623168A8B248623046FFF793FF00B14F
:103BC0000124204670BD70B50D4606460024FFF75F
:103BD0006FFF48B93168280C88613168A8B2C861A4
:103BE0003046FFF77FFF00B10124204670BD7047CB
:103BF000FDF7F2BC70B596B028216846FCF7CBFA09
:103C000014210AA8FCF7C7FA18210FA8FCF7C3FA79
:103C10000124052000250090CDE902544FF48030A6
:103C2000019002260494CDE907604FF4E01009905A
:103C30006846FDF71DFF08B172B6FEE70F20CDE91B
:103C40000A064FF48060CDE90C5002210AA80E95B7
:103C5000FDF732FE08B172B6FEE74FF48070CDE991
:103C60000F400FA8FDF7B2FD002801D072B6FEE7A5
:103C700016B070BD704700000148FEF764BB00003D
:103C8000E4000020F0B50268204C214D214E224F67
:103C9000224B4FF0804CA04209D0984207D060459B
:103CA00005D0A84203D0B04201D0B84204D122F0DE
:103CB000700E4A6842EA0E02A04209D0984207D02C
:103CC000604505D0A84203D0B04201D0B84203D12C
:103CD00022F44075CA682A434D6922F080022A43C3
:103CE00002608A68C2620A688262A04201D0984279
:103CF00001D109690163012141610169C90703D04B
:103D0000016921F001010161F0BD0000002C0140BA
:103D10000004004000080040000C00400034014056
:103D200010B5846842EA032224F47F440A43224304
:103D3000826010BD826822F070020A4342F00701DF
:103D40008160704710B5036A046A24F001040462BC
:103D5000846924F0F00444EA021423F00A020A43BE
:103D60008461026210BD10B5036A046A24F0100475
:103D70000462846923F0A00324F4704444EA02320C
:103D800043EA01118261016210BD000070B5044672
:103D900000680169E26821F4405111430161216921
:103DA000A0680843616908432168CA6841F20C634E
:103DB0009A430243CA6020684169A26921F44071B4
:103DC000114341611E492068884202D1FDF71AFE65
:103DD00001E0FDF707FE00EBC00101EB0012606897
:103DE00064218000B2FBF0F3B3FBF1F36FF018062F
:103DF0007343B2FBF0F5B2FBF0F605EB830532231B
:103E000003EB0515B5FBF1F5B6FBF1F605F0F00592
:103E100005EB0615B2FBF0F6B2FBF0F0B0FBF1F0EB
:103E20006FF01802504306EB800003EB0010B0FB6C
:103E3000F1F0216800F00F002844886070BD000098
:103E400000380140FEE7000037B514460846064B2F
:103E50006A46214600F0ECF804466946002000F06E
:103E60007EFC20463EBD00005F4700080907090EA2
:103E7000002804DB00F1E02080F80014704700F017
:103E80000F0000F1E02080F8141D704702E008C820
:103E9000121F08C1002AFAD170477047002001E0C4
:103EA00001C1121F002AFBD1704700002DE9FF5FFE
:103EB00082B00021DDE90430020DDDF840B003439B
:103EC00018D044F61050A2F2FF3242431514119854
:103ED00001281FD0A5EB0B00401C5FEA000A4FF041
:103EE00000064E4FDFF83891B046504615D5CAF15E
:103EF000000413E0119801244AA3012801D16FEABC
:103F00000B010298119AC0E90031C0E9024206B0E3
:103F1000BDE8F09FCBF10000DFE704460021404AF6
:103F2000491842EB0450CDE9001012E0E00707D039
:103F300032463B4640464946FCF7EDF98046894605
:103F400032463B4610461946FCF7E5F906460F4651
:103F50006410002CEAD1DDE90401DDE90023BAF1A7
:103F6000000F06DAFCF7D7F942464B46FCF7D3F9C7
:103F700005E0FCF742FA42464B46FCF73EFA04469F
:103F80000E460022284BFCF7A7FA03D84FF0FF306B
:103F9000014607E00022254B20463146FCF714F984
:103FA000FCF777FB102409E0002C0ADB0A2200232F
:103FB000FCF7C0FA039B30321A55641E50EA010226
:103FC000F2D1641C039AC4F111031444119A012A1A
:103FD00003D0012208430DD10AE0084304D0002099
:103FE0004FF0110B119072E7A3EB0B056D1E0DE066
:103FF0005B4504DD4FF0000205F1010504E003DA42
:104000004FF00002A5F10105002AECD002981199A9
:10401000C0E90231C0E9004579E700000000144022
:104020000000F03F300000000000F0430000E03FDF
:104030002DE9FF4F95B09B468946064600250FE2C5
:10404000252877D100242746F84A0121059400E06D
:10405000044316F8013F203B01FA03F01042F7D168
:1040600030782A2811D06FF02F033078A0F1300279
:10407000092A16D8059A44F0020402EB820203EBE7
:1040800042021044761C0590EFE759F8042B059284
:10409000002A03DA504244F40054059044F002042C
:1040A000761C30782E2816D116F8010F44F004043F
:1040B0002A280DD06FF02F023078A0F13003092BA1
:1040C00009D807EB870302EB4303C718761CF3E715
:1040D00059F8047B761C30786C280FD006DC4C280D
:1040E00017D068280DD06A2814D104E0742810D0A5
:1040F0007A280FD10DE044F400140AE044F480144F
:1041000001E044F440147278824202D104F5801434
:10411000761C761C307866280BD013DC582877D0B4
:1041200009DC002875D04528F6D04628F4D0472869
:104130001AD19DE118E0632835D0642879D065282C
:1041400012D195E1702873D008DC6728F1D0692876
:104150006FD06E280DD06F2806D1B5E073282CD013
:10416000752875D0782874D05A46179990476D1CD9
:1041700075E1C4F30250022809D003280DD0D9F804
:10418000001004280DD00D6009F1040967E1D9F889
:104190000010EA17C1E90052F6E7D9F800100D80C7
:1041A000F2E70D70F0E719F8041B8DF800100020FD
:1041B0008DF80100EA46012003E059F804AB4FF006
:1041C000FF3061074FF0000102D40DE008F101015A
:1041D0008846B9420FDA8045F8DB1AF80810002942
:1041E000F4D108E008F1010188468142FADB1AF8AF
:1041F00008100029F6D105985B46A0EB0807214678
:104200003846179A00F094FA284400EB080507E0B6
:104210004DE029E10DE01AF8010B5A461799904735
:10422000B8F10108F7D25B4621463846179A13E1E8
:1042300042E00A220092C4F302524FF0000A022A1E
:1042400008D059F804CB032A4FEAEC710AD00DE0EC
:1042500029E02AE009F1070121F00702F2E802C192
:10426000914609E00FFA8CFC4FEAEC71042A03D165
:104270004FFA8CFC4FEAEC71002907DA0A4600215C
:10428000DCF1000C61EB02012D2202E0220504D5D5
:104290002B228DF80420012203E0E20701D0202226
:1042A000F7E7904659E00A2102E010220DE01021C4
:1042B0004FF0000A00910BE010224FF0000A44F08A
:1042C00004040827009203E008224FF0000A00923D
:1042D000C4F30252022A05D059F804CB0021032A64
:1042E00008D009E009F1070121F00702F2E802C154
:1042F000914605E01FFA8CFC042A01D10CF0FF0C5A
:104300004FF00008220728D5702806D0009B83F0C4
:10431000100353EA0A0305D00EE040228DF8042072
:10432000012208E05CEA010206D030228DF8042068
:104330008DF8050002229046009B83F0080353EAA3
:104340000A030AD15CEA010201D1620705D53022D5
:104350008DF804204FF001087F1E582804D034A0A7
:1043600003900EA802900DE036A0F9E75346604690
:10437000009AFCF7DFF884460398825C0298401E9E
:10438000029002705CEA0100F0D1029806A9081AB6
:1043900000F1200A600702D524F4803400E00127F0
:1043A000574502DDA7EB0A0000E0002000EB0A0100
:1043B000009005984144401A0590E00306D45B46FE
:1043C0002146179A059800F0B3F90544002706E046
:1043D00001A85A46C05D179990476D1C7F1C474540
:1043E000F6DBE0030CD55B462146179A059800F0F2
:1043F0009FF9054404E030205A46179990476D1CF8
:104400000099481E00900029F5DC08E00298029906
:104410005A460078491C0291179990476D1CBAF1D1
:104420000001AAF1010AF1DC65E1000009280100A0
:10443000303132333435363738396162636465661A
:1044400000000000303132333435363738394142DC
:10445000434445460000000000F058F90544761C2E
:10446000307800287FF4ECAD19B02846BDE8F08F15
:10447000620700D4062709F1070222F0070CFCE8C6
:104480000223E14603F000485FEA080C02D00FF275
:10449000702C0DE05FEA045C02D50FF2682C07E097
:1044A0005FEAC47C02D00FF2602C01E0AFF2700C26
:1044B0004FF0FF3823F00043CDF850C065280CD0F2
:1044C00006DC452809D046281DD047283DD13DE0CF
:1044D000662818D067287ED138E00021112F01DB33
:1044E000112000E0781CCDE9000106A90EA8FFF715
:1044F000DDFCDDE90F010E9A03910021009207F126
:10450000010A04914DE04FF000400097CDE9011001
:1045100006A90EA8FFF7CAFCDDE90F0203920E9B65
:1045200011990022DDF80CA00093049211B9791CB6
:1045300000EB010AB7EB0A0004D4C0F1FF3007F129
:10454000010A0490AAEB0700019044E0012F00DA71
:1045500001270021112F01DD112000E03846CDE9AF
:10456000000106A90EA8FFF7A1FCDDE90F010E9AD4
:104570000391002104910092BA4621070CD40399BB
:10458000514500DA8A46BAF1010F05DD009AAAF119
:104590000101515C302908D0B84202DA10F1040F51
:1045A00006DA0121CDE9011015E0AAF10101E9E7E0
:1045B000002805DC049901440491AAEB000102E003
:1045C000411C514500DD8A460499401A401C019067
:1045D0004FF000400290200704D40198504501DBC1
:1045E000CDF8048000208DF84F0002980DF14F07A0
:1045F000B0F1004F25D02B200E9002984FF002080A
:1046000000280CDA404202902D200E9007E00A218B
:104610000298FBF779FF3031029007F8011DB8F1DD
:104620000001A8F10108F2DC02980028EFD1791E00
:104630000E980870307800F0200040F0450007F830
:10464000020D12A8C01B00F107081498007800B1F1
:10465000012000EB0A01019801EBE071059841444B
:10466000401A401E0590E00306D45B462146179A87
:10467000059800F05DF805441498007818B15A4682
:10468000179990476D1CE00324D55B462146179A85
:10469000059800F04DF805441CE00498002807DB5D
:1046A000DDE90301884203DD0098405C179901E0D1
:1046B000179930205A469047049805F10105401C8F
:1046C00004900198401E019004D12E205A4617995B
:1046D00090476D1CBAF10001AAF1010ADDDC05E08A
:1046E00017F8010B5A46179990476D1CB8F1000155
:1046F000A8F10108F4DC5B462146179A0598ABE661
:104700002D0000002B000000200000002DE9F041EA
:10471000044600251E461746880404D405E03946A1
:104720002020B0476D1C641EF9D52846BDE8F081F5
:104730002DE9F041044600251E469046C80301D5E8
:10474000302700E02027880404D505E0414638469C
:10475000B0476D1C641EF9D52846BDE8F0810A6893
:10476000531C0B6010707047FCF73EFFFFF742FAD6
:10477000FEF780FEFEF768FEFEF752FFFEF7C4FE6E
:10478000FEF71CFFFEF7E0FEFEF7AAFF00F022F89E
:104790000928FBD2DFE800F00506090C0F121518F6
:1047A0001B00F3E700F05EF9F0E700F02DFAEDE70B
:1047B00000F0A2FAEAE700F07FFCE7E700F04EFD28
:1047C000E4E700F01DFEE1E700F0ECFEDEE700F0BC
:1047D000BBFFDBE770B50125062389A20821002075
:1047E000FFF75EF8062389A218210020FFF758F88A
:1047F000062389A228210020FFF752F8062389A268
:1048000038210020FFF74CF8FFF7B8F8884C00BFBC
:10481000FEF7B2FD012812D0022818D003281FD0BD
:10482000002DF5D00025FEF719FF207809284AD27F
:10483000DFE800F0491C314C617692AECA00207866
:10484000401CC0B220700828ECD9012006E0207876
:10485000401E10F0FF002070E4D108202070E1E736
:10486000FEF7FCFEFFF78AF8207870BD062364A2ED
:1048700008210020FFF714F8062364A21821002065
:10488000FFF70EF8062364A228210020FFF708F89E
:10489000062364A258E0062359A208210020FEF74F
:1048A000FFFF062359A218210020FEF7F9FF062377
:1048B00059A228210020FEF7F3FF062359A25FE04A
:1048C0000020FEF731FFFFF759F8A1E706234CA2BD
:1048D00008210020FEF7E4FF06234CA21821002047
:1048E000FEF7DEFF06234CA228210020FEF7D8FFAA
:1048F00006234CA260E0062341A208210020FEF717
:10490000CFFF062341A218210020FEF7C9FF06238E
:1049100041A228210020FEF7C3FF062341A267E041
:10492000062344A208210020FEF7BAFF062344A272
:1049300018210020FEF7B4FF062344A228210020FE
:10494000FEF7AEFF062344A238210020FEF7A8FFA1
:10495000082380221946B3E7062336A20821002047
:10496000FEF79EFF062336A218210020FEF798FFCF
:10497000062336A228210020FEF792FF062336A246
:1049800038210020FEF78CFF08238022182197E7AA
:10499000062328A208210020FEF782FF062328A272
:1049A00018210020FEF77CFF062328A228210020E2
:1049B000FEF776FF062328A238210020FEF770FFBD
:1049C0000823802228217BE706231AA20821002041
:1049D000FEF766FF06231AA218210020FEF760FFEB
:1049E00006231AA228210020FEF75AFF06231AA246
:1049F00038210020FEF754FF0823802238215FE78A
:104A00007465737431202020202000007465737455
:104A10003220202020200000746573743320202071
:104A200020200000746573743420202020200000B2
:104A30002900002074657374352020202020000098
:104A40007465737436202020202000007465737410
:104A50003720202020200000746573743820202027
:104A60002020000070B55D4C002500BFFEF784FCDF
:104A7000012804D002280AD0032811D015E060785C
:104A8000401CC0B2607005280FD9012006E0607894
:104A9000401E10F0FF00607007D10520607004E038
:104AA000FEF7DCFDFEF76AFF6578012D09D0FEF701
:104AB000D5FD6078062840D2DFE800F03F052142AE
:104AC0005E73002070BD062345A208210020FEF77A
:104AD000E7FE062344A218210020FEF7E1FE06238C
:104AE00043A228210020FEF7DBFE062342A2382144
:104AF0000020FEF7D5FE0823802219461AE006237F
:104B000037A208210020FEF7CBFE062336A218218B
:104B10000020FEF7C5FE062335A228210020FEF75F
:104B2000BFFE062334A238210020FEF7B9FE082379
:104B3000802218210020FEF7F7FDFEF71FFF95E702
:104B4000062327A208210020FEF7AAFE062326A29C
:104B500018210020FEF7A4FE062325A2282100200C
:104B6000FEF79EFE062324A238210020FEF798FEC1
:104B7000082380222821DDE7062319A2082100202E
:104B8000FEF78EFE062318A218210020FEF788FEED
:104B9000062317A228210020FEF782FE062316A274
:104BA00013E0062310A208210020FEF779FE062359
:104BB0000FA218210020FEF773FE06230EA2282163
:104BC0000020FEF76DFE06230DA238210020FEF71F
:104BD00067FE082380223821ACE70000290000206E
:104BE0003C2D2D20202000004D312D312020200093
:104BF0004D312D32202020004D312D33202020003A
:104C00004D312D342020200070B50025304C86B069
:104C1000012600BFFEF7B0FB012804D0022809D00E
:104C200003280FD013E0A078401CC0B2A070012868
:104C300006D80CE0A078401E10F0FF00A07006D14E
:104C4000A67004E0FEF70AFDFEF798FEA578012D98
:104C500005D0FEF703FDA078012835D102E006B0AB
:104C6000002070BD002203A91A48FDF7B8F8002201
:104C700004A91848FDF78CF8062317A20821002084
:104C8000FEF70EFE9DF813009DF812209DF81110FE
:104C90008DE8070012A3062218212820FEF72EFD1A
:104CA0009DF80C009DF80E209DF80D108DE8070072
:104CB00028210EA306220846FEF720FD08238022A5
:104CC00019460020FEF730FDFEF758FEA2E700006F
:104CD00029000020D00000203C2D2D2020200000A5
:104CE00025642D25642D25640000000025643A25E7
:104CF000643A2564000000002DE9F04701260025F4
:104D0000964F974C4FF4807AA946B04640213846DA
:104D1000FCF74EF8C8B184F8049080213846FCF7BF
:104D200047F8A8B184F8059051463846FCF740F89A
:104D300088B184F8069000BFFEF71EFB01280DD055
:104D4000022815D003281ED022E084F80480E4E76E
:104D500084F80580E8E784F80680EDE7E07801262E
:104D6000401CC0B2E070042812D984F803800FE020
:104D7000E0784FF00106401E10F0FF00E07007D110
:104D80000420E07004E0FEF769FCFEF7F7FDE5782B
:104D9000012D06D0022D07D0032D08D0042D0FD1F0
:104DA0001BE00020BDE8F08700252B4601E0002530
:104DB0000123A2796179207900F0F6F8002EA5D0C0
:104DC0000026FEF74BFCE078012809D0022835D0F8
:104DD000032866D004285BD191E000250223E8E790
:104DE000062360A208210020FEF75AFD20794FF02B
:104DF000060301281CD05DA218210020FEF750FDFB
:104E000060794FF00603012814D05BA2282100200E
:104E1000FEF746FDA0794FF0060301280CD059A2F9
:104E200038210020FEF73CFD0823802219462CE0A3
:104E300057A2E1E758A2E9E759A2F1E7062349A200
:104E400008210020FEF72CFD20794FF006030128F1
:104E500021D046A218210020FEF722FD60794FF0F4
:104E60000603012819D044A228210020FEF718FDCE
:104E7000A0794FF00603012811D042A2382100206A
:104E8000FEF70EFD0823802218210020FEF74CFCBF
:104E9000FEF774FD3AE73EA2DCE73FA2E4E740A25A
:104EA000ECE706232FA208210020FEF7F9FC207969
:104EB0004FF0060301281CD02CA218210020FEF779
:104EC000EFFC60794FF00603012814D02AA22821B4
:104ED0000020FEF7E5FCA0794FF0060301280CD076
:104EE00028A238210020FEF7DBFC0823802228219D
:104EF000CBE727A2E1E728A2E9E729A2F1E7062309
:104F000018A208210020FEF7CBFC20794FF0060301
:104F100001281CD015A218210020FEF7C1FC6079E1
:104F20004FF00603012814D013A228210020FEF719
:104F3000B7FCA0794FF0060301280CD011A238214C
:104F40000020FEF7ADFC0823802238219DE710A247
:104F5000E1E711A2E9E712A2F1E70000000C01402D
:104F6000290000203C2D2D20202000004C454431FC
:104F70003A4F4646000000004C4544323A4F464600
:104F8000000000004C4544333A4F46460000000004
:104F90004C4544313A4F4E004C4544323A4F4E0056
:104FA0004C4544333A4F4E002DE9F0411C4616461D
:104FB000884605465FF00107FEF7DEF9012835D087
:104FC000022840D003284BD0002FF5D00027FEF751
:104FD00045FB062327A208210020FEF761FC012DD6
:104FE0004FF006033FD025A218210020FEF758FC01
:104FF000B8F1010F4FF0060337D023A2282100207B
:10500000FEF74EFC012E4FF0060330D021A23821CE
:105010000020FEF745FC182000EB04110823402275
:105020000020FEF781FBFEF7A9FCC5E734B1012C97
:1050300006D001262046FEF7F5F9C7E70125F9E776
:105040004FF00108F6E734B1012C06D000262046C7
:10505000FEF7D6F9BAE70025F9E74FF00008F6E7C2
:105060000020BDE8F0810EA2BEE70FA2C6E710A2A5
:10507000CDE700003C2D2D20202000004C45443180
:105080003A4F4646000000004C4544323A4F4646EF
:10509000000000004C4544333A4F464600000000F3
:1050A0004C4544313A4F4E004C4544323A4F4E0045
:1050B0004C4544333A4F4E0070B55D4C002500BF5F
:1050C000FEF75AF9012804D002280AD0032811D08B
:1050D00015E0E079401CC0B2E07105280FD901202D
:1050E00006E0E079401E10F0FF00E07107D10520D6
:1050F000E07104E0FEF7B2FAFEF740FCE579012D1D
:1051000009D0FEF7ABFAE079062840D2DFE800F0DC
:105110003F0521425E73002070BD062345A2082191
:105120000020FEF7BDFB062344A218210020FEF755
:10513000B7FB062343A228210020FEF7B1FB06237C
:1051400042A238210020FEF7ABFB0823802219463B
:105150001AE0062337A208210020FEF7A1FB062350
:1051600036A218210020FEF79BFB062335A228213A
:105170000020FEF795FB062334A238210020FEF71D
:105180008FFB0823802218210020FEF7CDFAFEF7BE
:10519000F5FB95E7062327A208210020FEF780FBF8
:1051A000062326A218210020FEF77AFB062325A25B
:1051B00028210020FEF774FB062324A238210020BA
:1051C000FEF76EFB082380222821DDE7062319A2C3
:1051D00008210020FEF764FB062318A218210020F6
:1051E000FEF75EFB062317A228210020FEF758FBDE
:1051F000062316A213E0062310A208210020FEF7C2
:105200004FFB06230FA218210020FEF749FB0623BF
:105210000EA228210020FEF743FB06230DA2382111
:105220000020FEF73DFB082380223821ACE7000078
:10523000290000203C2D2D20202000004D342D3150
:10524000202020004D342D32202020004D342D33DD
:10525000202020004D342D342020200070B55D4CDE
:10526000002500BFFEF788F8012804D002280AD0E4
:10527000032811D015E0207A401CC0B22072052806
:105280000FD9012006E0207A401E10F0FF002072A6
:1052900007D10520207204E0FEF7E0F9FEF76EFB6F
:1052A000257A012D09D0FEF7D9F9207A062840D2B7
:1052B000DFE800F03F0521425E73002070BD062349
:1052C00045A208210020FEF7EBFA062344A218218C
:1052D0000020FEF7E5FA062343A228210020FEF76E
:1052E000DFFA062342A238210020FEF7D9FA08236C
:1052F000802219461AE0062337A208210020FEF773
:10530000CFFA062336A218210020FEF7C9FA062399
:1053100035A228210020FEF7C3FA062334A2382143
:105320000020FEF7BDFA0823802218210020FEF796
:10533000FBF9FEF723FB95E7062327A208210020AF
:10534000FEF7AEFA062326A218210020FEF7A8FADF
:10535000062325A228210020FEF7A2FA062324A274
:1053600038210020FEF79CFA082380222821DDE75F
:10537000062319A208210020FEF792FA062318A29C
:1053800018210020FEF78CFA062317A228210020FE
:10539000FEF786FA062316A213E0062310A20821C0
:1053A0000020FEF77DFA06230FA218210020FEF749
:1053B00077FA06230EA228210020FEF771FA0623B1
:1053C0000DA238210020FEF76BFA08238022382135
:1053D000ACE70000290000203C2D2D2020200000FB
:1053E0004D352D31202020004D352D32202020003C
:1053F0004D352D33202020004D352D342020200028
:1054000070B55D4C002500BFFDF7B6FF012804D044
:1054100002280AD0032811D015E0607A401CC0B2DF
:10542000607205280FD9012006E0607A401E10F056
:10543000FF00607207D10520607204E0FEF70EF9EC
:10544000FEF79CFA657A012D09D0FEF707F9607A1C
:10545000062840D2DFE800F03F0521425E730020BD
:1054600070BD062345A208210020FEF719FA062385
:1054700044A218210020FEF713FA062343A2282194
:105480000020FEF70DFA062342A238210020FEF785
:1054900007FA0823802219461AE0062337A20821BA
:1054A0000020FEF7FDF9062336A218210020FEF7A2
:1054B000F7F9062335A228210020FEF7F1F906238B
:1054C00034A238210020FEF7EBF9082380221821AE
:1054D0000020FEF729F9FEF751FA95E7062327A2E7
:1054E00008210020FEF7DCF9062326A2182100205F
:1054F000FEF7D6F9062325A228210020FEF7D0F9D1
:10550000062324A238210020FEF7CAF908238022AE
:105510002821DDE7062319A208210020FEF7C0F9A3
:10552000062318A218210020FEF7BAF9062317A2B5
:1055300028210020FEF7B4F9062316A213E0062363
:1055400010A208210020FEF7ABF906230FA21821B4
:105550000020FEF7A5F906230EA228210020FEF761
:105560009FF906230DA238210020FEF799F90823A0
:1055700080223821ACE70000290000203C2D2D209E
:10558000202000004D362D31202020004D362D32B8
:10559000202020004D362D33202020004D362D3484
:1055A0002020200070B55D4C002500BFFDF7E4FE13
:1055B000012804D002280AD0032811D015E0A07ACF
:1055C000401CC0B2A07205280FD9012006E0A07AC5
:1055D000401E10F0FF00A07207D10520A07204E069
:1055E000FEF73CF8FEF7CAF9A57A012D09D0FEF7BF
:1055F00035F8A07A062840D2DFE800F03F052142C6
:105600005E73002070BD062345A208210020FEF72E
:1056100047F9062344A218210020FEF741F906238A
:1056200043A228210020FEF73BF9062342A238219D
:105630000020FEF735F90823802219461AE00623D8
:1056400037A208210020FEF72BF9062336A21821E5
:105650000020FEF725F9062335A228210020FEF7B9
:105660001FF9062334A238210020FEF719F9082378
:10567000802218210020FEF757F8FEF77FF995E702
:10568000062327A208210020FEF70AF9062326A2F6
:1056900018210020FEF704F9062325A22821002066
:1056A000FEF7FEF8062324A238210020FEF7F8F8C2
:1056B000082380222821DDE7062319A208210020E3
:1056C000FEF7EEF8062318A218210020FEF7E8F8EE
:1056D000062317A228210020FEF7E2F8062316A2CF
:1056E00013E0062310A208210020FEF7D9F80623B4
:1056F0000FA218210020FEF7D3F806230EA22821BE
:105700000020FEF7CDF806230DA238210020FEF779
:10571000C7F8082380223821ACE7000029000020C8
:105720003C2D2D20202000004D372D312020200041
:105730004D372D32202020004D372D3320202000E2
:105740004D372D342020200070B55D4C002500BF62
:10575000FDF712FE012804D002280AD0032811D038
:1057600015E0E07A401CC0B2E07205280FD9012094
:1057700006E0E07A401E10F0FF00E07207D105203D
:10578000E07204E0FDF76AFFFEF7F8F8E57A012D14
:1057900009D0FDF763FFE07A062840D2DFE800F089
:1057A0003F0521425E73002070BD062345A20821FB
:1057B0000020FEF775F8062344A218210020FEF70A
:1057C0006FF8062343A228210020FEF769F806237C
:1057D00042A238210020FEF763F8082380221946F0
:1057E0001AE0062337A208210020FEF759F8062305
:1057F00036A218210020FEF753F8062335A22821EF
:105800000020FEF74DF8062334A238210020FEF7D1
:1058100047F80823802218210020FDF785FFFEF7B6
:10582000ADF895E7062327A208210020FEF738F8F7
:10583000062326A218210020FEF732F8062325A20F
:1058400028210020FEF72CF8062324A2382100206E
:10585000FEF726F8082380222821DDE7062319A277
:1058600008210020FEF71CF8062318A218210020AA
:10587000FEF716F8062317A228210020FEF710F8DD
:10588000062316A213E0062310A208210020FEF72B
:1058900007F806230FA218210020FEF701F80623BF
:1058A0000EA228210020FDF7FBFF06230DA23821C0
:1058B0000020FDF7F5FF082380223821ACE7000027
:1058C000290000203C2D2D20202000004D382D31B6
:1058D000202020004D382D32202020004D382D333F
:1058E000202020004D382D3420202000010202030A
:1058F0000405060708090A0B0C0D0E0F1010010213
:1059000002030405060708090A0B0C0D0E0F101000
:10591000000000000000000001020304060708095F
:10592000000000000102030400000000000000006D
:105930000000000000000000000000F8000000006F
:10594000000000333000000000160E00160E0000AC
:10595000000000000000000040C07840C078400017
:10596000043F04043F040400007088FC0830000079
:10597000001820FF211E0000F008F000E0180000D1
:1059800000211C031E211E0000F00888700000008A
:105990001E21232419272110000000160E000000EC
:1059A0000000000000000000000000E018040200F9
:1059B000000000071820400000020418E00000006A
:1059C0000040201807000000404080F08040400068
:1059D0000202010F01020200000000F000000000BE
:1059E0000101011F01010100000000000000000092
:1059F00000B0700000000000000000000000000087
:105A0000000101010101010100000000000000008F
:105A1000003030000000000000000000806018042A
:105A2000006018060100000000E010080810E00007
:105A3000000F102020100F00001010F800000000D0
:105A40000020203F20200000007008080888700017
:105A50000030282422213000003008888848300097
:105A60000018202020110E000000C02010F80000B7
:105A700000070424243F240000F808888808080050
:105A80000019212020110E0000E010888818000065
:105A9000000F112020110E0000380808C838080037
:105AA0000000003F000000000070880808887000B7
:105AB000001C222121221C0000E010080810E00038
:105AC0000000312222110F00000000C0C0000000C1
:105AD0000000003030000000000000C0C0000000E6
