:020000040800F2
:10000000A0080020450100086B0E00087D0D0008C7
:10001000690E0008B10100080D140008000000007E
:10002000000000000000000000000000491200086D
:10003000B301000800000000471200084B1200083E
:100040005F0100085F0100085F0100085F01000810
:100050005F0100085F0100085F0100085F01000800
:100060005F0100085F0100085F0100085F010008F0
:100070005F0100085F0100085F0100085F010008E0
:100080005F0100085F0100085F0100085F010008D0
:100090005F0100085F0100085F0100085F010008C0
:1000A0005F0100085F0100085F0100085F010008B0
:1000B0005F0100085F0100085F0100085F010008A0
:1000C0005F0100085F0100085F0100085F01000890
:1000D0005F0100085F0100085F0100085F01000880
:1000E0005F0100085F0100085F0100085F01000870
:1000F0005F0100085F0100085F0100085F01000860
:100100005F0100085F0100085F0100085F0100084F
:100110005F0100085F0100085F010008AD120008E0
:100120005F0100085F0100085F0100085F0100082F
:10013000DFF80CD000F02AF8004800474D14000802
:10014000A00800200648804706480047FEE7FEE773
:10015000FEE7FEE7FEE7FEE7FEE7FEE7FEE7FEE777
:10016000AB12000831010008D2B201E000F8012B07
:10017000491EFBD270470022F6E710B513460A4627
:1001800004461946FFF7F0FF204610BD064C074D08
:1001900006E0E06840F0010394E807009847103457
:1001A000AC42F6D3FFF7C8FFD81C0008F81C0008C3
:1001B000FEE7704772B6FEE770B5044600F010F92E
:1001C0000546601C02D004480078044400F008F999
:1001D000401BA042FAD370BD000000202DE9F84F6B
:1001E000DFF8C8910024A9F1040B23460F2709F179
:1001F000040AABF1040ED1E00125A54006EA050290
:10020000AA4276D1DFF8A8C14E68A6EB0C08664575
:100210002BD00DDC032E34D005DC36B3012E19D0E3
:10022000022E2FD11BE0112E16D0122E2AD119E04A
:10023000B8F5881F19D006DCB8F5803F15D0B8F5A1
:10024000801F1FD111E0B8F5001F0ED0B8F5041FB4
:1002500018D10AE0CB6815E0CB681B1D12E0CB6813
:1002600008330FE0CB680C330CE08B682BB1012B0B
:100270004FF0080303D0456104E0042302E0056168
:1002800000E00023FF2A01D8064601E000F1040641
:100290004FEA840501D9A5F12005D6F8008007FAB8
:1002A00005FC28EA0C0803FA05F548EA0508C6F833
:1002B00000804D68ED0070D53E4DAE6946F00106F8
:1002C000AE61AD6924F0030605F0010500953A4DD5
:1002D00006EB050CDCF80850A607360F07FA06F8FF
:1002E00025EA0805DFF8D480404503D14FF0000827
:1002F00025E052E0DFF8C880404502D14FF0010808
:100300001DE0DFF8C080404502D14FF0020816E042
:10031000DFF8B480404502D14FF003080FE0DFF86A
:10032000AC80404502D14FF0040808E0DFF8A0801F
:10033000404502D14FF0050801E04FF0060808FAE9
:1003400006F848EA0508CCF808804D68D9F800603E
:10035000ED024D4601D5164300E096432E604D68F0
:10036000DAF80060AD02554601D5164300E0964329
:100370002E604D68DBF80060AD035D4601D5164385
:1003800000E096432E604D68DEF80060ED03754690
:1003900001D5164300E096432E60641C0A68164699
:1003A000E2407FF429AFBDE8F88F00000804014067
:1003B0000000111000100240000001400008014040
:1003C000000C0140001001400014014000180140E1
:1003D000001C01400AB1016170470904FBE70000FD
:1003E00001488068704700000000002002488168D2
:1003F000027811448160704700000020074810B562
:10040000016841F010010160032000F0A1F80F2005
:1004100000F006F800F050F8002010BD0020024067
:1004200030B505461F4887B0C16941F02001C16160
:10043000C06906A900F02000009001A800F030F982
:100440000498B0B100F04CF940001749174AB0FBCE
:10045000F1F11748491E0260416040F2E732002185
:10046000C0E903218160816100F012FB040003D028
:1004700015E000F035F9E8E70D4800F037FB04001F
:100480000DD1372000F036F8102D07D20022294672
:10049000372000F03DF80748056000E0012407B070
:1004A000204630BD0010024040420F0000140040C2
:1004B00058000020040000200C4808B5816941F074
:1004C00001018161816901F001010091C16941F07F
:1004D0008051C161C06900F08050009004484168BB
:1004E00021F0E06141F00071416008BD0010024060
:1004F00000000140002809DB00F01F0201219140AB
:100500004009800000F1E020C0F8001170470000B1
:10051000F0B40E4B1B680C46C3F30223C3F107056E
:10052000042D00D90425191D072901D2002300E05C
:10053000DB1E012606FA05F1491E214099409E4026
:10054000761E16403143F0BC00F061BF0CED00E0B8
:10055000064900F0070208684FF6FF03184040EA1A
:100560000220034A10430860704700000CED00E0D1
:100570000000FA052DE9F0470F46050061D0434E13
:10058000306800F00700B84209D2306820F0070058
:1005900038433060306800F00700B84251D1286815
:1005A0003B4C810712D5400703D5606840F4E060FA
:1005B00060602878000703D5606840F46050606090
:1005C0006068A96820F0F000084360602878C007E0
:1005D00028D06868012810D02168022810D0890727
:1005E00000292EDA616821F0030101436160FFF701
:1005F000F7FE804641F288390DE021688903EFE774
:100600008901EDE7FFF7ECFEA0EB0801494502D9AF
:100610000320BDE8F0876068696800F00C00B0EB6B
:10062000810FEFD1306800F00700B8420BD9306875
:1006300020F0070038433060306800F00700B8420F
:1006400001D00120E5E72878400705D56068E96812
:1006500020F4E060084360602878000706D56068F1
:10066000296920F4605040EAC100606000F058F849
:100670006168084AC1F30311515CC840064908602B
:1006800006480068FFF7CCFE0020C2E700200240C9
:1006900000100240961400080C0000200400002006
:1006A0000F2202600C4A536803F00303436053684F
:1006B00003F0F0038360536803F4E063C36052689F
:1006C0004FF4E06303EAD20202610448006800F0DC
:1006D0000700086070470000001002400020024040
:1006E0000448054900684968044AC1F30221515C85
:1006F000C84070470C00002000100240A6140008FB
:100700000448054900684968044AC1F3C221515CA4
:10071000C84070470C00002000100240A6140008DA
:100720000E4A51680E4801F00C03042B11D0082B1F
:100730000FD10C48C1F38343C903C05C0AD551688B
:10074000084AC1F34041921E515C054A5043B0FB38
:10075000F1F0704704494843704700000010024020
:1007600000127A008614000800093D002DE9F84FB8
:10077000040070D02078C04DC00749D06868C0F32D
:100780008100012807D06868C0F38100022809D1E0
:100790006868C00306D52868800339D560680028DA
:1007A000E7D035E06068B0F5803F0BD010B1B0F510
:1007B000A02F11D0286820F480302860286820F409
:1007C000802002E0286840F480302860606890B1A2
:1007D000FFF706FE06460AE0286840F480202860FD
:1007E000F0E700BFFFF7FCFD801B642873D8286882
:1007F0008003F7D50CE0FFF7F3FD064605E000BFE8
:10080000FFF7EEFD801B6428F0D828688003F7D43A
:1008100020789A4E80074FF001094FF0000839D533
:10082000686810F00C0F07D06868C0F381000228D8
:1008300009D16868C00306D42868800714D52069E8
:10084000012808D110E02069B0B1C6F80090FFF788
:10085000C7FD074605E00AE1FFF7C2FDC01B0228FD
:10086000C4D828688007F7D52868616920F0F800A7
:1008700040EAC10028600DE0C6F80080FFF7B0FD37
:10088000074604E0FFF7ACFDC01B022823D8286808
:100890008007F7D4207800072CD57948A169D9B111
:1008A000C0F80090FFF79CFD074604E0FFF798FDB5
:1008B000C01B02280FD8686A8007F7D571484FF42B
:1008C000FA510068B0FBF1F0009000BF0098411EA3
:1008D0000091FAD20EE080E0C0F80080FFF780FDC2
:1008E000074604E0FFF77CFDC01B022875D8686A44
:1008F0008007F7D42078400760D5E8690027C0005A
:1009000008D4E86940F08050E861E869012700F008
:10091000805000905C480168C90513D40168834683
:1009200041F480710160FFF75BFD824606E000BF85
:10093000FFF756FDA0EB0A0064284ED8DBF8000054
:10094000C005F5D5E06801280AD008B1052813D004
:10095000286A20F001002862286A20F0040002E0E2
:10096000286A40F001002862E06841F2883B98B1B3
:10097000FFF736FD82460BE0286A40F0040028624B
:10098000EEE700BFFFF72CFDA0EB0A0159455AD84E
:10099000286A8007F6D50CE0FFF722FD824605E0C5
:1009A000FFF71EFDA0EB0A0159454CD8286A8007C5
:1009B000F6D41FB1E86920F08050E861E06988B39F
:1009C0006968C1F38101022944D00228C6F8608019
:1009D00004D0FFF705FD044638E034E0FFF700FDE2
:1009E000074604E0FFF7FCFCC01B02282BD8286850
:1009F0008001F7D4206AB0F5803F05D16868A1680E
:100A000020F4003008436860D4E9080108436968AD
:100A100021F4741108436860C6F86090FFF7E0FCA9
:100A2000044606E025E000BFFFF7DAFC001B0228C1
:100A300009D828688001F7D51BE000BFFFF7D0FC7C
:100A4000001B022802D90320BDE8F88F2868800126
:100A5000F4D40EE00128F7D06868226A00F48031EF
:100A6000914204D1616A00F47010884201D00120E3
:100A7000EAE70020E8E700000010024000004242E0
:100A8000800442420C000020007000407047704714
:100A900010B5040003D094F83D0010B107E0012028
:100AA00010BD002084F83C00204600F01EF8022013
:100AB00084F83D00211D206800F0FEFB012084F831
:100AC000460084F83E0084F83F0084F8400084F833
:100AD000410084F8420084F8430084F8440084F81C
:100AE000450084F83D00002010BD704790F83D108F
:100AF000012901D001207047022180F83D100168D2
:100B0000CA6842F00102CA6000680E4988420ED0ED
:100B10000D4988420BD0B0F1804F08D00B49884274
:100B200005D00B49884202D00A49884204D1816825
:100B300001F00701062903D0016841F001010160BD
:100B400000207047002C01400034014000040040A8
:100B500000080040000C004070472DE9F0410446B9
:100B60000068C66805694FF00007A90713D5B107EB
:100B700011D5F91E01610120207720688069800766
:100B8000204602D0FFF7E8FF04E000F07EF82046A0
:100B900000F07CF82777680716D5700714D5216810
:100BA0006FF004000861022020772068806910F44B
:100BB000407F204602D0FFF7CFFF04E000F065F849
:100BC000204600F063F82777280715D5300713D59E
:100BD00021686FF008000861042020772068C06950
:100BE0008007204602D0FFF7B7FF04E000F04DF881
:100BF000204600F04BF82777E80616D5F00614D506
:100C000021686FF010000861082020772068C06913
:100C100010F4407F204602D0FFF79EFF04E000F072
:100C200034F8204600F032F82777E80708D0F007BC
:100C300006D021686FF001000861204600F028F816
:100C4000280608D5300606D521686FF080000861B7
:100C50002046FFF71BFF680608D5700606D52168F9
:100C60006FF040000861204600F01CF8A8060AD585
:100C7000B00608D521686FF0200008612046BDE865
:100C8000F041FFF704BFBDE8F081704770470000F6
:100C900000680349884201D1FFF7A8BB70470000F4
:100CA00000140040704770B5040004D094F841006F
:100CB000002510B106E0012070BD84F840502046A8
:100CC00000F024F8242084F841002068C16821F451
:100CD0000051C160204600F03DFB2068016921F40D
:100CE000904101612068416921F02A014161206839
:100CF000C16841F40051C1606564202084F841005E
:100D000084F842006563002070BD000030B585B0F6
:100D100000240094019402940394006814498842CA
:100D200024D11448816941F480418161816901F4D1
:100D300080410491816941F00401816180690E4D17
:100D400000F0040004904FF4007000900220019025
:100D50000320039069462846FFF740FA2815CDE99D
:100D60000004694628460294FFF738FA05B030BD02
:100D7000003801400010024000080140FEE700007A
:100D800070B586B00024274800940194029403941F
:100D9000816941F010018161816901F010010491C4
:100DA000816941F040018161816901F04001049154
:100DB000816941F008018161816901F008010491B4
:100DC000816941F0040181618069174E00F00400DF
:100DD000049000224FF45C613046FFF7FBFA4FF4B9
:100DE0006040CDE90004694610480294FFF7F6F927
:100DF0004FF44060009001AA1120032582E83100E1
:100E000069463046FFF7EAF94FF4E070009001AA16
:100E1000012082E8310069463046FFF7DFF906B06D
:100E200070BD000000100240000C0140001801409D
:100E30000C4810B50A4901604FF4E13141600021CE
:100E400081600C22C160C0E904128161C161FFF7B9
:100E50002AFF002803D0BDE81040FFF7ABB910BD52
:100E60000038014010000020FEE7FEE710B5002129
:100E7000074C0A46002004EBC1131A54401CC0B2B0
:100E80008028FAD3491CC9B20829F3D310BD000049
:100E9000A0000020F0B50B4424E0044685181DE0B6
:100EA0007F2C19D8002917DB3F2915DCCE1701EB61
:100EB00056764FEAE60C0D4F26F0070607EBCC17E7
:100EC0002744A1EB060E97F800C0012606FA0EF69D
:100ED0002CEA060C87F800C0641C24B2A542DFDCB3
:100EE000491C09B28B42D8DCF0BD0000A0000020F4
:100EF00010B500204FF47A720021491C9142FCD3B6
:100F0000401C9042F8D3012000F058F9BDE8104091
:100F1000012000F061B970B500240646802525FA4D
:100F200004F0304000D0012000F056F9012000F01C
:100F300045F9002000F042F9641CE4B2082CEED31D
:100F4000012000F03BF9BDE87040002000F036B908
:100F500010B5012000F040F9012000F02FF9002029
:100F600000F03AF9BDE81040002000F027B910B5B4
:100F7000002000F031F9012000F020F9BDE8104018
:100F8000012000F029B910B5FFF7B2FFAE2000F044
:100F900031F9D52000F02EF9802000F02BF9A8209F
:100FA00000F028F93F2000F025F9D32000F022F9C5
:100FB000002000F01FF9402000F01CF9A12000F0F3
:100FC00019F9C82000F016F9DA2000F013F9122000
:100FD00000F010F9812000F00DF9CF2000F00AF99F
:100FE000D92000F007F9F12000F004F9DB2000F02F
:100FF00001F9302000F0FEF8A42000F0FBF8A62054
:1010000000F0F8F88D2000F0F5F8142000F0F2F868
:10101000AF2000F0EFF8FFF729FFBDE8104000F027
:10102000B9B80246012000E05043491EFCD2704787
:1010300010B50C4640F0B00000F0DCF8102040EA9B
:10104000141000F0D7F804F00F00BDE8104000F0D5
:10105000D1B8000008B5082B0DD0062B0AD10A4BD9
:1010600002EB420203EB4202C03A0092082306223E
:1010700000F00EF808BD054B03EB0212A2F500725A
:10108000102300920822F3E79E1A0008AE1400080D
:101090002DE9F04F1F4616460D4682460024FFF705
:1010A000F9FE7F1EF81707EB50700121DFF898B0AA
:1010B00001EBE00743E000203DE000BF0AEB000346
:1010C0007F2B36D8E91705EB5171CA1021F00701C3
:1010D000691A002D03DA521E083112B209B202EB6E
:1010E0000409B9F1070F0ED8099A04FB06F8024467
:1010F0000BEBC91E18F802201EF803C08A404CEA08
:10110000020C0EF803C009F10102072A11D80BEBFB
:10111000C91202EB0308099A04FB06FC024498F882
:1011200080301CF80220C1F10801CA40134388F83E
:101130008030401CC0B2B042C0D3641CE4B2A742AD
:10114000B9DCBDE8F08F0000A00000202DE9F047D9
:1011500000241D4690468A4681460A27089E14E0D0
:10116000291B0A20491EFFF75CFFB8FBF0F0B0FB1B
:10117000F7F107FB110204FB069000B2334651461B
:101180003032FFF767FF641CE4B2AC42E8D3BDE83D
:10119000F087000070B5084D002400212046FFF7BD
:1011A00047FF05EBC410802100F035F8641CE4B261
:1011B000082CF2D370BD0000A0000020054B4FF4B6
:1011C0008061012803D000221846FFF703B90122ED
:1011D000FAE70000000C0140054B4FF400610128C4
:1011E00003D000221846FFF7F5B80122FAE7000005
:1011F000000C014010B50446FFF7AAFE7820FFF767
:101200008AFE0020FFF787FE2046FFF784FEBDE838
:101210001040FFF7ACBE70B50D460646FFF798FECE
:101220007820FFF778FE4020FFF775FE002404E0E9
:10123000305DFFF770FE641CE4B2AC42F8D3BDE849
:101240007040FFF794BE70477047704730B58FB05D
:1012500028216846FEF78FFF14210AA8FEF78BFFAE
:1012600001210804CDE90010002402940225049114
:10127000CDE907504FF4E01009906846FFF776FA81
:1012800008B172B6FEE70F20CDE90A054FF4806081
:10129000CDE90C4002210AA80E94FFF76BF9002853
:1012A00001D072B6FEE70FB030BD70470148FFF7BE
:1012B00054BC000058000020F0B50268204C214DBD
:1012C000214E224F224B4FF0804CA04209D0984231
:1012D00007D0604505D0A84203D0B04201D0B84243
:1012E00004D122F0700E4A6842EA0E02A04209D0F0
:1012F000984207D0604505D0A84203D0B04201D043
:10130000B84203D122F44075CA682A434D6922F0DD
:1013100080022A4302608A68C2620A688262A0422E
:1013200001D0984201D1096901630121416101693C
:10133000C90703D0016921F001010161F0BD00007E
:10134000002C01400004004000080040000C004058
:101350000034014070B5044600680169E26821F478
:101360004051114301612169A06808436169084344
:101370002168CA6841F20C639A430243CA6020683C
:101380004169A26921F44071114341611E492068FD
:10139000884202D1FFF7B4F901E0FFF7A1F900EBB1
:1013A000C00101EB0012606864218000B2FBF0F321
:1013B000B3FBF1F36FF018067343B2FBF0F5B2FB29
:1013C000F0F605EB8305322303EB0515B5FBF1F5CC
:1013D000B6FBF1F605F0F00505EB0615B2FBF0F6ED
:1013E000B2FBF0F0B0FBF1F06FF01802504306EBE7
:1013F000800003EB0010B0FBF1F0216800F00F005B
:101400002844886070BD000000380140FEE70907ED
:10141000090E002804DB00F1E02080F8001470477A
:1014200000F00F0000F1E02080F8141D704702E08A
:1014300008C8121F08C1002AFAD17047704700205F
:1014400001E001C1121F002AFBD1704708B500243A
:10145000FEF7D4FFFFF7FAFEFFF792FCFFF7E8FC78
:10146000FFF791FD0625641CA4B20821052322463E
:1014700008460095FFF76AFEFFF78CFEFA20FEF79C
:101480009BFEF0E7010202030405060708090A0BA8
:101490000C0D0E0F101000000000000000000102F3
:1014A000030406070809000000000102030400000D
:1014B000000000000000000000000000000000002C
:1014C00000F80000000000000033300000000016AB
:1014D0000E00160E0000000000000000000040C0DA
:1014E0007840C0784000043F04043F0404000070CA
:1014F00088FC08300000001820FF211E0000F008C2
:10150000F000E018000000211C031E211E0000F066
:101510000888700000001E212324192721100000D4
:1015200000160E0000000000000000000000000097
:1015300000E018040200000000071820400000022C
:101540000418E000000000402018070000004040A0
:1015500080F0804040000202010F01020200000002
:1015600000F0000000000101011F01010100000066
:1015700000000000000000B070000000000000004B
:101580000000000000000001010101010101000054
:1015900000000000000000303000000000000000EB
:1015A000000080601804006018060100000000E0E0
:1015B00010080810E000000F102020100F0000108D
:1015C00010F8000000000020203F202000000070E4
:1015D00008080888700000302824222130000030DC
:1015E0000888884830000018202020110E000000D4
:1015F000C02010F8000000070424243F240000F855
:101600000888880808000019212020110E0000E039
:10161000108888180000000F112020110E000038DB
:101620000808C83808000000003F000000000070F3
:10163000880808887000001C222121221C0000E07C
:1016400010080810E0000000312222110F000000F5
:1016500000C0C000000000000030300000000000AA
:1016600000C0C0000000000080B07000000000005A
:1016700080402010080000010204081020004040B3
:1016800040404040400004040404040404000008F6
:1016900010204080000000201008040201000070AB
:1016A00048080808F0000000003036010000C03093
:1016B000C828E810E0000718272423140B000000B6
:1016C000C038E0000000203C23020227382008F840
:1016D000888888700000203F202020110E00C03034
:1016E000080808083800071820202010080008F80B
:1016F00008080810E000203F202020100F0008F804
:101700008888E8081000203F20202320180008F8CF
:101710008888E8081000203F200003000000C03047
:1017200008080838000007182020221E020008F8C8
:1017300008000008F808203F210101213F2000088F
:1017400008F8080800000020203F202000000000CA
:101750000808F8080800C08080807F00000008F8B2
:1017600088C028180800203F20012638200008F8EB
:10177000080000000000203F20202020300008F852
:10178000F800F8F80800203F003F003F200008F86C
:1017900030C00008F808203F200007183F00E01084
:1017A00008080810E0000F10202020100F0008F893
:1017B00008080808F000203F210101010000E010A6
:1017C00008080810E0000F18242438504F0008F8CB
:1017D000888888887000203F2000030C302000702B
:1017E0008808080838000038202121221C00180829
:1017F00008F8080818000000203F2000000008F842
:1018000008000008F808001F202020201F0008788A
:10181000880000C83808000007380E010000F808EA
:1018200000F80008F800033C0700073C0300081814
:1018300068808068180820302C03032C302008387A
:10184000C800C83808000000203F20000000100831
:101850000808C83808002038262120201800000079
:1018600000FE020202000000007F40404000000C29
:1018700030C000000000000000010638C000000277
:101880000202FE000000004040407F0000000020F7
:1018900010080408102000000000000000000000F4
:1018A0000000000000008080808080808080000236
:1018B000040800000000000000000000000000001C
:1018C0008080808000000019242222223F2008F816
:1018D000008080000000003F112020110E00000059
:1018E000008080800000000E1120202011000000E8
:1018F00000808088F800000E112020103F2000009A
:10190000808080800000001F22222222130000809D
:1019100080F0888888180020203F202000000000E8
:10192000808080808000006B94949493600008F81D
:10193000008080800000203F210000203F200080A8
:101940009898000000000020203F202000000000A8
:1019500000809898000000C08080807F000008F818
:10196000000080808000203F24022D3020000008ED
:1019700008F8000000000020203F202000008080A8
:10198000808080808000203F20003F20003F00803A
:1019900080008080000000203F2100203F200000C8
:1019A000808080800000001F202020201F00808079
:1019B00000808000000080FFA12020110E000000A8
:1019C000008080808000000E112020A0FF80808099
:1019D00080008080800020203F2120000100000046
:1019E000808080808000003324242424190000801B
:1019F00080E0808000000000001F20200000808028
:101A0000000000808000001F202020103F208080E8
:101A100080000080808000010E3008060100808078
:101A20000080008080800F300C030C300F0000809D
:101A30008000808080000020312E0E3120008080C8
:101A400080000080808080818E70180601000080F8
:101A50008080808080000021302C22213000000016
:101A60000000807C020200000000003F40400000B7
:101A70000000FF00000000000000FF000000000266
:101A8000027C800000000040403F00000000008019
:101A900040408000008000000000000101000000C4
:101AA000000000000000002F0000000007000700F9
:101AB00000147F147F1400242A7F2A1200231308A5
:101AC0006462003649552250000000070000000003
:101AD0001C224100000041221C000014083E081492
:101AE0000008083E0808000000A060000008080880
:101AF0000808000060600000002010080402003E9A
:101B00005149453E0000427F400000426151494634
:101B1000002141454B31001814127F100027454524
:101B20004539003C4A494930000171090503003636
:101B30004949493600064949291E00003636000049
:101B4000000056360000000814224100001414144E
:101B50001414000041221408000201510906003E3D
:101B60004955592E007C1211127C007F4949493693
:101B7000003E41414122007F4141221C007F4949F2
:101B80004941007F09090901003E4149497A007F26
:101B90000808087F0000417F4100002040413F01CC
:101BA000007F08142241007F40404040007F020C2B
:101BB000027F007F0408107F003E4141413E007FCC
:101BC00009090906003E4151215E007F0919294695
:101BD0000046494949310001017F0101003F404071
:101BE000403F001F2040201F003F4038403F00631F
:101BF0001408146300070870080700615149454341
:101C000000007F4141000002040810200000414113
:101C10007F000004020102040040404040400000F8
:101C200001020400002054545478007F4844443892
:101C300000384444442000384444487F0038545419
:101C4000541800087E0901020018A4A4A47C007F97
:101C5000080404780000447D4000004080847D003A
:101C6000007F102844000000417F4000007C0418E1
:101C70000478007C0804047800384444443800FCAC
:101C8000242424180018242418FC007C08040408C8
:101C900000485454542000043F444020003C40403D
:101CA000207C001C2040201C003C4030403C004474
:101CB00028102844001CA0A0A07C004464544C447C
:101CC0000000087F41000000007F00000000417F0D
:101CD0000800000804081008F81C00080000002094
:101CE000100000002E140008081D0008100000203D
:101CF000900800003E1400080100000010000000E1
:081D00000000000000127A004F
:0400000508000131BD
:00000001FF
